{
  "_format": "hh-sol-artifact-1",
  "contractName": "DineroStrategy",
  "sourceName": "contracts/hyperstaking/strategies/DineroStrategy.sol",
  "abi": [
    {
      "inputs": [
        {
          "internalType": "address",
          "name": "diamond_",
          "type": "address"
        },
        {
          "internalType": "address",
          "name": "pxEth_",
          "type": "address"
        },
        {
          "internalType": "address",
          "name": "pirexEth_",
          "type": "address"
        },
        {
          "internalType": "address",
          "name": "autoPxEth_",
          "type": "address"
        }
      ],
      "stateMutability": "nonpayable",
      "type": "constructor"
    },
    {
      "inputs": [
        {
          "internalType": "address",
          "name": "target",
          "type": "address"
        }
      ],
      "name": "AddressEmptyCode",
      "type": "error"
    },
    {
      "inputs": [
        {
          "internalType": "address",
          "name": "account",
          "type": "address"
        }
      ],
      "name": "AddressInsufficientBalance",
      "type": "error"
    },
    {
      "inputs": [],
      "name": "BadAllocationValue",
      "type": "error"
    },
    {
      "inputs": [],
      "name": "FailedInnerCall",
      "type": "error"
    },
    {
      "inputs": [],
      "name": "NotLumiaDiamond",
      "type": "error"
    },
    {
      "inputs": [
        {
          "internalType": "address",
          "name": "token",
          "type": "address"
        }
      ],
      "name": "SafeERC20FailedOperation",
      "type": "error"
    },
    {
      "inputs": [],
      "name": "ZeroAddress",
      "type": "error"
    },
    {
      "inputs": [],
      "name": "ZeroAmount",
      "type": "error"
    },
    {
      "anonymous": false,
      "inputs": [
        {
          "indexed": true,
          "internalType": "address",
          "name": "user",
          "type": "address"
        },
        {
          "indexed": false,
          "internalType": "uint256",
          "name": "amount",
          "type": "uint256"
        },
        {
          "indexed": false,
          "internalType": "uint256",
          "name": "allocation",
          "type": "uint256"
        }
      ],
      "name": "Allocate",
      "type": "event"
    },
    {
      "anonymous": false,
      "inputs": [
        {
          "indexed": true,
          "internalType": "address",
          "name": "user",
          "type": "address"
        },
        {
          "indexed": false,
          "internalType": "uint256",
          "name": "shares",
          "type": "uint256"
        },
        {
          "indexed": false,
          "internalType": "uint256",
          "name": "exitAmount",
          "type": "uint256"
        }
      ],
      "name": "Exit",
      "type": "event"
    },
    {
      "anonymous": false,
      "inputs": [
        {
          "indexed": true,
          "internalType": "address",
          "name": "receiver",
          "type": "address"
        },
        {
          "indexed": false,
          "internalType": "uint256",
          "name": "ethDeposited",
          "type": "uint256"
        },
        {
          "indexed": false,
          "internalType": "uint256",
          "name": "postFeeAmount",
          "type": "uint256"
        },
        {
          "indexed": false,
          "internalType": "uint256",
          "name": "feeAmount",
          "type": "uint256"
        },
        {
          "indexed": false,
          "internalType": "uint256",
          "name": "apxEthReceived",
          "type": "uint256"
        }
      ],
      "name": "PirexDepositCompound",
      "type": "event"
    },
    {
      "anonymous": false,
      "inputs": [
        {
          "indexed": true,
          "internalType": "address",
          "name": "receiver",
          "type": "address"
        },
        {
          "indexed": false,
          "internalType": "uint256",
          "name": "shares",
          "type": "uint256"
        },
        {
          "indexed": false,
          "internalType": "uint256",
          "name": "apxEthReceived",
          "type": "uint256"
        },
        {
          "indexed": false,
          "internalType": "uint256",
          "name": "ethReceived",
          "type": "uint256"
        },
        {
          "indexed": false,
          "internalType": "uint256",
          "name": "feeAmount",
          "type": "uint256"
        }
      ],
      "name": "PirexInstantEthRedeem",
      "type": "event"
    },
    {
      "inputs": [],
      "name": "AUTO_PX_ETH",
      "outputs": [
        {
          "internalType": "address",
          "name": "",
          "type": "address"
        }
      ],
      "stateMutability": "view",
      "type": "function"
    },
    {
      "inputs": [],
      "name": "DIAMOND",
      "outputs": [
        {
          "internalType": "address",
          "name": "",
          "type": "address"
        }
      ],
      "stateMutability": "view",
      "type": "function"
    },
    {
      "inputs": [],
      "name": "PIREX_ETH",
      "outputs": [
        {
          "internalType": "address",
          "name": "",
          "type": "address"
        }
      ],
      "stateMutability": "view",
      "type": "function"
    },
    {
      "inputs": [],
      "name": "PX_ETH",
      "outputs": [
        {
          "internalType": "address",
          "name": "",
          "type": "address"
        }
      ],
      "stateMutability": "view",
      "type": "function"
    },
    {
      "inputs": [
        {
          "internalType": "uint256",
          "name": "amount_",
          "type": "uint256"
        },
        {
          "internalType": "address",
          "name": "user_",
          "type": "address"
        }
      ],
      "name": "allocate",
      "outputs": [
        {
          "internalType": "uint256",
          "name": "allocation",
          "type": "uint256"
        }
      ],
      "stateMutability": "payable",
      "type": "function"
    },
    {
      "inputs": [
        {
          "internalType": "address",
          "name": "receiver_",
          "type": "address"
        }
      ],
      "name": "depositCompound",
      "outputs": [
        {
          "internalType": "uint256",
          "name": "apxEthReceived",
          "type": "uint256"
        }
      ],
      "stateMutability": "payable",
      "type": "function"
    },
    {
      "inputs": [
        {
          "internalType": "uint256",
          "name": "shares_",
          "type": "uint256"
        },
        {
          "internalType": "address",
          "name": "user_",
          "type": "address"
        }
      ],
      "name": "exit",
      "outputs": [
        {
          "internalType": "uint256",
          "name": "exitAmount",
          "type": "uint256"
        }
      ],
      "stateMutability": "nonpayable",
      "type": "function"
    },
    {
      "inputs": [
        {
          "internalType": "uint256",
          "name": "shares_",
          "type": "uint256"
        },
        {
          "internalType": "address",
          "name": "receiver_",
          "type": "address"
        }
      ],
      "name": "redeem",
      "outputs": [
        {
          "internalType": "uint256",
          "name": "ethReceived",
          "type": "uint256"
        }
      ],
      "stateMutability": "nonpayable",
      "type": "function"
    }
  ],
  "bytecode": "0x61010060405234801561001157600080fd5b50604051610f1d380380610f1d833981016040819052610030916100ed565b8282826001600160a01b03831661005a5760405163d92e233d60e01b815260040160405180910390fd5b6001600160a01b0382166100815760405163d92e233d60e01b815260040160405180910390fd5b6001600160a01b0381166100a85760405163d92e233d60e01b815260040160405180910390fd5b6001600160a01b0392831660805290821660a052811660c0529390931660e05250610141915050565b80516001600160a01b03811681146100e857600080fd5b919050565b6000806000806080858703121561010357600080fd5b61010c856100d1565b935061011a602086016100d1565b9250610128604086016100d1565b9150610136606086016100d1565b905092959194509250565b60805160a05160c05160e051610d496101d4600039600081816092015281816101ee01528181610286015281816107090152818161075e015261080701526000818161019f01528181610264015281816103f90152818161053a015261079301526000818161016b0152818161036e015281816105e0015261062e01526000818161013701526105be0152610d496000f3fe60806040526004361061007b5760003560e01c80637dfc904b1161004e5780637dfc904b146101255780638331ae23146101595780639c804b7d1461018d578063cff40759146101c157600080fd5b8063206545c2146100805780633ea9f314146100d1578063717f5160146100f25780637bde82f214610105575b600080fd5b34801561008c57600080fd5b506100b47f000000000000000000000000000000000000000000000000000000000000000081565b6040516001600160a01b0390911681526020015b60405180910390f35b6100e46100df366004610c1d565b6101e1565b6040519081526020016100c8565b6100e4610100366004610c49565b6102f6565b34801561011157600080fd5b506100e4610120366004610c1d565b6104ca565b34801561013157600080fd5b506100b47f000000000000000000000000000000000000000000000000000000000000000081565b34801561016557600080fd5b506100b47f000000000000000000000000000000000000000000000000000000000000000081565b34801561019957600080fd5b506100b47f000000000000000000000000000000000000000000000000000000000000000081565b3480156101cd57600080fd5b506100e46101dc366004610c1d565b6106fc565b6000336001600160a01b037f0000000000000000000000000000000000000000000000000000000000000000161461022c5760405163a34ad82d60e01b815260040160405180910390fd5b34831461024c57604051630f6cca0760e11b815260040160405180910390fd5b610255306102f6565b90506102ab6001600160a01b037f0000000000000000000000000000000000000000000000000000000000000000167f00000000000000000000000000000000000000000000000000000000000000008361086f565b60408051848152602081018390526001600160a01b038416917fe2a6fbb55be829f7f41ce6980e5fc3057544b2788af2e168fbf7a3db02284e7b91015b60405180910390a292915050565b60006001600160a01b03821661031f5760405163d92e233d60e01b815260040160405180910390fd5b6000341161034057604051631f2a200560e01b815260040160405180910390fd5b604051632b725d0360e21b81526001600160a01b0383811660048301526001602483018190529160009182917f00000000000000000000000000000000000000000000000000000000000000009091169063adc9740c903490604401604080518083038185885af11580156103b9573d6000803e3d6000fd5b50505050506040513d601f19601f820116820180604052508101906103de9190610c64565b6040516363737ac960e11b81526004810183905291935091507f00000000000000000000000000000000000000000000000000000000000000006001600160a01b03169063c6e6f59290602401602060405180830381865afa158015610448573d6000803e3d6000fd5b505050506040513d601f19601f8201168201806040525081019061046c9190610c88565b6040805134815260208101859052908101839052606081018290529094506001600160a01b038616907f3c2a30b84be59a937888f65186436d24a1d2d51e622c8b32525684b94a3199229060800160405180910390a2505050919050565b60006001600160a01b0382166104f35760405163d92e233d60e01b815260040160405180910390fd5b6000831161051457604051631f2a200560e01b815260040160405180910390fd5b604051635d043b2960e11b815260048101849052306024820181905260448201526000907f00000000000000000000000000000000000000000000000000000000000000006001600160a01b03169063ba087652906064016020604051808303816000875af115801561058b573d6000803e3d6000fd5b505050506040513d601f19601f820116820180604052508101906105af9190610c88565b90506106056001600160a01b037f0000000000000000000000000000000000000000000000000000000000000000167f00000000000000000000000000000000000000000000000000000000000000008361086f565b60405163b4a2656960e01b8152600481018290526001600160a01b0384811660248301526000917f00000000000000000000000000000000000000000000000000000000000000009091169063b4a265699060440160408051808303816000875af1158015610678573d6000803e3d6000fd5b505050506040513d601f19601f8201168201806040525081019061069c9190610c64565b60408051888152602081018690529081018390526060810182905291945091506001600160a01b038516907fa03ed9b27f95bdaa2f07baf977296afa22dc578925d69dbf46889d20fd7677579060800160405180910390a2505092915050565b6000336001600160a01b037f000000000000000000000000000000000000000000000000000000000000000016146107475760405163a34ad82d60e01b815260040160405180910390fd5b6040516323b872dd60e01b81526001600160a01b037f000000000000000000000000000000000000000000000000000000000000000081166004830152306024830152604482018590527f000000000000000000000000000000000000000000000000000000000000000016906323b872dd906064016020604051808303816000875af11580156107dc573d6000803e3d6000fd5b505050506040513d601f19601f820116820180604052508101906108009190610ca1565b5061082b837f00000000000000000000000000000000000000000000000000000000000000006104ca565b60408051858152602081018390529192506001600160a01b038416917fbe0b6e5b3195df91f2e6b2b20501f84b085714f9e38073f499073c830565100991016102e8565b604051636eb1769f60e11b81523060048201526001600160a01b0383811660248301526000919085169063dd62ed3e90604401602060405180830381865afa1580156108bf573d6000803e3d6000fd5b505050506040513d601f19601f820116820180604052508101906108e39190610c88565b90506108f984846108f48585610cc3565b6108ff565b50505050565b604080516001600160a01b038416602482015260448082018490528251808303909101815260649091019091526020810180516001600160e01b031663095ea7b360e01b17905261095084826109b3565b6108f957604080516001600160a01b038516602482015260006044808301919091528251808303909101815260649091019091526020810180516001600160e01b031663095ea7b360e01b1790526109a9908590610a5d565b6108f98482610a5d565b6000806000846001600160a01b0316846040516109d09190610ce4565b6000604051808303816000865af19150503d8060008114610a0d576040519150601f19603f3d011682016040523d82523d6000602084013e610a12565b606091505b5091509150818015610a3c575080511580610a3c575080806020019051810190610a3c9190610ca1565b8015610a5257506000856001600160a01b03163b115b925050505b92915050565b6000610a726001600160a01b03841683610aca565b90508051600014158015610a97575080806020019051810190610a959190610ca1565b155b15610ac557604051635274afe760e01b81526001600160a01b03841660048201526024015b60405180910390fd5b505050565b6060610ad883836000610adf565b9392505050565b606081471015610b045760405163cd78605960e01b8152306004820152602401610abc565b600080856001600160a01b03168486604051610b209190610ce4565b60006040518083038185875af1925050503d8060008114610b5d576040519150601f19603f3d011682016040523d82523d6000602084013e610b62565b606091505b5091509150610b72868383610b7c565b9695505050505050565b606082610b9157610b8c82610bd8565b610ad8565b8151158015610ba857506001600160a01b0384163b155b15610bd157604051639996b31560e01b81526001600160a01b0385166004820152602401610abc565b5080610ad8565b805115610be85780518082602001fd5b604051630a12f52160e11b815260040160405180910390fd5b80356001600160a01b0381168114610c1857600080fd5b919050565b60008060408385031215610c3057600080fd5b82359150610c4060208401610c01565b90509250929050565b600060208284031215610c5b57600080fd5b610ad882610c01565b60008060408385031215610c7757600080fd5b505080516020909101519092909150565b600060208284031215610c9a57600080fd5b5051919050565b600060208284031215610cb357600080fd5b81518015158114610ad857600080fd5b80820180821115610a5757634e487b7160e01b600052601160045260246000fd5b6000825160005b81811015610d055760208186018101518583015201610ceb565b50600092019182525091905056fea2646970667358221220ab4582222c9c9b78b3aac2dc73be67237a0ebbe1adae0432b645afe507d0ba5664736f6c634300081b0033",
  "linkReferences": {},
  "deployedLinkReferences": {}
}