{
  "_format": "hh-sol-artifact-1",
  "contractName": "DineroStrategy",
  "sourceName": "contracts/hyperstaking/strategies/DineroStrategy.sol",
  "abi": [
    {
      "inputs": [
        {
          "internalType": "address",
          "name": "diamond_",
          "type": "address"
        },
        {
          "internalType": "address",
          "name": "pxEth_",
          "type": "address"
        },
        {
          "internalType": "address",
          "name": "pirexEth_",
          "type": "address"
        },
        {
          "internalType": "address",
          "name": "autoPxEth_",
          "type": "address"
        }
      ],
      "stateMutability": "nonpayable",
      "type": "constructor"
    },
    {
      "inputs": [
        {
          "internalType": "address",
          "name": "target",
          "type": "address"
        }
      ],
      "name": "AddressEmptyCode",
      "type": "error"
    },
    {
      "inputs": [
        {
          "internalType": "address",
          "name": "account",
          "type": "address"
        }
      ],
      "name": "AddressInsufficientBalance",
      "type": "error"
    },
    {
      "inputs": [],
      "name": "BadAllocationValue",
      "type": "error"
    },
    {
      "inputs": [],
      "name": "FailedInnerCall",
      "type": "error"
    },
    {
      "inputs": [],
      "name": "NotLumiaDiamond",
      "type": "error"
    },
    {
      "inputs": [
        {
          "internalType": "address",
          "name": "token",
          "type": "address"
        }
      ],
      "name": "SafeERC20FailedOperation",
      "type": "error"
    },
    {
      "inputs": [],
      "name": "ZeroAddress",
      "type": "error"
    },
    {
      "inputs": [],
      "name": "ZeroAmount",
      "type": "error"
    },
    {
      "anonymous": false,
      "inputs": [
        {
          "indexed": true,
          "internalType": "address",
          "name": "user",
          "type": "address"
        },
        {
          "indexed": false,
          "internalType": "uint256",
          "name": "stakeAmount",
          "type": "uint256"
        },
        {
          "indexed": false,
          "internalType": "uint256",
          "name": "assetAllocation",
          "type": "uint256"
        }
      ],
      "name": "Allocate",
      "type": "event"
    },
    {
      "anonymous": false,
      "inputs": [
        {
          "indexed": true,
          "internalType": "address",
          "name": "user",
          "type": "address"
        },
        {
          "indexed": false,
          "internalType": "uint256",
          "name": "assetAllocation",
          "type": "uint256"
        },
        {
          "indexed": false,
          "internalType": "uint256",
          "name": "exitAmount",
          "type": "uint256"
        }
      ],
      "name": "Exit",
      "type": "event"
    },
    {
      "anonymous": false,
      "inputs": [
        {
          "indexed": true,
          "internalType": "address",
          "name": "receiver",
          "type": "address"
        },
        {
          "indexed": false,
          "internalType": "uint256",
          "name": "ethDeposited",
          "type": "uint256"
        },
        {
          "indexed": false,
          "internalType": "uint256",
          "name": "postFeeAmount",
          "type": "uint256"
        },
        {
          "indexed": false,
          "internalType": "uint256",
          "name": "feeAmount",
          "type": "uint256"
        },
        {
          "indexed": false,
          "internalType": "uint256",
          "name": "apxEthReceived",
          "type": "uint256"
        }
      ],
      "name": "PirexDepositCompound",
      "type": "event"
    },
    {
      "anonymous": false,
      "inputs": [
        {
          "indexed": true,
          "internalType": "address",
          "name": "receiver",
          "type": "address"
        },
        {
          "indexed": false,
          "internalType": "uint256",
          "name": "shares",
          "type": "uint256"
        },
        {
          "indexed": false,
          "internalType": "uint256",
          "name": "apxEthReceived",
          "type": "uint256"
        },
        {
          "indexed": false,
          "internalType": "uint256",
          "name": "ethReceived",
          "type": "uint256"
        },
        {
          "indexed": false,
          "internalType": "uint256",
          "name": "feeAmount",
          "type": "uint256"
        }
      ],
      "name": "PirexInstantEthRedeem",
      "type": "event"
    },
    {
      "inputs": [],
      "name": "AUTO_PX_ETH",
      "outputs": [
        {
          "internalType": "address",
          "name": "",
          "type": "address"
        }
      ],
      "stateMutability": "view",
      "type": "function"
    },
    {
      "inputs": [],
      "name": "DIAMOND",
      "outputs": [
        {
          "internalType": "address",
          "name": "",
          "type": "address"
        }
      ],
      "stateMutability": "view",
      "type": "function"
    },
    {
      "inputs": [],
      "name": "PIREX_ETH",
      "outputs": [
        {
          "internalType": "address",
          "name": "",
          "type": "address"
        }
      ],
      "stateMutability": "view",
      "type": "function"
    },
    {
      "inputs": [],
      "name": "PX_ETH",
      "outputs": [
        {
          "internalType": "address",
          "name": "",
          "type": "address"
        }
      ],
      "stateMutability": "view",
      "type": "function"
    },
    {
      "inputs": [
        {
          "internalType": "uint256",
          "name": "amount_",
          "type": "uint256"
        },
        {
          "internalType": "address",
          "name": "user_",
          "type": "address"
        }
      ],
      "name": "allocate",
      "outputs": [
        {
          "internalType": "uint256",
          "name": "allocation",
          "type": "uint256"
        }
      ],
      "stateMutability": "payable",
      "type": "function"
    },
    {
      "inputs": [
        {
          "internalType": "uint256",
          "name": "stakeAmount_",
          "type": "uint256"
        }
      ],
      "name": "convertToAllocation",
      "outputs": [
        {
          "internalType": "uint256",
          "name": "",
          "type": "uint256"
        }
      ],
      "stateMutability": "view",
      "type": "function"
    },
    {
      "inputs": [
        {
          "internalType": "uint256",
          "name": "assetAllocation_",
          "type": "uint256"
        }
      ],
      "name": "convertToStake",
      "outputs": [
        {
          "internalType": "uint256",
          "name": "",
          "type": "uint256"
        }
      ],
      "stateMutability": "view",
      "type": "function"
    },
    {
      "inputs": [
        {
          "internalType": "address",
          "name": "receiver_",
          "type": "address"
        }
      ],
      "name": "depositCompound",
      "outputs": [
        {
          "internalType": "uint256",
          "name": "apxEthReceived",
          "type": "uint256"
        }
      ],
      "stateMutability": "payable",
      "type": "function"
    },
    {
      "inputs": [
        {
          "internalType": "uint256",
          "name": "shares_",
          "type": "uint256"
        },
        {
          "internalType": "address",
          "name": "user_",
          "type": "address"
        }
      ],
      "name": "exit",
      "outputs": [
        {
          "internalType": "uint256",
          "name": "exitAmount",
          "type": "uint256"
        }
      ],
      "stateMutability": "nonpayable",
      "type": "function"
    },
    {
      "inputs": [
        {
          "internalType": "uint256",
          "name": "shares_",
          "type": "uint256"
        },
        {
          "internalType": "address",
          "name": "receiver_",
          "type": "address"
        }
      ],
      "name": "redeem",
      "outputs": [
        {
          "internalType": "uint256",
          "name": "ethReceived",
          "type": "uint256"
        }
      ],
      "stateMutability": "nonpayable",
      "type": "function"
    }
  ],
  "bytecode": "0x61010060405234801561001157600080fd5b5060405161132e38038061132e833981016040819052610030916100ed565b8282826001600160a01b03831661005a5760405163d92e233d60e01b815260040160405180910390fd5b6001600160a01b0382166100815760405163d92e233d60e01b815260040160405180910390fd5b6001600160a01b0381166100a85760405163d92e233d60e01b815260040160405180910390fd5b6001600160a01b0392831660805290821660a052811660c0529390931660e05250610141915050565b80516001600160a01b03811681146100e857600080fd5b919050565b6000806000806080858703121561010357600080fd5b61010c856100d1565b935061011a602086016100d1565b9250610128604086016100d1565b9150610136606086016100d1565b905092959194509250565b60805160a05160c05160e05161114c6101e26000396000818160c8015281816102750152818161032601528181610771015281816107df01526108880152600081816101f50152818161030401528181610589015281816108140152818161093c0152610a9b0152600081816101c1015281816104320152818161062f015281816106960152610b5a01526000818161018d015261060d015261114c6000f3fe6080604052600436106100b15760003560e01c80637dfc904b116100695780639c804b7d1161004e5780639c804b7d146101e3578063cff4075914610217578063f150fc901461023757600080fd5b80637dfc904b1461017b5780638331ae23146101af57600080fd5b80633ea9f3141161009a5780633ea9f31414610135578063717f5160146101485780637bde82f21461015b57600080fd5b8063206545c2146100b6578063242ea67e14610107575b600080fd5b3480156100c257600080fd5b506100ea7f000000000000000000000000000000000000000000000000000000000000000081565b6040516001600160a01b0390911681526020015b60405180910390f35b34801561011357600080fd5b50610127610122366004610f49565b610257565b6040519081526020016100fe565b610127610143366004610f7e565b610268565b610127610156366004610faa565b610396565b34801561016757600080fd5b50610127610176366004610f7e565b610500565b34801561018757600080fd5b506100ea7f000000000000000000000000000000000000000000000000000000000000000081565b3480156101bb57600080fd5b506100ea7f000000000000000000000000000000000000000000000000000000000000000081565b3480156101ef57600080fd5b506100ea7f000000000000000000000000000000000000000000000000000000000000000081565b34801561022357600080fd5b50610127610232366004610f7e565b610764565b34801561024357600080fd5b50610127610252366004610f49565b6108f0565b6000610262826108fb565b92915050565b6000336001600160a01b037f000000000000000000000000000000000000000000000000000000000000000016146102b35760405163a34ad82d60e01b815260040160405180910390fd5b3483146102ec576040517f1ed9940e00000000000000000000000000000000000000000000000000000000815260040160405180910390fd5b6102f530610396565b905061034b6001600160a01b037f0000000000000000000000000000000000000000000000000000000000000000167f0000000000000000000000000000000000000000000000000000000000000000836109b6565b60408051848152602081018390526001600160a01b038416917fe2a6fbb55be829f7f41ce6980e5fc3057544b2788af2e168fbf7a3db02284e7b91015b60405180910390a292915050565b60006001600160a01b0382166103bf5760405163d92e233d60e01b815260040160405180910390fd5b600034116103e057604051631f2a200560e01b815260040160405180910390fd5b6103e9346108fb565b6040517fadc9740c0000000000000000000000000000000000000000000000000000000081526001600160a01b03848116600483015260016024830181905292935060009182917f0000000000000000000000000000000000000000000000000000000000000000169063adc9740c903490604401604080518083038185885af115801561047b573d6000803e3d6000fd5b50505050506040513d601f19601f820116820180604052508101906104a09190610fc5565b60408051348152602081018490529081018290526060810187905291935091506001600160a01b038616907f3c2a30b84be59a937888f65186436d24a1d2d51e622c8b32525684b94a3199229060800160405180910390a2505050919050565b60006001600160a01b0382166105295760405163d92e233d60e01b815260040160405180910390fd5b6000831161054a57604051631f2a200560e01b815260040160405180910390fd5b6040517fba08765200000000000000000000000000000000000000000000000000000000815260048101849052306024820181905260448201526000907f00000000000000000000000000000000000000000000000000000000000000006001600160a01b03169063ba087652906064016020604051808303816000875af11580156105da573d6000803e3d6000fd5b505050506040513d601f19601f820116820180604052508101906105fe9190610fe9565b90506106546001600160a01b037f0000000000000000000000000000000000000000000000000000000000000000167f0000000000000000000000000000000000000000000000000000000000000000836109b6565b6040517fb4a26569000000000000000000000000000000000000000000000000000000008152600481018290526001600160a01b0384811660248301526000917f00000000000000000000000000000000000000000000000000000000000000009091169063b4a265699060440160408051808303816000875af11580156106e0573d6000803e3d6000fd5b505050506040513d601f19601f820116820180604052508101906107049190610fc5565b60408051888152602081018690529081018390526060810182905291945091506001600160a01b038516907fa03ed9b27f95bdaa2f07baf977296afa22dc578925d69dbf46889d20fd7677579060800160405180910390a2505092915050565b6000336001600160a01b037f000000000000000000000000000000000000000000000000000000000000000016146107af5760405163a34ad82d60e01b815260040160405180910390fd5b6040517f23b872dd0000000000000000000000000000000000000000000000000000000081526001600160a01b037f000000000000000000000000000000000000000000000000000000000000000081166004830152306024830152604482018590527f000000000000000000000000000000000000000000000000000000000000000016906323b872dd906064016020604051808303816000875af115801561085d573d6000803e3d6000fd5b505050506040513d601f19601f820116820180604052508101906108819190611002565b506108ac837f0000000000000000000000000000000000000000000000000000000000000000610500565b60408051858152602081018390529192506001600160a01b038416917fbe0b6e5b3195df91f2e6b2b20501f84b085714f9e38073f499073c83056510099101610388565b600061026282610a5f565b600080610909600084610b1e565b506040517fef8b30f7000000000000000000000000000000000000000000000000000000008152600481018290529091507f00000000000000000000000000000000000000000000000000000000000000006001600160a01b03169063ef8b30f790602401602060405180830381865afa15801561098b573d6000803e3d6000fd5b505050506040513d601f19601f820116820180604052508101906109af9190610fe9565b9392505050565b6040517fdd62ed3e0000000000000000000000000000000000000000000000000000000081523060048201526001600160a01b0383811660248301526000919085169063dd62ed3e90604401602060405180830381865afa158015610a1f573d6000803e3d6000fd5b505050506040513d601f19601f82011682018060405250810190610a439190610fe9565b9050610a598484610a54858561103a565b610c04565b50505050565b6040517f4cdad5060000000000000000000000000000000000000000000000000000000081526004810182905260009081906001600160a01b037f00000000000000000000000000000000000000000000000000000000000000001690634cdad50690602401602060405180830381865afa158015610ae2573d6000803e3d6000fd5b505050506040513d601f19601f82011682018060405250810190610b069190610fe9565b90506000610b15600283610b1e565b50949350505050565b6040517f357c13540000000000000000000000000000000000000000000000000000000081526000908190620f42409082906001600160a01b037f0000000000000000000000000000000000000000000000000000000000000000169063357c135490610b8f90899060040161104d565b602060405180830381865afa158015610bac573d6000803e3d6000fd5b505050506040513d601f19601f82011682018060405250810190610bd09190611075565b905081610be363ffffffff83168761109b565b610bed91906110b2565b9250610bf983866110d4565b935050509250929050565b604080516001600160a01b038416602482015260448082018490528251808303909101815260649091019091526020810180517bffffffffffffffffffffffffffffffffffffffffffffffffffffffff1663095ea7b360e01b179052610c6a8482610ce2565b610a5957604080516001600160a01b038516602482015260006044808301919091528251808303909101815260649091019091526020810180517bffffffffffffffffffffffffffffffffffffffffffffffffffffffff1663095ea7b360e01b179052610cd8908590610d8a565b610a598482610d8a565b6000806000846001600160a01b031684604051610cff91906110e7565b6000604051808303816000865af19150503d8060008114610d3c576040519150601f19603f3d011682016040523d82523d6000602084013e610d41565b606091505b5091509150818015610d6b575080511580610d6b575080806020019051810190610d6b9190611002565b8015610d8157506000856001600160a01b03163b115b95945050505050565b6000610d9f6001600160a01b03841683610e10565b90508051600014158015610dc4575080806020019051810190610dc29190611002565b155b15610e0b576040517f5274afe70000000000000000000000000000000000000000000000000000000081526001600160a01b03841660048201526024015b60405180910390fd5b505050565b60606109af8383600084600080856001600160a01b03168486604051610e3691906110e7565b60006040518083038185875af1925050503d8060008114610e73576040519150601f19603f3d011682016040523d82523d6000602084013e610e78565b606091505b5091509150610e88868383610e92565b9695505050505050565b606082610ea757610ea282610f07565b6109af565b8151158015610ebe57506001600160a01b0384163b155b15610f00576040517f9996b3150000000000000000000000000000000000000000000000000000000081526001600160a01b0385166004820152602401610e02565b50806109af565b805115610f175780518082602001fd5b6040517f1425ea4200000000000000000000000000000000000000000000000000000000815260040160405180910390fd5b600060208284031215610f5b57600080fd5b5035919050565b80356001600160a01b0381168114610f7957600080fd5b919050565b60008060408385031215610f9157600080fd5b82359150610fa160208401610f62565b90509250929050565b600060208284031215610fbc57600080fd5b6109af82610f62565b60008060408385031215610fd857600080fd5b505080516020909101519092909150565b600060208284031215610ffb57600080fd5b5051919050565b60006020828403121561101457600080fd5b815180151581146109af57600080fd5b634e487b7160e01b600052601160045260246000fd5b8082018082111561026257610262611024565b602081016003831061106f57634e487b7160e01b600052602160045260246000fd5b91905290565b60006020828403121561108757600080fd5b815163ffffffff811681146109af57600080fd5b808202811582820484141761026257610262611024565b6000826110cf57634e487b7160e01b600052601260045260246000fd5b500490565b8181038181111561026257610262611024565b6000825160005b8181101561110857602081860181015185830152016110ee565b50600092019182525091905056fea26469706673582212208720161ff2030ed9e50a298fd6c6f4c74c3de0d38adc2b7a0cd9ad193b4e818e64736f6c634300081b0033",
  "linkReferences": {},
  "deployedLinkReferences": {}
}