{
  "_format": "hh-sol-artifact-1",
  "contractName": "Tier2VaultFacet",
  "sourceName": "contracts/hyperstaking/facets/Tier2VaultFacet.sol",
  "abi": [
    {
      "inputs": [],
      "name": "AccessControlBadConfirmation",
      "type": "error"
    },
    {
      "inputs": [
        {
          "internalType": "address",
          "name": "account",
          "type": "address"
        },
        {
          "internalType": "bytes32",
          "name": "neededRole",
          "type": "bytes32"
        }
      ],
      "name": "AccessControlUnauthorizedAccount",
      "type": "error"
    },
    {
      "inputs": [
        {
          "internalType": "address",
          "name": "target",
          "type": "address"
        }
      ],
      "name": "AddressEmptyCode",
      "type": "error"
    },
    {
      "inputs": [
        {
          "internalType": "address",
          "name": "account",
          "type": "address"
        }
      ],
      "name": "AddressInsufficientBalance",
      "type": "error"
    },
    {
      "inputs": [],
      "name": "FailedInnerCall",
      "type": "error"
    },
    {
      "inputs": [],
      "name": "InvalidInitialization",
      "type": "error"
    },
    {
      "inputs": [],
      "name": "NotInitializing",
      "type": "error"
    },
    {
      "inputs": [],
      "name": "NotVaultToken",
      "type": "error"
    },
    {
      "inputs": [],
      "name": "OnlyDiamondInternal",
      "type": "error"
    },
    {
      "inputs": [],
      "name": "OnlyRewardsManager",
      "type": "error"
    },
    {
      "inputs": [],
      "name": "OnlyStakingManager",
      "type": "error"
    },
    {
      "inputs": [],
      "name": "OnlyStrategyVaultManager",
      "type": "error"
    },
    {
      "inputs": [],
      "name": "ReentrancyGuardReentrantCall",
      "type": "error"
    },
    {
      "inputs": [
        {
          "internalType": "address",
          "name": "token",
          "type": "address"
        }
      ],
      "name": "SafeERC20FailedOperation",
      "type": "error"
    },
    {
      "anonymous": false,
      "inputs": [
        {
          "indexed": false,
          "internalType": "uint64",
          "name": "version",
          "type": "uint64"
        }
      ],
      "name": "Initialized",
      "type": "event"
    },
    {
      "anonymous": false,
      "inputs": [
        {
          "indexed": true,
          "internalType": "bytes32",
          "name": "role",
          "type": "bytes32"
        },
        {
          "indexed": true,
          "internalType": "bytes32",
          "name": "previousAdminRole",
          "type": "bytes32"
        },
        {
          "indexed": true,
          "internalType": "bytes32",
          "name": "newAdminRole",
          "type": "bytes32"
        }
      ],
      "name": "RoleAdminChanged",
      "type": "event"
    },
    {
      "anonymous": false,
      "inputs": [
        {
          "indexed": true,
          "internalType": "bytes32",
          "name": "role",
          "type": "bytes32"
        },
        {
          "indexed": true,
          "internalType": "address",
          "name": "account",
          "type": "address"
        },
        {
          "indexed": true,
          "internalType": "address",
          "name": "sender",
          "type": "address"
        }
      ],
      "name": "RoleGranted",
      "type": "event"
    },
    {
      "anonymous": false,
      "inputs": [
        {
          "indexed": true,
          "internalType": "bytes32",
          "name": "role",
          "type": "bytes32"
        },
        {
          "indexed": true,
          "internalType": "address",
          "name": "account",
          "type": "address"
        },
        {
          "indexed": true,
          "internalType": "address",
          "name": "sender",
          "type": "address"
        }
      ],
      "name": "RoleRevoked",
      "type": "event"
    },
    {
      "anonymous": false,
      "inputs": [
        {
          "indexed": true,
          "internalType": "address",
          "name": "strategy",
          "type": "address"
        },
        {
          "indexed": true,
          "internalType": "address",
          "name": "user",
          "type": "address"
        },
        {
          "indexed": false,
          "internalType": "uint256",
          "name": "allocation",
          "type": "uint256"
        }
      ],
      "name": "Tier2Join",
      "type": "event"
    },
    {
      "anonymous": false,
      "inputs": [
        {
          "indexed": true,
          "internalType": "address",
          "name": "strategy",
          "type": "address"
        },
        {
          "indexed": true,
          "internalType": "address",
          "name": "user",
          "type": "address"
        },
        {
          "indexed": false,
          "internalType": "uint256",
          "name": "stake",
          "type": "uint256"
        },
        {
          "indexed": false,
          "internalType": "uint256",
          "name": "allocation",
          "type": "uint256"
        }
      ],
      "name": "Tier2Leave",
      "type": "event"
    },
    {
      "inputs": [],
      "name": "DEFAULT_ADMIN_ROLE",
      "outputs": [
        {
          "internalType": "bytes32",
          "name": "",
          "type": "bytes32"
        }
      ],
      "stateMutability": "view",
      "type": "function"
    },
    {
      "inputs": [],
      "name": "REWARDS_MANAGER_ROLE",
      "outputs": [
        {
          "internalType": "bytes32",
          "name": "",
          "type": "bytes32"
        }
      ],
      "stateMutability": "view",
      "type": "function"
    },
    {
      "inputs": [],
      "name": "STAKING_MANAGER_ROLE",
      "outputs": [
        {
          "internalType": "bytes32",
          "name": "",
          "type": "bytes32"
        }
      ],
      "stateMutability": "view",
      "type": "function"
    },
    {
      "inputs": [],
      "name": "STRATEGY_VAULT_MANAGER_ROLE",
      "outputs": [
        {
          "internalType": "bytes32",
          "name": "",
          "type": "bytes32"
        }
      ],
      "stateMutability": "view",
      "type": "function"
    },
    {
      "inputs": [
        {
          "internalType": "bytes32",
          "name": "role",
          "type": "bytes32"
        }
      ],
      "name": "getRoleAdmin",
      "outputs": [
        {
          "internalType": "bytes32",
          "name": "",
          "type": "bytes32"
        }
      ],
      "stateMutability": "view",
      "type": "function"
    },
    {
      "inputs": [
        {
          "internalType": "bytes32",
          "name": "role",
          "type": "bytes32"
        },
        {
          "internalType": "uint256",
          "name": "index",
          "type": "uint256"
        }
      ],
      "name": "getRoleMember",
      "outputs": [
        {
          "internalType": "address",
          "name": "",
          "type": "address"
        }
      ],
      "stateMutability": "view",
      "type": "function"
    },
    {
      "inputs": [
        {
          "internalType": "bytes32",
          "name": "role",
          "type": "bytes32"
        }
      ],
      "name": "getRoleMemberCount",
      "outputs": [
        {
          "internalType": "uint256",
          "name": "",
          "type": "uint256"
        }
      ],
      "stateMutability": "view",
      "type": "function"
    },
    {
      "inputs": [
        {
          "internalType": "bytes32",
          "name": "role",
          "type": "bytes32"
        },
        {
          "internalType": "address",
          "name": "account",
          "type": "address"
        }
      ],
      "name": "grantRole",
      "outputs": [],
      "stateMutability": "nonpayable",
      "type": "function"
    },
    {
      "inputs": [
        {
          "internalType": "bytes32",
          "name": "role",
          "type": "bytes32"
        },
        {
          "internalType": "address",
          "name": "account",
          "type": "address"
        }
      ],
      "name": "hasRole",
      "outputs": [
        {
          "internalType": "bool",
          "name": "",
          "type": "bool"
        }
      ],
      "stateMutability": "view",
      "type": "function"
    },
    {
      "inputs": [
        {
          "internalType": "address",
          "name": "strategy",
          "type": "address"
        },
        {
          "internalType": "address",
          "name": "user",
          "type": "address"
        },
        {
          "internalType": "uint256",
          "name": "stake",
          "type": "uint256"
        }
      ],
      "name": "joinTier2",
      "outputs": [],
      "stateMutability": "payable",
      "type": "function"
    },
    {
      "inputs": [
        {
          "internalType": "address",
          "name": "strategy",
          "type": "address"
        },
        {
          "internalType": "address",
          "name": "user",
          "type": "address"
        },
        {
          "internalType": "uint256",
          "name": "allocation",
          "type": "uint256"
        }
      ],
      "name": "joinTier2WithAllocation",
      "outputs": [],
      "stateMutability": "nonpayable",
      "type": "function"
    },
    {
      "inputs": [
        {
          "internalType": "address",
          "name": "strategy",
          "type": "address"
        },
        {
          "internalType": "address",
          "name": "user",
          "type": "address"
        },
        {
          "internalType": "uint256",
          "name": "allocation",
          "type": "uint256"
        }
      ],
      "name": "leaveTier2",
      "outputs": [
        {
          "internalType": "uint256",
          "name": "withdrawAmount",
          "type": "uint256"
        }
      ],
      "stateMutability": "nonpayable",
      "type": "function"
    },
    {
      "inputs": [
        {
          "internalType": "bytes32",
          "name": "role",
          "type": "bytes32"
        },
        {
          "internalType": "address",
          "name": "callerConfirmation",
          "type": "address"
        }
      ],
      "name": "renounceRole",
      "outputs": [],
      "stateMutability": "nonpayable",
      "type": "function"
    },
    {
      "inputs": [
        {
          "internalType": "bytes32",
          "name": "role",
          "type": "bytes32"
        },
        {
          "internalType": "address",
          "name": "account",
          "type": "address"
        }
      ],
      "name": "revokeRole",
      "outputs": [],
      "stateMutability": "nonpayable",
      "type": "function"
    },
    {
      "inputs": [
        {
          "internalType": "bytes4",
          "name": "interfaceId",
          "type": "bytes4"
        }
      ],
      "name": "supportsInterface",
      "outputs": [
        {
          "internalType": "bool",
          "name": "",
          "type": "bool"
        }
      ],
      "stateMutability": "view",
      "type": "function"
    },
    {
      "inputs": [
        {
          "internalType": "address",
          "name": "strategy",
          "type": "address"
        },
        {
          "internalType": "address",
          "name": "user",
          "type": "address"
        }
      ],
      "name": "userTier2Info",
      "outputs": [
        {
          "components": [
            {
              "internalType": "uint256",
              "name": "shares",
              "type": "uint256"
            },
            {
              "internalType": "uint256",
              "name": "allocation",
              "type": "uint256"
            },
            {
              "internalType": "uint256",
              "name": "stake",
              "type": "uint256"
            }
          ],
          "internalType": "struct UserTier2Info",
          "name": "",
          "type": "tuple"
        }
      ],
      "stateMutability": "view",
      "type": "function"
    },
    {
      "inputs": [
        {
          "internalType": "address",
          "name": "strategy",
          "type": "address"
        }
      ],
      "name": "vaultTier2Info",
      "outputs": [
        {
          "components": [
            {
              "internalType": "contract IERC4626",
              "name": "vaultToken",
              "type": "address"
            }
          ],
          "internalType": "struct VaultTier2",
          "name": "",
          "type": "tuple"
        }
      ],
      "stateMutability": "view",
      "type": "function"
    }
  ],
  "bytecode": "0x6080604052348015600f57600080fd5b50611d4f8061001f6000396000f3fe60806040526004361061010e5760003560e01c80639010d07c116100a5578063ca15c87311610074578063da83cb3c11610059578063da83cb3c14610420578063e0dd245714610440578063eec5855c1461047457600080fd5b8063ca15c873146103e0578063d547741f1461040057600080fd5b80639010d07c146102a457806391d14854146102dc578063a217fddf14610341578063c67f5edb1461035657600080fd5b80633937c0b3116100e15780633937c0b3146101e757806354e5b30f1461021b5780635c45a2be1461022e578063777292e81461027057600080fd5b806301ffc9a714610113578063248a9ca3146101485780632f2ff15d146101a557806336568abe146101c7575b600080fd5b34801561011f57600080fd5b5061013361012e366004611b18565b610494565b60405190151581526020015b60405180910390f35b34801561015457600080fd5b50610197610163366004611b42565b60009081527f02dd7bc7dec4dceedda775e58dd541e08a116c6c53815c0bd028192f7b626800602052604090206001015490565b60405190815260200161013f565b3480156101b157600080fd5b506101c56101c0366004611b77565b6104d8565b005b3480156101d357600080fd5b506101c56101e2366004611b77565b610522565b3480156101f357600080fd5b506101977fa6b5d83d32632203555cb9b2c2f68a8d94da48cadd9266ac0d17babedb52ea5b81565b6101c5610229366004611ba3565b610573565b34801561023a57600080fd5b5061024e610249366004611be0565b61089f565b604080518251815260208084015190820152918101519082015260600161013f565b34801561027c57600080fd5b506101977f2c0ada6e921ab1da9a99807ca4df2ed1b7eff32704ad00ff79908b8054c8107d81565b3480156102b057600080fd5b506102c46102bf366004611c0a565b610abc565b6040516001600160a01b03909116815260200161013f565b3480156102e857600080fd5b506101336102f7366004611b77565b60009182527f02dd7bc7dec4dceedda775e58dd541e08a116c6c53815c0bd028192f7b626800602090815260408084206001600160a01b0393909316845291905290205460ff1690565b34801561034d57600080fd5b50610197600081565b34801561036257600080fd5b506103c8610371366004611c2c565b60408051602080820183526000918290526001600160a01b0393841682527fbe4ff07067d4fd4ee08dc2d2f96a40cbf5630eafbe74b02fa78478a77722668881529082902082519182019092529054909116815290565b60405190516001600160a01b0316815260200161013f565b3480156103ec57600080fd5b506101976103fb366004611b42565b610afd565b34801561040c57600080fd5b506101c561041b366004611b77565b610b3c565b34801561042c57600080fd5b506101c561043b366004611ba3565b610b80565b34801561044c57600080fd5b506101977f51785d261c3b3e8c2cfe2d0e108b9ab2b1fb703ff9e9e49aba4ebdc85c36152b81565b34801561048057600080fd5b5061019761048f366004611ba3565b610d06565b60006001600160e01b031982167f5a05180f0000000000000000000000000000000000000000000000000000000014806104d257506104d282610fb4565b92915050565b60008281527f02dd7bc7dec4dceedda775e58dd541e08a116c6c53815c0bd028192f7b62680060205260409020600101546105128161101b565b61051c8383611028565b50505050565b6001600160a01b0381163314610564576040517f6697b23200000000000000000000000000000000000000000000000000000000815260040160405180910390fd5b61056e828261107f565b505050565b3330146105935760405163d248bf1560e01b815260040160405180910390fd5b6001600160a01b0383811660009081527fbe4ff07067d4fd4ee08dc2d2f96a40cbf5630eafbe74b02fa78478a777226686602090815260408083207fbe4ff07067d4fd4ee08dc2d2f96a40cbf5630eafbe74b02fa78478a7772266888352818420815485527f34b634470e29e36048aab5cc5a64c34b2eced30149e0fdca374a6ec67d2dfdf3845282852083519485019093526001830154909516928390527fbe4ff07067d4fd4ee08dc2d2f96a40cbf5630eafbe74b02fa78478a77722668594909390927f34b634470e29e36048aab5cc5a64c34b2eced30149e0fdca374a6ec67d2dfdf29291906106fc57604051630faa7cc560e21b8152600481018890526001600160a01b0389811660248301528a1690633ea9f31490899060440160206040518083038185885af11580156106d0573d6000803e3d6000fd5b50505050506040513d601f19601f820116820180604052508101906106f59190611c47565b9050610798565b604080516020810190915260018301546001600160a01b03168152610722908a896110cd565b604051630faa7cc560e21b8152600481018890526001600160a01b0389811660248301528a1690633ea9f314906044016020604051808303816000875af1158015610771573d6000803e3d6000fd5b505050506040513d601f19601f820116820180604052508101906107959190611c47565b90505b60028501546107b2906001600160a01b03168a30846111c4565b835460028601546107d0916001600160a01b03918216911683611240565b8354604051636e553f6560e01b8152600481018390526001600160a01b038a8116602483015290911690636e553f65906044016020604051808303816000875af1158015610822573d6000803e3d6000fd5b505050506040513d601f19601f820116820180604052508101906108469190611c47565b50876001600160a01b0316896001600160a01b03167fbec91cda45a9fb9917580471aad90196a62750e757272b790d992055b74c93e08360405161088c91815260200190565b60405180910390a3505050505050505050565b6108c360405180606001604052806000815260200160008152602001600081525090565b60007fbe4ff07067d4fd4ee08dc2d2f96a40cbf5630eafbe74b02fa78478a7772266856001600160a01b038581166000908152600383016020526040808220805491517f70a08231000000000000000000000000000000000000000000000000000000008152888516600482015294955093919216906370a0823190602401602060405180830381865afa15801561095f573d6000803e3d6000fd5b505050506040513d601f19601f820116820180604052508101906109839190611c47565b82546040517f07a2d13a000000000000000000000000000000000000000000000000000000008152600481018390529192506000916001600160a01b03909116906307a2d13a90602401602060405180830381865afa1580156109ea573d6000803e3d6000fd5b505050506040513d601f19601f82011682018060405250810190610a0e9190611c47565b6040517ff150fc90000000000000000000000000000000000000000000000000000000008152600481018290529091506000906001600160a01b0389169063f150fc9090602401602060405180830381865afa158015610a72573d6000803e3d6000fd5b505050506040513d601f19601f82011682018060405250810190610a969190611c47565b604080516060810182529485526020850193909352918301919091525095945050505050565b60008281527fc1f6fe24621ce81ec5827caf0253cadb74709b061630e6b55e82371705932000602081905260408220610af590846112e3565b949350505050565b60008181527fc1f6fe24621ce81ec5827caf0253cadb74709b061630e6b55e82371705932000602081905260408220610b35906112ef565b9392505050565b60008281527f02dd7bc7dec4dceedda775e58dd541e08a116c6c53815c0bd028192f7b6268006020526040902060010154610b768161101b565b61051c838361107f565b333014610ba05760405163d248bf1560e01b815260040160405180910390fd5b6001600160a01b0383811660009081527fbe4ff07067d4fd4ee08dc2d2f96a40cbf5630eafbe74b02fa78478a777226686602090815260408083207fbe4ff07067d4fd4ee08dc2d2f96a40cbf5630eafbe74b02fa78478a777226688909252909120805460028301547fbe4ff07067d4fd4ee08dc2d2f96a40cbf5630eafbe74b02fa78478a77722668594610c3a92918116911686611240565b8054604051636e553f6560e01b8152600481018690526001600160a01b03878116602483015290911690636e553f65906044016020604051808303816000875af1158015610c8c573d6000803e3d6000fd5b505050506040513d601f19601f82011682018060405250810190610cb09190611c47565b50846001600160a01b0316866001600160a01b03167fbec91cda45a9fb9917580471aad90196a62750e757272b790d992055b74c93e086604051610cf691815260200190565b60405180910390a3505050505050565b6001600160a01b0383811660009081527fbe4ff07067d4fd4ee08dc2d2f96a40cbf5630eafbe74b02fa78478a777226688602052604081208054919286927fbe4ff07067d4fd4ee08dc2d2f96a40cbf5630eafbe74b02fa78478a7772266859291163314610da0576040517f2b4a00b100000000000000000000000000000000000000000000000000000000815260040160405180910390fd5b6001600160a01b0387811660009081527fbe4ff07067d4fd4ee08dc2d2f96a40cbf5630eafbe74b02fa78478a777226686602090815260408083207fbe4ff07067d4fd4ee08dc2d2f96a40cbf5630eafbe74b02fa78478a7772266888352818420815485527f34b634470e29e36048aab5cc5a64c34b2eced30149e0fdca374a6ec67d2dfdf3845293829020825193840190925260019091015484168252825460028201547fbe4ff07067d4fd4ee08dc2d2f96a40cbf5630eafbe74b02fa78478a777226685959294937f34b634470e29e36048aab5cc5a64c34b2eced30149e0fdca374a6ec67d2dfdf2939092610e9d9282169116308d6111c4565b6002840154610eb6906001600160a01b03168d8c611240565b6040517fcff40759000000000000000000000000000000000000000000000000000000008152600481018b90526001600160a01b038c811660248301528d169063cff40759906044016020604051808303816000875af1158015610f1e573d6000803e3d6000fd5b505050506040513d601f19601f82011682018060405250810190610f429190611c47565b9850610f4f818c8b6112f9565b8a6001600160a01b03168c6001600160a01b03167f48ea943b94fd29c9bd24a8b3825b97f8cc96ff618fd5d9a5837825bad6a2a1d98b8d604051610f9d929190918252602082015260400190565b60405180910390a350505050505050509392505050565b60006001600160e01b031982167f7965db0b0000000000000000000000000000000000000000000000000000000014806104d257507f01ffc9a7000000000000000000000000000000000000000000000000000000006001600160e01b03198316146104d2565b6110258133611411565b50565b60007fc1f6fe24621ce81ec5827caf0253cadb74709b061630e6b55e823717059320008161105685856114a2565b90508015610af55760008581526020839052604090206110769085611571565b50949350505050565b60007fc1f6fe24621ce81ec5827caf0253cadb74709b061630e6b55e82371705932000816110ad8585611586565b90508015610af5576000858152602083905260409020611076908561162c565b82516001600160a01b031661114e5760405162461bcd60e51b8152602060048201526024808201527f417070726f7665206e6f7420616c6c6f77656420666f72206e6174697665206360448201527f6f696e730000000000000000000000000000000000000000000000000000000060648201526084015b60405180910390fd5b825160405163095ea7b360e01b81526001600160a01b038481166004830152602482018490529091169063095ea7b3906044016020604051808303816000875af11580156111a0573d6000803e3d6000fd5b505050506040513d601f19601f8201168201806040525081019061051c9190611c60565b6040516001600160a01b03848116602483015283811660448301526064820183905261051c9186918216906323b872dd906084015b604051602081830303815290604052915060e01b6020820180517bffffffffffffffffffffffffffffffffffffffffffffffffffffffff8381831617835250505050611641565b6040517fdd62ed3e0000000000000000000000000000000000000000000000000000000081523060048201526001600160a01b0383811660248301526000919085169063dd62ed3e90604401602060405180830381865afa1580156112a9573d6000803e3d6000fd5b505050506040513d601f19601f820116820180604052508101906112cd9190611c47565b905061051c84846112de8585611c98565b6116bd565b6000610b358383611762565b60006104d2825490565b82516001600160a01b03166113fb57804710156113585760405162461bcd60e51b815260206004820152601d60248201527f5472616e7366657220696e73756666696369656e742062616c616e63650000006044820152606401611145565b6000826001600160a01b03168260405160006040518083038185875af1925050503d80600081146113a5576040519150601f19603f3d011682016040523d82523d6000602084013e6113aa565b606091505b505090508061051c5760405162461bcd60e51b815260206004820152601460248201527f5472616e736665722063616c6c206661696c65640000000000000000000000006044820152606401611145565b825161056e906001600160a01b0316838361178c565b60008281527f02dd7bc7dec4dceedda775e58dd541e08a116c6c53815c0bd028192f7b626800602090815260408083206001600160a01b038516845290915290205460ff1661149e576040517fe2517d3f0000000000000000000000000000000000000000000000000000000081526001600160a01b038216600482015260248101839052604401611145565b5050565b60008281527f02dd7bc7dec4dceedda775e58dd541e08a116c6c53815c0bd028192f7b626800602081815260408084206001600160a01b038616855290915282205460ff16611567576000848152602082815260408083206001600160a01b03871684529091529020805460ff1916600117905561151d3390565b6001600160a01b0316836001600160a01b0316857f2f8788117e7eff1d82e926ec794901d17c78024a50270940304540a733656f0d60405160405180910390a460019150506104d2565b60009150506104d2565b6000610b35836001600160a01b0384166117bd565b60008281527f02dd7bc7dec4dceedda775e58dd541e08a116c6c53815c0bd028192f7b626800602081815260408084206001600160a01b038616855290915282205460ff1615611567576000848152602082815260408083206001600160a01b0387168085529252808320805460ff1916905551339287917ff6391f5c32d9c69d2a47ea670b442974b53935d1edc7fd64eb21e047a839171b9190a460019150506104d2565b6000610b35836001600160a01b03841661180c565b60006116566001600160a01b038416836118f5565b9050805160001415801561167b5750808060200190518101906116799190611c60565b155b1561056e576040517f5274afe70000000000000000000000000000000000000000000000000000000081526001600160a01b0384166004820152602401611145565b604080516001600160a01b038416602482015260448082018490528251808303909101815260649091019091526020810180517bffffffffffffffffffffffffffffffffffffffffffffffffffffffff1663095ea7b360e01b1790526117238482611903565b61051c576040516001600160a01b0384811660248301526000604483015261175891869182169063095ea7b3906064016111f9565b61051c8482611641565b600082600001828154811061177957611779611cab565b9060005260206000200154905092915050565b6040516001600160a01b0383811660248301526044820183905261056e91859182169063a9059cbb906064016111f9565b6000818152600183016020526040812054611804575081546001818101845560008481526020808220909301849055845484825282860190935260409020919091556104d2565b5060006104d2565b60008181526001830160205260408120548015611567576000611830600183611cc1565b855490915060009061184490600190611cc1565b90508082146118a957600086600001828154811061186457611864611cab565b906000526020600020015490508087600001848154811061188757611887611cab565b6000918252602080832090910192909255918252600188019052604090208390555b85548690806118ba576118ba611cd4565b6001900381819060005260206000200160009055905585600101600086815260200190815260200160002060009055600193505050506104d2565b6060610b35838360006119ab565b6000806000846001600160a01b0316846040516119209190611cea565b6000604051808303816000865af19150503d806000811461195d576040519150601f19603f3d011682016040523d82523d6000602084013e611962565b606091505b509150915081801561198c57508051158061198c57508080602001905181019061198c9190611c60565b80156119a257506000856001600160a01b03163b115b95945050505050565b6060814710156119e9576040517fcd786059000000000000000000000000000000000000000000000000000000008152306004820152602401611145565b600080856001600160a01b03168486604051611a059190611cea565b60006040518083038185875af1925050503d8060008114611a42576040519150601f19603f3d011682016040523d82523d6000602084013e611a47565b606091505b5091509150611a57868383611a61565b9695505050505050565b606082611a7657611a7182611ad6565b610b35565b8151158015611a8d57506001600160a01b0384163b155b15611acf576040517f9996b3150000000000000000000000000000000000000000000000000000000081526001600160a01b0385166004820152602401611145565b5080610b35565b805115611ae65780518082602001fd5b6040517f1425ea4200000000000000000000000000000000000000000000000000000000815260040160405180910390fd5b600060208284031215611b2a57600080fd5b81356001600160e01b031981168114610b3557600080fd5b600060208284031215611b5457600080fd5b5035919050565b80356001600160a01b0381168114611b7257600080fd5b919050565b60008060408385031215611b8a57600080fd5b82359150611b9a60208401611b5b565b90509250929050565b600080600060608486031215611bb857600080fd5b611bc184611b5b565b9250611bcf60208501611b5b565b929592945050506040919091013590565b60008060408385031215611bf357600080fd5b611bfc83611b5b565b9150611b9a60208401611b5b565b60008060408385031215611c1d57600080fd5b50508035926020909101359150565b600060208284031215611c3e57600080fd5b610b3582611b5b565b600060208284031215611c5957600080fd5b5051919050565b600060208284031215611c7257600080fd5b81518015158114610b3557600080fd5b634e487b7160e01b600052601160045260246000fd5b808201808211156104d2576104d2611c82565b634e487b7160e01b600052603260045260246000fd5b818103818111156104d2576104d2611c82565b634e487b7160e01b600052603160045260246000fd5b6000825160005b81811015611d0b5760208186018101518583015201611cf1565b50600092019182525091905056fea26469706673582212200e450857c2c9cb0c36f684e9e1329c4211d6027e8a188d709d96f3afcb9fa5c764736f6c634300081b0033",
  "linkReferences": {},
  "deployedLinkReferences": {}
}