{
  "_format": "hh-sol-artifact-1",
  "contractName": "StakingFacet",
  "sourceName": "contracts/hyperstaking/facets/StakingFacet.sol",
  "abi": [
    {
      "inputs": [],
      "name": "AccessControlBadConfirmation",
      "type": "error"
    },
    {
      "inputs": [
        {
          "internalType": "address",
          "name": "account",
          "type": "address"
        },
        {
          "internalType": "bytes32",
          "name": "neededRole",
          "type": "bytes32"
        }
      ],
      "name": "AccessControlUnauthorizedAccount",
      "type": "error"
    },
    {
      "inputs": [
        {
          "internalType": "address",
          "name": "target",
          "type": "address"
        }
      ],
      "name": "AddressEmptyCode",
      "type": "error"
    },
    {
      "inputs": [
        {
          "internalType": "address",
          "name": "account",
          "type": "address"
        }
      ],
      "name": "AddressInsufficientBalance",
      "type": "error"
    },
    {
      "inputs": [],
      "name": "BadCurrencyDecimals",
      "type": "error"
    },
    {
      "inputs": [],
      "name": "EnforcedPause",
      "type": "error"
    },
    {
      "inputs": [],
      "name": "ExpectedPause",
      "type": "error"
    },
    {
      "inputs": [],
      "name": "FailedInnerCall",
      "type": "error"
    },
    {
      "inputs": [],
      "name": "InvalidInitialization",
      "type": "error"
    },
    {
      "inputs": [],
      "name": "NotInitializing",
      "type": "error"
    },
    {
      "inputs": [],
      "name": "OnlyDiamondInternal",
      "type": "error"
    },
    {
      "inputs": [],
      "name": "OnlyRewardsManager",
      "type": "error"
    },
    {
      "inputs": [],
      "name": "OnlyStakingManager",
      "type": "error"
    },
    {
      "inputs": [],
      "name": "OnlyStrategyVaultManager",
      "type": "error"
    },
    {
      "inputs": [],
      "name": "PoolDoesNotExist",
      "type": "error"
    },
    {
      "inputs": [],
      "name": "ReentrancyGuardReentrantCall",
      "type": "error"
    },
    {
      "inputs": [
        {
          "internalType": "address",
          "name": "token",
          "type": "address"
        }
      ],
      "name": "SafeERC20FailedOperation",
      "type": "error"
    },
    {
      "inputs": [],
      "name": "VaultDoesNotExist",
      "type": "error"
    },
    {
      "anonymous": false,
      "inputs": [
        {
          "indexed": false,
          "internalType": "uint64",
          "name": "version",
          "type": "uint64"
        }
      ],
      "name": "Initialized",
      "type": "event"
    },
    {
      "anonymous": false,
      "inputs": [
        {
          "indexed": false,
          "internalType": "address",
          "name": "account",
          "type": "address"
        }
      ],
      "name": "Paused",
      "type": "event"
    },
    {
      "anonymous": false,
      "inputs": [
        {
          "indexed": true,
          "internalType": "bytes32",
          "name": "role",
          "type": "bytes32"
        },
        {
          "indexed": true,
          "internalType": "bytes32",
          "name": "previousAdminRole",
          "type": "bytes32"
        },
        {
          "indexed": true,
          "internalType": "bytes32",
          "name": "newAdminRole",
          "type": "bytes32"
        }
      ],
      "name": "RoleAdminChanged",
      "type": "event"
    },
    {
      "anonymous": false,
      "inputs": [
        {
          "indexed": true,
          "internalType": "bytes32",
          "name": "role",
          "type": "bytes32"
        },
        {
          "indexed": true,
          "internalType": "address",
          "name": "account",
          "type": "address"
        },
        {
          "indexed": true,
          "internalType": "address",
          "name": "sender",
          "type": "address"
        }
      ],
      "name": "RoleGranted",
      "type": "event"
    },
    {
      "anonymous": false,
      "inputs": [
        {
          "indexed": true,
          "internalType": "bytes32",
          "name": "role",
          "type": "bytes32"
        },
        {
          "indexed": true,
          "internalType": "address",
          "name": "account",
          "type": "address"
        },
        {
          "indexed": true,
          "internalType": "address",
          "name": "sender",
          "type": "address"
        }
      ],
      "name": "RoleRevoked",
      "type": "event"
    },
    {
      "anonymous": false,
      "inputs": [
        {
          "indexed": false,
          "internalType": "address",
          "name": "from",
          "type": "address"
        },
        {
          "indexed": true,
          "internalType": "address",
          "name": "to",
          "type": "address"
        },
        {
          "indexed": false,
          "internalType": "uint256",
          "name": "poolId",
          "type": "uint256"
        },
        {
          "indexed": true,
          "internalType": "address",
          "name": "strategy",
          "type": "address"
        },
        {
          "indexed": false,
          "internalType": "uint256",
          "name": "stake",
          "type": "uint256"
        },
        {
          "indexed": true,
          "internalType": "uint8",
          "name": "tier",
          "type": "uint8"
        }
      ],
      "name": "StakeDeposit",
      "type": "event"
    },
    {
      "anonymous": false,
      "inputs": [
        {
          "indexed": false,
          "internalType": "address",
          "name": "from",
          "type": "address"
        },
        {
          "indexed": true,
          "internalType": "address",
          "name": "to",
          "type": "address"
        },
        {
          "indexed": false,
          "internalType": "uint256",
          "name": "poolId",
          "type": "uint256"
        },
        {
          "indexed": true,
          "internalType": "address",
          "name": "strategy",
          "type": "address"
        },
        {
          "indexed": false,
          "internalType": "uint256",
          "name": "stake",
          "type": "uint256"
        },
        {
          "indexed": false,
          "internalType": "uint256",
          "name": "withdrawAmount",
          "type": "uint256"
        }
      ],
      "name": "StakeWithdraw",
      "type": "event"
    },
    {
      "anonymous": false,
      "inputs": [
        {
          "indexed": true,
          "internalType": "address",
          "name": "from",
          "type": "address"
        },
        {
          "indexed": true,
          "internalType": "address",
          "name": "stakeToken",
          "type": "address"
        },
        {
          "indexed": false,
          "internalType": "uint256",
          "name": "idx",
          "type": "uint256"
        },
        {
          "indexed": false,
          "internalType": "uint256",
          "name": "poolId",
          "type": "uint256"
        }
      ],
      "name": "StakingPoolCreate",
      "type": "event"
    },
    {
      "anonymous": false,
      "inputs": [
        {
          "indexed": false,
          "internalType": "address",
          "name": "account",
          "type": "address"
        }
      ],
      "name": "Unpaused",
      "type": "event"
    },
    {
      "inputs": [],
      "name": "DEFAULT_ADMIN_ROLE",
      "outputs": [
        {
          "internalType": "bytes32",
          "name": "",
          "type": "bytes32"
        }
      ],
      "stateMutability": "view",
      "type": "function"
    },
    {
      "inputs": [],
      "name": "REWARDS_MANAGER_ROLE",
      "outputs": [
        {
          "internalType": "bytes32",
          "name": "",
          "type": "bytes32"
        }
      ],
      "stateMutability": "view",
      "type": "function"
    },
    {
      "inputs": [],
      "name": "STAKING_MANAGER_ROLE",
      "outputs": [
        {
          "internalType": "bytes32",
          "name": "",
          "type": "bytes32"
        }
      ],
      "stateMutability": "view",
      "type": "function"
    },
    {
      "inputs": [],
      "name": "STRATEGY_VAULT_MANAGER_ROLE",
      "outputs": [
        {
          "internalType": "bytes32",
          "name": "",
          "type": "bytes32"
        }
      ],
      "stateMutability": "view",
      "type": "function"
    },
    {
      "inputs": [
        {
          "components": [
            {
              "internalType": "address",
              "name": "token",
              "type": "address"
            }
          ],
          "internalType": "struct Currency",
          "name": "currency",
          "type": "tuple"
        }
      ],
      "name": "createStakingPool",
      "outputs": [
        {
          "internalType": "uint256",
          "name": "poolId",
          "type": "uint256"
        }
      ],
      "stateMutability": "nonpayable",
      "type": "function"
    },
    {
      "inputs": [
        {
          "components": [
            {
              "internalType": "address",
              "name": "token",
              "type": "address"
            }
          ],
          "internalType": "struct Currency",
          "name": "currency",
          "type": "tuple"
        },
        {
          "internalType": "uint96",
          "name": "idx",
          "type": "uint96"
        }
      ],
      "name": "generatePoolId",
      "outputs": [
        {
          "internalType": "uint256",
          "name": "",
          "type": "uint256"
        }
      ],
      "stateMutability": "pure",
      "type": "function"
    },
    {
      "inputs": [
        {
          "internalType": "bytes32",
          "name": "role",
          "type": "bytes32"
        }
      ],
      "name": "getRoleAdmin",
      "outputs": [
        {
          "internalType": "bytes32",
          "name": "",
          "type": "bytes32"
        }
      ],
      "stateMutability": "view",
      "type": "function"
    },
    {
      "inputs": [
        {
          "internalType": "bytes32",
          "name": "role",
          "type": "bytes32"
        },
        {
          "internalType": "uint256",
          "name": "index",
          "type": "uint256"
        }
      ],
      "name": "getRoleMember",
      "outputs": [
        {
          "internalType": "address",
          "name": "",
          "type": "address"
        }
      ],
      "stateMutability": "view",
      "type": "function"
    },
    {
      "inputs": [
        {
          "internalType": "bytes32",
          "name": "role",
          "type": "bytes32"
        }
      ],
      "name": "getRoleMemberCount",
      "outputs": [
        {
          "internalType": "uint256",
          "name": "",
          "type": "uint256"
        }
      ],
      "stateMutability": "view",
      "type": "function"
    },
    {
      "inputs": [
        {
          "internalType": "bytes32",
          "name": "role",
          "type": "bytes32"
        },
        {
          "internalType": "address",
          "name": "account",
          "type": "address"
        }
      ],
      "name": "grantRole",
      "outputs": [],
      "stateMutability": "nonpayable",
      "type": "function"
    },
    {
      "inputs": [
        {
          "internalType": "bytes32",
          "name": "role",
          "type": "bytes32"
        },
        {
          "internalType": "address",
          "name": "account",
          "type": "address"
        }
      ],
      "name": "hasRole",
      "outputs": [
        {
          "internalType": "bool",
          "name": "",
          "type": "bool"
        }
      ],
      "stateMutability": "view",
      "type": "function"
    },
    {
      "inputs": [],
      "name": "pauseStaking",
      "outputs": [],
      "stateMutability": "nonpayable",
      "type": "function"
    },
    {
      "inputs": [],
      "name": "paused",
      "outputs": [
        {
          "internalType": "bool",
          "name": "",
          "type": "bool"
        }
      ],
      "stateMutability": "view",
      "type": "function"
    },
    {
      "inputs": [
        {
          "internalType": "uint256",
          "name": "poolId",
          "type": "uint256"
        }
      ],
      "name": "poolInfo",
      "outputs": [
        {
          "components": [
            {
              "internalType": "uint256",
              "name": "poolId",
              "type": "uint256"
            },
            {
              "components": [
                {
                  "internalType": "address",
                  "name": "token",
                  "type": "address"
                }
              ],
              "internalType": "struct Currency",
              "name": "currency",
              "type": "tuple"
            },
            {
              "internalType": "uint256",
              "name": "totalStake",
              "type": "uint256"
            }
          ],
          "internalType": "struct StakingPoolInfo",
          "name": "",
          "type": "tuple"
        }
      ],
      "stateMutability": "view",
      "type": "function"
    },
    {
      "inputs": [
        {
          "internalType": "bytes32",
          "name": "role",
          "type": "bytes32"
        },
        {
          "internalType": "address",
          "name": "callerConfirmation",
          "type": "address"
        }
      ],
      "name": "renounceRole",
      "outputs": [],
      "stateMutability": "nonpayable",
      "type": "function"
    },
    {
      "inputs": [
        {
          "internalType": "bytes32",
          "name": "role",
          "type": "bytes32"
        },
        {
          "internalType": "address",
          "name": "account",
          "type": "address"
        }
      ],
      "name": "revokeRole",
      "outputs": [],
      "stateMutability": "nonpayable",
      "type": "function"
    },
    {
      "inputs": [
        {
          "internalType": "uint256",
          "name": "poolId",
          "type": "uint256"
        },
        {
          "internalType": "address",
          "name": "strategy",
          "type": "address"
        },
        {
          "internalType": "uint256",
          "name": "stake",
          "type": "uint256"
        },
        {
          "internalType": "address",
          "name": "to",
          "type": "address"
        }
      ],
      "name": "stakeDeposit",
      "outputs": [],
      "stateMutability": "payable",
      "type": "function"
    },
    {
      "inputs": [
        {
          "internalType": "uint256",
          "name": "poolId",
          "type": "uint256"
        },
        {
          "internalType": "address",
          "name": "strategy",
          "type": "address"
        },
        {
          "internalType": "uint256",
          "name": "stake",
          "type": "uint256"
        },
        {
          "internalType": "address",
          "name": "to",
          "type": "address"
        }
      ],
      "name": "stakeDepositTier2",
      "outputs": [],
      "stateMutability": "payable",
      "type": "function"
    },
    {
      "inputs": [
        {
          "components": [
            {
              "internalType": "address",
              "name": "token",
              "type": "address"
            }
          ],
          "internalType": "struct Currency",
          "name": "currency",
          "type": "tuple"
        }
      ],
      "name": "stakeTokenPoolCount",
      "outputs": [
        {
          "internalType": "uint96",
          "name": "",
          "type": "uint96"
        }
      ],
      "stateMutability": "view",
      "type": "function"
    },
    {
      "inputs": [
        {
          "internalType": "uint256",
          "name": "poolId",
          "type": "uint256"
        },
        {
          "internalType": "address",
          "name": "strategy",
          "type": "address"
        },
        {
          "internalType": "uint256",
          "name": "stake",
          "type": "uint256"
        },
        {
          "internalType": "address",
          "name": "to",
          "type": "address"
        }
      ],
      "name": "stakeWithdraw",
      "outputs": [
        {
          "internalType": "uint256",
          "name": "withdrawAmount",
          "type": "uint256"
        }
      ],
      "stateMutability": "nonpayable",
      "type": "function"
    },
    {
      "inputs": [
        {
          "internalType": "bytes4",
          "name": "interfaceId",
          "type": "bytes4"
        }
      ],
      "name": "supportsInterface",
      "outputs": [
        {
          "internalType": "bool",
          "name": "",
          "type": "bool"
        }
      ],
      "stateMutability": "view",
      "type": "function"
    },
    {
      "inputs": [],
      "name": "unpauseStaking",
      "outputs": [],
      "stateMutability": "nonpayable",
      "type": "function"
    },
    {
      "inputs": [
        {
          "internalType": "uint256",
          "name": "poolId",
          "type": "uint256"
        },
        {
          "internalType": "address",
          "name": "user",
          "type": "address"
        }
      ],
      "name": "userPoolInfo",
      "outputs": [
        {
          "components": [
            {
              "internalType": "uint256",
              "name": "staked",
              "type": "uint256"
            },
            {
              "internalType": "uint256",
              "name": "stakeLocked",
              "type": "uint256"
            }
          ],
          "internalType": "struct UserPoolInfo",
          "name": "",
          "type": "tuple"
        }
      ],
      "stateMutability": "view",
      "type": "function"
    },
    {
      "inputs": [
        {
          "internalType": "uint256",
          "name": "poolId",
          "type": "uint256"
        },
        {
          "internalType": "address",
          "name": "user",
          "type": "address"
        }
      ],
      "name": "userPoolShare",
      "outputs": [
        {
          "internalType": "uint256",
          "name": "",
          "type": "uint256"
        }
      ],
      "stateMutability": "view",
      "type": "function"
    }
  ],
  "bytecode": "0x6080604052348015600f57600080fd5b506123ad8061001f6000396000f3fe60806040526004361061018b5760003560e01c80639010d07c116100d6578063ca15c8731161007f578063e0dd245711610059578063e0dd2457146105ba578063f999c506146105ee578063fc792af91461060357600080fd5b8063ca15c87314610567578063d0885a5214610587578063d547741f1461059a57600080fd5b80639f6b2935116100b05780639f6b29351461051f578063a217fddf14610532578063bb4c4eb61461054757600080fd5b80639010d07c1461046d57806391d14854146104a557806393f4bcde1461050a57600080fd5b80633937c0b3116101385780634e27072a116101125780634e27072a146103615780635c975abb14610402578063777292e81461043957600080fd5b80633937c0b3146102ed5780633c2bf2501461032157806345d818ab1461034157600080fd5b8063248a9ca311610169578063248a9ca31461024e5780632f2ff15d146102ab57806336568abe146102cd57600080fd5b806301ffc9a7146101905780631526fe27146101c55780631f67017f14610211575b600080fd5b34801561019c57600080fd5b506101b06101ab366004612034565b610623565b60405190151581526020015b60405180910390f35b3480156101d157600080fd5b506101e56101e036600461205e565b610667565b6040805182518152602080840151516001600160a01b03169082015291810151908201526060016101bc565b34801561021d57600080fd5b5061023161022c36600461208f565b6106d9565b6040516bffffffffffffffffffffffff90911681526020016101bc565b34801561025a57600080fd5b5061029d61026936600461205e565b60009081527f02dd7bc7dec4dceedda775e58dd541e08a116c6c53815c0bd028192f7b626800602052604090206001015490565b6040519081526020016101bc565b3480156102b757600080fd5b506102cb6102c63660046120c2565b61075a565b005b3480156102d957600080fd5b506102cb6102e83660046120c2565b6107a4565b3480156102f957600080fd5b5061029d7fa6b5d83d32632203555cb9b2c2f68a8d94da48cadd9266ac0d17babedb52ea5b81565b34801561032d57600080fd5b5061029d61033c3660046120ee565b6107f5565b34801561034d57600080fd5b5061029d61035c366004612137565b61086c565b34801561036d57600080fd5b506103e761037c3660046120c2565b604080518082018252600080825260209182018190529384527f34b634470e29e36048aab5cc5a64c34b2eced30149e0fdca374a6ec67d2dfdf281528184206001600160a01b0393909316845291825291829020825180840190935280548352600101549082015290565b604080518251815260209283015192810192909252016101bc565b34801561040e57600080fd5b507fcd5ed15c6e187e77e9aee88184c21f4f2182ab5827cb3b7e07fbedcd63f033005460ff166101b0565b34801561044557600080fd5b5061029d7f2c0ada6e921ab1da9a99807ca4df2ed1b7eff32704ad00ff79908b8054c8107d81565b34801561047957600080fd5b5061048d61048836600461217d565b610b14565b6040516001600160a01b0390911681526020016101bc565b3480156104b157600080fd5b506101b06104c03660046120c2565b60009182527f02dd7bc7dec4dceedda775e58dd541e08a116c6c53815c0bd028192f7b626800602090815260408084206001600160a01b0393909316845291905290205460ff1690565b34801561051657600080fd5b506102cb610b4d565b6102cb61052d366004612137565b610bae565b34801561053e57600080fd5b5061029d600081565b34801561055357600080fd5b5061029d61056236600461208f565b610e4e565b34801561057357600080fd5b5061029d61058236600461205e565b610ede565b6102cb610595366004612137565b610f1d565b3480156105a657600080fd5b506102cb6105b53660046120c2565b611189565b3480156105c657600080fd5b5061029d7f51785d261c3b3e8c2cfe2d0e108b9ab2b1fb703ff9e9e49aba4ebdc85c36152b81565b3480156105fa57600080fd5b506102cb6111cd565b34801561060f57600080fd5b5061029d61061e3660046120c2565b61122c565b60006001600160e01b031982167f5a05180f0000000000000000000000000000000000000000000000000000000014806106615750610661826112c3565b92915050565b61066f611ff6565b5060009081527f34b634470e29e36048aab5cc5a64c34b2eced30149e0fdca374a6ec67d2dfdf360209081526040918290208251606081018452815481528351808401855260018301546001600160a01b0316815292810192909252600201549181019190915290565b60007f34b634470e29e36048aab5cc5a64c34b2eced30149e0fdca374a6ec67d2dfdf27f34b634470e29e36048aab5cc5a64c34b2eced30149e0fdca374a6ec67d2dfdf48261072b602086018661219f565b6001600160a01b031681526020810191909152604001600020546bffffffffffffffffffffffff169392505050565b60008281527f02dd7bc7dec4dceedda775e58dd541e08a116c6c53815c0bd028192f7b62680060205260409020600101546107948161132a565b61079e8383611337565b50505050565b6001600160a01b03811633146107e6576040517f6697b23200000000000000000000000000000000000000000000000000000000815260040160405180910390fd5b6107f0828261138e565b505050565b6000610804602084018461219f565b8260405160200161084d92919060609290921b6bffffffffffffffffffffffff1916825260a01b73ffffffffffffffffffffffffffffffffffffffff1916601482015260200190565b60408051601f1981840301815291905280516020909101209392505050565b60006108766113dc565b61087e61143f565b60008581527f34b634470e29e36048aab5cc5a64c34b2eced30149e0fdca374a6ec67d2dfdf36020526040902054859085907f34b634470e29e36048aab5cc5a64c34b2eced30149e0fdca374a6ec67d2dfdf2907fbe4ff07067d4fd4ee08dc2d2f96a40cbf5630eafbe74b02fa78478a777226685908414610913576040516302721e1f60e61b815260040160405180910390fd5b6001600160a01b0383166000908152600182016020526040902054841461094d57604051634d827f1760e01b815260040160405180910390fd5b60007f34b634470e29e36048aab5cc5a64c34b2eced30149e0fdca374a6ec67d2dfdf260008b815260018201602090815260408083208483528184203380865293529281902090517f0b74f5380000000000000000000000000000000000000000000000000000000081526001600160a01b038e1660048201526024810192909252604482018c90529293509091903090630b74f538906064016020604051808303816000875af1158015610a06573d6000803e3d6000fd5b505050506040513d601f19601f82011682018060405250810190610a2a91906121ba565b975089826002016000828254610a4091906121e9565b909155505080548a908290600090610a599084906121e9565b9091555050604080516020810190915260018301546001600160a01b03168152610a84908a8a61149b565b60408051338152602081018e90529081018b9052606081018990526001600160a01b03808d1691908b16907fb484c704c702a527eb4fc41072a89779aeb46d0fe9058d3572e9ab6b17165d1b9060800160405180910390a350505050505050610b0c60017f9b779b17422d0df92223018b32b4d1fa46e071723d6817e2486d003becc55f0055565b949350505050565b60008281527fc1f6fe24621ce81ec5827caf0253cadb74709b061630e6b55e82371705932000602081905260408220610b0c90846115b8565b3360009081527fc5abc2d863e77a76627fe1702320d3afc3f93a9ad30aebcafab5d12854da5c0f602052604090205460ff16610b9c5760405163b995ef4760e01b815260040160405180910390fd5b610ba46115c4565b610bac61161f565b565b610bb66113dc565b610bbe61143f565b60008481527f34b634470e29e36048aab5cc5a64c34b2eced30149e0fdca374a6ec67d2dfdf36020526040902054849084907f34b634470e29e36048aab5cc5a64c34b2eced30149e0fdca374a6ec67d2dfdf2907fbe4ff07067d4fd4ee08dc2d2f96a40cbf5630eafbe74b02fa78478a777226685908414610c53576040516302721e1f60e61b815260040160405180910390fd5b6001600160a01b03831660009081526001820160205260409020548414610c8d57604051634d827f1760e01b815260040160405180910390fd5b60008881527f34b634470e29e36048aab5cc5a64c34b2eced30149e0fdca374a6ec67d2dfdf3602090815260408083207f34b634470e29e36048aab5cc5a64c34b2eced30149e0fdca374a6ec67d2dfdf28084528285206001600160a01b038b811687529085529483902083519485019093526001820154909416835291610d179033308c611691565b88826002016000828254610d2b91906121fc565b9091555050805489908290600090610d449084906121fc565b90915550506040517f54e5b30f0000000000000000000000000000000000000000000000000000000081526001600160a01b03808c16600483015289166024820152604481018a905230906354e5b30f90606401600060405180830381600087803b158015610db257600080fd5b505af1158015610dc6573d6000803e3d6000fd5b505060408051338152602081018f90529081018c9052600292506001600160a01b03808e1692508b16907f87de95f0af6f83bd2778bff5d7c60b0ed04d9efb26abed9820c4f59bd6122979906060015b60405180910390a45050505050505061079e60017f9b779b17422d0df92223018b32b4d1fa46e071723d6817e2486d003becc55f0055565b3360009081527fc5abc2d863e77a76627fe1702320d3afc3f93a9ad30aebcafab5d12854da5c0f602052604081205460ff16610e9d5760405163b995ef4760e01b815260040160405180910390fd5b610ea56113dc565b610eae8261170b565b9050610ed960017f9b779b17422d0df92223018b32b4d1fa46e071723d6817e2486d003becc55f0055565b919050565b60008181527fc1f6fe24621ce81ec5827caf0253cadb74709b061630e6b55e82371705932000602081905260408220610f169061192c565b9392505050565b610f256113dc565b610f2d61143f565b60008481527f34b634470e29e36048aab5cc5a64c34b2eced30149e0fdca374a6ec67d2dfdf36020526040902054849084907f34b634470e29e36048aab5cc5a64c34b2eced30149e0fdca374a6ec67d2dfdf2907fbe4ff07067d4fd4ee08dc2d2f96a40cbf5630eafbe74b02fa78478a777226685908414610fc2576040516302721e1f60e61b815260040160405180910390fd5b6001600160a01b03831660009081526001820160205260409020548414610ffc57604051634d827f1760e01b815260040160405180910390fd5b60008881527f34b634470e29e36048aab5cc5a64c34b2eced30149e0fdca374a6ec67d2dfdf3602090815260408083207f34b634470e29e36048aab5cc5a64c34b2eced30149e0fdca374a6ec67d2dfdf28084528285206001600160a01b038b8116875290855294839020835194850190935260018201549094168352916110869033308c611691565b8882600201600082825461109a91906121fc565b90915550508054899082906000906110b39084906121fc565b90915550506040517f201a777b0000000000000000000000000000000000000000000000000000000081526001600160a01b03808c16600483015289166024820152604481018a9052309063201a777b90606401600060405180830381600087803b15801561112157600080fd5b505af1158015611135573d6000803e3d6000fd5b505060408051338152602081018f90529081018c9052600192506001600160a01b03808e1692508b16907f87de95f0af6f83bd2778bff5d7c60b0ed04d9efb26abed9820c4f59bd612297990606001610e16565b60008281527f02dd7bc7dec4dceedda775e58dd541e08a116c6c53815c0bd028192f7b62680060205260409020600101546111c38161132a565b61079e838361138e565b3360009081527fc5abc2d863e77a76627fe1702320d3afc3f93a9ad30aebcafab5d12854da5c0f602052604090205460ff1661121c5760405163b995ef4760e01b815260040160405180910390fd5b61122461143f565b610bac611936565b60008281527f34b634470e29e36048aab5cc5a64c34b2eced30149e0fdca374a6ec67d2dfdf3602090815260408083207f34b634470e29e36048aab5cc5a64c34b2eced30149e0fdca374a6ec67d2dfdf28084528285206001600160a01b0387168652909352908320600282015481546112af90670de0b6b3a76400009061220f565b6112b99190612226565b9695505050505050565b60006001600160e01b031982167f7965db0b00000000000000000000000000000000000000000000000000000000148061066157507f01ffc9a7000000000000000000000000000000000000000000000000000000006001600160e01b0319831614610661565b6113348133611991565b50565b60007fc1f6fe24621ce81ec5827caf0253cadb74709b061630e6b55e82371705932000816113658585611a22565b90508015610b0c5760008581526020839052604090206113859085611af1565b50949350505050565b60007fc1f6fe24621ce81ec5827caf0253cadb74709b061630e6b55e82371705932000816113bc8585611b06565b90508015610b0c5760008581526020839052604090206113859085611bac565b7f9b779b17422d0df92223018b32b4d1fa46e071723d6817e2486d003becc55f00805460011901611439576040517f3ee5aeb500000000000000000000000000000000000000000000000000000000815260040160405180910390fd5b60029055565b7fcd5ed15c6e187e77e9aee88184c21f4f2182ab5827cb3b7e07fbedcd63f033005460ff1615610bac576040517fd93c066500000000000000000000000000000000000000000000000000000000815260040160405180910390fd5b82516001600160a01b03166115a257804710156114ff5760405162461bcd60e51b815260206004820152601d60248201527f5472616e7366657220696e73756666696369656e742062616c616e636500000060448201526064015b60405180910390fd5b6000826001600160a01b03168260405160006040518083038185875af1925050503d806000811461154c576040519150601f19603f3d011682016040523d82523d6000602084013e611551565b606091505b505090508061079e5760405162461bcd60e51b815260206004820152601460248201527f5472616e736665722063616c6c206661696c656400000000000000000000000060448201526064016114f6565b82516107f0906001600160a01b03168383611bc1565b6000610f168383611c35565b7fcd5ed15c6e187e77e9aee88184c21f4f2182ab5827cb3b7e07fbedcd63f033005460ff16610bac576040517f8dfc202b00000000000000000000000000000000000000000000000000000000815260040160405180910390fd5b6116276115c4565b7fcd5ed15c6e187e77e9aee88184c21f4f2182ab5827cb3b7e07fbedcd63f03300805460ff191681557f5db9ee0a495bf2e6ff9c91a7834c1ba4fdd244a5e8aa4e537bd38aeae4b073aa335b6040516001600160a01b03909116815260200160405180910390a150565b83516001600160a01b03166116f4578034146116ef5760405162461bcd60e51b815260206004820152601960248201527f496e76616c6964206e61746976652076616c75652073656e740000000000000060448201526064016114f6565b61079e565b835161079e906001600160a01b0316848484611c5f565b60007f34b634470e29e36048aab5cc5a64c34b2eced30149e0fdca374a6ec67d2dfdf261174561174036859003850185612248565b611c98565b60ff16601214611781576040517fd5f0e0e800000000000000000000000000000000000000000000000000000000815260040160405180910390fd5b60006002820181611795602087018761219f565b6001600160a01b031681526020810191909152604001600020546bffffffffffffffffffffffff1690506117c984826107f5565b92506002820160006117de602087018761219f565b6001600160a01b031681526020810191909152604001600090812080546bffffffffffffffffffffffff1691611813836122a2565b91906101000a8154816bffffffffffffffffffffffff02191690836bffffffffffffffffffffffff160217905550506040518060600160405280848152602001858036038101906118649190612248565b81526000602091820181905285815260018581018352604091829020845181558484015151918101805473ffffffffffffffffffffffffffffffffffffffff19166001600160a01b03909316929092179091559201516002909201919091556118cf9085018561219f565b604080516bffffffffffffffffffffffff84168152602081018690526001600160a01b03929092169133917fd42a0ad48cedb70e78a2ea761850fc3736b3796808c3ef48ac49a4f4a0beb98c910160405180910390a35050919050565b6000610661825490565b61193e61143f565b7fcd5ed15c6e187e77e9aee88184c21f4f2182ab5827cb3b7e07fbedcd63f03300805460ff191660011781557f62e78cea01bee320cd4e420270b5ea74000d11b0c9f74754ebdbfc544b05a25833611673565b60008281527f02dd7bc7dec4dceedda775e58dd541e08a116c6c53815c0bd028192f7b626800602090815260408083206001600160a01b038516845290915290205460ff16611a1e576040517fe2517d3f0000000000000000000000000000000000000000000000000000000081526001600160a01b0382166004820152602481018390526044016114f6565b5050565b60008281527f02dd7bc7dec4dceedda775e58dd541e08a116c6c53815c0bd028192f7b626800602081815260408084206001600160a01b038616855290915282205460ff16611ae7576000848152602082815260408083206001600160a01b03871684529091529020805460ff19166001179055611a9d3390565b6001600160a01b0316836001600160a01b0316857f2f8788117e7eff1d82e926ec794901d17c78024a50270940304540a733656f0d60405160405180910390a46001915050610661565b6000915050610661565b6000610f16836001600160a01b038416611d18565b60008281527f02dd7bc7dec4dceedda775e58dd541e08a116c6c53815c0bd028192f7b626800602081815260408084206001600160a01b038616855290915282205460ff1615611ae7576000848152602082815260408083206001600160a01b0387168085529252808320805460ff1916905551339287917ff6391f5c32d9c69d2a47ea670b442974b53935d1edc7fd64eb21e047a839171b9190a46001915050610661565b6000610f16836001600160a01b038416611d67565b6040516001600160a01b038381166024830152604482018390526107f091859182169063a9059cbb906064015b604051602081830303815290604052915060e01b6020820180517bffffffffffffffffffffffffffffffffffffffffffffffffffffffff8381831617835250505050611e50565b6000826000018281548110611c4c57611c4c6122d7565b9060005260206000200154905092915050565b6040516001600160a01b03848116602483015283811660448301526064820183905261079e9186918216906323b872dd90608401611bee565b80516000906001600160a01b0316611cb257506012919050565b81600001516001600160a01b031663313ce5676040518163ffffffff1660e01b8152600401602060405180830381865afa158015611cf4573d6000803e3d6000fd5b505050506040513d601f19601f8201168201806040525081019061066191906122ed565b6000818152600183016020526040812054611d5f57508154600181810184556000848152602080822090930184905584548482528286019093526040902091909155610661565b506000610661565b60008181526001830160205260408120548015611ae7576000611d8b6001836121e9565b8554909150600090611d9f906001906121e9565b9050808214611e04576000866000018281548110611dbf57611dbf6122d7565b9060005260206000200154905080876000018481548110611de257611de26122d7565b6000918252602080832090910192909255918252600188019052604090208390555b8554869080611e1557611e15612310565b600190038181906000526020600020016000905590558560010160008681526020019081526020016000206000905560019350505050610661565b6000611e656001600160a01b03841683611ecc565b90508051600014158015611e8a575080806020019051810190611e889190612326565b155b156107f0576040517f5274afe70000000000000000000000000000000000000000000000000000000081526001600160a01b03841660048201526024016114f6565b6060610f168383600084600080856001600160a01b03168486604051611ef29190612348565b60006040518083038185875af1925050503d8060008114611f2f576040519150601f19603f3d011682016040523d82523d6000602084013e611f34565b606091505b50915091506112b9868383606082611f5457611f4f82611fb4565b610f16565b8151158015611f6b57506001600160a01b0384163b155b15611fad576040517f9996b3150000000000000000000000000000000000000000000000000000000081526001600160a01b03851660048201526024016114f6565b5080610f16565b805115611fc45780518082602001fd5b6040517f1425ea4200000000000000000000000000000000000000000000000000000000815260040160405180910390fd5b604051806060016040528060008152602001612027604051806020016040528060006001600160a01b031681525090565b8152602001600081525090565b60006020828403121561204657600080fd5b81356001600160e01b031981168114610f1657600080fd5b60006020828403121561207057600080fd5b5035919050565b60006020828403121561208957600080fd5b50919050565b6000602082840312156120a157600080fd5b610f168383612077565b80356001600160a01b0381168114610ed957600080fd5b600080604083850312156120d557600080fd5b823591506120e5602084016120ab565b90509250929050565b6000806040838503121561210157600080fd5b61210b8484612077565b915060208301356bffffffffffffffffffffffff8116811461212c57600080fd5b809150509250929050565b6000806000806080858703121561214d57600080fd5b8435935061215d602086016120ab565b925060408501359150612172606086016120ab565b905092959194509250565b6000806040838503121561219057600080fd5b50508035926020909101359150565b6000602082840312156121b157600080fd5b610f16826120ab565b6000602082840312156121cc57600080fd5b5051919050565b634e487b7160e01b600052601160045260246000fd5b81810381811115610661576106616121d3565b80820180821115610661576106616121d3565b8082028115828204841417610661576106616121d3565b60008261224357634e487b7160e01b600052601260045260246000fd5b500490565b6000602082840312801561225b57600080fd5b506040516020810167ffffffffffffffff8111828210171561228d57634e487b7160e01b600052604160045260246000fd5b604052612299836120ab565b81529392505050565b60006bffffffffffffffffffffffff82166bffffffffffffffffffffffff81036122ce576122ce6121d3565b60010192915050565b634e487b7160e01b600052603260045260246000fd5b6000602082840312156122ff57600080fd5b815160ff81168114610f1657600080fd5b634e487b7160e01b600052603160045260246000fd5b60006020828403121561233857600080fd5b81518015158114610f1657600080fd5b6000825160005b81811015612369576020818601810151858301520161234f565b50600092019182525091905056fea264697066735822122024dfe0e544e8396abd60a1e68887c6c354faa464330f90c8d340caf8ac72d4aa64736f6c634300081b0033",
  "linkReferences": {},
  "deployedLinkReferences": {}
}