{
  "_format": "hh-sol-artifact-1",
  "contractName": "VaultFactoryFacet",
  "sourceName": "contracts/hyperstaking/facets/VaultFactoryFacet.sol",
  "abi": [
    {
      "inputs": [],
      "name": "AccessControlBadConfirmation",
      "type": "error"
    },
    {
      "inputs": [
        {
          "internalType": "address",
          "name": "account",
          "type": "address"
        },
        {
          "internalType": "bytes32",
          "name": "neededRole",
          "type": "bytes32"
        }
      ],
      "name": "AccessControlUnauthorizedAccount",
      "type": "error"
    },
    {
      "inputs": [],
      "name": "InvalidInitialization",
      "type": "error"
    },
    {
      "inputs": [],
      "name": "NotInitializing",
      "type": "error"
    },
    {
      "inputs": [],
      "name": "OnlyDiamondInternal",
      "type": "error"
    },
    {
      "inputs": [],
      "name": "OnlyRewardsManager",
      "type": "error"
    },
    {
      "inputs": [],
      "name": "OnlyStakingManager",
      "type": "error"
    },
    {
      "inputs": [],
      "name": "OnlyStrategyVaultManager",
      "type": "error"
    },
    {
      "inputs": [],
      "name": "ReentrancyGuardReentrantCall",
      "type": "error"
    },
    {
      "inputs": [],
      "name": "VaultAlreadyExist",
      "type": "error"
    },
    {
      "anonymous": false,
      "inputs": [
        {
          "indexed": false,
          "internalType": "uint64",
          "name": "version",
          "type": "uint64"
        }
      ],
      "name": "Initialized",
      "type": "event"
    },
    {
      "anonymous": false,
      "inputs": [
        {
          "indexed": true,
          "internalType": "bytes32",
          "name": "role",
          "type": "bytes32"
        },
        {
          "indexed": true,
          "internalType": "bytes32",
          "name": "previousAdminRole",
          "type": "bytes32"
        },
        {
          "indexed": true,
          "internalType": "bytes32",
          "name": "newAdminRole",
          "type": "bytes32"
        }
      ],
      "name": "RoleAdminChanged",
      "type": "event"
    },
    {
      "anonymous": false,
      "inputs": [
        {
          "indexed": true,
          "internalType": "bytes32",
          "name": "role",
          "type": "bytes32"
        },
        {
          "indexed": true,
          "internalType": "address",
          "name": "account",
          "type": "address"
        },
        {
          "indexed": true,
          "internalType": "address",
          "name": "sender",
          "type": "address"
        }
      ],
      "name": "RoleGranted",
      "type": "event"
    },
    {
      "anonymous": false,
      "inputs": [
        {
          "indexed": true,
          "internalType": "bytes32",
          "name": "role",
          "type": "bytes32"
        },
        {
          "indexed": true,
          "internalType": "address",
          "name": "account",
          "type": "address"
        },
        {
          "indexed": true,
          "internalType": "address",
          "name": "sender",
          "type": "address"
        }
      ],
      "name": "RoleRevoked",
      "type": "event"
    },
    {
      "anonymous": false,
      "inputs": [
        {
          "indexed": true,
          "internalType": "address",
          "name": "from",
          "type": "address"
        },
        {
          "indexed": true,
          "internalType": "uint256",
          "name": "poolId",
          "type": "uint256"
        },
        {
          "indexed": false,
          "internalType": "address",
          "name": "strategy",
          "type": "address"
        },
        {
          "indexed": false,
          "internalType": "address",
          "name": "assert",
          "type": "address"
        },
        {
          "indexed": false,
          "internalType": "address",
          "name": "vaultToken",
          "type": "address"
        }
      ],
      "name": "VaultCreate",
      "type": "event"
    },
    {
      "inputs": [],
      "name": "DEFAULT_ADMIN_ROLE",
      "outputs": [
        {
          "internalType": "bytes32",
          "name": "",
          "type": "bytes32"
        }
      ],
      "stateMutability": "view",
      "type": "function"
    },
    {
      "inputs": [],
      "name": "REWARDS_MANAGER_ROLE",
      "outputs": [
        {
          "internalType": "bytes32",
          "name": "",
          "type": "bytes32"
        }
      ],
      "stateMutability": "view",
      "type": "function"
    },
    {
      "inputs": [],
      "name": "STAKING_MANAGER_ROLE",
      "outputs": [
        {
          "internalType": "bytes32",
          "name": "",
          "type": "bytes32"
        }
      ],
      "stateMutability": "view",
      "type": "function"
    },
    {
      "inputs": [],
      "name": "STRATEGY_VAULT_MANAGER_ROLE",
      "outputs": [
        {
          "internalType": "bytes32",
          "name": "",
          "type": "bytes32"
        }
      ],
      "stateMutability": "view",
      "type": "function"
    },
    {
      "inputs": [
        {
          "internalType": "uint256",
          "name": "poolId",
          "type": "uint256"
        },
        {
          "internalType": "address",
          "name": "strategy",
          "type": "address"
        },
        {
          "internalType": "contract IERC20Metadata",
          "name": "asset",
          "type": "address"
        },
        {
          "internalType": "uint256",
          "name": "tier1RevenueFee",
          "type": "uint256"
        }
      ],
      "name": "addStrategy",
      "outputs": [],
      "stateMutability": "nonpayable",
      "type": "function"
    },
    {
      "inputs": [
        {
          "internalType": "bytes32",
          "name": "role",
          "type": "bytes32"
        }
      ],
      "name": "getRoleAdmin",
      "outputs": [
        {
          "internalType": "bytes32",
          "name": "",
          "type": "bytes32"
        }
      ],
      "stateMutability": "view",
      "type": "function"
    },
    {
      "inputs": [
        {
          "internalType": "bytes32",
          "name": "role",
          "type": "bytes32"
        },
        {
          "internalType": "uint256",
          "name": "index",
          "type": "uint256"
        }
      ],
      "name": "getRoleMember",
      "outputs": [
        {
          "internalType": "address",
          "name": "",
          "type": "address"
        }
      ],
      "stateMutability": "view",
      "type": "function"
    },
    {
      "inputs": [
        {
          "internalType": "bytes32",
          "name": "role",
          "type": "bytes32"
        }
      ],
      "name": "getRoleMemberCount",
      "outputs": [
        {
          "internalType": "uint256",
          "name": "",
          "type": "uint256"
        }
      ],
      "stateMutability": "view",
      "type": "function"
    },
    {
      "inputs": [
        {
          "internalType": "bytes32",
          "name": "role",
          "type": "bytes32"
        },
        {
          "internalType": "address",
          "name": "account",
          "type": "address"
        }
      ],
      "name": "grantRole",
      "outputs": [],
      "stateMutability": "nonpayable",
      "type": "function"
    },
    {
      "inputs": [
        {
          "internalType": "bytes32",
          "name": "role",
          "type": "bytes32"
        },
        {
          "internalType": "address",
          "name": "account",
          "type": "address"
        }
      ],
      "name": "hasRole",
      "outputs": [
        {
          "internalType": "bool",
          "name": "",
          "type": "bool"
        }
      ],
      "stateMutability": "view",
      "type": "function"
    },
    {
      "inputs": [
        {
          "internalType": "bytes32",
          "name": "role",
          "type": "bytes32"
        },
        {
          "internalType": "address",
          "name": "callerConfirmation",
          "type": "address"
        }
      ],
      "name": "renounceRole",
      "outputs": [],
      "stateMutability": "nonpayable",
      "type": "function"
    },
    {
      "inputs": [
        {
          "internalType": "bytes32",
          "name": "role",
          "type": "bytes32"
        },
        {
          "internalType": "address",
          "name": "account",
          "type": "address"
        }
      ],
      "name": "revokeRole",
      "outputs": [],
      "stateMutability": "nonpayable",
      "type": "function"
    },
    {
      "inputs": [
        {
          "internalType": "bytes4",
          "name": "interfaceId",
          "type": "bytes4"
        }
      ],
      "name": "supportsInterface",
      "outputs": [
        {
          "internalType": "bool",
          "name": "",
          "type": "bool"
        }
      ],
      "stateMutability": "view",
      "type": "function"
    },
    {
      "inputs": [
        {
          "internalType": "address",
          "name": "strategy",
          "type": "address"
        }
      ],
      "name": "vaultInfo",
      "outputs": [
        {
          "components": [
            {
              "internalType": "uint256",
              "name": "poolId",
              "type": "uint256"
            },
            {
              "internalType": "address",
              "name": "strategy",
              "type": "address"
            },
            {
              "internalType": "contract IERC20Metadata",
              "name": "asset",
              "type": "address"
            }
          ],
          "internalType": "struct VaultInfo",
          "name": "",
          "type": "tuple"
        }
      ],
      "stateMutability": "view",
      "type": "function"
    }
  ],
  "bytecode": "0x6080604052348015600f57600080fd5b506131478061001f6000396000f3fe608060405234801561001057600080fd5b50600436106100ea5760003560e01c80639164359a1161008c578063ca15c87311610066578063ca15c87314610323578063d547741f14610336578063e0dd245714610349578063e2eba69c1461037057600080fd5b80639164359a1461020857806391d14854146102c3578063a217fddf1461031b57600080fd5b806336568abe116100c857806336568abe1461017c5780633937c0b31461018f578063777292e8146101b65780639010d07c146101dd57600080fd5b806301ffc9a7146100ef578063248a9ca3146101175780632f2ff15d14610167575b600080fd5b6101026100fd366004610e7a565b610383565b60405190151581526020015b60405180910390f35b610159610125366004610ea4565b60009081527f02dd7bc7dec4dceedda775e58dd541e08a116c6c53815c0bd028192f7b626800602052604090206001015490565b60405190815260200161010e565b61017a610175366004610ed2565b6103c7565b005b61017a61018a366004610ed2565b610411565b6101597fa6b5d83d32632203555cb9b2c2f68a8d94da48cadd9266ac0d17babedb52ea5b81565b6101597f2c0ada6e921ab1da9a99807ca4df2ed1b7eff32704ad00ff79908b8054c8107d81565b6101f06101eb366004610f02565b610462565b6040516001600160a01b03909116815260200161010e565b610290610216366004610f24565b6040805160608082018352600080835260208084018290529284018190526001600160a01b0394851681527fbe4ff07067d4fd4ee08dc2d2f96a40cbf5630eafbe74b02fa78478a7772266868352839020835191820184528054825260018101548516928201929092526002909101549092169082015290565b60408051825181526020808401516001600160a01b0390811691830191909152928201519092169082015260600161010e565b6101026102d1366004610ed2565b60009182527f02dd7bc7dec4dceedda775e58dd541e08a116c6c53815c0bd028192f7b626800602090815260408084206001600160a01b0393909316845291905290205460ff1690565b610159600081565b610159610331366004610ea4565b6104a3565b61017a610344366004610ed2565b6104e2565b6101597f51785d261c3b3e8c2cfe2d0e108b9ab2b1fb703ff9e9e49aba4ebdc85c36152b81565b61017a61037e366004610f41565b610526565b60006001600160e01b031982167f5a05180f0000000000000000000000000000000000000000000000000000000014806103c157506103c1826105cb565b92915050565b60008281527f02dd7bc7dec4dceedda775e58dd541e08a116c6c53815c0bd028192f7b626800602052604090206001015461040181610632565b61040b838361063f565b50505050565b6001600160a01b0381163314610453576040517f6697b23200000000000000000000000000000000000000000000000000000000815260040160405180910390fd5b61045d8282610696565b505050565b60008281527fc1f6fe24621ce81ec5827caf0253cadb74709b061630e6b55e8237170593200060208190526040822061049b90846106e4565b949350505050565b60008181527fc1f6fe24621ce81ec5827caf0253cadb74709b061630e6b55e823717059320006020819052604082206104db906106f0565b9392505050565b60008281527f02dd7bc7dec4dceedda775e58dd541e08a116c6c53815c0bd028192f7b626800602052604090206001015461051c81610632565b61040b8383610696565b3360009081527f2ad735f717cd945f2134ef4f1cf41297f58b220aec5b6f6e2d8482ded21f8574602052604090205460ff1661058e576040517f2396693e00000000000000000000000000000000000000000000000000000000815260040160405180910390fd5b6105966106fa565b6105a28484848461075d565b61040b60017f9b779b17422d0df92223018b32b4d1fa46e071723d6817e2486d003becc55f0055565b60006001600160e01b031982167f7965db0b0000000000000000000000000000000000000000000000000000000014806103c157507f01ffc9a7000000000000000000000000000000000000000000000000000000006001600160e01b03198316146103c1565b61063c8133610942565b50565b60007fc1f6fe24621ce81ec5827caf0253cadb74709b061630e6b55e823717059320008161066d85856109d7565b9050801561049b57600085815260208390526040902061068d9085610aa6565b50949350505050565b60007fc1f6fe24621ce81ec5827caf0253cadb74709b061630e6b55e82371705932000816106c48585610abb565b9050801561049b57600085815260208390526040902061068d9085610b61565b60006104db8383610b76565b60006103c1825490565b7f9b779b17422d0df92223018b32b4d1fa46e071723d6817e2486d003becc55f00805460011901610757576040517f3ee5aeb500000000000000000000000000000000000000000000000000000000815260040160405180910390fd5b60029055565b6001600160a01b03831660009081527fbe4ff07067d4fd4ee08dc2d2f96a40cbf5630eafbe74b02fa78478a77722668660205260409020547fbe4ff07067d4fd4ee08dc2d2f96a40cbf5630eafbe74b02fa78478a77722668590156107ee576040517fdd5f5b4300000000000000000000000000000000000000000000000000000000815260040160405180910390fd5b60408051606080820183528782526001600160a01b03808816602080850182815289841686880190815260008481526001808b018552898220985189559251888401805491881673ffffffffffffffffffffffffffffffffffffffff1992831617905591516002988901805491909716921691909117909455865194850187528385528482018481528588018a815293855286890190925295832093518455519483019490945592519101556108a48486610ba0565b60408051602080820183526001600160a01b038481168084528a8216600081815260038a0185528690209451855473ffffffffffffffffffffffffffffffffffffffff19169084161790945584519384529089169183019190915291810191909152909150869033907f7018b11411b8fdfab6c9016f668ef04443f6ebb4dc6bf02097539e1f874d12049060600160405180910390a3505050505050565b60008281527f02dd7bc7dec4dceedda775e58dd541e08a116c6c53815c0bd028192f7b626800602090815260408083206001600160a01b038516845290915290205460ff166109d3576040517fe2517d3f0000000000000000000000000000000000000000000000000000000081526001600160a01b03821660048201526024810183905260440160405180910390fd5b5050565b60008281527f02dd7bc7dec4dceedda775e58dd541e08a116c6c53815c0bd028192f7b626800602081815260408084206001600160a01b038616855290915282205460ff16610a9c576000848152602082815260408083206001600160a01b03871684529091529020805460ff19166001179055610a523390565b6001600160a01b0316836001600160a01b0316857f2f8788117e7eff1d82e926ec794901d17c78024a50270940304540a733656f0d60405160405180910390a460019150506103c1565b60009150506103c1565b60006104db836001600160a01b038416610d09565b60008281527f02dd7bc7dec4dceedda775e58dd541e08a116c6c53815c0bd028192f7b626800602081815260408084206001600160a01b038616855290915282205460ff1615610a9c576000848152602082815260408083206001600160a01b0387168085529252808320805460ff1916905551339287917ff6391f5c32d9c69d2a47ea670b442974b53935d1edc7fd64eb21e047a839171b9190a460019150506103c1565b60006104db836001600160a01b038416610d58565b6000826000018281548110610b8d57610b8d610f89565b9060005260206000200154905092915050565b600080610c476040518060400160405280600d81526020017f4c756d6961204c69717569642000000000000000000000000000000000000000815250856001600160a01b03166306fdde036040518163ffffffff1660e01b8152600401600060405180830381865afa158015610c1a573d6000803e3d6000fd5b505050506040513d6000823e601f3d908101601f19168201604052610c429190810190610fd9565b610e41565b90506000610cc26040518060400160405280600281526020017f6c6c000000000000000000000000000000000000000000000000000000000000815250866001600160a01b03166395d89b416040518163ffffffff1660e01b8152600401600060405180830381865afa158015610c1a573d6000803e3d6000fd5b90503084868484604051610cd590610e6d565b610ce39594939291906110ba565b604051809103906000f080158015610cff573d6000803e3d6000fd5b5095945050505050565b6000818152600183016020526040812054610d50575081546001818101845560008481526020808220909301849055845484825282860190935260409020919091556103c1565b5060006103c1565b60008181526001830160205260408120548015610a9c576000610d7c600183611118565b8554909150600090610d9090600190611118565b9050808214610df5576000866000018281548110610db057610db0610f89565b9060005260206000200154905080876000018481548110610dd357610dd3610f89565b6000918252602080832090910192909255918252600188019052604090208390555b8554869080610e0657610e06611139565b6001900381819060005260206000200160009055905585600101600086815260200190815260200160002060009055600193505050506103c1565b60608282604051602001610e5692919061114f565b604051602081830303815290604052905092915050565b611f938061117f83390190565b600060208284031215610e8c57600080fd5b81356001600160e01b0319811681146104db57600080fd5b600060208284031215610eb657600080fd5b5035919050565b6001600160a01b038116811461063c57600080fd5b60008060408385031215610ee557600080fd5b823591506020830135610ef781610ebd565b809150509250929050565b60008060408385031215610f1557600080fd5b50508035926020909101359150565b600060208284031215610f3657600080fd5b81356104db81610ebd565b60008060008060808587031215610f5757600080fd5b843593506020850135610f6981610ebd565b92506040850135610f7981610ebd565b9396929550929360600135925050565b634e487b7160e01b600052603260045260246000fd5b634e487b7160e01b600052604160045260246000fd5b60005b83811015610fd0578181015183820152602001610fb8565b50506000910152565b600060208284031215610feb57600080fd5b815167ffffffffffffffff81111561100257600080fd5b8201601f8101841361101357600080fd5b805167ffffffffffffffff81111561102d5761102d610f9f565b604051601f8201601f19908116603f0116810167ffffffffffffffff8111828210171561105c5761105c610f9f565b60405281815282820160200186101561107457600080fd5b611085826020830160208601610fb5565b95945050505050565b600081518084526110a6816020860160208601610fb5565b601f01601f19169290920160200192915050565b6001600160a01b03861681526001600160a01b03851660208201526001600160a01b038416604082015260a0606082015260006110fa60a083018561108e565b828103608084015261110c818561108e565b98975050505050505050565b818103818111156103c157634e487b7160e01b600052601160045260246000fd5b634e487b7160e01b600052603160045260246000fd5b60008351611161818460208801610fb5565b835190830190611175818360208801610fb5565b0194935050505056fe61010060405234801561001157600080fd5b50604051611f93380380611f93833981016040819052610030916102f6565b8483828460036100408382610423565b50600461004d8282610423565b505050600080610062836100d460201b60201c565b9150915081610072576012610074565b805b60ff1660a05250506001600160a01b0390811660805281166100b057604051631e4fbdf760e01b81526000600482015260240160405180910390fd5b6100b9816101b0565b5050506001600160a01b0392831660c052501660e052610516565b60408051600481526024810182526020810180516001600160e01b031663313ce56760e01b17905290516000918291829182916001600160a01b0387169161011b916104e1565b600060405180830381855afa9150503d8060008114610156576040519150601f19603f3d011682016040523d82523d6000602084013e61015b565b606091505b509150915081801561016f57506020815110155b156101a35760008180602001905181019061018a91906104fd565b905060ff81116101a1576001969095509350505050565b505b5060009485945092505050565b600680546001600160a01b03191690556101c9816101cc565b50565b600580546001600160a01b038381166001600160a01b0319831681179093556040519116919082907f8be0079c531659141344cd1fd0a4f28419497f9722a3daafe3b4186f6b6457e090600090a35050565b6001600160a01b03811681146101c957600080fd5b634e487b7160e01b600052604160045260246000fd5b60005b8381101561026457818101518382015260200161024c565b50506000910152565b600082601f83011261027e57600080fd5b81516001600160401b0381111561029757610297610233565b604051601f8201601f19908116603f011681016001600160401b03811182821017156102c5576102c5610233565b6040528181528382016020018510156102dd57600080fd5b6102ee826020830160208701610249565b949350505050565b600080600080600060a0868803121561030e57600080fd5b85516103198161021e565b602087015190955061032a8161021e565b604087015190945061033b8161021e565b60608701519093506001600160401b0381111561035757600080fd5b6103638882890161026d565b608088015190935090506001600160401b0381111561038157600080fd5b61038d8882890161026d565b9150509295509295909350565b600181811c908216806103ae57607f821691505b6020821081036103ce57634e487b7160e01b600052602260045260246000fd5b50919050565b601f82111561041e57806000526020600020601f840160051c810160208510156103fb5750805b601f840160051c820191505b8181101561041b5760008155600101610407565b50505b505050565b81516001600160401b0381111561043c5761043c610233565b6104508161044a845461039a565b846103d4565b6020601f821160018114610484576000831561046c5750848201515b600019600385901b1c1916600184901b17845561041b565b600084815260208120601f198516915b828110156104b45787850151825560209485019460019092019101610494565b50848210156104d25786840151600019600387901b60f8161c191681555b50505050600190811b01905550565b600082516104f3818460208701610249565b9190910192915050565b60006020828403121561050f57600080fd5b5051919050565b60805160a05160c05160e051611a1a6105796000396000818161027b0152610f310152600081816102ba01528181610edc0152610f680152600061064101526000818161030b015281816104d101528181610da10152610eba0152611a1a6000f3fe608060405234801561001057600080fd5b50600436106101f05760003560e01c806379ba50971161010f578063c63d75b6116100a2578063dd62ed3e11610071578063dd62ed3e14610443578063e30c39781461047c578063ef8b30f71461040a578063f2fde38b1461048d57600080fd5b8063c63d75b61461032f578063c6e6f5921461040a578063ce96cb771461041d578063d905777e1461043057600080fd5b8063a9059cbb116100de578063a9059cbb146103be578063b3d7f6b9146103d1578063b460af94146103e4578063ba087652146103f757600080fd5b806379ba50971461038a5780638da5cb5b1461039257806394bf804d146103a357806395d89b41146103b657600080fd5b806323b872dd116101875780634cdad506116101565780634cdad506146102255780636e553f651461034457806370a0823114610357578063715018a61461038057600080fd5b806323b872dd146102dc578063313ce567146102ef57806338d52e0f14610309578063402d267d1461032f57600080fd5b80630a28a477116101c35780630a28a4771461025b57806318160ddd1461026e578063185025ef14610276578063206545c2146102b557600080fd5b806301e1d114146101f557806306fdde031461021057806307a2d13a14610225578063095ea7b314610238575b600080fd5b6101fd6104a0565b6040519081526020015b60405180910390f35b610218610549565b6040516102079190611643565b6101fd610233366004611676565b6105db565b61024b6102463660046116ab565b6105ee565b6040519015158152602001610207565b6101fd610269366004611676565b610606565b6002546101fd565b61029d7f000000000000000000000000000000000000000000000000000000000000000081565b6040516001600160a01b039091168152602001610207565b61029d7f000000000000000000000000000000000000000000000000000000000000000081565b61024b6102ea3660046116d5565b610613565b6102f7610639565b60405160ff9091168152602001610207565b7f000000000000000000000000000000000000000000000000000000000000000061029d565b6101fd61033d366004611712565b5060001990565b6101fd61035236600461172d565b610665565b6101fd610365366004611712565b6001600160a01b031660009081526020819052604090205490565b610388610679565b005b61038861068d565b6005546001600160a01b031661029d565b6101fd6103b136600461172d565b6106d6565b6102186106ea565b61024b6103cc3660046116ab565b6106f9565b6101fd6103df366004611676565b610707565b6101fd6103f2366004611759565b610714565b6101fd610405366004611759565b610729565b6101fd610418366004611676565b610736565b6101fd61042b366004611712565b610743565b6101fd61043e366004611712565b610767565b6101fd610451366004611795565b6001600160a01b03918216600090815260016020908152604080832093909416825291909152205490565b6006546001600160a01b031661029d565b61038861049b366004611712565b610785565b6040517f70a082310000000000000000000000000000000000000000000000000000000081523060048201526000907f00000000000000000000000000000000000000000000000000000000000000006001600160a01b0316906370a0823190602401602060405180830381865afa158015610520573d6000803e3d6000fd5b505050506040513d601f19601f8201168201806040525081019061054491906117bf565b905090565b606060038054610558906117d8565b80601f0160208091040260200160405190810160405280929190818152602001828054610584906117d8565b80156105d15780601f106105a6576101008083540402835291602001916105d1565b820191906000526020600020905b8154815290600101906020018083116105b457829003601f168201915b5050505050905090565b60006105e8826000610803565b92915050565b6000336105fc81858561083d565b5060019392505050565b60006105e882600161084f565b60003361062185828561087f565b61062c858585610916565b60019150505b9392505050565b6000610544817f0000000000000000000000000000000000000000000000000000000000000000611828565b600061066f610975565b61063283836109a2565b610681610975565b61068b60006109c0565b565b60065433906001600160a01b031681146106ca5760405163118cdaa760e01b81526001600160a01b03821660048201526024015b60405180910390fd5b6106d3816109c0565b50565b60006106e0610975565b61063283836109e6565b606060048054610558906117d8565b6000336105fc818585610916565b60006105e8826001610803565b6000610721848484610a04565b949350505050565b6000610721848484610a88565b60006105e882600061084f565b6001600160a01b0381166000908152602081905260408120546105e8906000610803565b6001600160a01b0381166000908152602081905260408120546105e8565b61078d610975565b600680546001600160a01b03831673ffffffffffffffffffffffffffffffffffffffff1990911681179091556107cb6005546001600160a01b031690565b6001600160a01b03167f38d16b8cac22d99fc7c124b9cd0de2d3fa1faef420bfe791d8c362d765e2270060405160405180910390a350565b60006106326108106104a0565b61081b906001611841565b6108276000600a61193b565b6002546108349190611841565b85919085610b03565b61084a8383836001610b52565b505050565b600061063261085f82600a61193b565b60025461086c9190611841565b6108746104a0565b610834906001611841565b6001600160a01b0383811660009081526001602090815260408083209386168352929052205460001981146109105781811015610901576040517ffb8f41b20000000000000000000000000000000000000000000000000000000081526001600160a01b038416600482015260248101829052604481018390526064016106c1565b61091084848484036000610b52565b50505050565b6001600160a01b03831661094057604051634b637e8f60e11b8152600060048201526024016106c1565b6001600160a01b03821661096a5760405163ec442f0560e01b8152600060048201526024016106c1565b61084a838383610c59565b6005546001600160a01b0316331461068b5760405163118cdaa760e01b81523360048201526024016106c1565b600060001960006109b285610736565b905061072133858784610d9c565b6006805473ffffffffffffffffffffffffffffffffffffffff191690556106d381610e20565b600060001960006109f685610707565b905061072133858388610d9c565b600080610a1083610743565b905080851115610a65576040517ffe9cceec0000000000000000000000000000000000000000000000000000000081526001600160a01b038416600482015260248101869052604481018290526064016106c1565b6000610a7086610606565b9050610a7f3386868985610e7f565b95945050505050565b600080610a9483610767565b905080851115610ae9576040517fb94abeec0000000000000000000000000000000000000000000000000000000081526001600160a01b038416600482015260248101869052604481018290526064016106c1565b6000610af4866105db565b9050610a7f338686848a610e7f565b600080610b1186868661103d565b9050610b1c8361111a565b8015610b38575060008480610b3357610b3361194a565b868809115b15610a7f57610b48600182611841565b9695505050505050565b6001600160a01b038416610b95576040517fe602df05000000000000000000000000000000000000000000000000000000008152600060048201526024016106c1565b6001600160a01b038316610bd8576040517f94280d62000000000000000000000000000000000000000000000000000000008152600060048201526024016106c1565b6001600160a01b038085166000908152600160209081526040808320938716835292905220829055801561091057826001600160a01b0316846001600160a01b03167f8c5be1e5ebec7d5bd14f71427d1e84f3dd0314c0f7b2291e5b200ac8c7c3b92584604051610c4b91815260200190565b60405180910390a350505050565b6001600160a01b038316610c84578060026000828254610c799190611841565b90915550610d0f9050565b6001600160a01b03831660009081526020819052604090205481811015610cf0576040517fe450d38c0000000000000000000000000000000000000000000000000000000081526001600160a01b038516600482015260248101829052604481018390526064016106c1565b6001600160a01b03841660009081526020819052604090209082900390555b6001600160a01b038216610d2b57600280548290039055610d4a565b6001600160a01b03821660009081526020819052604090208054820190555b816001600160a01b0316836001600160a01b03167fddf252ad1be2c89b69c2b068fc378daa952ba7f163c4a11628f55a4df523b3ef83604051610d8f91815260200190565b60405180910390a3505050565b610dc87f0000000000000000000000000000000000000000000000000000000000000000853085611147565b610dd283826111c3565b826001600160a01b0316846001600160a01b03167fdcbc1c05240f31ff3ad067ef1ee35ce4997762752e3a095284754544f4c709d78484604051610c4b929190918252602082015260400190565b600580546001600160a01b0383811673ffffffffffffffffffffffffffffffffffffffff19831681179093556040519116919082907f8be0079c531659141344cd1fd0a4f28419497f9722a3daafe3b4186f6b6457e090600090a35050565b826001600160a01b0316856001600160a01b031614610ea357610ea383868361087f565b610ead83826111fd565b610f016001600160a01b037f0000000000000000000000000000000000000000000000000000000000000000167f000000000000000000000000000000000000000000000000000000000000000084611233565b6040517feec5855c0000000000000000000000000000000000000000000000000000000081526001600160a01b037f0000000000000000000000000000000000000000000000000000000000000000811660048301528581166024830152604482018490527f0000000000000000000000000000000000000000000000000000000000000000169063eec5855c906064016020604051808303816000875af1158015610fb1573d6000803e3d6000fd5b505050506040513d601f19601f82011682018060405250810190610fd591906117bf565b50826001600160a01b0316846001600160a01b0316866001600160a01b03167ffbde797d201c681b91056529119e0b02407c7bb96a4a2c75c01fc9667232c8db858560405161102e929190918252602082015260400190565b60405180910390a45050505050565b60008383028160001985870982811083820303915050806000036110745783828161106a5761106a61194a565b0492505050610632565b8084116110ad576040517f227bc15300000000000000000000000000000000000000000000000000000000815260040160405180910390fd5b6000848688096000868103871696879004966002600389028118808a02820302808a02820302808a02820302808a02820302808a02820302808a02909103029181900381900460010186841190950394909402919094039290920491909117919091029150509392505050565b6000600282600381111561113057611130611960565b61113a9190611976565b60ff166001149050919050565b6040516001600160a01b0384811660248301528381166044830152606482018390526109109186918216906323b872dd906084015b604051602081830303815290604052915060e01b6020820180517bffffffffffffffffffffffffffffffffffffffffffffffffffffffff83818316178352505050506112d6565b6001600160a01b0382166111ed5760405163ec442f0560e01b8152600060048201526024016106c1565b6111f960008383610c59565b5050565b6001600160a01b03821661122757604051634b637e8f60e11b8152600060048201526024016106c1565b6111f982600083610c59565b6040517fdd62ed3e0000000000000000000000000000000000000000000000000000000081523060048201526001600160a01b0383811660248301526000919085169063dd62ed3e90604401602060405180830381865afa15801561129c573d6000803e3d6000fd5b505050506040513d601f19601f820116820180604052508101906112c091906117bf565b905061091084846112d18585611841565b611352565b60006112eb6001600160a01b03841683611410565b9050805160001415801561131057508080602001905181019061130e91906119a6565b155b1561084a576040517f5274afe70000000000000000000000000000000000000000000000000000000081526001600160a01b03841660048201526024016106c1565b604080516001600160a01b038416602482015260448082018490528251808303909101815260649091019091526020810180517bffffffffffffffffffffffffffffffffffffffffffffffffffffffff167f095ea7b3000000000000000000000000000000000000000000000000000000001790526113d1848261141e565b610910576040516001600160a01b0384811660248301526000604483015261140691869182169063095ea7b39060640161117c565b61091084826112d6565b6060610632838360006114c1565b6000806000846001600160a01b03168460405161143b91906119c8565b6000604051808303816000865af19150503d8060008114611478576040519150601f19603f3d011682016040523d82523d6000602084013e61147d565b606091505b50915091508180156114a75750805115806114a75750808060200190518101906114a791906119a6565b8015610a7f5750505050506001600160a01b03163b151590565b6060814710156114ff576040517fcd7860590000000000000000000000000000000000000000000000000000000081523060048201526024016106c1565b600080856001600160a01b0316848660405161151b91906119c8565b60006040518083038185875af1925050503d8060008114611558576040519150601f19603f3d011682016040523d82523d6000602084013e61155d565b606091505b5091509150610b4886838360608261157d57611578826115dd565b610632565b815115801561159457506001600160a01b0384163b155b156115d6576040517f9996b3150000000000000000000000000000000000000000000000000000000081526001600160a01b03851660048201526024016106c1565b5080610632565b8051156115ed5780518082602001fd5b6040517f1425ea4200000000000000000000000000000000000000000000000000000000815260040160405180910390fd5b60005b8381101561163a578181015183820152602001611622565b50506000910152565b602081526000825180602084015261166281604085016020870161161f565b601f01601f19169190910160400192915050565b60006020828403121561168857600080fd5b5035919050565b80356001600160a01b03811681146116a657600080fd5b919050565b600080604083850312156116be57600080fd5b6116c78361168f565b946020939093013593505050565b6000806000606084860312156116ea57600080fd5b6116f38461168f565b92506117016020850161168f565b929592945050506040919091013590565b60006020828403121561172457600080fd5b6106328261168f565b6000806040838503121561174057600080fd5b823591506117506020840161168f565b90509250929050565b60008060006060848603121561176e57600080fd5b8335925061177e6020850161168f565b915061178c6040850161168f565b90509250925092565b600080604083850312156117a857600080fd5b6117b18361168f565b91506117506020840161168f565b6000602082840312156117d157600080fd5b5051919050565b600181811c908216806117ec57607f821691505b60208210810361180c57634e487b7160e01b600052602260045260246000fd5b50919050565b634e487b7160e01b600052601160045260246000fd5b60ff81811683821601908111156105e8576105e8611812565b808201808211156105e8576105e8611812565b6001815b600184111561188f5780850481111561187357611873611812565b600184161561188157908102905b60019390931c928002611858565b935093915050565b6000826118a6575060016105e8565b816118b3575060006105e8565b81600181146118c957600281146118d3576118ef565b60019150506105e8565b60ff8411156118e4576118e4611812565b50506001821b6105e8565b5060208310610133831016604e8410600b8410161715611912575081810a6105e8565b61191f6000198484611854565b806000190482111561193357611933611812565b029392505050565b600061063260ff841683611897565b634e487b7160e01b600052601260045260246000fd5b634e487b7160e01b600052602160045260246000fd5b600060ff83168061199757634e487b7160e01b600052601260045260246000fd5b8060ff84160691505092915050565b6000602082840312156119b857600080fd5b8151801515811461063257600080fd5b600082516119da81846020870161161f565b919091019291505056fea26469706673582212200818d85d933a9fe21624ec5585fadf7dd6113eb2b5a9d2857d40cbb1113f0ba064736f6c634300081b0033a264697066735822122039d3921d5c370455f76e515ce7a99f4e5ca4f3ed787a7e3fe85d1e66b0f473a864736f6c634300081b0033",
  "linkReferences": {},
  "deployedLinkReferences": {}
}