{
  "_format": "hh-sol-artifact-1",
  "contractName": "HyperStakingInit",
  "sourceName": "contracts/hyperstaking/HyperStakingInit.sol",
  "abi": [
    {
      "inputs": [],
      "name": "AccessControlBadConfirmation",
      "type": "error"
    },
    {
      "inputs": [
        {
          "internalType": "address",
          "name": "account",
          "type": "address"
        },
        {
          "internalType": "bytes32",
          "name": "neededRole",
          "type": "bytes32"
        }
      ],
      "name": "AccessControlUnauthorizedAccount",
      "type": "error"
    },
    {
      "inputs": [],
      "name": "EnforcedPause",
      "type": "error"
    },
    {
      "inputs": [],
      "name": "ExpectedPause",
      "type": "error"
    },
    {
      "inputs": [],
      "name": "InvalidInitialization",
      "type": "error"
    },
    {
      "inputs": [],
      "name": "NotInitializing",
      "type": "error"
    },
    {
      "inputs": [],
      "name": "ReentrancyGuardReentrantCall",
      "type": "error"
    },
    {
      "anonymous": false,
      "inputs": [
        {
          "indexed": false,
          "internalType": "uint64",
          "name": "version",
          "type": "uint64"
        }
      ],
      "name": "Initialized",
      "type": "event"
    },
    {
      "anonymous": false,
      "inputs": [
        {
          "indexed": false,
          "internalType": "address",
          "name": "account",
          "type": "address"
        }
      ],
      "name": "Paused",
      "type": "event"
    },
    {
      "anonymous": false,
      "inputs": [
        {
          "indexed": true,
          "internalType": "bytes32",
          "name": "role",
          "type": "bytes32"
        },
        {
          "indexed": true,
          "internalType": "bytes32",
          "name": "previousAdminRole",
          "type": "bytes32"
        },
        {
          "indexed": true,
          "internalType": "bytes32",
          "name": "newAdminRole",
          "type": "bytes32"
        }
      ],
      "name": "RoleAdminChanged",
      "type": "event"
    },
    {
      "anonymous": false,
      "inputs": [
        {
          "indexed": true,
          "internalType": "bytes32",
          "name": "role",
          "type": "bytes32"
        },
        {
          "indexed": true,
          "internalType": "address",
          "name": "account",
          "type": "address"
        },
        {
          "indexed": true,
          "internalType": "address",
          "name": "sender",
          "type": "address"
        }
      ],
      "name": "RoleGranted",
      "type": "event"
    },
    {
      "anonymous": false,
      "inputs": [
        {
          "indexed": true,
          "internalType": "bytes32",
          "name": "role",
          "type": "bytes32"
        },
        {
          "indexed": true,
          "internalType": "address",
          "name": "account",
          "type": "address"
        },
        {
          "indexed": true,
          "internalType": "address",
          "name": "sender",
          "type": "address"
        }
      ],
      "name": "RoleRevoked",
      "type": "event"
    },
    {
      "anonymous": false,
      "inputs": [
        {
          "indexed": false,
          "internalType": "address",
          "name": "account",
          "type": "address"
        }
      ],
      "name": "Unpaused",
      "type": "event"
    },
    {
      "inputs": [],
      "name": "DEFAULT_ADMIN_ROLE",
      "outputs": [
        {
          "internalType": "bytes32",
          "name": "",
          "type": "bytes32"
        }
      ],
      "stateMutability": "view",
      "type": "function"
    },
    {
      "inputs": [
        {
          "internalType": "bytes32",
          "name": "role",
          "type": "bytes32"
        }
      ],
      "name": "getRoleAdmin",
      "outputs": [
        {
          "internalType": "bytes32",
          "name": "",
          "type": "bytes32"
        }
      ],
      "stateMutability": "view",
      "type": "function"
    },
    {
      "inputs": [
        {
          "internalType": "bytes32",
          "name": "role",
          "type": "bytes32"
        },
        {
          "internalType": "uint256",
          "name": "index",
          "type": "uint256"
        }
      ],
      "name": "getRoleMember",
      "outputs": [
        {
          "internalType": "address",
          "name": "",
          "type": "address"
        }
      ],
      "stateMutability": "view",
      "type": "function"
    },
    {
      "inputs": [
        {
          "internalType": "bytes32",
          "name": "role",
          "type": "bytes32"
        }
      ],
      "name": "getRoleMemberCount",
      "outputs": [
        {
          "internalType": "uint256",
          "name": "",
          "type": "uint256"
        }
      ],
      "stateMutability": "view",
      "type": "function"
    },
    {
      "inputs": [
        {
          "internalType": "bytes32",
          "name": "role",
          "type": "bytes32"
        },
        {
          "internalType": "address",
          "name": "account",
          "type": "address"
        }
      ],
      "name": "grantRole",
      "outputs": [],
      "stateMutability": "nonpayable",
      "type": "function"
    },
    {
      "inputs": [
        {
          "internalType": "bytes32",
          "name": "role",
          "type": "bytes32"
        },
        {
          "internalType": "address",
          "name": "account",
          "type": "address"
        }
      ],
      "name": "hasRole",
      "outputs": [
        {
          "internalType": "bool",
          "name": "",
          "type": "bool"
        }
      ],
      "stateMutability": "view",
      "type": "function"
    },
    {
      "inputs": [],
      "name": "init",
      "outputs": [],
      "stateMutability": "nonpayable",
      "type": "function"
    },
    {
      "inputs": [],
      "name": "paused",
      "outputs": [
        {
          "internalType": "bool",
          "name": "",
          "type": "bool"
        }
      ],
      "stateMutability": "view",
      "type": "function"
    },
    {
      "inputs": [
        {
          "internalType": "bytes32",
          "name": "role",
          "type": "bytes32"
        },
        {
          "internalType": "address",
          "name": "callerConfirmation",
          "type": "address"
        }
      ],
      "name": "renounceRole",
      "outputs": [],
      "stateMutability": "nonpayable",
      "type": "function"
    },
    {
      "inputs": [
        {
          "internalType": "bytes32",
          "name": "role",
          "type": "bytes32"
        },
        {
          "internalType": "address",
          "name": "account",
          "type": "address"
        }
      ],
      "name": "revokeRole",
      "outputs": [],
      "stateMutability": "nonpayable",
      "type": "function"
    },
    {
      "inputs": [
        {
          "internalType": "bytes4",
          "name": "interfaceId",
          "type": "bytes4"
        }
      ],
      "name": "supportsInterface",
      "outputs": [
        {
          "internalType": "bool",
          "name": "",
          "type": "bool"
        }
      ],
      "stateMutability": "view",
      "type": "function"
    }
  ],
  "bytecode": "0x6080604052348015600f57600080fd5b50610c688061001f6000396000f3fe608060405234801561001057600080fd5b50600436106100c95760003560e01c80639010d07c11610081578063ca15c8731161005b578063ca15c87314610223578063d547741f14610236578063e1c7392a1461024957600080fd5b80639010d07c1461019857806391d14854146101c3578063a217fddf1461021b57600080fd5b80632f2ff15d116100b25780632f2ff15d1461014657806336568abe1461015b5780635c975abb1461016e57600080fd5b806301ffc9a7146100ce578063248a9ca3146100f6575b600080fd5b6100e16100dc366004610b44565b610251565b60405190151581526020015b60405180910390f35b610138610104366004610b6e565b60009081527f02dd7bc7dec4dceedda775e58dd541e08a116c6c53815c0bd028192f7b626800602052604090206001015490565b6040519081526020016100ed565b610159610154366004610b87565b61027c565b005b610159610169366004610b87565b6102c6565b7fcd5ed15c6e187e77e9aee88184c21f4f2182ab5827cb3b7e07fbedcd63f033005460ff166100e1565b6101ab6101a6366004610bc3565b610317565b6040516001600160a01b0390911681526020016100ed565b6100e16101d1366004610b87565b60009182527f02dd7bc7dec4dceedda775e58dd541e08a116c6c53815c0bd028192f7b626800602090815260408084206001600160a01b0393909316845291905290205460ff1690565b610138600081565b610138610231366004610b6e565b610358565b610159610244366004610b87565b610397565b6101596103db565b60006001600160e01b03198216635a05180f60e01b148061027657506102768261058d565b92915050565b60008281527f02dd7bc7dec4dceedda775e58dd541e08a116c6c53815c0bd028192f7b62680060205260409020600101546102b6816105f4565b6102c08383610601565b50505050565b6001600160a01b0381163314610308576040517f6697b23200000000000000000000000000000000000000000000000000000000815260040160405180910390fd5b6103128282610658565b505050565b60008281527fc1f6fe24621ce81ec5827caf0253cadb74709b061630e6b55e8237170593200060208190526040822061035090846106a6565b949350505050565b60008181527fc1f6fe24621ce81ec5827caf0253cadb74709b061630e6b55e82371705932000602081905260408220610390906106b2565b9392505050565b60008281527f02dd7bc7dec4dceedda775e58dd541e08a116c6c53815c0bd028192f7b62680060205260409020600101546103d1816105f4565b6102c08383610658565b7ff0c57e16840df040f15088dc2f81fe391c3923bec73e23a9662efc9c229c6a00805468010000000000000000810460ff16159067ffffffffffffffff166000811580156104265750825b905060008267ffffffffffffffff1660011480156104435750303b155b905081158015610451575080155b15610488576040517ff92ee8a900000000000000000000000000000000000000000000000000000000815260040160405180910390fd5b845467ffffffffffffffff1916600117855583156104bc57845468ff00000000000000001916680100000000000000001785555b6104c46106bc565b6104cc6106c6565b6104d46106d6565b6104df600033610601565b50635a05180f60e01b6000527fc8fcad8db84d3cc18b4c41d551ea0ee66dd599cde068d998e57d5e09332c131f6020527fead49a91534c613aa041a37b4ec60071fffa378ffdebca636e9dba34cc056cc8805460ff19166001179055831561058657845468ff000000000000000019168555604051600181527fc7f505b2f371ae2175ee4913f4499e1f2633a7b5936321eed1cdaeb6115181d29060200160405180910390a15b5050505050565b60006001600160e01b031982167f7965db0b00000000000000000000000000000000000000000000000000000000148061027657507f01ffc9a7000000000000000000000000000000000000000000000000000000006001600160e01b0319831614610276565b6105fe81336106e6565b50565b60007fc1f6fe24621ce81ec5827caf0253cadb74709b061630e6b55e823717059320008161062f858561077b565b9050801561035057600085815260208390526040902061064f908561084a565b50949350505050565b60007fc1f6fe24621ce81ec5827caf0253cadb74709b061630e6b55e8237170593200081610686858561085f565b9050801561035057600085815260208390526040902061064f9085610905565b6000610390838361091a565b6000610276825490565b6106c4610944565b565b6106ce610944565b6106c46109ab565b6106de610944565b6106c46109d9565b60008281527f02dd7bc7dec4dceedda775e58dd541e08a116c6c53815c0bd028192f7b626800602090815260408083206001600160a01b038516845290915290205460ff16610777576040517fe2517d3f0000000000000000000000000000000000000000000000000000000081526001600160a01b03821660048201526024810183905260440160405180910390fd5b5050565b60008281527f02dd7bc7dec4dceedda775e58dd541e08a116c6c53815c0bd028192f7b626800602081815260408084206001600160a01b038616855290915282205460ff16610840576000848152602082815260408083206001600160a01b03871684529091529020805460ff191660011790556107f63390565b6001600160a01b0316836001600160a01b0316857f2f8788117e7eff1d82e926ec794901d17c78024a50270940304540a733656f0d60405160405180910390a46001915050610276565b6000915050610276565b6000610390836001600160a01b038416610a0c565b60008281527f02dd7bc7dec4dceedda775e58dd541e08a116c6c53815c0bd028192f7b626800602081815260408084206001600160a01b038616855290915282205460ff1615610840576000848152602082815260408083206001600160a01b0387168085529252808320805460ff1916905551339287917ff6391f5c32d9c69d2a47ea670b442974b53935d1edc7fd64eb21e047a839171b9190a46001915050610276565b6000610390836001600160a01b038416610a5b565b600082600001828154811061093157610931610be5565b9060005260206000200154905092915050565b7ff0c57e16840df040f15088dc2f81fe391c3923bec73e23a9662efc9c229c6a005468010000000000000000900460ff166106c4576040517fd7e6bcf800000000000000000000000000000000000000000000000000000000815260040160405180910390fd5b6109b3610944565b60017f9b779b17422d0df92223018b32b4d1fa46e071723d6817e2486d003becc55f0055565b6109e1610944565b7fcd5ed15c6e187e77e9aee88184c21f4f2182ab5827cb3b7e07fbedcd63f03300805460ff19169055565b6000818152600183016020526040812054610a5357508154600181810184556000848152602080822090930184905584548482528286019093526040902091909155610276565b506000610276565b60008181526001830160205260408120548015610840576000610a7f600183610bfb565b8554909150600090610a9390600190610bfb565b9050808214610af8576000866000018281548110610ab357610ab3610be5565b9060005260206000200154905080876000018481548110610ad657610ad6610be5565b6000918252602080832090910192909255918252600188019052604090208390555b8554869080610b0957610b09610c1c565b600190038181906000526020600020016000905590558560010160008681526020019081526020016000206000905560019350505050610276565b600060208284031215610b5657600080fd5b81356001600160e01b03198116811461039057600080fd5b600060208284031215610b8057600080fd5b5035919050565b60008060408385031215610b9a57600080fd5b8235915060208301356001600160a01b0381168114610bb857600080fd5b809150509250929050565b60008060408385031215610bd657600080fd5b50508035926020909101359150565b634e487b7160e01b600052603260045260246000fd5b8181038181111561027657634e487b7160e01b600052601160045260246000fd5b634e487b7160e01b600052603160045260246000fdfea2646970667358221220ff7e896c811adad17701a3d080221a290d28dff9bf9dd4350367e5453d8d479064736f6c634300081b0033",
  "linkReferences": {},
  "deployedLinkReferences": {}
}