{
  "_format": "hh-sol-artifact-1",
  "contractName": "Tier1VaultFacet",
  "sourceName": "contracts/hyperstaking/facets/Tier1VaultFacet.sol",
  "abi": [
    {
      "inputs": [],
      "name": "AccessControlBadConfirmation",
      "type": "error"
    },
    {
      "inputs": [
        {
          "internalType": "address",
          "name": "account",
          "type": "address"
        },
        {
          "internalType": "bytes32",
          "name": "neededRole",
          "type": "bytes32"
        }
      ],
      "name": "AccessControlUnauthorizedAccount",
      "type": "error"
    },
    {
      "inputs": [
        {
          "internalType": "address",
          "name": "target",
          "type": "address"
        }
      ],
      "name": "AddressEmptyCode",
      "type": "error"
    },
    {
      "inputs": [
        {
          "internalType": "address",
          "name": "account",
          "type": "address"
        }
      ],
      "name": "AddressInsufficientBalance",
      "type": "error"
    },
    {
      "inputs": [],
      "name": "FailedInnerCall",
      "type": "error"
    },
    {
      "inputs": [],
      "name": "InsufficientStakeLocked",
      "type": "error"
    },
    {
      "inputs": [],
      "name": "InvalidInitialization",
      "type": "error"
    },
    {
      "inputs": [],
      "name": "InvalidRevenueFeeValue",
      "type": "error"
    },
    {
      "inputs": [],
      "name": "NotInitializing",
      "type": "error"
    },
    {
      "inputs": [],
      "name": "OnlyDiamondInternal",
      "type": "error"
    },
    {
      "inputs": [],
      "name": "OnlyRewardsManager",
      "type": "error"
    },
    {
      "inputs": [],
      "name": "OnlyStakingManager",
      "type": "error"
    },
    {
      "inputs": [],
      "name": "OnlyStrategyVaultManager",
      "type": "error"
    },
    {
      "inputs": [],
      "name": "ReentrancyGuardReentrantCall",
      "type": "error"
    },
    {
      "inputs": [
        {
          "internalType": "address",
          "name": "token",
          "type": "address"
        }
      ],
      "name": "SafeERC20FailedOperation",
      "type": "error"
    },
    {
      "anonymous": false,
      "inputs": [
        {
          "indexed": false,
          "internalType": "uint64",
          "name": "version",
          "type": "uint64"
        }
      ],
      "name": "Initialized",
      "type": "event"
    },
    {
      "anonymous": false,
      "inputs": [
        {
          "indexed": true,
          "internalType": "bytes32",
          "name": "role",
          "type": "bytes32"
        },
        {
          "indexed": true,
          "internalType": "bytes32",
          "name": "previousAdminRole",
          "type": "bytes32"
        },
        {
          "indexed": true,
          "internalType": "bytes32",
          "name": "newAdminRole",
          "type": "bytes32"
        }
      ],
      "name": "RoleAdminChanged",
      "type": "event"
    },
    {
      "anonymous": false,
      "inputs": [
        {
          "indexed": true,
          "internalType": "bytes32",
          "name": "role",
          "type": "bytes32"
        },
        {
          "indexed": true,
          "internalType": "address",
          "name": "account",
          "type": "address"
        },
        {
          "indexed": true,
          "internalType": "address",
          "name": "sender",
          "type": "address"
        }
      ],
      "name": "RoleGranted",
      "type": "event"
    },
    {
      "anonymous": false,
      "inputs": [
        {
          "indexed": true,
          "internalType": "bytes32",
          "name": "role",
          "type": "bytes32"
        },
        {
          "indexed": true,
          "internalType": "address",
          "name": "account",
          "type": "address"
        },
        {
          "indexed": true,
          "internalType": "address",
          "name": "sender",
          "type": "address"
        }
      ],
      "name": "RoleRevoked",
      "type": "event"
    },
    {
      "anonymous": false,
      "inputs": [
        {
          "indexed": true,
          "internalType": "address",
          "name": "strategy",
          "type": "address"
        },
        {
          "indexed": true,
          "internalType": "address",
          "name": "user",
          "type": "address"
        },
        {
          "indexed": false,
          "internalType": "uint256",
          "name": "stake",
          "type": "uint256"
        },
        {
          "indexed": false,
          "internalType": "uint256",
          "name": "allocation",
          "type": "uint256"
        }
      ],
      "name": "Tier1Join",
      "type": "event"
    },
    {
      "anonymous": false,
      "inputs": [
        {
          "indexed": true,
          "internalType": "address",
          "name": "strategy",
          "type": "address"
        },
        {
          "indexed": true,
          "internalType": "address",
          "name": "user",
          "type": "address"
        },
        {
          "indexed": false,
          "internalType": "uint256",
          "name": "stake",
          "type": "uint256"
        },
        {
          "indexed": false,
          "internalType": "uint256",
          "name": "allocation",
          "type": "uint256"
        },
        {
          "indexed": false,
          "internalType": "uint256",
          "name": "allocationFee",
          "type": "uint256"
        }
      ],
      "name": "Tier1Leave",
      "type": "event"
    },
    {
      "inputs": [],
      "name": "DEFAULT_ADMIN_ROLE",
      "outputs": [
        {
          "internalType": "bytes32",
          "name": "",
          "type": "bytes32"
        }
      ],
      "stateMutability": "view",
      "type": "function"
    },
    {
      "inputs": [],
      "name": "REWARDS_MANAGER_ROLE",
      "outputs": [
        {
          "internalType": "bytes32",
          "name": "",
          "type": "bytes32"
        }
      ],
      "stateMutability": "view",
      "type": "function"
    },
    {
      "inputs": [],
      "name": "STAKING_MANAGER_ROLE",
      "outputs": [
        {
          "internalType": "bytes32",
          "name": "",
          "type": "bytes32"
        }
      ],
      "stateMutability": "view",
      "type": "function"
    },
    {
      "inputs": [],
      "name": "STRATEGY_VAULT_MANAGER_ROLE",
      "outputs": [
        {
          "internalType": "bytes32",
          "name": "",
          "type": "bytes32"
        }
      ],
      "stateMutability": "view",
      "type": "function"
    },
    {
      "inputs": [
        {
          "internalType": "address",
          "name": "strategy",
          "type": "address"
        },
        {
          "internalType": "uint256",
          "name": "allocation",
          "type": "uint256"
        }
      ],
      "name": "allocationFee",
      "outputs": [
        {
          "internalType": "uint256",
          "name": "feeAmount",
          "type": "uint256"
        }
      ],
      "stateMutability": "view",
      "type": "function"
    },
    {
      "inputs": [
        {
          "internalType": "address",
          "name": "strategy",
          "type": "address"
        },
        {
          "internalType": "address",
          "name": "user",
          "type": "address"
        },
        {
          "internalType": "uint256",
          "name": "stake",
          "type": "uint256"
        }
      ],
      "name": "allocationGain",
      "outputs": [
        {
          "internalType": "uint256",
          "name": "",
          "type": "uint256"
        }
      ],
      "stateMutability": "view",
      "type": "function"
    },
    {
      "inputs": [
        {
          "internalType": "bytes32",
          "name": "role",
          "type": "bytes32"
        }
      ],
      "name": "getRoleAdmin",
      "outputs": [
        {
          "internalType": "bytes32",
          "name": "",
          "type": "bytes32"
        }
      ],
      "stateMutability": "view",
      "type": "function"
    },
    {
      "inputs": [
        {
          "internalType": "bytes32",
          "name": "role",
          "type": "bytes32"
        },
        {
          "internalType": "uint256",
          "name": "index",
          "type": "uint256"
        }
      ],
      "name": "getRoleMember",
      "outputs": [
        {
          "internalType": "address",
          "name": "",
          "type": "address"
        }
      ],
      "stateMutability": "view",
      "type": "function"
    },
    {
      "inputs": [
        {
          "internalType": "bytes32",
          "name": "role",
          "type": "bytes32"
        }
      ],
      "name": "getRoleMemberCount",
      "outputs": [
        {
          "internalType": "uint256",
          "name": "",
          "type": "uint256"
        }
      ],
      "stateMutability": "view",
      "type": "function"
    },
    {
      "inputs": [
        {
          "internalType": "bytes32",
          "name": "role",
          "type": "bytes32"
        },
        {
          "internalType": "address",
          "name": "account",
          "type": "address"
        }
      ],
      "name": "grantRole",
      "outputs": [],
      "stateMutability": "nonpayable",
      "type": "function"
    },
    {
      "inputs": [
        {
          "internalType": "bytes32",
          "name": "role",
          "type": "bytes32"
        },
        {
          "internalType": "address",
          "name": "account",
          "type": "address"
        }
      ],
      "name": "hasRole",
      "outputs": [
        {
          "internalType": "bool",
          "name": "",
          "type": "bool"
        }
      ],
      "stateMutability": "view",
      "type": "function"
    },
    {
      "inputs": [
        {
          "internalType": "address",
          "name": "strategy",
          "type": "address"
        },
        {
          "internalType": "address",
          "name": "user",
          "type": "address"
        },
        {
          "internalType": "uint256",
          "name": "stake",
          "type": "uint256"
        }
      ],
      "name": "joinTier1",
      "outputs": [],
      "stateMutability": "payable",
      "type": "function"
    },
    {
      "inputs": [
        {
          "internalType": "address",
          "name": "strategy",
          "type": "address"
        },
        {
          "internalType": "address",
          "name": "user",
          "type": "address"
        },
        {
          "internalType": "uint256",
          "name": "stake",
          "type": "uint256"
        }
      ],
      "name": "leaveTier1",
      "outputs": [
        {
          "internalType": "uint256",
          "name": "withdrawAmount",
          "type": "uint256"
        }
      ],
      "stateMutability": "nonpayable",
      "type": "function"
    },
    {
      "inputs": [
        {
          "internalType": "address",
          "name": "strategy",
          "type": "address"
        },
        {
          "internalType": "uint256",
          "name": "stake",
          "type": "uint256"
        }
      ],
      "name": "migrateToTier2",
      "outputs": [],
      "stateMutability": "nonpayable",
      "type": "function"
    },
    {
      "inputs": [
        {
          "internalType": "bytes32",
          "name": "role",
          "type": "bytes32"
        },
        {
          "internalType": "address",
          "name": "callerConfirmation",
          "type": "address"
        }
      ],
      "name": "renounceRole",
      "outputs": [],
      "stateMutability": "nonpayable",
      "type": "function"
    },
    {
      "inputs": [
        {
          "internalType": "bytes32",
          "name": "role",
          "type": "bytes32"
        },
        {
          "internalType": "address",
          "name": "account",
          "type": "address"
        }
      ],
      "name": "revokeRole",
      "outputs": [],
      "stateMutability": "nonpayable",
      "type": "function"
    },
    {
      "inputs": [
        {
          "internalType": "address",
          "name": "strategy",
          "type": "address"
        },
        {
          "internalType": "uint256",
          "name": "revenueFee",
          "type": "uint256"
        }
      ],
      "name": "setRevenueFee",
      "outputs": [],
      "stateMutability": "nonpayable",
      "type": "function"
    },
    {
      "inputs": [
        {
          "internalType": "bytes4",
          "name": "interfaceId",
          "type": "bytes4"
        }
      ],
      "name": "supportsInterface",
      "outputs": [
        {
          "internalType": "bool",
          "name": "",
          "type": "bool"
        }
      ],
      "stateMutability": "view",
      "type": "function"
    },
    {
      "inputs": [
        {
          "internalType": "address",
          "name": "strategy",
          "type": "address"
        },
        {
          "internalType": "address",
          "name": "user",
          "type": "address"
        }
      ],
      "name": "userContribution",
      "outputs": [
        {
          "internalType": "uint256",
          "name": "",
          "type": "uint256"
        }
      ],
      "stateMutability": "view",
      "type": "function"
    },
    {
      "inputs": [
        {
          "internalType": "address",
          "name": "strategy",
          "type": "address"
        },
        {
          "internalType": "address",
          "name": "user",
          "type": "address"
        }
      ],
      "name": "userRevenue",
      "outputs": [
        {
          "internalType": "uint256",
          "name": "revenue",
          "type": "uint256"
        }
      ],
      "stateMutability": "view",
      "type": "function"
    },
    {
      "inputs": [
        {
          "internalType": "address",
          "name": "strategy",
          "type": "address"
        },
        {
          "internalType": "address",
          "name": "user",
          "type": "address"
        }
      ],
      "name": "userTier1Info",
      "outputs": [
        {
          "components": [
            {
              "internalType": "uint256",
              "name": "stakeLocked",
              "type": "uint256"
            },
            {
              "internalType": "uint256",
              "name": "allocationPoint",
              "type": "uint256"
            }
          ],
          "internalType": "struct UserTier1Info",
          "name": "",
          "type": "tuple"
        }
      ],
      "stateMutability": "view",
      "type": "function"
    },
    {
      "inputs": [
        {
          "internalType": "address",
          "name": "strategy",
          "type": "address"
        }
      ],
      "name": "vaultTier1Info",
      "outputs": [
        {
          "components": [
            {
              "internalType": "uint256",
              "name": "assetAllocation",
              "type": "uint256"
            },
            {
              "internalType": "uint256",
              "name": "totalStakeLocked",
              "type": "uint256"
            },
            {
              "internalType": "uint256",
              "name": "revenueFee",
              "type": "uint256"
            }
          ],
          "internalType": "struct VaultTier1",
          "name": "",
          "type": "tuple"
        }
      ],
      "stateMutability": "view",
      "type": "function"
    }
  ],
  "bytecode": "0x6080604052348015600f57600080fd5b506125548061001f6000396000f3fe6080604052600436106101755760003560e01c8063777292e8116100cb578063b7d489f31161007f578063db80e61d11610059578063db80e61d1461049b578063e0dd24571461053e578063edaf76431461057257600080fd5b8063b7d489f31461043b578063ca15c8731461045b578063d547741f1461047b57600080fd5b806391d14854116100b057806391d14854146103a1578063a217fddf14610406578063a75c56321461041b57600080fd5b8063777292e8146103355780639010d07c1461036957600080fd5b80632a0615031161012d5780633937c0b3116101075780633937c0b3146102c1578063464f7d47146102f55780635fb1fe101461031557600080fd5b80632a061503146102615780632f2ff15d1461028157806336568abe146102a157600080fd5b806313a03b591161015e57806313a03b59146101dd578063201a777b146101ff578063248a9ca31461021257600080fd5b806301ffc9a71461017a5780630b74f538146101af575b600080fd5b34801561018657600080fd5b5061019a6101953660046121a1565b6105b4565b60405190151581526020015b60405180910390f35b3480156101bb57600080fd5b506101cf6101ca3660046121e7565b6105f8565b6040519081526020016101a6565b3480156101e957600080fd5b506101fd6101f8366004612224565b610731565b005b6101fd61020d3660046121e7565b6108bd565b34801561021e57600080fd5b506101cf61022d36600461224e565b60009081527f02dd7bc7dec4dceedda775e58dd541e08a116c6c53815c0bd028192f7b626800602052604090206001015490565b34801561026d57600080fd5b506101fd61027c366004612224565b610bcb565b34801561028d57600080fd5b506101fd61029c366004612267565b610d01565b3480156102ad57600080fd5b506101fd6102bc366004612267565b610d4b565b3480156102cd57600080fd5b506101cf7fa6b5d83d32632203555cb9b2c2f68a8d94da48cadd9266ac0d17babedb52ea5b81565b34801561030157600080fd5b506101cf610310366004612224565b610d9c565b34801561032157600080fd5b506101cf610330366004612293565b610e22565b34801561034157600080fd5b506101cf7f2c0ada6e921ab1da9a99807ca4df2ed1b7eff32704ad00ff79908b8054c8107d81565b34801561037557600080fd5b506103896103843660046122bd565b610f11565b6040516001600160a01b0390911681526020016101a6565b3480156103ad57600080fd5b5061019a6103bc366004612267565b60009182527f02dd7bc7dec4dceedda775e58dd541e08a116c6c53815c0bd028192f7b626800602090815260408084206001600160a01b0393909316845291905290205460ff1690565b34801561041257600080fd5b506101cf600081565b34801561042757600080fd5b506101cf610436366004612293565b610f52565b34801561044757600080fd5b506101cf6104563660046121e7565b611024565b34801561046757600080fd5b506101cf61047636600461224e565b6110c5565b34801561048757600080fd5b506101fd610496366004612267565b6110fd565b3480156104a757600080fd5b506105236104b6366004612293565b604080518082018252600080825260209182018190526001600160a01b0394851681527fbe4ff07067d4fd4ee08dc2d2f96a40cbf5630eafbe74b02fa78478a777226685825282812093909416845291825291829020825180840190935280548352600101549082015290565b604080518251815260209283015192810192909252016101a6565b34801561054a57600080fd5b506101cf7f51785d261c3b3e8c2cfe2d0e108b9ab2b1fb703ff9e9e49aba4ebdc85c36152b81565b34801561057e57600080fd5b5061059261058d3660046122df565b611141565b60408051825181526020808401519082015291810151908201526060016101a6565b60006001600160e01b031982167f5a05180f0000000000000000000000000000000000000000000000000000000014806105f257506105f2826111c6565b92915050565b600033301461061a5760405163d248bf1560e01b815260040160405180910390fd5b6001600160a01b03841660009081527fbe4ff07067d4fd4ee08dc2d2f96a40cbf5630eafbe74b02fa78478a777226686602052604081207fbe4ff07067d4fd4ee08dc2d2f96a40cbf5630eafbe74b02fa78478a7772266859161067e87878761122d565b600283015490915061069a906001600160a01b0316888361144c565b6040517fcff40759000000000000000000000000000000000000000000000000000000008152600481018290526001600160a01b03878116602483015288169063cff40759906044016020604051808303816000875af1158015610702573d6000803e3d6000fd5b505050506040513d601f19601f8201168201806040525081019061072691906122fa565b979650505050505050565b600061073e83338461122d565b6001600160a01b03841660009081527fbe4ff07067d4fd4ee08dc2d2f96a40cbf5630eafbe74b02fa78478a77722668660209081526040808320805484527f34b634470e29e36048aab5cc5a64c34b2eced30149e0fdca374a6ec67d2dfdf383528184207f34b634470e29e36048aab5cc5a64c34b2eced30149e0fdca374a6ec67d2dfdf28085528386203387529094529184206002830180549697507fbe4ff07067d4fd4ee08dc2d2f96a40cbf5630eafbe74b02fa78478a777226685969295919289929061080f908490612329565b9091555050805487908290600090610828908490612329565b90915550506040517fda83cb3c0000000000000000000000000000000000000000000000000000000081526001600160a01b03891660048201523360248201526044810187905230955063da83cb3c94506064019250610886915050565b600060405180830381600087803b1580156108a057600080fd5b505af11580156108b4573d6000803e3d6000fd5b50505050505050565b3330146108dd5760405163d248bf1560e01b815260040160405180910390fd5b6001600160a01b0383811660008181527fbe4ff07067d4fd4ee08dc2d2f96a40cbf5630eafbe74b02fa78478a777226686602090815260408083207fbe4ff07067d4fd4ee08dc2d2f96a40cbf5630eafbe74b02fa78478a777226687835281842081548086527f34b634470e29e36048aab5cc5a64c34b2eced30149e0fdca374a6ec67d2dfdf385528386209686527fbe4ff07067d4fd4ee08dc2d2f96a40cbf5630eafbe74b02fa78478a777226685808652848720988b168088529886528487209187527f34b634470e29e36048aab5cc5a64c34b2eced30149e0fdca374a6ec67d2dfdf280875285882099885298909552929094209295909490929091906109e8828b8a6114ef565b60018301556109f98183878b6115b3565b5050604080516020810190915260018201546001600160a01b031690819052600090610a9b57604051630faa7cc560e21b8152600481018890526001600160a01b0389811660248301528a1690633ea9f31490899060440160206040518083038185885af1158015610a6f573d6000803e3d6000fd5b50505050506040513d601f19601f82011682018060405250810190610a9491906122fa565b9050610b37565b604080516020810190915260018301546001600160a01b03168152610ac1908a89611606565b604051630faa7cc560e21b8152600481018890526001600160a01b0389811660248301528a1690633ea9f314906044016020604051808303816000875af1158015610b10573d6000803e3d6000fd5b505050506040513d601f19601f82011682018060405250810190610b3491906122fa565b90505b80846000016000828254610b4b919061233c565b90915550506002850154610b6a906001600160a01b03168a3084611717565b876001600160a01b0316896001600160a01b03167f067986ecbed988d24cdac257af48c864dca9497ad7e4e3185ef6d13aa7e454cd8984604051610bb8929190918252602082015260400190565b60405180910390a3505050505050505050565b3360009081527f2ad735f717cd945f2134ef4f1cf41297f58b220aec5b6f6e2d8482ded21f8574602052604090205460ff16610c33576040517f2396693e00000000000000000000000000000000000000000000000000000000815260040160405180910390fd5b610c3b611793565b6000610c506064670de0b6b3a764000061234f565b9050610c5d81601e612371565b821115610c96576040517f87e91db900000000000000000000000000000000000000000000000000000000815260040160405180910390fd5b506001600160a01b03821660009081527fbe4ff07067d4fd4ee08dc2d2f96a40cbf5630eafbe74b02fa78478a77722668760205260409020600201819055610cfd60017f9b779b17422d0df92223018b32b4d1fa46e071723d6817e2486d003becc55f0055565b5050565b60008281527f02dd7bc7dec4dceedda775e58dd541e08a116c6c53815c0bd028192f7b6268006020526040902060010154610d3b816117f6565b610d458383611803565b50505050565b6001600160a01b0381163314610d8d576040517f6697b23200000000000000000000000000000000000000000000000000000000815260040160405180910390fd5b610d97828261185a565b505050565b6001600160a01b03821660009081527fbe4ff07067d4fd4ee08dc2d2f96a40cbf5630eafbe74b02fa78478a7772266876020526040812060028101547fbe4ff07067d4fd4ee08dc2d2f96a40cbf5630eafbe74b02fa78478a7772266859190670de0b6b3a764000090610e0f9086612371565b610e19919061234f565b95945050505050565b6001600160a01b0382811660008181527fbe4ff07067d4fd4ee08dc2d2f96a40cbf5630eafbe74b02fa78478a7772266856020818152604080842095871684529481528483208551808701875281548152600191820154818401529484527fbe4ff07067d4fd4ee08dc2d2f96a40cbf5630eafbe74b02fa78478a7772266878252858420865160608101885281548152918101549282019290925260029091015494810194909452825191939092918403610ee357600093505050506105f2565b60208101518251610efd90670de0b6b3a764000090612371565b610f07919061234f565b9695505050505050565b60008281527fc1f6fe24621ce81ec5827caf0253cadb74709b061630e6b55e82371705932000602081905260408220610f4a90846118a8565b949350505050565b6001600160a01b0382811660009081527fbe4ff07067d4fd4ee08dc2d2f96a40cbf5630eafbe74b02fa78478a77722668560208181526040808420948616845293905291812080549192918390610fac9087908790611024565b905080600003610fc257600093505050506105f2565b6000610fce8783610d9c565b90506001600160a01b03871663f150fc90610fe98385612329565b6040518263ffffffff1660e01b815260040161100791815260200190565b602060405180830381865afa158015610702573d6000803e3d6000fd5b6001600160a01b0383811660009081527fbe4ff07067d4fd4ee08dc2d2f96a40cbf5630eafbe74b02fa78478a77722668560208181526040808420948716845293905291812090919082611077876118b4565b9050816001015481111561109157600093505050506110be565b670de0b6b3a76400008183600101546110aa9190612329565b6110b49087612371565b610726919061234f565b9392505050565b60008181527fc1f6fe24621ce81ec5827caf0253cadb74709b061630e6b55e823717059320006020819052604082206110be9061199b565b60008281527f02dd7bc7dec4dceedda775e58dd541e08a116c6c53815c0bd028192f7b6268006020526040902060010154611137816117f6565b610d45838361185a565b61116560405180606001604052806000815260200160008152602001600081525090565b506001600160a01b031660009081527fbe4ff07067d4fd4ee08dc2d2f96a40cbf5630eafbe74b02fa78478a7772266876020908152604091829020825160608101845281548152600182015492810192909252600201549181019190915290565b60006001600160e01b031982167f7965db0b0000000000000000000000000000000000000000000000000000000014806105f257507f01ffc9a7000000000000000000000000000000000000000000000000000000006001600160e01b03198316146105f2565b6001600160a01b0383811660009081527fbe4ff07067d4fd4ee08dc2d2f96a40cbf5630eafbe74b02fa78478a777226686602090815260408083207fbe4ff07067d4fd4ee08dc2d2f96a40cbf5630eafbe74b02fa78478a77722668783528184207fbe4ff07067d4fd4ee08dc2d2f96a40cbf5630eafbe74b02fa78478a7772266888452828520825486527f34b634470e29e36048aab5cc5a64c34b2eced30149e0fdca374a6ec67d2dfdf2808652848720978a16875296909452918420600181015494957fbe4ff07067d4fd4ee08dc2d2f96a40cbf5630eafbe74b02fa78478a77722668595929492909190881115611353576040517f31a2658c00000000000000000000000000000000000000000000000000000000815260040160405180910390fd5b600061135f858a6119a5565b9050808560000160008282546113759190612329565b90915550506001600160a01b03808c16600090815260208981526040808320938e168352929052206113a98382888d6119ee565b5060006113bb8c6103108e8e8e611024565b905080156113e157845460028801546113e1916001600160a01b03918216911683611a36565b604080518b8152602081018490529081018290526001600160a01b03808d1691908e16907ffee251da2064e64189b36ccff830d0259fc828b947601ddf43640b83eae349549060600160405180910390a361143c8183612329565b9c9b505050505050505050505050565b6040517fdd62ed3e0000000000000000000000000000000000000000000000000000000081523060048201526001600160a01b0383811660248301526000919085169063dd62ed3e90604401602060405180830381865afa1580156114b5573d6000803e3d6000fd5b505050506040513d601f19601f820116820180604052508101906114d991906122fa565b9050610d4584846114ea858561233c565b611a67565b6040517f242ea67e0000000000000000000000000000000000000000000000000000000081526004810182905260009081906001600160a01b0385169063242ea67e90602401602060405180830381865afa158015611552573d6000803e3d6000fd5b505050506040513d601f19601f8201168201806040525081019061157691906122fa565b855490915061158690849061233c565b611598670de0b6b3a764000083612371565b600187015487546115a99190612371565b610e0f919061233c565b808460010160008282546115c7919061233c565b90915550508254819084906000906115e090849061233c565b92505081905550808260010160008282546115fb919061233c565b909155505050505050565b82516001600160a01b03166116a1576040517f08c379a0000000000000000000000000000000000000000000000000000000008152602060048201526024808201527f417070726f7665206e6f7420616c6c6f77656420666f72206e6174697665206360448201527f6f696e730000000000000000000000000000000000000000000000000000000060648201526084015b60405180910390fd5b825160405163095ea7b360e01b81526001600160a01b038481166004830152602482018490529091169063095ea7b3906044016020604051808303816000875af11580156116f3573d6000803e3d6000fd5b505050506040513d601f19601f82011682018060405250810190610d459190612388565b6040516001600160a01b038481166024830152838116604483015260648201839052610d459186918216906323b872dd906084015b604051602081830303815290604052915060e01b6020820180517bffffffffffffffffffffffffffffffffffffffffffffffffffffffff8381831617835250505050611b08565b7f9b779b17422d0df92223018b32b4d1fa46e071723d6817e2486d003becc55f008054600119016117f0576040517f3ee5aeb500000000000000000000000000000000000000000000000000000000815260040160405180910390fd5b60029055565b6118008133611b84565b50565b60007fc1f6fe24621ce81ec5827caf0253cadb74709b061630e6b55e82371705932000816118318585611c11565b90508015610f4a5760008581526020839052604090206118519085611ce0565b50949350505050565b60007fc1f6fe24621ce81ec5827caf0253cadb74709b061630e6b55e82371705932000816118888585611cf5565b90508015610f4a5760008581526020839052604090206118519085611d9b565b60006110be8383611db0565b6001600160a01b0381811660009081527fbe4ff07067d4fd4ee08dc2d2f96a40cbf5630eafbe74b02fa78478a77722668660209081526040808320805484527f34b634470e29e36048aab5cc5a64c34b2eced30149e0fdca374a6ec67d2dfdf3835281842082519384019092526001820154909416825291927fbe4ff07067d4fd4ee08dc2d2f96a40cbf5630eafbe74b02fa78478a7772266859290917f34b634470e29e36048aab5cc5a64c34b2eced30149e0fdca374a6ec67d2dfdf29190859061197f90611dda565b90506001600160a01b03871663242ea67e610fe983600a612491565b60006105f2825490565b6000808360010154670de0b6b3a7640000846119c19190612371565b6119cb919061234f565b8454909150670de0b6b3a7640000906119e49083612371565b610f4a919061234f565b80846001016000828254611a029190612329565b9091555050825481908490600090611a1b908490612329565b92505081905550808260010160008282546115fb9190612329565b6040516001600160a01b03838116602483015260448201839052610d9791859182169063a9059cbb9060640161174c565b604080516001600160a01b038416602482015260448082018490528251808303909101815260649091019091526020810180517bffffffffffffffffffffffffffffffffffffffffffffffffffffffff1663095ea7b360e01b179052611acd8482611e5a565b610d45576040516001600160a01b03848116602483015260006044830152611b0291869182169063095ea7b39060640161174c565b610d4584825b6000611b1d6001600160a01b03841683611efd565b90508051600014158015611b42575080806020019051810190611b409190612388565b155b15610d97576040517f5274afe70000000000000000000000000000000000000000000000000000000081526001600160a01b0384166004820152602401611698565b60008281527f02dd7bc7dec4dceedda775e58dd541e08a116c6c53815c0bd028192f7b626800602090815260408083206001600160a01b038516845290915290205460ff16610cfd576040517fe2517d3f0000000000000000000000000000000000000000000000000000000081526001600160a01b038216600482015260248101839052604401611698565b60008281527f02dd7bc7dec4dceedda775e58dd541e08a116c6c53815c0bd028192f7b626800602081815260408084206001600160a01b038616855290915282205460ff16611cd6576000848152602082815260408083206001600160a01b03871684529091529020805460ff19166001179055611c8c3390565b6001600160a01b0316836001600160a01b0316857f2f8788117e7eff1d82e926ec794901d17c78024a50270940304540a733656f0d60405160405180910390a460019150506105f2565b60009150506105f2565b60006110be836001600160a01b038416611f0b565b60008281527f02dd7bc7dec4dceedda775e58dd541e08a116c6c53815c0bd028192f7b626800602081815260408084206001600160a01b038616855290915282205460ff1615611cd6576000848152602082815260408083206001600160a01b0387168085529252808320805460ff1916905551339287917ff6391f5c32d9c69d2a47ea670b442974b53935d1edc7fd64eb21e047a839171b9190a460019150506105f2565b60006110be836001600160a01b038416611f5a565b6000826000018281548110611dc757611dc76124a0565b9060005260206000200154905092915050565b80516000906001600160a01b0316611df457506012919050565b81600001516001600160a01b031663313ce5676040518163ffffffff1660e01b8152600401602060405180830381865afa158015611e36573d6000803e3d6000fd5b505050506040513d601f19601f820116820180604052508101906105f291906124b6565b6000806000846001600160a01b031684604051611e7791906124d9565b6000604051808303816000865af19150503d8060008114611eb4576040519150601f19603f3d011682016040523d82523d6000602084013e611eb9565b606091505b5091509150818015611ee3575080511580611ee3575080806020019051810190611ee39190612388565b8015610e195750505050506001600160a01b03163b151590565b60606110be83836000612043565b6000818152600183016020526040812054611f52575081546001818101845560008481526020808220909301849055845484825282860190935260409020919091556105f2565b5060006105f2565b60008181526001830160205260408120548015611cd6576000611f7e600183612329565b8554909150600090611f9290600190612329565b9050808214611ff7576000866000018281548110611fb257611fb26124a0565b9060005260206000200154905080876000018481548110611fd557611fd56124a0565b6000918252602080832090910192909255918252600188019052604090208390555b855486908061200857612008612508565b6001900381819060005260206000200160009055905585600101600086815260200190815260200160002060009055600193505050506105f2565b606081471015612081576040517fcd786059000000000000000000000000000000000000000000000000000000008152306004820152602401611698565b600080856001600160a01b0316848660405161209d91906124d9565b60006040518083038185875af1925050503d80600081146120da576040519150601f19603f3d011682016040523d82523d6000602084013e6120df565b606091505b5091509150610f078683836060826120ff576120fa8261215f565b6110be565b815115801561211657506001600160a01b0384163b155b15612158576040517f9996b3150000000000000000000000000000000000000000000000000000000081526001600160a01b0385166004820152602401611698565b50806110be565b80511561216f5780518082602001fd5b6040517f1425ea4200000000000000000000000000000000000000000000000000000000815260040160405180910390fd5b6000602082840312156121b357600080fd5b81356001600160e01b0319811681146110be57600080fd5b80356001600160a01b03811681146121e257600080fd5b919050565b6000806000606084860312156121fc57600080fd5b612205846121cb565b9250612213602085016121cb565b929592945050506040919091013590565b6000806040838503121561223757600080fd5b612240836121cb565b946020939093013593505050565b60006020828403121561226057600080fd5b5035919050565b6000806040838503121561227a57600080fd5b8235915061228a602084016121cb565b90509250929050565b600080604083850312156122a657600080fd5b6122af836121cb565b915061228a602084016121cb565b600080604083850312156122d057600080fd5b50508035926020909101359150565b6000602082840312156122f157600080fd5b6110be826121cb565b60006020828403121561230c57600080fd5b5051919050565b634e487b7160e01b600052601160045260246000fd5b818103818111156105f2576105f2612313565b808201808211156105f2576105f2612313565b60008261236c57634e487b7160e01b600052601260045260246000fd5b500490565b80820281158282048414176105f2576105f2612313565b60006020828403121561239a57600080fd5b815180151581146110be57600080fd5b6001815b60018411156123e5578085048111156123c9576123c9612313565b60018416156123d757908102905b60019390931c9280026123ae565b935093915050565b6000826123fc575060016105f2565b81612409575060006105f2565b816001811461241f576002811461242957612445565b60019150506105f2565b60ff84111561243a5761243a612313565b50506001821b6105f2565b5060208310610133831016604e8410600b8410161715612468575081810a6105f2565b61247560001984846123aa565b806000190482111561248957612489612313565b029392505050565b60006110be60ff8416836123ed565b634e487b7160e01b600052603260045260246000fd5b6000602082840312156124c857600080fd5b815160ff811681146110be57600080fd5b6000825160005b818110156124fa57602081860181015185830152016124e0565b506000920191825250919050565b634e487b7160e01b600052603160045260246000fdfea26469706673582212203271cc89ccab0b526e62b2640ef206363da5073f22f69cc08f7a65735445304a64736f6c634300081b0033",
  "linkReferences": {},
  "deployedLinkReferences": {}
}