{
  "_format": "hh-sol-artifact-1",
  "contractName": "HyperStakingAcl",
  "sourceName": "contracts/hyperstaking/HyperStakingAcl.sol",
  "abi": [
    {
      "inputs": [],
      "name": "AccessControlBadConfirmation",
      "type": "error"
    },
    {
      "inputs": [
        {
          "internalType": "address",
          "name": "account",
          "type": "address"
        },
        {
          "internalType": "bytes32",
          "name": "neededRole",
          "type": "bytes32"
        }
      ],
      "name": "AccessControlUnauthorizedAccount",
      "type": "error"
    },
    {
      "inputs": [],
      "name": "InvalidInitialization",
      "type": "error"
    },
    {
      "inputs": [],
      "name": "NotInitializing",
      "type": "error"
    },
    {
      "inputs": [],
      "name": "OnlyDiamondInternal",
      "type": "error"
    },
    {
      "inputs": [],
      "name": "OnlyRewardsManager",
      "type": "error"
    },
    {
      "inputs": [],
      "name": "OnlyStakingManager",
      "type": "error"
    },
    {
      "inputs": [],
      "name": "OnlyStrategyVaultManager",
      "type": "error"
    },
    {
      "anonymous": false,
      "inputs": [
        {
          "indexed": false,
          "internalType": "uint64",
          "name": "version",
          "type": "uint64"
        }
      ],
      "name": "Initialized",
      "type": "event"
    },
    {
      "anonymous": false,
      "inputs": [
        {
          "indexed": true,
          "internalType": "bytes32",
          "name": "role",
          "type": "bytes32"
        },
        {
          "indexed": true,
          "internalType": "bytes32",
          "name": "previousAdminRole",
          "type": "bytes32"
        },
        {
          "indexed": true,
          "internalType": "bytes32",
          "name": "newAdminRole",
          "type": "bytes32"
        }
      ],
      "name": "RoleAdminChanged",
      "type": "event"
    },
    {
      "anonymous": false,
      "inputs": [
        {
          "indexed": true,
          "internalType": "bytes32",
          "name": "role",
          "type": "bytes32"
        },
        {
          "indexed": true,
          "internalType": "address",
          "name": "account",
          "type": "address"
        },
        {
          "indexed": true,
          "internalType": "address",
          "name": "sender",
          "type": "address"
        }
      ],
      "name": "RoleGranted",
      "type": "event"
    },
    {
      "anonymous": false,
      "inputs": [
        {
          "indexed": true,
          "internalType": "bytes32",
          "name": "role",
          "type": "bytes32"
        },
        {
          "indexed": true,
          "internalType": "address",
          "name": "account",
          "type": "address"
        },
        {
          "indexed": true,
          "internalType": "address",
          "name": "sender",
          "type": "address"
        }
      ],
      "name": "RoleRevoked",
      "type": "event"
    },
    {
      "inputs": [],
      "name": "DEFAULT_ADMIN_ROLE",
      "outputs": [
        {
          "internalType": "bytes32",
          "name": "",
          "type": "bytes32"
        }
      ],
      "stateMutability": "view",
      "type": "function"
    },
    {
      "inputs": [],
      "name": "REWARDS_MANAGER_ROLE",
      "outputs": [
        {
          "internalType": "bytes32",
          "name": "",
          "type": "bytes32"
        }
      ],
      "stateMutability": "view",
      "type": "function"
    },
    {
      "inputs": [],
      "name": "STAKING_MANAGER_ROLE",
      "outputs": [
        {
          "internalType": "bytes32",
          "name": "",
          "type": "bytes32"
        }
      ],
      "stateMutability": "view",
      "type": "function"
    },
    {
      "inputs": [],
      "name": "STRATEGY_VAULT_MANAGER_ROLE",
      "outputs": [
        {
          "internalType": "bytes32",
          "name": "",
          "type": "bytes32"
        }
      ],
      "stateMutability": "view",
      "type": "function"
    },
    {
      "inputs": [
        {
          "internalType": "bytes32",
          "name": "role",
          "type": "bytes32"
        }
      ],
      "name": "getRoleAdmin",
      "outputs": [
        {
          "internalType": "bytes32",
          "name": "",
          "type": "bytes32"
        }
      ],
      "stateMutability": "view",
      "type": "function"
    },
    {
      "inputs": [
        {
          "internalType": "bytes32",
          "name": "role",
          "type": "bytes32"
        },
        {
          "internalType": "uint256",
          "name": "index",
          "type": "uint256"
        }
      ],
      "name": "getRoleMember",
      "outputs": [
        {
          "internalType": "address",
          "name": "",
          "type": "address"
        }
      ],
      "stateMutability": "view",
      "type": "function"
    },
    {
      "inputs": [
        {
          "internalType": "bytes32",
          "name": "role",
          "type": "bytes32"
        }
      ],
      "name": "getRoleMemberCount",
      "outputs": [
        {
          "internalType": "uint256",
          "name": "",
          "type": "uint256"
        }
      ],
      "stateMutability": "view",
      "type": "function"
    },
    {
      "inputs": [
        {
          "internalType": "bytes32",
          "name": "role",
          "type": "bytes32"
        },
        {
          "internalType": "address",
          "name": "account",
          "type": "address"
        }
      ],
      "name": "grantRole",
      "outputs": [],
      "stateMutability": "nonpayable",
      "type": "function"
    },
    {
      "inputs": [
        {
          "internalType": "bytes32",
          "name": "role",
          "type": "bytes32"
        },
        {
          "internalType": "address",
          "name": "account",
          "type": "address"
        }
      ],
      "name": "hasRole",
      "outputs": [
        {
          "internalType": "bool",
          "name": "",
          "type": "bool"
        }
      ],
      "stateMutability": "view",
      "type": "function"
    },
    {
      "inputs": [
        {
          "internalType": "bytes32",
          "name": "role",
          "type": "bytes32"
        },
        {
          "internalType": "address",
          "name": "callerConfirmation",
          "type": "address"
        }
      ],
      "name": "renounceRole",
      "outputs": [],
      "stateMutability": "nonpayable",
      "type": "function"
    },
    {
      "inputs": [
        {
          "internalType": "bytes32",
          "name": "role",
          "type": "bytes32"
        },
        {
          "internalType": "address",
          "name": "account",
          "type": "address"
        }
      ],
      "name": "revokeRole",
      "outputs": [],
      "stateMutability": "nonpayable",
      "type": "function"
    },
    {
      "inputs": [
        {
          "internalType": "bytes4",
          "name": "interfaceId",
          "type": "bytes4"
        }
      ],
      "name": "supportsInterface",
      "outputs": [
        {
          "internalType": "bool",
          "name": "",
          "type": "bool"
        }
      ],
      "stateMutability": "view",
      "type": "function"
    }
  ],
  "bytecode": "0x6080604052348015600f57600080fd5b50610a2b8061001f6000396000f3fe608060405234801561001057600080fd5b50600436106100d45760003560e01c80639010d07c11610081578063ca15c8731161005b578063ca15c87314610252578063d547741f14610265578063e0dd24571461027857600080fd5b80639010d07c146101c757806391d14854146101f2578063a217fddf1461024a57600080fd5b806336568abe116100b257806336568abe146101665780633937c0b314610179578063777292e8146101a057600080fd5b806301ffc9a7146100d9578063248a9ca3146101015780632f2ff15d14610151575b600080fd5b6100ec6100e7366004610907565b61029f565b60405190151581526020015b60405180910390f35b61014361010f366004610931565b60009081527f02dd7bc7dec4dceedda775e58dd541e08a116c6c53815c0bd028192f7b626800602052604090206001015490565b6040519081526020016100f8565b61016461015f36600461094a565b6102e3565b005b61016461017436600461094a565b61032d565b6101437fa6b5d83d32632203555cb9b2c2f68a8d94da48cadd9266ac0d17babedb52ea5b81565b6101437f2c0ada6e921ab1da9a99807ca4df2ed1b7eff32704ad00ff79908b8054c8107d81565b6101da6101d5366004610986565b61037e565b6040516001600160a01b0390911681526020016100f8565b6100ec61020036600461094a565b60009182527f02dd7bc7dec4dceedda775e58dd541e08a116c6c53815c0bd028192f7b626800602090815260408084206001600160a01b0393909316845291905290205460ff1690565b610143600081565b610143610260366004610931565b6103bf565b61016461027336600461094a565b6103fe565b6101437f51785d261c3b3e8c2cfe2d0e108b9ab2b1fb703ff9e9e49aba4ebdc85c36152b81565b60006001600160e01b031982167f5a05180f0000000000000000000000000000000000000000000000000000000014806102dd57506102dd82610442565b92915050565b60008281527f02dd7bc7dec4dceedda775e58dd541e08a116c6c53815c0bd028192f7b626800602052604090206001015461031d816104a9565b61032783836104b6565b50505050565b6001600160a01b038116331461036f576040517f6697b23200000000000000000000000000000000000000000000000000000000815260040160405180910390fd5b610379828261050d565b505050565b60008281527fc1f6fe24621ce81ec5827caf0253cadb74709b061630e6b55e823717059320006020819052604082206103b7908461055b565b949350505050565b60008181527fc1f6fe24621ce81ec5827caf0253cadb74709b061630e6b55e823717059320006020819052604082206103f790610567565b9392505050565b60008281527f02dd7bc7dec4dceedda775e58dd541e08a116c6c53815c0bd028192f7b6268006020526040902060010154610438816104a9565b610327838361050d565b60006001600160e01b031982167f7965db0b0000000000000000000000000000000000000000000000000000000014806102dd57507f01ffc9a7000000000000000000000000000000000000000000000000000000006001600160e01b03198316146102dd565b6104b38133610571565b50565b60007fc1f6fe24621ce81ec5827caf0253cadb74709b061630e6b55e82371705932000816104e48585610606565b905080156103b757600085815260208390526040902061050490856106d5565b50949350505050565b60007fc1f6fe24621ce81ec5827caf0253cadb74709b061630e6b55e823717059320008161053b85856106ea565b905080156103b75760008581526020839052604090206105049085610790565b60006103f783836107a5565b60006102dd825490565b60008281527f02dd7bc7dec4dceedda775e58dd541e08a116c6c53815c0bd028192f7b626800602090815260408083206001600160a01b038516845290915290205460ff16610602576040517fe2517d3f0000000000000000000000000000000000000000000000000000000081526001600160a01b03821660048201526024810183905260440160405180910390fd5b5050565b60008281527f02dd7bc7dec4dceedda775e58dd541e08a116c6c53815c0bd028192f7b626800602081815260408084206001600160a01b038616855290915282205460ff166106cb576000848152602082815260408083206001600160a01b03871684529091529020805460ff191660011790556106813390565b6001600160a01b0316836001600160a01b0316857f2f8788117e7eff1d82e926ec794901d17c78024a50270940304540a733656f0d60405160405180910390a460019150506102dd565b60009150506102dd565b60006103f7836001600160a01b0384166107cf565b60008281527f02dd7bc7dec4dceedda775e58dd541e08a116c6c53815c0bd028192f7b626800602081815260408084206001600160a01b038616855290915282205460ff16156106cb576000848152602082815260408083206001600160a01b0387168085529252808320805460ff1916905551339287917ff6391f5c32d9c69d2a47ea670b442974b53935d1edc7fd64eb21e047a839171b9190a460019150506102dd565b60006103f7836001600160a01b03841661081e565b60008260000182815481106107bc576107bc6109a8565b9060005260206000200154905092915050565b6000818152600183016020526040812054610816575081546001818101845560008481526020808220909301849055845484825282860190935260409020919091556102dd565b5060006102dd565b600081815260018301602052604081205480156106cb5760006108426001836109be565b8554909150600090610856906001906109be565b90508082146108bb576000866000018281548110610876576108766109a8565b9060005260206000200154905080876000018481548110610899576108996109a8565b6000918252602080832090910192909255918252600188019052604090208390555b85548690806108cc576108cc6109df565b6001900381819060005260206000200160009055905585600101600086815260200190815260200160002060009055600193505050506102dd565b60006020828403121561091957600080fd5b81356001600160e01b0319811681146103f757600080fd5b60006020828403121561094357600080fd5b5035919050565b6000806040838503121561095d57600080fd5b8235915060208301356001600160a01b038116811461097b57600080fd5b809150509250929050565b6000806040838503121561099957600080fd5b50508035926020909101359150565b634e487b7160e01b600052603260045260246000fd5b818103818111156102dd57634e487b7160e01b600052601160045260246000fd5b634e487b7160e01b600052603160045260246000fdfea2646970667358221220a8fce89939e2c27432c4fea6e0cb33bf976b6d0d30179420455ae2cf2955cec864736f6c634300081b0033",
  "linkReferences": {},
  "deployedLinkReferences": {}
}