{
  "contracts/hyperstaking/facets/ReserveBasedStrategyFacet.sol": {
    "ReserveBasedStrategyFacet": {
      "abi": [
        {
          "inputs": [
            {
              "internalType": "uint256",
              "name": "amount",
              "type": "uint256"
            }
          ],
          "name": "allocate",
          "outputs": [],
          "stateMutability": "nonpayable",
          "type": "function"
        },
        {
          "inputs": [
            {
              "internalType": "uint256",
              "name": "amount",
              "type": "uint256"
            }
          ],
          "name": "exit",
          "outputs": [],
          "stateMutability": "nonpayable",
          "type": "function"
        }
      ],
      "evm": {
        "bytecode": {
          "linkReferences": {},
          "object": "6080604052348015600f57600080fd5b5060958061001e6000396000f3fe6080604052348015600f57600080fd5b506004361060325760003560e01c80637f8661a114603757806390ca796b146037575b600080fd5b604560423660046047565b50565b005b600060208284031215605857600080fd5b503591905056fea2646970667358221220a9c0b930bb868ded604e6d23fa6fc3feaaa6cc1be6446fc570011dbbaed8724664736f6c63430008180033",
          "opcodes": "PUSH1 0x80 PUSH1 0x40 MSTORE CALLVALUE DUP1 ISZERO PUSH1 0xF JUMPI PUSH1 0x0 DUP1 REVERT JUMPDEST POP PUSH1 0x95 DUP1 PUSH2 0x1E PUSH1 0x0 CODECOPY PUSH1 0x0 RETURN INVALID PUSH1 0x80 PUSH1 0x40 MSTORE CALLVALUE DUP1 ISZERO PUSH1 0xF JUMPI PUSH1 0x0 DUP1 REVERT JUMPDEST POP PUSH1 0x4 CALLDATASIZE LT PUSH1 0x32 JUMPI PUSH1 0x0 CALLDATALOAD PUSH1 0xE0 SHR DUP1 PUSH4 0x7F8661A1 EQ PUSH1 0x37 JUMPI DUP1 PUSH4 0x90CA796B EQ PUSH1 0x37 JUMPI JUMPDEST PUSH1 0x0 DUP1 REVERT JUMPDEST PUSH1 0x45 PUSH1 0x42 CALLDATASIZE PUSH1 0x4 PUSH1 0x47 JUMP JUMPDEST POP JUMP JUMPDEST STOP JUMPDEST PUSH1 0x0 PUSH1 0x20 DUP3 DUP5 SUB SLT ISZERO PUSH1 0x58 JUMPI PUSH1 0x0 DUP1 REVERT JUMPDEST POP CALLDATALOAD SWAP2 SWAP1 POP JUMP INVALID LOG2 PUSH5 0x6970667358 0x22 SLT KECCAK256 0xA9 0xC0 0xB9 ADDRESS 0xBB DUP7 DUP14 0xED PUSH1 0x4E PUSH14 0x23FA6FC3FEAAA6CC1BE6446FC570 ADD SAR 0xBB 0xAE 0xD8 PUSH19 0x4664736F6C6343000818003300000000000000 "
        },
        "methodIdentifiers": {
          "allocate(uint256)": "90ca796b",
          "exit(uint256)": "7f8661a1"
        }
      }
    }
  }
}