{
  "_format": "hh-sol-artifact-1",
  "contractName": "LockboxFacet",
  "sourceName": "contracts/hyperstaking/facets/LockboxFacet.sol",
  "abi": [
    {
      "inputs": [],
      "name": "AccessControlBadConfirmation",
      "type": "error"
    },
    {
      "inputs": [
        {
          "internalType": "address",
          "name": "account",
          "type": "address"
        },
        {
          "internalType": "bytes32",
          "name": "neededRole",
          "type": "bytes32"
        }
      ],
      "name": "AccessControlUnauthorizedAccount",
      "type": "error"
    },
    {
      "inputs": [
        {
          "internalType": "uint32",
          "name": "lumiaDestination",
          "type": "uint32"
        }
      ],
      "name": "BadLumiaDestination",
      "type": "error"
    },
    {
      "inputs": [
        {
          "internalType": "uint32",
          "name": "originDestination",
          "type": "uint32"
        }
      ],
      "name": "BadOriginDestination",
      "type": "error"
    },
    {
      "inputs": [],
      "name": "InvalidInitialization",
      "type": "error"
    },
    {
      "inputs": [
        {
          "internalType": "address",
          "name": "badLumiaFactory",
          "type": "address"
        }
      ],
      "name": "InvalidLumiaFactory",
      "type": "error"
    },
    {
      "inputs": [
        {
          "internalType": "address",
          "name": "badMailbox",
          "type": "address"
        }
      ],
      "name": "InvalidMailbox",
      "type": "error"
    },
    {
      "inputs": [
        {
          "internalType": "address",
          "name": "badVaultToken",
          "type": "address"
        }
      ],
      "name": "InvalidVaultToken",
      "type": "error"
    },
    {
      "inputs": [
        {
          "internalType": "address",
          "name": "",
          "type": "address"
        }
      ],
      "name": "NotAuthorized",
      "type": "error"
    },
    {
      "inputs": [
        {
          "internalType": "address",
          "name": "sender",
          "type": "address"
        }
      ],
      "name": "NotFromLumiaFactory",
      "type": "error"
    },
    {
      "inputs": [
        {
          "internalType": "address",
          "name": "from",
          "type": "address"
        }
      ],
      "name": "NotFromMailbox",
      "type": "error"
    },
    {
      "inputs": [],
      "name": "NotInitializing",
      "type": "error"
    },
    {
      "inputs": [],
      "name": "OnlyDiamondInternal",
      "type": "error"
    },
    {
      "inputs": [],
      "name": "OnlyStakingManager",
      "type": "error"
    },
    {
      "inputs": [],
      "name": "OnlyStrategyManager",
      "type": "error"
    },
    {
      "inputs": [],
      "name": "OnlyStrategyUpgrader",
      "type": "error"
    },
    {
      "inputs": [],
      "name": "OnlyVaultManager",
      "type": "error"
    },
    {
      "inputs": [
        {
          "internalType": "address",
          "name": "",
          "type": "address"
        },
        {
          "internalType": "uint256",
          "name": "applyAfter",
          "type": "uint256"
        }
      ],
      "name": "PendingChangeFailed",
      "type": "error"
    },
    {
      "inputs": [],
      "name": "UnsupportedMessage",
      "type": "error"
    },
    {
      "anonymous": false,
      "inputs": [
        {
          "indexed": true,
          "internalType": "uint32",
          "name": "oldDestination",
          "type": "uint32"
        },
        {
          "indexed": true,
          "internalType": "uint32",
          "name": "newDestination",
          "type": "uint32"
        }
      ],
      "name": "DestinationUpdated",
      "type": "event"
    },
    {
      "anonymous": false,
      "inputs": [
        {
          "indexed": false,
          "internalType": "uint64",
          "name": "version",
          "type": "uint64"
        }
      ],
      "name": "Initialized",
      "type": "event"
    },
    {
      "anonymous": false,
      "inputs": [
        {
          "indexed": false,
          "internalType": "address",
          "name": "newLumiaFactory",
          "type": "address"
        },
        {
          "indexed": false,
          "internalType": "uint256",
          "name": "applyAfter",
          "type": "uint256"
        }
      ],
      "name": "LumiaFactoryChangeProposed",
      "type": "event"
    },
    {
      "anonymous": false,
      "inputs": [
        {
          "indexed": true,
          "internalType": "address",
          "name": "oldLumiaFactory",
          "type": "address"
        },
        {
          "indexed": true,
          "internalType": "address",
          "name": "newLumiaFactory",
          "type": "address"
        }
      ],
      "name": "LumiaFactoryUpdated",
      "type": "event"
    },
    {
      "anonymous": false,
      "inputs": [
        {
          "indexed": false,
          "internalType": "address",
          "name": "newMailbox",
          "type": "address"
        },
        {
          "indexed": false,
          "internalType": "uint256",
          "name": "applyAfter",
          "type": "uint256"
        }
      ],
      "name": "MailboxChangeProposed",
      "type": "event"
    },
    {
      "anonymous": false,
      "inputs": [
        {
          "indexed": true,
          "internalType": "address",
          "name": "oldMailbox",
          "type": "address"
        },
        {
          "indexed": true,
          "internalType": "address",
          "name": "newMailbox",
          "type": "address"
        }
      ],
      "name": "MailboxUpdated",
      "type": "event"
    },
    {
      "anonymous": false,
      "inputs": [
        {
          "indexed": true,
          "internalType": "uint32",
          "name": "origin",
          "type": "uint32"
        },
        {
          "indexed": true,
          "internalType": "bytes32",
          "name": "sender",
          "type": "bytes32"
        },
        {
          "indexed": false,
          "internalType": "uint256",
          "name": "value",
          "type": "uint256"
        },
        {
          "indexed": false,
          "internalType": "string",
          "name": "message",
          "type": "string"
        }
      ],
      "name": "ReceivedMessage",
      "type": "event"
    },
    {
      "anonymous": false,
      "inputs": [
        {
          "indexed": true,
          "internalType": "bytes32",
          "name": "role",
          "type": "bytes32"
        },
        {
          "indexed": true,
          "internalType": "bytes32",
          "name": "previousAdminRole",
          "type": "bytes32"
        },
        {
          "indexed": true,
          "internalType": "bytes32",
          "name": "newAdminRole",
          "type": "bytes32"
        }
      ],
      "name": "RoleAdminChanged",
      "type": "event"
    },
    {
      "anonymous": false,
      "inputs": [
        {
          "indexed": true,
          "internalType": "bytes32",
          "name": "role",
          "type": "bytes32"
        },
        {
          "indexed": true,
          "internalType": "address",
          "name": "account",
          "type": "address"
        },
        {
          "indexed": true,
          "internalType": "address",
          "name": "sender",
          "type": "address"
        }
      ],
      "name": "RoleGranted",
      "type": "event"
    },
    {
      "anonymous": false,
      "inputs": [
        {
          "indexed": true,
          "internalType": "bytes32",
          "name": "role",
          "type": "bytes32"
        },
        {
          "indexed": true,
          "internalType": "address",
          "name": "account",
          "type": "address"
        },
        {
          "indexed": true,
          "internalType": "address",
          "name": "sender",
          "type": "address"
        }
      ],
      "name": "RoleRevoked",
      "type": "event"
    },
    {
      "anonymous": false,
      "inputs": [
        {
          "indexed": true,
          "internalType": "address",
          "name": "strategy",
          "type": "address"
        },
        {
          "indexed": true,
          "internalType": "address",
          "name": "user",
          "type": "address"
        },
        {
          "indexed": false,
          "internalType": "uint256",
          "name": "amount",
          "type": "uint256"
        },
        {
          "indexed": false,
          "internalType": "uint256",
          "name": "id",
          "type": "uint256"
        }
      ],
      "name": "StakeRedeemFailed",
      "type": "event"
    },
    {
      "anonymous": false,
      "inputs": [
        {
          "indexed": true,
          "internalType": "address",
          "name": "strategy",
          "type": "address"
        },
        {
          "indexed": true,
          "internalType": "address",
          "name": "user",
          "type": "address"
        },
        {
          "indexed": false,
          "internalType": "uint256",
          "name": "amount",
          "type": "uint256"
        },
        {
          "indexed": false,
          "internalType": "uint256",
          "name": "id",
          "type": "uint256"
        }
      ],
      "name": "StakeRedeemReexecuted",
      "type": "event"
    },
    {
      "inputs": [],
      "name": "DEFAULT_ADMIN_ROLE",
      "outputs": [
        {
          "internalType": "bytes32",
          "name": "",
          "type": "bytes32"
        }
      ],
      "stateMutability": "view",
      "type": "function"
    },
    {
      "inputs": [],
      "name": "STAKING_MANAGER_ROLE",
      "outputs": [
        {
          "internalType": "bytes32",
          "name": "",
          "type": "bytes32"
        }
      ],
      "stateMutability": "pure",
      "type": "function"
    },
    {
      "inputs": [],
      "name": "STRATEGY_MANAGER_ROLE",
      "outputs": [
        {
          "internalType": "bytes32",
          "name": "",
          "type": "bytes32"
        }
      ],
      "stateMutability": "pure",
      "type": "function"
    },
    {
      "inputs": [],
      "name": "STRATEGY_UPGRADER_ROLE",
      "outputs": [
        {
          "internalType": "bytes32",
          "name": "",
          "type": "bytes32"
        }
      ],
      "stateMutability": "pure",
      "type": "function"
    },
    {
      "inputs": [],
      "name": "VAULT_MANAGER_ROLE",
      "outputs": [
        {
          "internalType": "bytes32",
          "name": "",
          "type": "bytes32"
        }
      ],
      "stateMutability": "pure",
      "type": "function"
    },
    {
      "inputs": [],
      "name": "applyLumiaFactory",
      "outputs": [],
      "stateMutability": "nonpayable",
      "type": "function"
    },
    {
      "inputs": [],
      "name": "applyMailbox",
      "outputs": [],
      "stateMutability": "nonpayable",
      "type": "function"
    },
    {
      "inputs": [
        {
          "internalType": "address",
          "name": "strategy",
          "type": "address"
        },
        {
          "internalType": "address",
          "name": "user",
          "type": "address"
        },
        {
          "internalType": "uint256",
          "name": "stake",
          "type": "uint256"
        }
      ],
      "name": "bridgeStakeInfo",
      "outputs": [],
      "stateMutability": "payable",
      "type": "function"
    },
    {
      "inputs": [
        {
          "internalType": "address",
          "name": "strategy",
          "type": "address"
        },
        {
          "internalType": "uint256",
          "name": "stakeAdded",
          "type": "uint256"
        }
      ],
      "name": "bridgeStakeReward",
      "outputs": [],
      "stateMutability": "payable",
      "type": "function"
    },
    {
      "inputs": [],
      "name": "getFailedRedeemCount",
      "outputs": [
        {
          "internalType": "uint256",
          "name": "",
          "type": "uint256"
        }
      ],
      "stateMutability": "view",
      "type": "function"
    },
    {
      "inputs": [
        {
          "internalType": "uint256[]",
          "name": "ids",
          "type": "uint256[]"
        }
      ],
      "name": "getFailedRedeems",
      "outputs": [
        {
          "components": [
            {
              "internalType": "address",
              "name": "strategy",
              "type": "address"
            },
            {
              "internalType": "address",
              "name": "user",
              "type": "address"
            },
            {
              "internalType": "uint256",
              "name": "amount",
              "type": "uint256"
            }
          ],
          "internalType": "struct FailedRedeem[]",
          "name": "",
          "type": "tuple[]"
        }
      ],
      "stateMutability": "view",
      "type": "function"
    },
    {
      "inputs": [
        {
          "internalType": "bytes32",
          "name": "role",
          "type": "bytes32"
        }
      ],
      "name": "getRoleAdmin",
      "outputs": [
        {
          "internalType": "bytes32",
          "name": "",
          "type": "bytes32"
        }
      ],
      "stateMutability": "view",
      "type": "function"
    },
    {
      "inputs": [
        {
          "internalType": "bytes32",
          "name": "role",
          "type": "bytes32"
        },
        {
          "internalType": "uint256",
          "name": "index",
          "type": "uint256"
        }
      ],
      "name": "getRoleMember",
      "outputs": [
        {
          "internalType": "address",
          "name": "",
          "type": "address"
        }
      ],
      "stateMutability": "view",
      "type": "function"
    },
    {
      "inputs": [
        {
          "internalType": "bytes32",
          "name": "role",
          "type": "bytes32"
        }
      ],
      "name": "getRoleMemberCount",
      "outputs": [
        {
          "internalType": "uint256",
          "name": "",
          "type": "uint256"
        }
      ],
      "stateMutability": "view",
      "type": "function"
    },
    {
      "inputs": [
        {
          "internalType": "bytes32",
          "name": "role",
          "type": "bytes32"
        }
      ],
      "name": "getRoleMembers",
      "outputs": [
        {
          "internalType": "address[]",
          "name": "",
          "type": "address[]"
        }
      ],
      "stateMutability": "view",
      "type": "function"
    },
    {
      "inputs": [
        {
          "internalType": "address",
          "name": "user",
          "type": "address"
        }
      ],
      "name": "getUserFailedRedeemIds",
      "outputs": [
        {
          "internalType": "uint256[]",
          "name": "",
          "type": "uint256[]"
        }
      ],
      "stateMutability": "view",
      "type": "function"
    },
    {
      "inputs": [
        {
          "internalType": "bytes32",
          "name": "role",
          "type": "bytes32"
        },
        {
          "internalType": "address",
          "name": "account",
          "type": "address"
        }
      ],
      "name": "grantRole",
      "outputs": [],
      "stateMutability": "nonpayable",
      "type": "function"
    },
    {
      "inputs": [
        {
          "internalType": "uint32",
          "name": "origin",
          "type": "uint32"
        },
        {
          "internalType": "bytes32",
          "name": "sender",
          "type": "bytes32"
        },
        {
          "internalType": "bytes",
          "name": "data",
          "type": "bytes"
        }
      ],
      "name": "handle",
      "outputs": [],
      "stateMutability": "payable",
      "type": "function"
    },
    {
      "inputs": [
        {
          "internalType": "bytes32",
          "name": "role",
          "type": "bytes32"
        },
        {
          "internalType": "address",
          "name": "account",
          "type": "address"
        }
      ],
      "name": "hasRole",
      "outputs": [
        {
          "internalType": "bool",
          "name": "",
          "type": "bool"
        }
      ],
      "stateMutability": "view",
      "type": "function"
    },
    {
      "inputs": [
        {
          "internalType": "address",
          "name": "account",
          "type": "address"
        }
      ],
      "name": "hasStrategyManagerRole",
      "outputs": [
        {
          "internalType": "bool",
          "name": "",
          "type": "bool"
        }
      ],
      "stateMutability": "view",
      "type": "function"
    },
    {
      "inputs": [
        {
          "internalType": "address",
          "name": "account",
          "type": "address"
        }
      ],
      "name": "hasStrategyUpgraderRole",
      "outputs": [
        {
          "internalType": "bool",
          "name": "",
          "type": "bool"
        }
      ],
      "stateMutability": "view",
      "type": "function"
    },
    {
      "inputs": [],
      "name": "lockboxData",
      "outputs": [
        {
          "components": [
            {
              "internalType": "contract IMailbox",
              "name": "mailbox",
              "type": "address"
            },
            {
              "internalType": "uint32",
              "name": "destination",
              "type": "uint32"
            },
            {
              "internalType": "address",
              "name": "lumiaFactory",
              "type": "address"
            },
            {
              "components": [
                {
                  "internalType": "address",
                  "name": "sender",
                  "type": "address"
                },
                {
                  "internalType": "bytes",
                  "name": "data",
                  "type": "bytes"
                }
              ],
              "internalType": "struct HyperlaneMessage",
              "name": "lastMessage",
              "type": "tuple"
            }
          ],
          "internalType": "struct LockboxData",
          "name": "",
          "type": "tuple"
        }
      ],
      "stateMutability": "view",
      "type": "function"
    },
    {
      "inputs": [
        {
          "internalType": "address",
          "name": "newFactory",
          "type": "address"
        }
      ],
      "name": "proposeLumiaFactory",
      "outputs": [],
      "stateMutability": "nonpayable",
      "type": "function"
    },
    {
      "inputs": [
        {
          "internalType": "address",
          "name": "newMailbox",
          "type": "address"
        }
      ],
      "name": "proposeMailbox",
      "outputs": [],
      "stateMutability": "nonpayable",
      "type": "function"
    },
    {
      "inputs": [
        {
          "internalType": "uint256",
          "name": "id",
          "type": "uint256"
        }
      ],
      "name": "reexecuteFailedRedeem",
      "outputs": [],
      "stateMutability": "nonpayable",
      "type": "function"
    },
    {
      "inputs": [
        {
          "internalType": "bytes32",
          "name": "role",
          "type": "bytes32"
        },
        {
          "internalType": "address",
          "name": "callerConfirmation",
          "type": "address"
        }
      ],
      "name": "renounceRole",
      "outputs": [],
      "stateMutability": "nonpayable",
      "type": "function"
    },
    {
      "inputs": [
        {
          "internalType": "bytes32",
          "name": "role",
          "type": "bytes32"
        },
        {
          "internalType": "address",
          "name": "account",
          "type": "address"
        }
      ],
      "name": "revokeRole",
      "outputs": [],
      "stateMutability": "nonpayable",
      "type": "function"
    },
    {
      "inputs": [
        {
          "internalType": "uint32",
          "name": "destination",
          "type": "uint32"
        }
      ],
      "name": "setDestination",
      "outputs": [],
      "stateMutability": "nonpayable",
      "type": "function"
    },
    {
      "inputs": [
        {
          "internalType": "bytes4",
          "name": "interfaceId",
          "type": "bytes4"
        }
      ],
      "name": "supportsInterface",
      "outputs": [
        {
          "internalType": "bool",
          "name": "",
          "type": "bool"
        }
      ],
      "stateMutability": "view",
      "type": "function"
    }
  ],
  "bytecode": "0x6080604052348015600e575f5ffd5b506122e78061001c5f395ff3fe6080604052600436106101ba575f3560e01c806359f82f91116100f2578063a3246ad311610092578063d547741f11610062578063d547741f14610511578063f818ae4b14610530578063f923b2071461054f578063fd245b4c14610570575f5ffd5b8063a3246ad314610480578063abcbe0b2146104ac578063adeb582d146104de578063ca15c873146104f2575f5ffd5b8063832a9f88116100cd578063832a9f88146103f85780639010d07c1461041757806391d148541461044e578063a217fddf1461046d575f5ffd5b806359f82f91146103885780635e5a24a4146103ba5780636230469d146103d9575f5ffd5b80632f2ff15d1161015d5780634c227854116101385780634c2278541461032e5780634c7ea62814610342578063505f158a1461035657806356d5d47514610375575f5ffd5b80632f2ff15d146102be57806336568abe146102dd5780633937c0b3146102fc575f5ffd5b806323d999561161019857806323d999561461023f578063248a9ca31461026b5780632dc56070146102985780632e57ed27146102ab575f5ffd5b806301ffc9a7146101be5780631528ec0e146101f257806320cefed21461021e575b5f5ffd5b3480156101c9575f5ffd5b506101dd6101d8366004611bce565b61058f565b60405190151581526020015b60405180910390f35b3480156101fd575f5ffd5b5061021161020c366004611bf5565b6105b9565b6040516101e99190611c66565b348015610229575f5ffd5b5061023d610238366004611cd5565b6106c9565b005b34801561024a575f5ffd5b5061025e610259366004611d07565b6108c4565b6040516101e99190611d20565b348015610276575f5ffd5b5061028a610285366004611cd5565b6108f0565b6040519081526020016101e9565b61023d6102a6366004611d57565b610910565b61023d6102b9366004611d91565b610a14565b3480156102c9575f5ffd5b5061023d6102d8366004611db9565b610b26565b3480156102e8575f5ffd5b5061023d6102f7366004611db9565b610b48565b348015610307575f5ffd5b507fa6b5d83d32632203555cb9b2c2f68a8d94da48cadd9266ac0d17babedb52ea5b61028a565b348015610339575f5ffd5b5061023d610b80565b34801561034d575f5ffd5b5061023d610cad565b348015610361575f5ffd5b506101dd610370366004611d07565b610dd4565b61023d610383366004611df6565b610e00565b348015610393575f5ffd5b507fb6b8360f529bf65be805a119c79f97914e5e29532dc734732a563b5bc869148c61028a565b3480156103c5575f5ffd5b505f5160206122725f395f51905f5261028a565b3480156103e4575f5ffd5b5061023d6103f3366004611e79565b610fab565b348015610403575f5ffd5b5061023d610412366004611d07565b61104e565b348015610422575f5ffd5b50610436610431366004611e92565b61115d565b6040516001600160a01b0390911681526020016101e9565b348015610459575f5ffd5b506101dd610468366004611db9565b61118a565b348015610478575f5ffd5b5061028a5f81565b34801561048b575f5ffd5b5061049f61049a366004611cd5565b6111c0565b6040516101e99190611eb2565b3480156104b7575f5ffd5b507f4170d100a3a3728ae51207936ee755ecaa64a7f6e9383c642ab204a136f90b1b61028a565b3480156104e9575f5ffd5b5061028a6111f0565b3480156104fd575f5ffd5b5061028a61050c366004611cd5565b611202565b34801561051c575f5ffd5b5061023d61052b366004611db9565b611226565b34801561053b575f5ffd5b5061023d61054a366004611d07565b611242565b34801561055a575f5ffd5b50610563611361565b6040516101e99190611ef2565b34801561057b575f5ffd5b506101dd61058a366004611d07565b61146b565b5f6001600160e01b03198216635a05180f60e01b14806105b357506105b382611495565b92915050565b60605f6105c46114c9565b601a019050825f8167ffffffffffffffff8111156105e4576105e4611f84565b60405190808252806020026020018201604052801561062d57816020015b604080516060810182525f80825260208083018290529282015282525f199092019101816106025790505b5090505f5b828110156106bf57836001015f88888481811061065157610651611f98565b602090810292909201358352508181019290925260409081015f20815160608101835281546001600160a01b03908116825260018301541693810193909352600201549082015282518390839081106106ac576106ac611f98565b6020908102919091010152600101610632565b5095945050505050565b5f6106d26114c9565b5f838152601b82016020908152604091829020825160608101845281546001600160a01b039081168252600183015416928101929092526002015491810191909152601a90910191506107335f5160206122725f395f51905f525b3361118a565b80610753575080602001516001600160a01b0316336001600160a01b0316145b339061078357604051634a0bfec160e01b81526001600160a01b0390911660048201526024015b60405180910390fd5b505f83815260018084016020908152604080842080546001600160a01b0319908116825593810180549094169093556002928301849055848201516001600160a01b03168452918501905290206107da90846114f6565b5080516020820151604080840151905163a40e960360e01b81526001600160a01b0393841660048201529290911660248301526044820152309063a40e9603906064016020604051808303815f875af1158015610839573d5f5f3e3d5ffd5b505050506040513d601f19601f8201168201806040525081019061085d9190611fac565b5080602001516001600160a01b0316815f01516001600160a01b03167fd70621f08a7adbb33e84106017ff61188b3a4c26d62ca02826d9fdb97b2c5f808360400151866040516108b7929190918252602082015260400190565b60405180910390a3505050565b60606105b36108d16114c9565b6001600160a01b0384165f908152601c90910160205260409020611501565b5f9081525f5160206122925f395f51905f52602052604090206001015490565b3330146109305760405163d248bf1560e01b815260040160405180910390fd5b604080516060810182526001600160a01b0380861682528416602082015280820183905290516351bfb75f60e01b81525f9030906351bfb75f90610978908590600401611fc3565b602060405180830381865afa158015610993573d5f5f3e3d5ffd5b505050506040513d601f19601f820116820180604052508101906109b79190611fac565b60405163038a38e760e11b8152909150309063071471ce9083906109df908690600401611fc3565b5f604051808303818588803b1580156109f6575f5ffd5b505af1158015610a08573d5f5f3e3d5ffd5b50505050505050505050565b333014610a345760405163d248bf1560e01b815260040160405180910390fd5b6040805180820182526001600160a01b038481168252602082018481529251630fec686160e11b81528251909116600482015291516024830152905f903090631fd8d0c290604401602060405180830381865afa158015610a97573d5f5f3e3d5ffd5b505050506040513d601f19601f82011682018060405250810190610abb9190611fac565b604051631efdeb9f60e31b815283516001600160a01b0316600482015260208401516024820152909150309063f7ef5cf89083906044015f604051808303818588803b158015610b09575f5ffd5b505af1158015610b1b573d5f5f3e3d5ffd5b505050505050505050565b610b2f826108f0565b610b388161150d565b610b42838361151a565b50505050565b6001600160a01b0381163314610b715760405163334bd91960e11b815260040160405180910390fd5b610b7b828261155c565b505050565b610b965f5160206122725f395f51905f5261072d565b610bb35760405163612bde3d60e01b815260040160405180910390fd5b5f610bbc6114c9565b60180180549091506001600160a01b031615801590610bdf575080600101544210155b815460018301546001600160a01b0390911691610c2057604051633cdacd8160e01b81526001600160a01b039092166004830152602482015260440161077a565b50505f610c2b6114c9565b60078101805484546001600160a01b039081166001600160a01b03198316179092558454604051600690940194509082169291169082907fd664da3b7b2956ef992cec5a95d8bd25fdae3e8cf7513067aa73a233a0ae826c905f90a3610c8f6114c9565b6018810180546001600160a01b03191690555f601990910155505050565b610cc35f5160206122725f395f51905f5261072d565b610ce05760405163612bde3d60e01b815260040160405180910390fd5b5f610ce96114c9565b60160180549091506001600160a01b031615801590610d0c575080600101544210155b815460018301546001600160a01b0390911691610d4d57604051633cdacd8160e01b81526001600160a01b039092166004830152602482015260440161077a565b50505f610d586114c9565b600601805483546001600160a01b031982166001600160a01b0391821617835584546040519394509181169291169082907fc9f808ed2d4877daa57900b86147cc4d4c05e37ac36bc6d417d387dfc3f3e6a7905f90a3610db66114c9565b6016810180546001600160a01b03191690555f601790910155505050565b5f6105b37f4170d100a3a3728ae51207936ee755ecaa64a7f6e9383c642ab204a136f90b1b5b8361118a565b5f610e096114c9565b600601805490915033906001600160a01b03168114610e4757604051635ec769f360e01b81526001600160a01b03909116600482015260240161077a565b505f610e516114c9565b6006019050848663ffffffff167fecdc36fa3681f5d9c559dcbc399417db6f0ac0d81a78529685a1150265971d55348787604051610e9193929190611ff2565b60405180910390a3610ea285611595565b6002820180546001600160a01b0319166001600160a01b039290921691909117905560038101610ed38486836120a3565b50600181015460028201546001600160a01b0390811691168114610f1657604051632a5ad25f60e01b81526001600160a01b03909116600482015260240161077a565b508054869063ffffffff828116600160a01b9092041614610f535760405163ba6dd62b60e01b815263ffffffff909116600482015260240161077a565b505f610f5f85856115fd565b90506003816003811115610f7557610f7561215d565b03610f8b57610f848585611628565b5050610fa4565b60405163ca2d578f60e01b815260040160405180910390fd5b5050505050565b610fc15f5160206122725f395f51905f5261072d565b610fde5760405163612bde3d60e01b815260040160405180910390fd5b5f610fe76114c9565b600601805460405191925063ffffffff80851692600160a01b90920416907f95f43a8ae98f1becaf690d2158400146a371dbebafd5277c1aabc7ed50b92b5d905f90a3805463ffffffff909216600160a01b0263ffffffff60a01b19909216919091179055565b6110645f5160206122725f395f51905f5261072d565b6110815760405163612bde3d60e01b815260040160405180910390fd5b806001600160a01b0381166110b5576040516312c2271d60e01b81526001600160a01b03909116600482015260240161077a565b505f6040518060400160405280836001600160a01b0316815260200162015180426110e09190612185565b90529050806110ed6114c9565b81516018820180546001600160a01b0319166001600160a01b0392831617905560209283015160199092019190915582820151604080519286168352928201527f190ffc786a4c763408c10b840a70786eb8920d4842d1bcb29e71f3d4417daaf991015b60405180910390a15050565b5f8281525f5160206122525f395f51905f5260208190526040822061118290846116dc565b949350505050565b5f9182525f5160206122925f395f51905f52602090815260408084206001600160a01b0393909316845291905290205460ff1690565b5f8181525f5160206122525f395f51905f5260208190526040909120606091906111e990611501565b9392505050565b5f6111f96114c9565b601a0154919050565b5f8181525f5160206122525f395f51905f526020819052604082206111e9906116e7565b61122f826108f0565b6112388161150d565b610b42838361155c565b6112585f5160206122725f395f51905f5261072d565b6112755760405163612bde3d60e01b815260040160405180910390fd5b6001600160a01b0381161580159061129657505f816001600160a01b03163b115b81906112c1576040516356e5587960e01b81526001600160a01b03909116600482015260240161077a565b505f6040518060400160405280836001600160a01b0316815260200162015180426112ec9190612185565b90529050806112f96114c9565b81516016820180546001600160a01b0319166001600160a01b0392831617905560209283015160179092019190915582820151604080519286168352928201527f175c88cabef74ede3e3ae63f83946f4ffcc88355e7699d5ec39384c1de7c20249101611151565b611369611b6f565b6113716114c9565b604080516080810182526006830180546001600160a01b038082168452600160a01b90910463ffffffff16602080850191909152600786015482168486015284518086019095526008860180549092168552600990950180549395929460608701949093840191906113e290612027565b80601f016020809104026020016040519081016040528092919081815260200182805461140e90612027565b80156114595780601f1061143057610100808354040283529160200191611459565b820191905f5260205f20905b81548152906001019060200180831161143c57829003601f168201915b50505050508152505081525050905090565b5f6105b37fb6b8360f529bf65be805a119c79f97914e5e29532dc734732a563b5bc869148c610dfa565b5f6001600160e01b03198216637965db0b60e01b14806105b357506301ffc9a760e01b6001600160e01b03198316146105b3565b5f806105b360017fbdce9fce78852f4396d00427ddc098ac2e3263701a971553200759a6322f4465612198565b5f6111e983836116f0565b60605f6111e9836117da565b6115178133611833565b50565b5f5f5160206122525f395f51905f52816115348585611870565b90508015611182575f8581526020839052604090206115539085611908565b50949350505050565b5f5f5160206122525f395f51905f5281611576858561191c565b90508015611182575f8581526020839052604090206115539085611995565b5f6001600160a01b038211156115f95760405162461bcd60e51b8152602060048201526024808201527f5479706543617374733a2062797465733332546f41646472657373206f766572604482015263666c6f7760e01b606482015260840161077a565b5090565b5f61160b60088284866121ab565b611614916121d2565b60c01c60038111156111e9576111e961215d565b5f61163383836119a9565b90505f61164084846119c9565b90505f61164d85856119db565b60405163a40e960360e01b81526001600160a01b0380861660048301528416602482015260448101829052909150309063a40e9603906064016020604051808303815f875af19250505080156116c0575060408051601f3d908101601f191682019092526116bd91810190611fac565b60015b6116d4576116cf8383836119f3565b610fa4565b505050505050565b5f6111e98383611af2565b5f6105b3825490565b5f81815260018301602052604081205480156117ca575f611712600183612198565b85549091505f9061172590600190612198565b9050808214611784575f865f01828154811061174357611743611f98565b905f5260205f200154905080875f01848154811061176357611763611f98565b5f918252602080832090910192909255918252600188019052604090208390555b855486908061179557611795612208565b600190038181905f5260205f20015f90559055856001015f8681526020019081526020015f205f9055600193505050506105b3565b5f9150506105b3565b5092915050565b6060815f0180548060200260200160405190810160405280929190818152602001828054801561182757602002820191905f5260205f20905b815481526020019060010190808311611813575b50505050509050919050565b61183d828261118a565b61186c5760405163e2517d3f60e01b81526001600160a01b03821660048201526024810183905260440161077a565b5050565b5f5f5160206122925f395f51905f52611889848461118a565b6117ca575f848152602082815260408083206001600160a01b03871684529091529020805460ff191660011790556118be3390565b6001600160a01b0316836001600160a01b0316857f2f8788117e7eff1d82e926ec794901d17c78024a50270940304540a733656f0d60405160405180910390a460019150506105b3565b5f6111e9836001600160a01b038416611b18565b5f5f5160206122925f395f51905f52611935848461118a565b156117ca575f848152602082815260408083206001600160a01b0387168085529252808320805460ff1916905551339287917ff6391f5c32d9c69d2a47ea670b442974b53935d1edc7fd64eb21e047a839171b9190a460019150506105b3565b5f6111e9836001600160a01b0384166116f0565b5f6111e96119bb6028600885876121ab565b6119c49161221c565b611595565b5f6111e96119bb6048602885876121ab565b5f6119ea6068604884866121ab565b6111e99161221c565b5f6119fc6114c9565b601a0180549091505f908282611a1183612239565b90915550604080516060810182526001600160a01b03808916825287811660208084018281528486018a81525f8881526001808c018552888220975188549088166001600160a01b03199182161789559351908801805491909716931692909217909455925160029485015590825291860190915220909150611a949082611b64565b50836001600160a01b0316856001600160a01b03167f6140aaf595f3e08df693488da134afe1c69c3052943d9beb033534942f2bdfc88584604051611ae3929190918252602082015260400190565b60405180910390a35050505050565b5f825f018281548110611b0757611b07611f98565b905f5260205f200154905092915050565b5f818152600183016020526040812054611b5d57508154600181810184555f8481526020808220909301849055845484825282860190935260409020919091556105b3565b505f6105b3565b5f6111e98383611b18565b60405180608001604052805f6001600160a01b031681526020015f63ffffffff1681526020015f6001600160a01b03168152602001611bc960405180604001604052805f6001600160a01b03168152602001606081525090565b905290565b5f60208284031215611bde575f5ffd5b81356001600160e01b0319811681146111e9575f5ffd5b5f5f60208385031215611c06575f5ffd5b823567ffffffffffffffff811115611c1c575f5ffd5b8301601f81018513611c2c575f5ffd5b803567ffffffffffffffff811115611c42575f5ffd5b8560208260051b8401011115611c56575f5ffd5b6020919091019590945092505050565b602080825282518282018190525f918401906040840190835b81811015611cca57611cb483855180516001600160a01b03908116835260208083015190911690830152604090810151910152565b6020939093019260609290920191600101611c7f565b509095945050505050565b5f60208284031215611ce5575f5ffd5b5035919050565b80356001600160a01b0381168114611d02575f5ffd5b919050565b5f60208284031215611d17575f5ffd5b6111e982611cec565b602080825282518282018190525f918401906040840190835b81811015611cca578351835260209384019390920191600101611d39565b5f5f5f60608486031215611d69575f5ffd5b611d7284611cec565b9250611d8060208501611cec565b929592945050506040919091013590565b5f5f60408385031215611da2575f5ffd5b611dab83611cec565b946020939093013593505050565b5f5f60408385031215611dca575f5ffd5b82359150611dda60208401611cec565b90509250929050565b803563ffffffff81168114611d02575f5ffd5b5f5f5f5f60608587031215611e09575f5ffd5b611e1285611de3565b935060208501359250604085013567ffffffffffffffff811115611e34575f5ffd5b8501601f81018713611e44575f5ffd5b803567ffffffffffffffff811115611e5a575f5ffd5b876020828401011115611e6b575f5ffd5b949793965060200194505050565b5f60208284031215611e89575f5ffd5b6111e982611de3565b5f5f60408385031215611ea3575f5ffd5b50508035926020909101359150565b602080825282518282018190525f918401906040840190835b81811015611cca5783516001600160a01b0316835260209384019390920191600101611ecb565b6020815260018060a01b03825116602082015263ffffffff602083015116604082015260018060a01b0360408301511660608201525f606083015160808084015260018060a01b0381511660a084015260208101519050604060c084015280518060e0850152806020830161010086015e5f6101008286010152610100601f19601f8301168501019250505092915050565b634e487b7160e01b5f52604160045260245ffd5b634e487b7160e01b5f52603260045260245ffd5b5f60208284031215611fbc575f5ffd5b5051919050565b81516001600160a01b0390811682526020808401519091169082015260408083015190820152606081016105b3565b83815260406020820152816040820152818360608301375f818301606090810191909152601f909201601f1916010192915050565b600181811c9082168061203b57607f821691505b60208210810361205957634e487b7160e01b5f52602260045260245ffd5b50919050565b601f821115610b7b57805f5260205f20601f840160051c810160208510156120845750805b601f840160051c820191505b81811015610fa4575f8155600101612090565b67ffffffffffffffff8311156120bb576120bb611f84565b6120cf836120c98354612027565b8361205f565b5f601f841160018114612100575f85156120e95750838201355b5f19600387901b1c1916600186901b178355610fa4565b5f83815260208120601f198716915b8281101561212f578685013582556020948501946001909201910161210f565b508682101561214b575f1960f88860031b161c19848701351681555b505060018560011b0183555050505050565b634e487b7160e01b5f52602160045260245ffd5b634e487b7160e01b5f52601160045260245ffd5b808201808211156105b3576105b3612171565b818103818111156105b3576105b3612171565b5f5f858511156121b9575f5ffd5b838611156121c5575f5ffd5b5050820193919092039150565b80356001600160c01b031981169060088410156117d3576001600160c01b031960089490940360031b84901b1690921692915050565b634e487b7160e01b5f52603160045260245ffd5b803560208310156105b3575f19602084900360031b1b1692915050565b5f6001820161224a5761224a612171565b506001019056fec1f6fe24621ce81ec5827caf0253cadb74709b061630e6b55e82371705932000d1473398bb66596de5d1ea1fc8e303ff2ac23265adc9144b1b52065dc4f0934b02dd7bc7dec4dceedda775e58dd541e08a116c6c53815c0bd028192f7b626800a2646970667358221220254bb673932059d577304ddf0a9c00ed00caf8c757843d95245df1a21834a58464736f6c634300081b0033",
  "linkReferences": {},
  "deployedLinkReferences": {}
}