{
  "_format": "hh-sol-artifact-1",
  "contractName": "DepositFacet",
  "sourceName": "contracts/hyperstaking/facets/DepositFacet.sol",
  "abi": [
    {
      "inputs": [],
      "name": "AccessControlBadConfirmation",
      "type": "error"
    },
    {
      "inputs": [
        {
          "internalType": "address",
          "name": "account",
          "type": "address"
        },
        {
          "internalType": "bytes32",
          "name": "neededRole",
          "type": "bytes32"
        }
      ],
      "name": "AccessControlUnauthorizedAccount",
      "type": "error"
    },
    {
      "inputs": [
        {
          "internalType": "uint256",
          "name": "id",
          "type": "uint256"
        }
      ],
      "name": "ClaimNotFound",
      "type": "error"
    },
    {
      "inputs": [],
      "name": "ClaimToZeroAddress",
      "type": "error"
    },
    {
      "inputs": [
        {
          "internalType": "uint64",
          "name": "time",
          "type": "uint64"
        },
        {
          "internalType": "uint64",
          "name": "unlockTime",
          "type": "uint64"
        }
      ],
      "name": "ClaimTooEarly",
      "type": "error"
    },
    {
      "inputs": [],
      "name": "EmptyClaim",
      "type": "error"
    },
    {
      "inputs": [],
      "name": "EnforcedPause",
      "type": "error"
    },
    {
      "inputs": [],
      "name": "ExpectedPause",
      "type": "error"
    },
    {
      "inputs": [],
      "name": "InvalidInitialization",
      "type": "error"
    },
    {
      "inputs": [
        {
          "internalType": "uint256",
          "name": "id",
          "type": "uint256"
        },
        {
          "internalType": "address",
          "name": "eligible",
          "type": "address"
        },
        {
          "internalType": "address",
          "name": "sender",
          "type": "address"
        }
      ],
      "name": "NotEligible",
      "type": "error"
    },
    {
      "inputs": [],
      "name": "NotInitializing",
      "type": "error"
    },
    {
      "inputs": [],
      "name": "OnlyDiamondInternal",
      "type": "error"
    },
    {
      "inputs": [],
      "name": "OnlyStakingManager",
      "type": "error"
    },
    {
      "inputs": [],
      "name": "OnlyStrategyManager",
      "type": "error"
    },
    {
      "inputs": [],
      "name": "OnlyStrategyUpgrader",
      "type": "error"
    },
    {
      "inputs": [],
      "name": "OnlyVaultManager",
      "type": "error"
    },
    {
      "inputs": [],
      "name": "ReentrancyGuardReentrantCall",
      "type": "error"
    },
    {
      "inputs": [
        {
          "internalType": "address",
          "name": "token",
          "type": "address"
        }
      ],
      "name": "SafeERC20FailedOperation",
      "type": "error"
    },
    {
      "inputs": [
        {
          "internalType": "address",
          "name": "strategy",
          "type": "address"
        }
      ],
      "name": "StrategyDisabled",
      "type": "error"
    },
    {
      "inputs": [
        {
          "internalType": "address",
          "name": "strategy",
          "type": "address"
        }
      ],
      "name": "VaultDoesNotExist",
      "type": "error"
    },
    {
      "inputs": [
        {
          "internalType": "uint64",
          "name": "newDelay",
          "type": "uint64"
        }
      ],
      "name": "WithdrawDelayTooHigh",
      "type": "error"
    },
    {
      "inputs": [],
      "name": "ZeroStake",
      "type": "error"
    },
    {
      "anonymous": false,
      "inputs": [
        {
          "indexed": true,
          "internalType": "address",
          "name": "strategy",
          "type": "address"
        },
        {
          "indexed": true,
          "internalType": "address",
          "name": "feeRecipient",
          "type": "address"
        },
        {
          "indexed": false,
          "internalType": "address",
          "name": "to",
          "type": "address"
        },
        {
          "indexed": false,
          "internalType": "uint256",
          "name": "fee",
          "type": "uint256"
        },
        {
          "indexed": false,
          "internalType": "uint256",
          "name": "exitAmount",
          "type": "uint256"
        }
      ],
      "name": "FeeWithdrawClaimed",
      "type": "event"
    },
    {
      "anonymous": false,
      "inputs": [
        {
          "indexed": false,
          "internalType": "uint64",
          "name": "version",
          "type": "uint64"
        }
      ],
      "name": "Initialized",
      "type": "event"
    },
    {
      "anonymous": false,
      "inputs": [
        {
          "indexed": false,
          "internalType": "address",
          "name": "account",
          "type": "address"
        }
      ],
      "name": "Paused",
      "type": "event"
    },
    {
      "anonymous": false,
      "inputs": [
        {
          "indexed": true,
          "internalType": "bytes32",
          "name": "role",
          "type": "bytes32"
        },
        {
          "indexed": true,
          "internalType": "bytes32",
          "name": "previousAdminRole",
          "type": "bytes32"
        },
        {
          "indexed": true,
          "internalType": "bytes32",
          "name": "newAdminRole",
          "type": "bytes32"
        }
      ],
      "name": "RoleAdminChanged",
      "type": "event"
    },
    {
      "anonymous": false,
      "inputs": [
        {
          "indexed": true,
          "internalType": "bytes32",
          "name": "role",
          "type": "bytes32"
        },
        {
          "indexed": true,
          "internalType": "address",
          "name": "account",
          "type": "address"
        },
        {
          "indexed": true,
          "internalType": "address",
          "name": "sender",
          "type": "address"
        }
      ],
      "name": "RoleGranted",
      "type": "event"
    },
    {
      "anonymous": false,
      "inputs": [
        {
          "indexed": true,
          "internalType": "bytes32",
          "name": "role",
          "type": "bytes32"
        },
        {
          "indexed": true,
          "internalType": "address",
          "name": "account",
          "type": "address"
        },
        {
          "indexed": true,
          "internalType": "address",
          "name": "sender",
          "type": "address"
        }
      ],
      "name": "RoleRevoked",
      "type": "event"
    },
    {
      "anonymous": false,
      "inputs": [
        {
          "indexed": false,
          "internalType": "address",
          "name": "from",
          "type": "address"
        },
        {
          "indexed": true,
          "internalType": "address",
          "name": "to",
          "type": "address"
        },
        {
          "indexed": true,
          "internalType": "address",
          "name": "strategy",
          "type": "address"
        },
        {
          "indexed": false,
          "internalType": "uint256",
          "name": "stake",
          "type": "uint256"
        }
      ],
      "name": "StakeDeposit",
      "type": "event"
    },
    {
      "anonymous": false,
      "inputs": [
        {
          "indexed": false,
          "internalType": "address",
          "name": "account",
          "type": "address"
        }
      ],
      "name": "Unpaused",
      "type": "event"
    },
    {
      "anonymous": false,
      "inputs": [
        {
          "indexed": true,
          "internalType": "address",
          "name": "strategy",
          "type": "address"
        },
        {
          "indexed": true,
          "internalType": "address",
          "name": "from",
          "type": "address"
        },
        {
          "indexed": false,
          "internalType": "address",
          "name": "to",
          "type": "address"
        },
        {
          "indexed": false,
          "internalType": "uint256",
          "name": "stake",
          "type": "uint256"
        },
        {
          "indexed": false,
          "internalType": "uint256",
          "name": "exitAmount",
          "type": "uint256"
        }
      ],
      "name": "WithdrawClaimed",
      "type": "event"
    },
    {
      "anonymous": false,
      "inputs": [
        {
          "indexed": true,
          "internalType": "address",
          "name": "stakingManager",
          "type": "address"
        },
        {
          "indexed": false,
          "internalType": "uint256",
          "name": "previousDelay",
          "type": "uint256"
        },
        {
          "indexed": false,
          "internalType": "uint256",
          "name": "newDelay",
          "type": "uint256"
        }
      ],
      "name": "WithdrawDelaySet",
      "type": "event"
    },
    {
      "anonymous": false,
      "inputs": [
        {
          "indexed": true,
          "internalType": "address",
          "name": "strategy",
          "type": "address"
        },
        {
          "indexed": true,
          "internalType": "address",
          "name": "to",
          "type": "address"
        },
        {
          "indexed": false,
          "internalType": "uint256",
          "name": "requestId",
          "type": "uint256"
        },
        {
          "indexed": false,
          "internalType": "uint64",
          "name": "unlockTime",
          "type": "uint64"
        },
        {
          "indexed": false,
          "internalType": "uint256",
          "name": "expectedAmount",
          "type": "uint256"
        },
        {
          "indexed": true,
          "internalType": "bool",
          "name": "feeWithdraw",
          "type": "bool"
        }
      ],
      "name": "WithdrawQueued",
      "type": "event"
    },
    {
      "inputs": [],
      "name": "DEFAULT_ADMIN_ROLE",
      "outputs": [
        {
          "internalType": "bytes32",
          "name": "",
          "type": "bytes32"
        }
      ],
      "stateMutability": "view",
      "type": "function"
    },
    {
      "inputs": [],
      "name": "MAX_WITHDRAW_DELAY",
      "outputs": [
        {
          "internalType": "uint64",
          "name": "",
          "type": "uint64"
        }
      ],
      "stateMutability": "view",
      "type": "function"
    },
    {
      "inputs": [],
      "name": "STAKING_MANAGER_ROLE",
      "outputs": [
        {
          "internalType": "bytes32",
          "name": "",
          "type": "bytes32"
        }
      ],
      "stateMutability": "pure",
      "type": "function"
    },
    {
      "inputs": [],
      "name": "STRATEGY_MANAGER_ROLE",
      "outputs": [
        {
          "internalType": "bytes32",
          "name": "",
          "type": "bytes32"
        }
      ],
      "stateMutability": "pure",
      "type": "function"
    },
    {
      "inputs": [],
      "name": "STRATEGY_UPGRADER_ROLE",
      "outputs": [
        {
          "internalType": "bytes32",
          "name": "",
          "type": "bytes32"
        }
      ],
      "stateMutability": "pure",
      "type": "function"
    },
    {
      "inputs": [],
      "name": "VAULT_MANAGER_ROLE",
      "outputs": [
        {
          "internalType": "bytes32",
          "name": "",
          "type": "bytes32"
        }
      ],
      "stateMutability": "pure",
      "type": "function"
    },
    {
      "inputs": [
        {
          "internalType": "uint256[]",
          "name": "requestIds",
          "type": "uint256[]"
        },
        {
          "internalType": "address",
          "name": "to",
          "type": "address"
        }
      ],
      "name": "claimWithdraws",
      "outputs": [],
      "stateMutability": "nonpayable",
      "type": "function"
    },
    {
      "inputs": [
        {
          "internalType": "bytes32",
          "name": "role",
          "type": "bytes32"
        }
      ],
      "name": "getRoleAdmin",
      "outputs": [
        {
          "internalType": "bytes32",
          "name": "",
          "type": "bytes32"
        }
      ],
      "stateMutability": "view",
      "type": "function"
    },
    {
      "inputs": [
        {
          "internalType": "bytes32",
          "name": "role",
          "type": "bytes32"
        },
        {
          "internalType": "uint256",
          "name": "index",
          "type": "uint256"
        }
      ],
      "name": "getRoleMember",
      "outputs": [
        {
          "internalType": "address",
          "name": "",
          "type": "address"
        }
      ],
      "stateMutability": "view",
      "type": "function"
    },
    {
      "inputs": [
        {
          "internalType": "bytes32",
          "name": "role",
          "type": "bytes32"
        }
      ],
      "name": "getRoleMemberCount",
      "outputs": [
        {
          "internalType": "uint256",
          "name": "",
          "type": "uint256"
        }
      ],
      "stateMutability": "view",
      "type": "function"
    },
    {
      "inputs": [
        {
          "internalType": "bytes32",
          "name": "role",
          "type": "bytes32"
        }
      ],
      "name": "getRoleMembers",
      "outputs": [
        {
          "internalType": "address[]",
          "name": "",
          "type": "address[]"
        }
      ],
      "stateMutability": "view",
      "type": "function"
    },
    {
      "inputs": [
        {
          "internalType": "bytes32",
          "name": "role",
          "type": "bytes32"
        },
        {
          "internalType": "address",
          "name": "account",
          "type": "address"
        }
      ],
      "name": "grantRole",
      "outputs": [],
      "stateMutability": "nonpayable",
      "type": "function"
    },
    {
      "inputs": [
        {
          "internalType": "bytes32",
          "name": "role",
          "type": "bytes32"
        },
        {
          "internalType": "address",
          "name": "account",
          "type": "address"
        }
      ],
      "name": "hasRole",
      "outputs": [
        {
          "internalType": "bool",
          "name": "",
          "type": "bool"
        }
      ],
      "stateMutability": "view",
      "type": "function"
    },
    {
      "inputs": [
        {
          "internalType": "address",
          "name": "account",
          "type": "address"
        }
      ],
      "name": "hasStrategyManagerRole",
      "outputs": [
        {
          "internalType": "bool",
          "name": "",
          "type": "bool"
        }
      ],
      "stateMutability": "view",
      "type": "function"
    },
    {
      "inputs": [
        {
          "internalType": "address",
          "name": "account",
          "type": "address"
        }
      ],
      "name": "hasStrategyUpgraderRole",
      "outputs": [
        {
          "internalType": "bool",
          "name": "",
          "type": "bool"
        }
      ],
      "stateMutability": "view",
      "type": "function"
    },
    {
      "inputs": [
        {
          "internalType": "address",
          "name": "strategy",
          "type": "address"
        },
        {
          "internalType": "address",
          "name": "user",
          "type": "address"
        },
        {
          "internalType": "uint256",
          "name": "limit",
          "type": "uint256"
        }
      ],
      "name": "lastClaims",
      "outputs": [
        {
          "internalType": "uint256[]",
          "name": "ids",
          "type": "uint256[]"
        }
      ],
      "stateMutability": "view",
      "type": "function"
    },
    {
      "inputs": [],
      "name": "pauseDeposit",
      "outputs": [],
      "stateMutability": "nonpayable",
      "type": "function"
    },
    {
      "inputs": [],
      "name": "paused",
      "outputs": [
        {
          "internalType": "bool",
          "name": "",
          "type": "bool"
        }
      ],
      "stateMutability": "view",
      "type": "function"
    },
    {
      "inputs": [
        {
          "internalType": "uint256[]",
          "name": "requestIds",
          "type": "uint256[]"
        }
      ],
      "name": "pendingWithdraws",
      "outputs": [
        {
          "components": [
            {
              "internalType": "address",
              "name": "strategy",
              "type": "address"
            },
            {
              "internalType": "uint64",
              "name": "unlockTime",
              "type": "uint64"
            },
            {
              "internalType": "address",
              "name": "eligible",
              "type": "address"
            },
            {
              "internalType": "uint256",
              "name": "expectedAmount",
              "type": "uint256"
            },
            {
              "internalType": "bool",
              "name": "feeWithdraw",
              "type": "bool"
            }
          ],
          "internalType": "struct Claim[]",
          "name": "claims",
          "type": "tuple[]"
        }
      ],
      "stateMutability": "view",
      "type": "function"
    },
    {
      "inputs": [
        {
          "internalType": "address",
          "name": "strategy",
          "type": "address"
        },
        {
          "internalType": "address",
          "name": "user",
          "type": "address"
        },
        {
          "internalType": "uint256",
          "name": "stake",
          "type": "uint256"
        },
        {
          "internalType": "uint256",
          "name": "allocation",
          "type": "uint256"
        },
        {
          "internalType": "bool",
          "name": "feeWithdraw",
          "type": "bool"
        }
      ],
      "name": "queueWithdraw",
      "outputs": [],
      "stateMutability": "nonpayable",
      "type": "function"
    },
    {
      "inputs": [
        {
          "internalType": "bytes32",
          "name": "role",
          "type": "bytes32"
        },
        {
          "internalType": "address",
          "name": "callerConfirmation",
          "type": "address"
        }
      ],
      "name": "renounceRole",
      "outputs": [],
      "stateMutability": "nonpayable",
      "type": "function"
    },
    {
      "inputs": [
        {
          "internalType": "bytes32",
          "name": "role",
          "type": "bytes32"
        },
        {
          "internalType": "address",
          "name": "account",
          "type": "address"
        }
      ],
      "name": "revokeRole",
      "outputs": [],
      "stateMutability": "nonpayable",
      "type": "function"
    },
    {
      "inputs": [
        {
          "internalType": "uint64",
          "name": "newDelay",
          "type": "uint64"
        }
      ],
      "name": "setWithdrawDelay",
      "outputs": [],
      "stateMutability": "nonpayable",
      "type": "function"
    },
    {
      "inputs": [
        {
          "internalType": "address",
          "name": "strategy",
          "type": "address"
        },
        {
          "internalType": "address",
          "name": "to",
          "type": "address"
        },
        {
          "internalType": "uint256",
          "name": "stake",
          "type": "uint256"
        }
      ],
      "name": "stakeDeposit",
      "outputs": [],
      "stateMutability": "payable",
      "type": "function"
    },
    {
      "inputs": [
        {
          "internalType": "bytes4",
          "name": "interfaceId",
          "type": "bytes4"
        }
      ],
      "name": "supportsInterface",
      "outputs": [
        {
          "internalType": "bool",
          "name": "",
          "type": "bool"
        }
      ],
      "stateMutability": "view",
      "type": "function"
    },
    {
      "inputs": [],
      "name": "unpauseDeposit",
      "outputs": [],
      "stateMutability": "nonpayable",
      "type": "function"
    },
    {
      "inputs": [],
      "name": "withdrawDelay",
      "outputs": [
        {
          "internalType": "uint64",
          "name": "",
          "type": "uint64"
        }
      ],
      "stateMutability": "view",
      "type": "function"
    }
  ],
  "bytecode": "0x6080604052348015600e575f5ffd5b50611f5e8061001c5f395ff3fe608060405260043610610195575f3560e01c80635e1d5927116100e7578063a217fddf11610087578063ca15c87311610062578063ca15c873146104e5578063d547741f14610504578063e62f3d3e14610523578063fd245b4c14610536575f5ffd5b8063a217fddf14610474578063a3246ad314610487578063abcbe0b2146104b3575f5ffd5b80636fa3e297116100c25780636fa3e297146103c6578063860f3458146103f25780639010d07c1461041e57806391d1485414610455575f5ffd5b80635e1d5927146103615780635e5a24a41461038057806369026e88146103b2575f5ffd5b80632f2ff15d11610152578063505f158a1161012d578063505f158a146102d95780635157ced5146102f857806359f82f911461030c5780635c975abb1461033e575f5ffd5b80632f2ff15d1461027c57806336568abe1461029b5780633937c0b3146102ba575f5ffd5b806301ffc9a7146101995780630288a39c146101cd5780630d629421146101f95780630df25f1d1461021a5780631fc3277d14610239578063248a9ca31461024f575b5f5ffd5b3480156101a4575f5ffd5b506101b86101b3366004611a4b565b610555565b60405190151581526020015b60405180910390f35b3480156101d8575f5ffd5b506101e161057f565b6040516001600160401b0390911681526020016101c4565b348015610204575f5ffd5b50610218610213366004611ad4565b61059c565b005b348015610225575f5ffd5b50610218610234366004611b37565b61096f565b348015610244575f5ffd5b506101e162278d0081565b34801561025a575f5ffd5b5061026e610269366004611b52565b610a52565b6040519081526020016101c4565b348015610287575f5ffd5b50610218610296366004611b69565b610a72565b3480156102a6575f5ffd5b506102186102b5366004611b69565b610a94565b3480156102c5575f5ffd5b505f516020611f095f395f51905f5261026e565b3480156102e4575f5ffd5b506101b86102f3366004611b93565b610acc565b348015610303575f5ffd5b50610218610af8565b348015610317575f5ffd5b507fb6b8360f529bf65be805a119c79f97914e5e29532dc734732a563b5bc869148c61026e565b348015610349575f5ffd5b505f516020611ee95f395f51905f525460ff166101b8565b34801561036c575f5ffd5b5061021861037b366004611bac565b610b3d565b34801561038b575f5ffd5b507fd1473398bb66596de5d1ea1fc8e303ff2ac23265adc9144b1b52065dc4f0934b61026e565b3480156103bd575f5ffd5b50610218610e09565b3480156103d1575f5ffd5b506103e56103e0366004611c07565b610e4c565b6040516101c49190611c45565b3480156103fd575f5ffd5b5061041161040c366004611cd2565b610f8e565b6040516101c49190611d46565b348015610429575f5ffd5b5061043d610438366004611d58565b61107f565b6040516001600160a01b0390911681526020016101c4565b348015610460575f5ffd5b506101b861046f366004611b69565b6110ac565b34801561047f575f5ffd5b5061026e5f81565b348015610492575f5ffd5b506104a66104a1366004611b52565b6110e2565b6040516101c49190611d78565b3480156104be575f5ffd5b507f4170d100a3a3728ae51207936ee755ecaa64a7f6e9383c642ab204a136f90b1b61026e565b3480156104f0575f5ffd5b5061026e6104ff366004611b52565b611112565b34801561050f575f5ffd5b5061021861051e366004611b69565b611136565b610218610531366004611cd2565b611152565b348015610541575f5ffd5b506101b8610550366004611b93565b6112bb565b5f6001600160e01b03198216635a05180f60e01b14806105795750610579826112e5565b92915050565b5f5f610589611319565b600201546001600160401b031692915050565b5f6105a5611319565b905082806105c65760405163da80cc7360e01b815260040160405180910390fd5b6001600160a01b0383166105ed5760405163088d6c0d60e31b815260040160405180910390fd5b5f5b81811015610967575f86868381811061060a5761060a611db8565b602090810292909201355f818152600488018452604090819020815160a08101835281546001600160a01b03808216808452600160a01b9092046001600160401b03169783019790975260018301549096169281019290925260028101546060830181905260039091015460ff16151560808301529194509290915083906106b157604051633373e46160e01b81526004016106a891815260200190565b60405180910390fd5b5060408201518390336001600160a01b03821681146106fd57604051634266a9e960e11b815260048101939093526001600160a01b0391821660248401521660448201526064016106a8565b505050602082015142906001600160401b0381168210156107445760405163a1b0201760e01b81526001600160401b039283166004820152911660248201526044016106a8565b50505f83815260048701602052604080822080546001600160e01b0319168155600180820180546001600160a01b0319169055600282018490556003909101805460ff19169055815181815280830190925281602001602082028036833701905050905083815f815181106107bb576107bb611db8565b6020908102919091010152825160405163020268c160e11b81525f916001600160a01b031690630404d182906107f79085908d90600401611de0565b6020604051808303815f875af1158015610813573d5f5f3e3d5ffd5b505050506040513d601f19601f820116820180604052508101906108379190611e09565b84516001600160a01b03165f90815260018a016020526040812060020180549293508592909190610869908490611e34565b90915550506080840151156108d6578351604080516001600160a01b038c8116825260208201879052918101849052339291909116907fb049bb432fc1f1797343cc02c4f4f126fd25d120173d50ec3068bc99804e49e49060600160405180910390a3505050505061095f565b83516001600160a01b03165f90815260018901602052604081208054859290610900908490611e34565b90915550508351604080516001600160a01b038c8116825260208201879052918101849052339291909116907f37d4319e58dfd82d4ef73bbb17c7ca7854ad7e75e104479cb213e84dea20988c9060600160405180910390a350505050505b6001016105ef565b505050505050565b6109875f516020611f095f395f51905f525b336110ac565b6109a45760405163b995ef4760e01b815260040160405180910390fd5b8062278d006001600160401b038216106109dd576040516313cff52d60e01b81526001600160401b0390911660048201526024016106a8565b505f6109e7611319565b60028101805467ffffffffffffffff1981166001600160401b038681169182179093556040805193909216808452602084019190915292935033917fd2eba5942b96bb92338bdd4a0920e7303a8b9ecadefab42e7b5034d94d0c804f910160405180910390a2505050565b5f9081525f516020611ec95f395f51905f52602052604090206001015490565b610a7b82610a52565b610a8481611346565b610a8e8383611353565b50505050565b6001600160a01b0381163314610abd5760405163334bd91960e11b815260040160405180910390fd5b610ac78282611395565b505050565b5f6105797f4170d100a3a3728ae51207936ee755ecaa64a7f6e9383c642ab204a136f90b1b5b836110ac565b610b0e5f516020611f095f395f51905f52610981565b610b2b5760405163b995ef4760e01b815260040160405180910390fd5b610b336113ce565b610b3b6113fd565b565b333014610b5d5760405163d248bf1560e01b815260040160405180910390fd5b5f610b66611319565b90505f610b7161145c565b604051631b34ebe760e21b815260048101829052602481018690526001600160a01b0388811660448301529192505f91891690636cd3af9c906064016020604051808303815f875af1158015610bc9573d5f5f3e3d5ffd5b505050506040513d601f19601f82011682018060405250810190610bed9190611e47565b90506001600160401b038116158015610c04575083155b15610c24576002830154610c21906001600160401b031642611e62565b90505b6040518060a00160405280896001600160a01b03168152602001826001600160401b03168152602001886001600160a01b03168152602001878152602001851515815250836004015f8481526020019081526020015f205f820151815f015f6101000a8154816001600160a01b0302191690836001600160a01b031602179055506020820151815f0160146101000a8154816001600160401b0302191690836001600160401b031602179055506040820151816001015f6101000a8154816001600160a01b0302191690836001600160a01b03160217905550606082015181600201556080820151816003015f6101000a81548160ff021916908315150217905550905050826005015f896001600160a01b03166001600160a01b031681526020019081526020015f205f886001600160a01b03166001600160a01b031681526020019081526020015f2082908060018154018082558091505060019003905f5260205f20015f9091909190915055831515876001600160a01b0316896001600160a01b03167fabb012be6523d07fff0712c5ad6197e70b982e140adb2caf4e4f4426b38d93f285858b604051610df7939291909283526001600160401b03919091166020830152604082015260600190565b60405180910390a45050505050505050565b610e1f5f516020611f095f395f51905f52610981565b610e3c5760405163b995ef4760e01b815260040160405180910390fd5b610e44611478565b610b3b6114a8565b60605f610e57611319565b905082806001600160401b03811115610e7257610e72611dcc565b604051908082528060200260200182016040528015610ec957816020015b6040805160a0810182525f808252602080830182905292820181905260608201819052608082015282525f19909201910181610e905790505b5092505f5b81811015610f85575f868683818110610ee957610ee9611db8565b602090810292909201355f818152600488018452604090819020815160a08101835281546001600160a01b038082168352600160a01b9091046001600160401b031696820196909652600182015490951691850191909152600281015460608501526003015460ff1615156080840152875190935087915084908110610f7157610f71611db8565b602090810291909101015250600101610ece565b50505092915050565b60605f610f99611319565b6001600160a01b038087165f908152600583016020908152604080832093891683529290522080549192509080851115610fd1578094505b846001600160401b03811115610fe957610fe9611dcc565b604051908082528060200260200182016040528015611012578160200160208202803683370190505b5093505f5b8581101561107457828161102c600185611e34565b6110369190611e34565b8154811061104657611046611db8565b905f5260205f20015485828151811061106157611061611db8565b6020908102919091010152600101611017565b505050509392505050565b5f8281525f516020611ea95f395f51905f526020819052604082206110a490846114f0565b949350505050565b5f9182525f516020611ec95f395f51905f52602090815260408084206001600160a01b0393909316845291905290205460ff1690565b5f8181525f516020611ea95f395f51905f52602081905260409091206060919061110b906114fb565b9392505050565b5f8181525f516020611ea95f395f51905f5260208190526040822061110b90611507565b61113f82610a52565b61114881611346565b610a8e8383611395565b61115a611510565b611162611478565b5f61116b611319565b6001600160a01b0385165f90815260208290526040902090915061119081868561155a565b6001600160a01b0385165f908152600183016020526040812080548592906111b9908490611e81565b9091555050604080516020810190915260018201546001600160a01b031681526111e5903330866115e6565b604051639f6c3dbd60e01b81526001600160a01b03808716600483015285166024820152604481018490523090639f6c3dbd906064015f604051808303815f87803b158015611232575f5ffd5b505af1158015611244573d5f5f3e3d5ffd5b505060408051338152602081018790526001600160a01b03808a169450881692507f2a239c545b66b12d344fc3ce18944d9a8058c16d81ec0e9879ac0d08bd9c4c1d910160405180910390a35050610ac760017f9b779b17422d0df92223018b32b4d1fa46e071723d6817e2486d003becc55f0055565b5f6105797fb6b8360f529bf65be805a119c79f97914e5e29532dc734732a563b5bc869148c610af2565b5f6001600160e01b03198216637965db0b60e01b148061057957506301ffc9a760e01b6001600160e01b0319831614610579565b5f8061057960017fbdce9fce78852f4396d00427ddc098ac2e3263701a971553200759a6322f4465611e34565b6113508133611661565b50565b5f5f516020611ea95f395f51905f528161136d858561169e565b905080156110a4575f85815260208390526040902061138c908561173f565b50949350505050565b5f5f516020611ea95f395f51905f52816113af8585611753565b905080156110a4575f85815260208390526040902061138c90856117cc565b5f516020611ee95f395f51905f525460ff16610b3b57604051638dfc202b60e01b815260040160405180910390fd5b6114056113ce565b5f516020611ee95f395f51905f52805460ff191681557f5db9ee0a495bf2e6ff9c91a7834c1ba4fdd244a5e8aa4e537bd38aeae4b073aa335b6040516001600160a01b03909116815260200160405180910390a150565b5f5f611466611319565b60030180546001019081905592915050565b5f516020611ee95f395f51905f525460ff1615610b3b5760405163d93c066560e01b815260040160405180910390fd5b6114b0611478565b5f516020611ee95f395f51905f52805460ff191660011781557f62e78cea01bee320cd4e420270b5ea74000d11b0c9f74754ebdbfc544b05a2583361143e565b5f61110b83836117e0565b60605f61110b83611806565b5f610579825490565b7f9b779b17422d0df92223018b32b4d1fa46e071723d6817e2486d003becc55f0080546001190161155457604051633ee5aeb560e01b815260040160405180910390fd5b60029055565b5f811161157a5760405163150a67e960e01b815260040160405180910390fd5b8254829061010090046001600160a01b03166115b55760405163d6e0102560e01b81526001600160a01b0390911660048201526024016106a8565b508254829060ff16610a8e576040516311e8f21d60e11b81526001600160a01b0390911660048201526024016106a8565b83516001600160a01b031661164a57803410156116455760405162461bcd60e51b815260206004820152601960248201527f496e73756666696369656e74206e61746976652076616c75650000000000000060448201526064016106a8565b610a8e565b8351610a8e906001600160a01b031684848461185f565b61166b82826110ac565b61169a5760405163e2517d3f60e01b81526001600160a01b0382166004820152602481018390526044016106a8565b5050565b5f5f516020611ec95f395f51905f526116b784846110ac565b611736575f848152602082815260408083206001600160a01b03871684529091529020805460ff191660011790556116ec3390565b6001600160a01b0316836001600160a01b0316857f2f8788117e7eff1d82e926ec794901d17c78024a50270940304540a733656f0d60405160405180910390a46001915050610579565b5f915050610579565b5f61110b836001600160a01b0384166118b9565b5f5f516020611ec95f395f51905f5261176c84846110ac565b15611736575f848152602082815260408083206001600160a01b0387168085529252808320805460ff1916905551339287917ff6391f5c32d9c69d2a47ea670b442974b53935d1edc7fd64eb21e047a839171b9190a46001915050610579565b5f61110b836001600160a01b038416611905565b5f825f0182815481106117f5576117f5611db8565b905f5260205f200154905092915050565b6060815f0180548060200260200160405190810160405280929190818152602001828054801561185357602002820191905f5260205f20905b81548152602001906001019080831161183f575b50505050509050919050565b604080516001600160a01b0385811660248301528416604482015260648082018490528251808303909101815260849091019091526020810180516001600160e01b03166323b872dd60e01b179052610a8e9085906119df565b5f8181526001830160205260408120546118fe57508154600181810184555f848152602080822090930184905584548482528286019093526040902091909155610579565b505f610579565b5f8181526001830160205260408120548015611736575f611927600183611e34565b85549091505f9061193a90600190611e34565b9050808214611999575f865f01828154811061195857611958611db8565b905f5260205f200154905080875f01848154811061197857611978611db8565b5f918252602080832090910192909255918252600188019052604090208390555b85548690806119aa576119aa611e94565b600190038181905f5260205f20015f90559055856001015f8681526020019081526020015f205f905560019350505050610579565b5f5f60205f8451602086015f885af1806119fe576040513d5f823e3d81fd5b50505f513d91508115611a15578060011415611a22565b6001600160a01b0384163b155b15610a8e57604051635274afe760e01b81526001600160a01b03851660048201526024016106a8565b5f60208284031215611a5b575f5ffd5b81356001600160e01b03198116811461110b575f5ffd5b5f5f83601f840112611a82575f5ffd5b5081356001600160401b03811115611a98575f5ffd5b6020830191508360208260051b8501011115611ab2575f5ffd5b9250929050565b80356001600160a01b0381168114611acf575f5ffd5b919050565b5f5f5f60408486031215611ae6575f5ffd5b83356001600160401b03811115611afb575f5ffd5b611b0786828701611a72565b9094509250611b1a905060208501611ab9565b90509250925092565b6001600160401b0381168114611350575f5ffd5b5f60208284031215611b47575f5ffd5b813561110b81611b23565b5f60208284031215611b62575f5ffd5b5035919050565b5f5f60408385031215611b7a575f5ffd5b82359150611b8a60208401611ab9565b90509250929050565b5f60208284031215611ba3575f5ffd5b61110b82611ab9565b5f5f5f5f5f60a08688031215611bc0575f5ffd5b611bc986611ab9565b9450611bd760208701611ab9565b9350604086013592506060860135915060808601358015158114611bf9575f5ffd5b809150509295509295909350565b5f5f60208385031215611c18575f5ffd5b82356001600160401b03811115611c2d575f5ffd5b611c3985828601611a72565b90969095509350505050565b602080825282518282018190525f918401906040840190835b81811015611cc757835160018060a01b0381511684526001600160401b03602082015116602085015260018060a01b036040820151166040850152606081015160608501526080810151151560808501525060a083019250602084019350600181019050611c5e565b509095945050505050565b5f5f5f60608486031215611ce4575f5ffd5b611ced84611ab9565b9250611cfb60208501611ab9565b929592945050506040919091013590565b5f8151808452602084019350602083015f5b82811015611d3c578151865260209586019590910190600101611d1e565b5093949350505050565b602081525f61110b6020830184611d0c565b5f5f60408385031215611d69575f5ffd5b50508035926020909101359150565b602080825282518282018190525f918401906040840190835b81811015611cc75783516001600160a01b0316835260209384019390920191600101611d91565b634e487b7160e01b5f52603260045260245ffd5b634e487b7160e01b5f52604160045260245ffd5b604081525f611df26040830185611d0c565b905060018060a01b03831660208301529392505050565b5f60208284031215611e19575f5ffd5b5051919050565b634e487b7160e01b5f52601160045260245ffd5b8181038181111561057957610579611e20565b5f60208284031215611e57575f5ffd5b815161110b81611b23565b6001600160401b03818116838216019081111561057957610579611e20565b8082018082111561057957610579611e20565b634e487b7160e01b5f52603160045260245ffdfec1f6fe24621ce81ec5827caf0253cadb74709b061630e6b55e8237170593200002dd7bc7dec4dceedda775e58dd541e08a116c6c53815c0bd028192f7b626800cd5ed15c6e187e77e9aee88184c21f4f2182ab5827cb3b7e07fbedcd63f03300a6b5d83d32632203555cb9b2c2f68a8d94da48cadd9266ac0d17babedb52ea5ba2646970667358221220d0a04cf6f89b8e470e2d60e135bcaa75cbd28ada81365365094621c3681332ba64736f6c634300081b0033",
  "linkReferences": {},
  "deployedLinkReferences": {}
}