{
  "_format": "hh-sol-artifact-1",
  "contractName": "StakingFacet",
  "sourceName": "contracts/hyperstaking/facets/StakingFacet.sol",
  "abi": [
    {
      "inputs": [],
      "name": "DepositBadValue",
      "type": "error"
    },
    {
      "inputs": [],
      "name": "PoolDoesNotExist",
      "type": "error"
    },
    {
      "inputs": [],
      "name": "Unsupported",
      "type": "error"
    },
    {
      "inputs": [],
      "name": "WithdrawFailedCall",
      "type": "error"
    },
    {
      "anonymous": false,
      "inputs": [
        {
          "indexed": true,
          "internalType": "address",
          "name": "from",
          "type": "address"
        },
        {
          "indexed": true,
          "internalType": "uint256",
          "name": "poolId",
          "type": "uint256"
        },
        {
          "indexed": false,
          "internalType": "uint256",
          "name": "amount",
          "type": "uint256"
        },
        {
          "indexed": true,
          "internalType": "address",
          "name": "to",
          "type": "address"
        }
      ],
      "name": "StakeDeposit",
      "type": "event"
    },
    {
      "anonymous": false,
      "inputs": [
        {
          "indexed": true,
          "internalType": "address",
          "name": "from",
          "type": "address"
        },
        {
          "indexed": true,
          "internalType": "uint256",
          "name": "poolId",
          "type": "uint256"
        },
        {
          "indexed": false,
          "internalType": "uint256",
          "name": "amount",
          "type": "uint256"
        },
        {
          "indexed": true,
          "internalType": "address",
          "name": "to",
          "type": "address"
        }
      ],
      "name": "StakeWithdraw",
      "type": "event"
    },
    {
      "anonymous": false,
      "inputs": [
        {
          "indexed": true,
          "internalType": "address",
          "name": "from",
          "type": "address"
        },
        {
          "indexed": true,
          "internalType": "address",
          "name": "stakeToken",
          "type": "address"
        },
        {
          "indexed": false,
          "internalType": "uint256",
          "name": "idx",
          "type": "uint256"
        },
        {
          "indexed": false,
          "internalType": "uint256",
          "name": "poolId",
          "type": "uint256"
        }
      ],
      "name": "StakingPoolCreate",
      "type": "event"
    },
    {
      "inputs": [
        {
          "internalType": "address",
          "name": "stakeToken",
          "type": "address"
        },
        {
          "internalType": "uint96",
          "name": "idx",
          "type": "uint96"
        }
      ],
      "name": "generatePoolId",
      "outputs": [
        {
          "internalType": "uint256",
          "name": "",
          "type": "uint256"
        }
      ],
      "stateMutability": "pure",
      "type": "function"
    },
    {
      "inputs": [],
      "name": "init",
      "outputs": [],
      "stateMutability": "nonpayable",
      "type": "function"
    },
    {
      "inputs": [],
      "name": "nativeTokenAddress",
      "outputs": [
        {
          "internalType": "address",
          "name": "",
          "type": "address"
        }
      ],
      "stateMutability": "pure",
      "type": "function"
    },
    {
      "inputs": [
        {
          "internalType": "uint256",
          "name": "poolId",
          "type": "uint256"
        }
      ],
      "name": "poolInfo",
      "outputs": [
        {
          "components": [
            {
              "internalType": "uint256",
              "name": "poolId",
              "type": "uint256"
            },
            {
              "internalType": "bool",
              "name": "native",
              "type": "bool"
            },
            {
              "internalType": "address",
              "name": "stakeToken",
              "type": "address"
            },
            {
              "internalType": "uint256",
              "name": "totalStake",
              "type": "uint256"
            }
          ],
          "internalType": "struct PoolInfo",
          "name": "",
          "type": "tuple"
        }
      ],
      "stateMutability": "view",
      "type": "function"
    },
    {
      "inputs": [
        {
          "internalType": "uint256",
          "name": "poolId",
          "type": "uint256"
        },
        {
          "internalType": "uint256",
          "name": "amount",
          "type": "uint256"
        },
        {
          "internalType": "address",
          "name": "to",
          "type": "address"
        }
      ],
      "name": "stakeDeposit",
      "outputs": [],
      "stateMutability": "payable",
      "type": "function"
    },
    {
      "inputs": [
        {
          "internalType": "uint256",
          "name": "poolId",
          "type": "uint256"
        },
        {
          "internalType": "uint256",
          "name": "amount",
          "type": "uint256"
        },
        {
          "internalType": "address",
          "name": "to",
          "type": "address"
        }
      ],
      "name": "stakeWithdraw",
      "outputs": [],
      "stateMutability": "nonpayable",
      "type": "function"
    },
    {
      "inputs": [
        {
          "internalType": "uint256",
          "name": "poolId",
          "type": "uint256"
        },
        {
          "internalType": "address",
          "name": "user",
          "type": "address"
        }
      ],
      "name": "userInfo",
      "outputs": [
        {
          "components": [
            {
              "internalType": "uint256",
              "name": "amount",
              "type": "uint256"
            }
          ],
          "internalType": "struct UserInfo",
          "name": "",
          "type": "tuple"
        }
      ],
      "stateMutability": "view",
      "type": "function"
    }
  ],
  "bytecode": "0x608060405234801561001057600080fd5b506109ce806100206000396000f3fe6080604052600436106100705760003560e01c806393f1a40b1161004e57806393f1a40b146101b4578063de6b949814610229578063ded9cee81461023e578063e1c7392a1461025e57600080fd5b80631526fe27146100755780633bdd540f146101575780634d0047ee14610185575b600080fd5b34801561008157600080fd5b5061011061009036600461081d565b604080516080808201835260008083526020808401829052838501829052606093840182905294815260008051602061097983398151915285528390208351918201845280548252600181015460ff81161515958301959095526101009094046001600160a01b0316928101929092526002909201549181019190915290565b60405161014e9190815181526020808301511515908201526040808301516001600160a01b0316908201526060918201519181019190915260800190565b60405180910390f35b34801561016357600080fd5b50610177610172366004610852565b610273565b60405190815260200161014e565b34801561019157600080fd5b50604051731aa6cb21f134a3e9f02ace30ff61c382a104c57f815260200161014e565b3480156101c057600080fd5b5061021a6101cf366004610895565b604080516020808201835260009182905293815260008051602061095983398151915284528181206001600160a01b0393909316815291835290819020815192830190915254815290565b6040519051815260200161014e565b61023c6102373660046108c1565b6102c3565b005b34801561024a57600080fd5b5061023c6102593660046108c1565b610476565b34801561026a57600080fd5b5061023c610644565b60408051606084901b6bffffffffffffffffffffffff191660208083019190915260a084901b6001600160a01b031916603483015282518083038201815291830190925280519101205b92915050565b60008381526000805160206109798339815191526020818152604080842081516080810183528154808252600183015460ff811615158387015261010090046001600160a01b0316938201939093526002909101546060820152938790529190528491600080516020610959833981519152918314610355576040516302721e1f60e61b815260040160405180910390fd5b6000868152600080516020610979833981519152602090815260408083206000805160206109598339815191528084528285206001600160a01b038a168652909352908320805492939192909189918391906103b290849061090c565b92505081905550878260020160008282546103cd919061090c565b9091555050600182015460ff1615610404578734146103ff5760405163c987b27560e01b815260040160405180910390fd5b61041d565b604051634851657960e11b815260040160405180910390fd5b866001600160a01b031689336001600160a01b03167f1715527d4f86660d89e5d17cd448f3a7b7d1723fe2f237186d31bf4d4c25b9228b60405161046391815260200190565b60405180910390a4505050505050505050565b60008381526000805160206109798339815191526020818152604080842081516080810183528154808252600183015460ff811615158387015261010090046001600160a01b0316938201939093526002909101546060820152938790529190528491600080516020610959833981519152918314610508576040516302721e1f60e61b815260040160405180910390fd5b6000868152600080516020610979833981519152602090815260408083206000805160206109598339815191528084528285203386529093529083208054929391929091899183919061055c90849061091f565b9250508190555087826002016000828254610577919061091f565b9091555050600182015460ff1615610404576000876001600160a01b03168960405160006040518083038185875af1925050503d80600081146105d6576040519150601f19603f3d011682016040523d82523d6000602084013e6105db565b606091505b50509050806105fd57604051631d17e35560e01b815260040160405180910390fd5b50866001600160a01b031689336001600160a01b03167ff093837982d0b9508a63f5c12fa861a74ef395e67fbec6e796e3c0e27a6148b08b60405161046391815260200190565b6000805160206109598339815191527fbefae8b7ff926e5ec4428d291aa6cb21f134a3e9f02ace30ff61c382a104c57f600061067f82610700565b60408051608081018252828152600160208083018281526001600160a01b03978816848601908152600060608601818152978152998401909252939097209151825591519181018054965190951661010002610100600160a81b0319921515929092166001600160a81b031990961695909517179092555051600290910155565b6001600160a01b03811660009081527f34b634470e29e36048aab5cc5a64c34b2eced30149e0fdca374a6ec67d2dfdf46020526040812054600080516020610959833981519152906001600160601b031661075b8482610273565b6001600160a01b0385166000908152600284016020526040812080549295506001600160601b03909216919061079083610932565b91906101000a8154816001600160601b0302191690836001600160601b0316021790555050836001600160a01b0316336001600160a01b03167fd42a0ad48cedb70e78a2ea761850fc3736b3796808c3ef48ac49a4f4a0beb98c838660405161080e9291906001600160601b03929092168252602082015260400190565b60405180910390a35050919050565b60006020828403121561082f57600080fd5b5035919050565b80356001600160a01b038116811461084d57600080fd5b919050565b6000806040838503121561086557600080fd5b61086e83610836565b915060208301356001600160601b038116811461088a57600080fd5b809150509250929050565b600080604083850312156108a857600080fd5b823591506108b860208401610836565b90509250929050565b6000806000606084860312156108d657600080fd5b83359250602084013591506108ed60408501610836565b90509250925092565b634e487b7160e01b600052601160045260246000fd5b808201808211156102bd576102bd6108f6565b818103818111156102bd576102bd6108f6565b60006001600160601b0380831681810361094e5761094e6108f6565b600101939250505056fe34b634470e29e36048aab5cc5a64c34b2eced30149e0fdca374a6ec67d2dfdf234b634470e29e36048aab5cc5a64c34b2eced30149e0fdca374a6ec67d2dfdf3a264697066735822122060e06b450fd08de03bbd37de0b7ff71c8b24f3e3a2fa79b25ffc3028319e786064736f6c63430008180033",
  "linkReferences": {},
  "deployedLinkReferences": {}
}