{
  "_format": "hh-sol-artifact-1",
  "contractName": "CurveIntegrationFacet",
  "sourceName": "contracts/hyperstaking/facets/integrations/CurveIntegrationFacet.sol",
  "abi": [
    {
      "inputs": [],
      "name": "AccessControlBadConfirmation",
      "type": "error"
    },
    {
      "inputs": [
        {
          "internalType": "address",
          "name": "account",
          "type": "address"
        },
        {
          "internalType": "bytes32",
          "name": "neededRole",
          "type": "bytes32"
        }
      ],
      "name": "AccessControlUnauthorizedAccount",
      "type": "error"
    },
    {
      "inputs": [],
      "name": "CoinNotInPool",
      "type": "error"
    },
    {
      "inputs": [],
      "name": "CurveRouterNotSet",
      "type": "error"
    },
    {
      "inputs": [],
      "name": "InvalidInitialization",
      "type": "error"
    },
    {
      "inputs": [
        {
          "internalType": "address",
          "name": "",
          "type": "address"
        }
      ],
      "name": "NotFromSwapStrategy",
      "type": "error"
    },
    {
      "inputs": [],
      "name": "NotInitializing",
      "type": "error"
    },
    {
      "inputs": [],
      "name": "OnlyDiamondInternal",
      "type": "error"
    },
    {
      "inputs": [],
      "name": "OnlyStakingManager",
      "type": "error"
    },
    {
      "inputs": [],
      "name": "OnlyStrategyManager",
      "type": "error"
    },
    {
      "inputs": [],
      "name": "OnlyStrategyUpgrader",
      "type": "error"
    },
    {
      "inputs": [],
      "name": "OnlyVaultManager",
      "type": "error"
    },
    {
      "inputs": [],
      "name": "PoolBadNCoins",
      "type": "error"
    },
    {
      "inputs": [],
      "name": "PoolDuplicateToken",
      "type": "error"
    },
    {
      "inputs": [],
      "name": "PoolNotRegistered",
      "type": "error"
    },
    {
      "inputs": [],
      "name": "PoolSizeMismatch",
      "type": "error"
    },
    {
      "inputs": [
        {
          "internalType": "address",
          "name": "token",
          "type": "address"
        }
      ],
      "name": "SafeERC20FailedOperation",
      "type": "error"
    },
    {
      "inputs": [],
      "name": "SameCoinSwap",
      "type": "error"
    },
    {
      "inputs": [
        {
          "internalType": "address",
          "name": "",
          "type": "address"
        }
      ],
      "name": "TokenNotRegistered",
      "type": "error"
    },
    {
      "inputs": [],
      "name": "UpdateFailed",
      "type": "error"
    },
    {
      "inputs": [],
      "name": "ZeroAddress",
      "type": "error"
    },
    {
      "anonymous": false,
      "inputs": [
        {
          "indexed": false,
          "internalType": "address",
          "name": "newRouter",
          "type": "address"
        }
      ],
      "name": "CurveRouterUpdated",
      "type": "event"
    },
    {
      "anonymous": false,
      "inputs": [
        {
          "indexed": false,
          "internalType": "uint64",
          "name": "version",
          "type": "uint64"
        }
      ],
      "name": "Initialized",
      "type": "event"
    },
    {
      "anonymous": false,
      "inputs": [
        {
          "indexed": false,
          "internalType": "address",
          "name": "pool",
          "type": "address"
        },
        {
          "indexed": false,
          "internalType": "uint8",
          "name": "nCoins",
          "type": "uint8"
        }
      ],
      "name": "PoolRegistered",
      "type": "event"
    },
    {
      "anonymous": false,
      "inputs": [
        {
          "indexed": true,
          "internalType": "bytes32",
          "name": "role",
          "type": "bytes32"
        },
        {
          "indexed": true,
          "internalType": "bytes32",
          "name": "previousAdminRole",
          "type": "bytes32"
        },
        {
          "indexed": true,
          "internalType": "bytes32",
          "name": "newAdminRole",
          "type": "bytes32"
        }
      ],
      "name": "RoleAdminChanged",
      "type": "event"
    },
    {
      "anonymous": false,
      "inputs": [
        {
          "indexed": true,
          "internalType": "bytes32",
          "name": "role",
          "type": "bytes32"
        },
        {
          "indexed": true,
          "internalType": "address",
          "name": "account",
          "type": "address"
        },
        {
          "indexed": true,
          "internalType": "address",
          "name": "sender",
          "type": "address"
        }
      ],
      "name": "RoleGranted",
      "type": "event"
    },
    {
      "anonymous": false,
      "inputs": [
        {
          "indexed": true,
          "internalType": "bytes32",
          "name": "role",
          "type": "bytes32"
        },
        {
          "indexed": true,
          "internalType": "address",
          "name": "account",
          "type": "address"
        },
        {
          "indexed": true,
          "internalType": "address",
          "name": "sender",
          "type": "address"
        }
      ],
      "name": "RoleRevoked",
      "type": "event"
    },
    {
      "anonymous": false,
      "inputs": [
        {
          "indexed": false,
          "internalType": "address",
          "name": "strategy",
          "type": "address"
        },
        {
          "indexed": false,
          "internalType": "bool",
          "name": "status",
          "type": "bool"
        }
      ],
      "name": "SwapStrategyUpdated",
      "type": "event"
    },
    {
      "inputs": [],
      "name": "DEFAULT_ADMIN_ROLE",
      "outputs": [
        {
          "internalType": "bytes32",
          "name": "",
          "type": "bytes32"
        }
      ],
      "stateMutability": "view",
      "type": "function"
    },
    {
      "inputs": [],
      "name": "STAKING_MANAGER_ROLE",
      "outputs": [
        {
          "internalType": "bytes32",
          "name": "",
          "type": "bytes32"
        }
      ],
      "stateMutability": "pure",
      "type": "function"
    },
    {
      "inputs": [],
      "name": "STRATEGY_MANAGER_ROLE",
      "outputs": [
        {
          "internalType": "bytes32",
          "name": "",
          "type": "bytes32"
        }
      ],
      "stateMutability": "pure",
      "type": "function"
    },
    {
      "inputs": [],
      "name": "STRATEGY_UPGRADER_ROLE",
      "outputs": [
        {
          "internalType": "bytes32",
          "name": "",
          "type": "bytes32"
        }
      ],
      "stateMutability": "pure",
      "type": "function"
    },
    {
      "inputs": [],
      "name": "VAULT_MANAGER_ROLE",
      "outputs": [
        {
          "internalType": "bytes32",
          "name": "",
          "type": "bytes32"
        }
      ],
      "stateMutability": "pure",
      "type": "function"
    },
    {
      "inputs": [],
      "name": "curveRouter",
      "outputs": [
        {
          "internalType": "address",
          "name": "",
          "type": "address"
        }
      ],
      "stateMutability": "view",
      "type": "function"
    },
    {
      "inputs": [
        {
          "internalType": "bytes32",
          "name": "role",
          "type": "bytes32"
        }
      ],
      "name": "getRoleAdmin",
      "outputs": [
        {
          "internalType": "bytes32",
          "name": "",
          "type": "bytes32"
        }
      ],
      "stateMutability": "view",
      "type": "function"
    },
    {
      "inputs": [
        {
          "internalType": "bytes32",
          "name": "role",
          "type": "bytes32"
        },
        {
          "internalType": "uint256",
          "name": "index",
          "type": "uint256"
        }
      ],
      "name": "getRoleMember",
      "outputs": [
        {
          "internalType": "address",
          "name": "",
          "type": "address"
        }
      ],
      "stateMutability": "view",
      "type": "function"
    },
    {
      "inputs": [
        {
          "internalType": "bytes32",
          "name": "role",
          "type": "bytes32"
        }
      ],
      "name": "getRoleMemberCount",
      "outputs": [
        {
          "internalType": "uint256",
          "name": "",
          "type": "uint256"
        }
      ],
      "stateMutability": "view",
      "type": "function"
    },
    {
      "inputs": [
        {
          "internalType": "bytes32",
          "name": "role",
          "type": "bytes32"
        }
      ],
      "name": "getRoleMembers",
      "outputs": [
        {
          "internalType": "address[]",
          "name": "",
          "type": "address[]"
        }
      ],
      "stateMutability": "view",
      "type": "function"
    },
    {
      "inputs": [
        {
          "internalType": "bytes32",
          "name": "role",
          "type": "bytes32"
        },
        {
          "internalType": "address",
          "name": "account",
          "type": "address"
        }
      ],
      "name": "grantRole",
      "outputs": [],
      "stateMutability": "nonpayable",
      "type": "function"
    },
    {
      "inputs": [
        {
          "internalType": "bytes32",
          "name": "role",
          "type": "bytes32"
        },
        {
          "internalType": "address",
          "name": "account",
          "type": "address"
        }
      ],
      "name": "hasRole",
      "outputs": [
        {
          "internalType": "bool",
          "name": "",
          "type": "bool"
        }
      ],
      "stateMutability": "view",
      "type": "function"
    },
    {
      "inputs": [
        {
          "internalType": "address",
          "name": "account",
          "type": "address"
        }
      ],
      "name": "hasStrategyManagerRole",
      "outputs": [
        {
          "internalType": "bool",
          "name": "",
          "type": "bool"
        }
      ],
      "stateMutability": "view",
      "type": "function"
    },
    {
      "inputs": [
        {
          "internalType": "address",
          "name": "account",
          "type": "address"
        }
      ],
      "name": "hasStrategyUpgraderRole",
      "outputs": [
        {
          "internalType": "bool",
          "name": "",
          "type": "bool"
        }
      ],
      "stateMutability": "view",
      "type": "function"
    },
    {
      "inputs": [
        {
          "internalType": "address",
          "name": "pool",
          "type": "address"
        }
      ],
      "name": "poolConfig",
      "outputs": [
        {
          "internalType": "address[]",
          "name": "tokens",
          "type": "address[]"
        },
        {
          "internalType": "uint8[]",
          "name": "indexes",
          "type": "uint8[]"
        }
      ],
      "stateMutability": "view",
      "type": "function"
    },
    {
      "inputs": [
        {
          "internalType": "address",
          "name": "tokenIn",
          "type": "address"
        },
        {
          "internalType": "address",
          "name": "pool",
          "type": "address"
        },
        {
          "internalType": "address",
          "name": "tokenOut",
          "type": "address"
        },
        {
          "internalType": "uint256",
          "name": "amountIn",
          "type": "uint256"
        }
      ],
      "name": "quote",
      "outputs": [
        {
          "internalType": "uint256",
          "name": "dy",
          "type": "uint256"
        }
      ],
      "stateMutability": "view",
      "type": "function"
    },
    {
      "inputs": [
        {
          "internalType": "address",
          "name": "pool",
          "type": "address"
        },
        {
          "internalType": "uint8",
          "name": "nCoins",
          "type": "uint8"
        },
        {
          "internalType": "address[]",
          "name": "tokens",
          "type": "address[]"
        },
        {
          "internalType": "uint8[]",
          "name": "indexes",
          "type": "uint8[]"
        }
      ],
      "name": "registerPool",
      "outputs": [],
      "stateMutability": "nonpayable",
      "type": "function"
    },
    {
      "inputs": [
        {
          "internalType": "bytes32",
          "name": "role",
          "type": "bytes32"
        },
        {
          "internalType": "address",
          "name": "callerConfirmation",
          "type": "address"
        }
      ],
      "name": "renounceRole",
      "outputs": [],
      "stateMutability": "nonpayable",
      "type": "function"
    },
    {
      "inputs": [
        {
          "internalType": "bytes32",
          "name": "role",
          "type": "bytes32"
        },
        {
          "internalType": "address",
          "name": "account",
          "type": "address"
        }
      ],
      "name": "revokeRole",
      "outputs": [],
      "stateMutability": "nonpayable",
      "type": "function"
    },
    {
      "inputs": [
        {
          "internalType": "address",
          "name": "newRouter",
          "type": "address"
        }
      ],
      "name": "setCurveRouter",
      "outputs": [],
      "stateMutability": "nonpayable",
      "type": "function"
    },
    {
      "inputs": [
        {
          "internalType": "bytes4",
          "name": "interfaceId",
          "type": "bytes4"
        }
      ],
      "name": "supportsInterface",
      "outputs": [
        {
          "internalType": "bool",
          "name": "",
          "type": "bool"
        }
      ],
      "stateMutability": "view",
      "type": "function"
    },
    {
      "inputs": [
        {
          "internalType": "address",
          "name": "tokenIn",
          "type": "address"
        },
        {
          "internalType": "address",
          "name": "pool",
          "type": "address"
        },
        {
          "internalType": "address",
          "name": "tokenOut",
          "type": "address"
        },
        {
          "internalType": "uint256",
          "name": "amountIn",
          "type": "uint256"
        },
        {
          "internalType": "uint256",
          "name": "minDy",
          "type": "uint256"
        },
        {
          "internalType": "address",
          "name": "receiver",
          "type": "address"
        }
      ],
      "name": "swap",
      "outputs": [
        {
          "internalType": "uint256",
          "name": "dy",
          "type": "uint256"
        }
      ],
      "stateMutability": "nonpayable",
      "type": "function"
    },
    {
      "inputs": [],
      "name": "swapStrategiesLength",
      "outputs": [
        {
          "internalType": "uint256",
          "name": "",
          "type": "uint256"
        }
      ],
      "stateMutability": "view",
      "type": "function"
    },
    {
      "inputs": [
        {
          "internalType": "uint256",
          "name": "index",
          "type": "uint256"
        }
      ],
      "name": "swapStrategyAt",
      "outputs": [
        {
          "internalType": "address",
          "name": "",
          "type": "address"
        }
      ],
      "stateMutability": "view",
      "type": "function"
    },
    {
      "inputs": [
        {
          "internalType": "address",
          "name": "strategy",
          "type": "address"
        },
        {
          "internalType": "bool",
          "name": "status",
          "type": "bool"
        }
      ],
      "name": "updateSwapStrategies",
      "outputs": [],
      "stateMutability": "nonpayable",
      "type": "function"
    }
  ],
  "bytecode": "0x6080604052348015600e575f5ffd5b50611c848061001c5f395ff3fe608060405234801561000f575f5ffd5b506004361061016d575f3560e01c8063780c3666116100d9578063a3246ad311610093578063ca15c8731161006e578063ca15c8731461037a578063cda90b881461038d578063d547741f14610395578063fd245b4c146103a8575f5ffd5b8063a3246ad314610334578063a80f51b814610354578063abcbe0b214610367575f5ffd5b8063780c3666146102c15780637c6c84af146102c95780638064842c146102dc5780639010d07c146102ef57806391d148541461031a578063a217fddf1461032d575f5ffd5b80633937c0b31161012a5780633937c0b314610208578063505f158a1461022e57806359f82f91146102415780635c00cbfd146102675780635e5a24a41461027a5780636edc4d66146102a0575f5ffd5b806301ffc9a71461017157806308bb936714610199578063248a9ca3146101ba5780632f085bd8146101cd5780632f2ff15d146101e257806336568abe146101f5575b5f5ffd5b61018461017f3660046116e1565b6103bb565b60405190151581526020015b60405180910390f35b6101ac6101a7366004611723565b6103e5565b604051908152602001610190565b6101ac6101c836600461176b565b61048d565b6101e06101db366004611782565b6104ad565b005b6101e06101f036600461179b565b61052a565b6101e061020336600461179b565b61054c565b7fa6b5d83d32632203555cb9b2c2f68a8d94da48cadd9266ac0d17babedb52ea5b6101ac565b61018461023c366004611782565b610584565b7fb6b8360f529bf65be805a119c79f97914e5e29532dc734732a563b5bc869148c6101ac565b6101e061027536600461181d565b61059d565b7fd1473398bb66596de5d1ea1fc8e303ff2ac23265adc9144b1b52065dc4f0934b6101ac565b6102b36102ae366004611782565b61090a565b6040516101909291906118f0565b6101ac610a5b565b6101ac6102d736600461194b565b610a74565b6101e06102ea3660046119ad565b610b8a565b6103026102fd3660046119e6565b610c77565b6040516001600160a01b039091168152602001610190565b61018461032836600461179b565b610ca4565b6101ac5f81565b61034761034236600461176b565b610cda565b6040516101909190611a06565b61030261036236600461176b565b610d0a565b5f516020611c0f5f395f51905f526101ac565b6101ac61038836600461176b565b610d20565b610302610d44565b6101e06103a336600461179b565b610d5c565b6101846103b6366004611782565b610d78565b5f6001600160e01b03198216635a05180f60e01b14806103df57506103df82610da2565b92915050565b5f5f6103ef610dd6565b546001600160a01b031690505f8080610409898989610e03565b925092509250836001600160a01b031663637653cb848489856040518563ffffffff1660e01b81526004016104419493929190611ab7565b602060405180830381865afa15801561045c573d5f5f3e3d5ffd5b505050506040513d601f19601f820116820180604052508101906104809190611af2565b9998505050505050505050565b5f9081525f516020611c2f5f395f51905f52602052604090206001015490565b6104c55f516020611c0f5f395f51905f525b33610ca4565b6104e2576040516348da714f60e01b815260040160405180910390fd5b6104eb81610f06565b6040516001600160a01b03821681527f345d2987ca02ebad73b32fe53bad5fda1248cda38af7d959befa9f03500ed5a49060200160405180910390a150565b6105338261048d565b61053c81610f58565b6105468383610f65565b50505050565b6001600160a01b03811633146105755760405163334bd91960e11b815260040160405180910390fd5b61057f8282610fa7565b505050565b5f6103df5f516020611c0f5f395f51905f525b83610ca4565b6105b35f516020611c0f5f395f51905f526104bf565b6105d0576040516348da714f60e01b815260040160405180910390fd5b6105d8610fe0565b82811480156105e9575060ff851683145b6106065760405163127c7cfd60e21b815260040160405180910390fd5b60018560ff1611801561061d575060088560ff1611155b61063a57604051637f15b20b60e01b815260040160405180910390fd5b5f610643610dd6565b6001600160a01b0388165f908152600391909101602052604081208054909250905b818110156106fe57826001015f845f01838154811061068657610686611b09565b5f9182526020808320909101546001600160a01b031683528201929092526040018120805460ff1916905583546002850191908590849081106106cb576106cb611b09565b5f9182526020808320909101546001600160a01b031683528201929092526040019020805460ff19169055600101610665565b50610709825f611644565b5f5b8760ff168110156108bb57826002015f88888481811061072d5761072d611b09565b90506020020160208101906107429190611782565b6001600160a01b0316815260208101919091526040015f205460ff161561077c5760405163623102d560e01b815260040160405180910390fd5b8287878381811061078f5761078f611b09565b90506020020160208101906107a49190611782565b81546001810183555f928352602090922090910180546001600160a01b0319166001600160a01b039092169190911790558484828181106107e7576107e7611b09565b90506020020160208101906107fc9190611b1d565b836001015f89898581811061081357610813611b09565b90506020020160208101906108289190611782565b6001600160a01b03166001600160a01b031681526020019081526020015f205f6101000a81548160ff021916908360ff1602179055506001836002015f89898581811061087757610877611b09565b905060200201602081019061088c9190611782565b6001600160a01b0316815260208101919091526040015f20805460ff191691151591909117905560010161070b565b50604080516001600160a01b038a16815260ff891660208201527fb37c413ac154f73c66ff944fa8d791ce53c3623ee42c7038faecbe01530a3afa910160405180910390a15050505050505050565b6060805f610916610dd6565b6001600160a01b0385165f90815260039190910160209081526040918290208054835181840281018401909452808452909350839183018282801561098257602002820191905f5260205f20905b81546001600160a01b03168152600190910190602001808311610964575b50505050509250825167ffffffffffffffff8111156109a3576109a3611b36565b6040519080825280602002602001820160405280156109cc578160200160208202803683370190505b5083519092505f5b81811015610a5357826001015f8683815181106109f3576109f3611b09565b60200260200101516001600160a01b03166001600160a01b031681526020019081526020015f205f9054906101000a900460ff16848281518110610a3957610a39611b09565b60ff909216602092830291909101909101526001016109d4565b505050915091565b5f610a6f610a67610dd6565b600101611014565b905090565b5f5f610a7e610dd6565b9050610a8d600182013361101d565b3390610abd576040516338a2bf0960e21b81526001600160a01b0390911660048201526024015b60405180910390fd5b50610ac6610fe0565b5f610acf610dd6565b546001600160a01b031690505f8080610ae98c8c8c610e03565b91945092509050610b046001600160a01b038d16858b61103e565b60405163c872a3c560e01b81526001600160a01b0385169063c872a3c590610b3a90869086908e908e9088908f90600401611b4a565b6020604051808303815f875af1158015610b56573d5f5f3e3d5ffd5b505050506040513d601f19601f82011682018060405250810190610b7a9190611af2565b9c9b505050505050505050505050565b610ba05f516020611c0f5f395f51905f526104bf565b610bbd576040516348da714f60e01b815260040160405180910390fd5b610bc5610fe0565b5f610bce610dd6565b90508115610c0557610be360018201846110c5565b610c005760405163055c6e9560e51b815260040160405180910390fd5b610c2f565b610c1260018201846110d9565b610c2f5760405163055c6e9560e51b815260040160405180910390fd5b604080516001600160a01b038516815283151560208201527f148e3059fc22193f04ca8d3334bdf3c8d6e5aa6769f578aec6bfa870bdde74f5910160405180910390a1505050565b5f8281525f516020611bef5f395f51905f52602081905260408220610c9c90846110ed565b949350505050565b5f9182525f516020611c2f5f395f51905f52602090815260408084206001600160a01b0393909316845291905290205460ff1690565b5f8181525f516020611bef5f395f51905f526020819052604090912060609190610d03906110f8565b9392505050565b5f6103df82610d17610dd6565b600101906110ed565b5f8181525f516020611bef5f395f51905f52602081905260408220610d0390611014565b5f610d4d610dd6565b546001600160a01b0316919050565b610d658261048d565b610d6e81610f58565b6105468383610fa7565b5f6103df7fb6b8360f529bf65be805a119c79f97914e5e29532dc734732a563b5bc869148c610597565b5f6001600160e01b03198216637965db0b60e01b14806103df57506301ffc9a760e01b6001600160e01b03198316146103df565b5f806103df60017f6a524e0d7ee5edf22cd8f27bb77cd7dc5cf4604e8d3ea4e19e321d8f45273d61611bb4565b610e0b61165f565b610e1361167e565b610e1b6116ab565b836001600160a01b0316866001600160a01b031603610e4d57604051632d9a88fb60e01b815260040160405180910390fd5b6001600160a01b0380871684528581166020850152841660408401525f610e7386611104565b60ff1690505f610e83878961114f565b60ff1690505f610e93888861114f565b60ff1690505f198214158015610eaa57505f198114155b610ec75760405163054248a360e21b815260040160405180910390fd5b845182905284516020018190528451600160409091018190528551606001528451608001839052610ef66116ab565b8094505050505093509350939050565b6001600160a01b038116610f2d5760405163d92e233d60e01b815260040160405180910390fd5b5f610f36610dd6565b80546001600160a01b0319166001600160a01b03939093169290921790915550565b610f6281336111e0565b50565b5f5f516020611bef5f395f51905f5281610f7f858561121d565b90508015610c9c575f858152602083905260409020610f9e90856110c5565b50949350505050565b5f5f516020611bef5f395f51905f5281610fc185856112be565b90508015610c9c575f858152602083905260409020610f9e90856110d9565b5f610fe9610dd6565b80549091506001600160a01b0316610f6257604051632a1f98eb60e21b815260040160405180910390fd5b5f6103df825490565b6001600160a01b0381165f9081526001830160205260408120541515610d03565b604051636eb1769f60e11b81523060048201526001600160a01b0383811660248301525f919085169063dd62ed3e90604401602060405180830381865afa15801561108b573d5f5f3e3d5ffd5b505050506040513d601f19601f820116820180604052508101906110af9190611af2565b905061054684846110c08585611bc7565b611337565b5f610d03836001600160a01b0384166113ea565b5f610d03836001600160a01b038416611436565b5f610d038383611510565b60605f610d0383611536565b5f5f61110e610dd6565b6001600160a01b0384165f9081526003919091016020526040812054915060ff821690036103df5760405163739f418560e01b815260040160405180910390fd5b5f5f611159610dd6565b6001600160a01b038086165f9081526003929092016020908152604080842092871684526002830190915290912054909150839060ff166111b95760405163ddef98d760e01b81526001600160a01b039091166004820152602401610ab4565b506001600160a01b0383165f9081526001909101602052604090205460ff16905092915050565b6111ea8282610ca4565b6112195760405163e2517d3f60e01b81526001600160a01b038216600482015260248101839052604401610ab4565b5050565b5f5f516020611c2f5f395f51905f526112368484610ca4565b6112b5575f848152602082815260408083206001600160a01b03871684529091529020805460ff1916600117905561126b3390565b6001600160a01b0316836001600160a01b0316857f2f8788117e7eff1d82e926ec794901d17c78024a50270940304540a733656f0d60405160405180910390a460019150506103df565b5f9150506103df565b5f5f516020611c2f5f395f51905f526112d78484610ca4565b156112b5575f848152602082815260408083206001600160a01b0387168085529252808320805460ff1916905551339287917ff6391f5c32d9c69d2a47ea670b442974b53935d1edc7fd64eb21e047a839171b9190a460019150506103df565b604080516001600160a01b038416602482015260448082018490528251808303909101815260649091019091526020810180516001600160e01b031663095ea7b360e01b179052611388848261158f565b61054657604080516001600160a01b03851660248201525f6044808301919091528251808303909101815260649091019091526020810180516001600160e01b031663095ea7b360e01b1790526113e09085906115d8565b61054684826115d8565b5f81815260018301602052604081205461142f57508154600181810184555f8481526020808220909301849055845484825282860190935260409020919091556103df565b505f6103df565b5f81815260018301602052604081205480156112b5575f611458600183611bb4565b85549091505f9061146b90600190611bb4565b90508082146114ca575f865f01828154811061148957611489611b09565b905f5260205f200154905080875f0184815481106114a9576114a9611b09565b5f918252602080832090910192909255918252600188019052604090208390555b85548690806114db576114db611bda565b600190038181905f5260205f20015f90559055856001015f8681526020019081526020015f205f9055600193505050506103df565b5f825f01828154811061152557611525611b09565b905f5260205f200154905092915050565b6060815f0180548060200260200160405190810160405280929190818152602001828054801561158357602002820191905f5260205f20905b81548152602001906001019080831161156f575b50505050509050919050565b5f5f5f5f60205f8651602088015f8a5af192503d91505f5190508280156115ce575081156115c057806001146115ce565b5f866001600160a01b03163b115b9695505050505050565b5f5f60205f8451602086015f885af1806115f7576040513d5f823e3d81fd5b50505f513d9150811561160e57806001141561161b565b6001600160a01b0384163b155b1561054657604051635274afe760e01b81526001600160a01b0385166004820152602401610ab4565b5080545f8255905f5260205f2090810190610f6291906116c9565b604051806101600160405280600b906020820280368337509192915050565b6040518060a001604052806005905b6116956116ab565b81526020019060019003908161168d5790505090565b6040518060a001604052806005906020820280368337509192915050565b5b808211156116dd575f81556001016116ca565b5090565b5f602082840312156116f1575f5ffd5b81356001600160e01b031981168114610d03575f5ffd5b80356001600160a01b038116811461171e575f5ffd5b919050565b5f5f5f5f60808587031215611736575f5ffd5b61173f85611708565b935061174d60208601611708565b925061175b60408601611708565b9396929550929360600135925050565b5f6020828403121561177b575f5ffd5b5035919050565b5f60208284031215611792575f5ffd5b610d0382611708565b5f5f604083850312156117ac575f5ffd5b823591506117bc60208401611708565b90509250929050565b803560ff8116811461171e575f5ffd5b5f5f83601f8401126117e5575f5ffd5b50813567ffffffffffffffff8111156117fc575f5ffd5b6020830191508360208260051b8501011115611816575f5ffd5b9250929050565b5f5f5f5f5f5f60808789031215611832575f5ffd5b61183b87611708565b9550611849602088016117c5565b9450604087013567ffffffffffffffff811115611864575f5ffd5b61187089828a016117d5565b909550935050606087013567ffffffffffffffff81111561188f575f5ffd5b61189b89828a016117d5565b979a9699509497509295939492505050565b5f8151808452602084019350602083015f5b828110156118e65781516001600160a01b03168652602095860195909101906001016118bf565b5093949350505050565b604081525f61190260408301856118ad565b82810360208401528084518083526020830191506020860192505f5b8181101561193f57835160ff1683526020938401939092019160010161191e565b50909695505050505050565b5f5f5f5f5f5f60c08789031215611960575f5ffd5b61196987611708565b955061197760208801611708565b945061198560408801611708565b935060608701359250608087013591506119a160a08801611708565b90509295509295509295565b5f5f604083850312156119be575f5ffd5b6119c783611708565b9150602083013580151581146119db575f5ffd5b809150509250929050565b5f5f604083850312156119f7575f5ffd5b50508035926020909101359150565b602081525f610d0360208301846118ad565b805f5b600b8110156105465781516001600160a01b0316845260209384019390910190600101611a1b565b805f5b6005811015610546578151845f5b6005811015611a73578251825260209283019290910190600101611a54565b50505060a0939093019260209190910190600101611a46565b805f5b60058110156105465781516001600160a01b0316845260209384019390910190600101611a8f565b6105408101611ac68287611a18565b611ad4610160830186611a43565b83610480830152611ae96104a0830184611a8c565b95945050505050565b5f60208284031215611b02575f5ffd5b5051919050565b634e487b7160e01b5f52603260045260245ffd5b5f60208284031215611b2d575f5ffd5b610d03826117c5565b634e487b7160e01b5f52604160045260245ffd5b6105808101611b598289611a18565b611b67610160830188611a43565b85610480830152846104a0830152611b836104c0830185611a8c565b6001600160a01b0392909216610560919091015295945050505050565b634e487b7160e01b5f52601160045260245ffd5b818103818111156103df576103df611ba0565b808201808211156103df576103df611ba0565b634e487b7160e01b5f52603160045260245ffdfec1f6fe24621ce81ec5827caf0253cadb74709b061630e6b55e823717059320004170d100a3a3728ae51207936ee755ecaa64a7f6e9383c642ab204a136f90b1b02dd7bc7dec4dceedda775e58dd541e08a116c6c53815c0bd028192f7b626800a264697066735822122009aeb079c744b582fb77ca3f1774879acbeefcd03755a8350ea615558f2b168364736f6c634300081b0033",
  "linkReferences": {},
  "deployedLinkReferences": {}
}