{
  "_format": "hh-sol-artifact-1",
  "contractName": "StakeInfoRoute",
  "sourceName": "contracts/hyperstaking/facets/routes/StakeInfoRoute.sol",
  "abi": [
    {
      "inputs": [],
      "name": "AccessControlBadConfirmation",
      "type": "error"
    },
    {
      "inputs": [
        {
          "internalType": "address",
          "name": "account",
          "type": "address"
        },
        {
          "internalType": "bytes32",
          "name": "neededRole",
          "type": "bytes32"
        }
      ],
      "name": "AccessControlUnauthorizedAccount",
      "type": "error"
    },
    {
      "inputs": [],
      "name": "DestinationUnset",
      "type": "error"
    },
    {
      "inputs": [],
      "name": "InvalidInitialization",
      "type": "error"
    },
    {
      "inputs": [],
      "name": "NotInitializing",
      "type": "error"
    },
    {
      "inputs": [],
      "name": "OnlyDiamondInternal",
      "type": "error"
    },
    {
      "inputs": [],
      "name": "OnlyStakingManager",
      "type": "error"
    },
    {
      "inputs": [],
      "name": "OnlyStrategyManager",
      "type": "error"
    },
    {
      "inputs": [],
      "name": "OnlyStrategyUpgrader",
      "type": "error"
    },
    {
      "inputs": [],
      "name": "OnlyVaultManager",
      "type": "error"
    },
    {
      "inputs": [],
      "name": "RecipientUnset",
      "type": "error"
    },
    {
      "anonymous": false,
      "inputs": [
        {
          "indexed": false,
          "internalType": "uint64",
          "name": "version",
          "type": "uint64"
        }
      ],
      "name": "Initialized",
      "type": "event"
    },
    {
      "anonymous": false,
      "inputs": [
        {
          "indexed": true,
          "internalType": "bytes32",
          "name": "role",
          "type": "bytes32"
        },
        {
          "indexed": true,
          "internalType": "bytes32",
          "name": "previousAdminRole",
          "type": "bytes32"
        },
        {
          "indexed": true,
          "internalType": "bytes32",
          "name": "newAdminRole",
          "type": "bytes32"
        }
      ],
      "name": "RoleAdminChanged",
      "type": "event"
    },
    {
      "anonymous": false,
      "inputs": [
        {
          "indexed": true,
          "internalType": "bytes32",
          "name": "role",
          "type": "bytes32"
        },
        {
          "indexed": true,
          "internalType": "address",
          "name": "account",
          "type": "address"
        },
        {
          "indexed": true,
          "internalType": "address",
          "name": "sender",
          "type": "address"
        }
      ],
      "name": "RoleGranted",
      "type": "event"
    },
    {
      "anonymous": false,
      "inputs": [
        {
          "indexed": true,
          "internalType": "bytes32",
          "name": "role",
          "type": "bytes32"
        },
        {
          "indexed": true,
          "internalType": "address",
          "name": "account",
          "type": "address"
        },
        {
          "indexed": true,
          "internalType": "address",
          "name": "sender",
          "type": "address"
        }
      ],
      "name": "RoleRevoked",
      "type": "event"
    },
    {
      "anonymous": false,
      "inputs": [
        {
          "indexed": true,
          "internalType": "address",
          "name": "mailbox",
          "type": "address"
        },
        {
          "indexed": false,
          "internalType": "address",
          "name": "lumiaFactory",
          "type": "address"
        },
        {
          "indexed": true,
          "internalType": "address",
          "name": "strategy",
          "type": "address"
        },
        {
          "indexed": true,
          "internalType": "address",
          "name": "user",
          "type": "address"
        },
        {
          "indexed": false,
          "internalType": "uint256",
          "name": "stake",
          "type": "uint256"
        }
      ],
      "name": "StakeInfoDispatched",
      "type": "event"
    },
    {
      "inputs": [],
      "name": "DEFAULT_ADMIN_ROLE",
      "outputs": [
        {
          "internalType": "bytes32",
          "name": "",
          "type": "bytes32"
        }
      ],
      "stateMutability": "view",
      "type": "function"
    },
    {
      "inputs": [],
      "name": "STAKING_MANAGER_ROLE",
      "outputs": [
        {
          "internalType": "bytes32",
          "name": "",
          "type": "bytes32"
        }
      ],
      "stateMutability": "pure",
      "type": "function"
    },
    {
      "inputs": [],
      "name": "STRATEGY_MANAGER_ROLE",
      "outputs": [
        {
          "internalType": "bytes32",
          "name": "",
          "type": "bytes32"
        }
      ],
      "stateMutability": "pure",
      "type": "function"
    },
    {
      "inputs": [],
      "name": "STRATEGY_UPGRADER_ROLE",
      "outputs": [
        {
          "internalType": "bytes32",
          "name": "",
          "type": "bytes32"
        }
      ],
      "stateMutability": "pure",
      "type": "function"
    },
    {
      "inputs": [],
      "name": "VAULT_MANAGER_ROLE",
      "outputs": [
        {
          "internalType": "bytes32",
          "name": "",
          "type": "bytes32"
        }
      ],
      "stateMutability": "pure",
      "type": "function"
    },
    {
      "inputs": [
        {
          "components": [
            {
              "internalType": "address",
              "name": "strategy",
              "type": "address"
            },
            {
              "internalType": "address",
              "name": "sender",
              "type": "address"
            },
            {
              "internalType": "uint256",
              "name": "stake",
              "type": "uint256"
            }
          ],
          "internalType": "struct StakeInfoData",
          "name": "data",
          "type": "tuple"
        }
      ],
      "name": "generateStakeInfoBody",
      "outputs": [
        {
          "internalType": "bytes",
          "name": "body",
          "type": "bytes"
        }
      ],
      "stateMutability": "pure",
      "type": "function"
    },
    {
      "inputs": [
        {
          "internalType": "bytes32",
          "name": "role",
          "type": "bytes32"
        }
      ],
      "name": "getRoleAdmin",
      "outputs": [
        {
          "internalType": "bytes32",
          "name": "",
          "type": "bytes32"
        }
      ],
      "stateMutability": "view",
      "type": "function"
    },
    {
      "inputs": [
        {
          "internalType": "bytes32",
          "name": "role",
          "type": "bytes32"
        },
        {
          "internalType": "uint256",
          "name": "index",
          "type": "uint256"
        }
      ],
      "name": "getRoleMember",
      "outputs": [
        {
          "internalType": "address",
          "name": "",
          "type": "address"
        }
      ],
      "stateMutability": "view",
      "type": "function"
    },
    {
      "inputs": [
        {
          "internalType": "bytes32",
          "name": "role",
          "type": "bytes32"
        }
      ],
      "name": "getRoleMemberCount",
      "outputs": [
        {
          "internalType": "uint256",
          "name": "",
          "type": "uint256"
        }
      ],
      "stateMutability": "view",
      "type": "function"
    },
    {
      "inputs": [
        {
          "internalType": "bytes32",
          "name": "role",
          "type": "bytes32"
        }
      ],
      "name": "getRoleMembers",
      "outputs": [
        {
          "internalType": "address[]",
          "name": "",
          "type": "address[]"
        }
      ],
      "stateMutability": "view",
      "type": "function"
    },
    {
      "inputs": [
        {
          "internalType": "bytes32",
          "name": "role",
          "type": "bytes32"
        },
        {
          "internalType": "address",
          "name": "account",
          "type": "address"
        }
      ],
      "name": "grantRole",
      "outputs": [],
      "stateMutability": "nonpayable",
      "type": "function"
    },
    {
      "inputs": [
        {
          "internalType": "bytes32",
          "name": "role",
          "type": "bytes32"
        },
        {
          "internalType": "address",
          "name": "account",
          "type": "address"
        }
      ],
      "name": "hasRole",
      "outputs": [
        {
          "internalType": "bool",
          "name": "",
          "type": "bool"
        }
      ],
      "stateMutability": "view",
      "type": "function"
    },
    {
      "inputs": [
        {
          "internalType": "address",
          "name": "account",
          "type": "address"
        }
      ],
      "name": "hasStrategyManagerRole",
      "outputs": [
        {
          "internalType": "bool",
          "name": "",
          "type": "bool"
        }
      ],
      "stateMutability": "view",
      "type": "function"
    },
    {
      "inputs": [
        {
          "internalType": "address",
          "name": "account",
          "type": "address"
        }
      ],
      "name": "hasStrategyUpgraderRole",
      "outputs": [
        {
          "internalType": "bool",
          "name": "",
          "type": "bool"
        }
      ],
      "stateMutability": "view",
      "type": "function"
    },
    {
      "inputs": [
        {
          "components": [
            {
              "internalType": "address",
              "name": "strategy",
              "type": "address"
            },
            {
              "internalType": "address",
              "name": "sender",
              "type": "address"
            },
            {
              "internalType": "uint256",
              "name": "stake",
              "type": "uint256"
            }
          ],
          "internalType": "struct StakeInfoData",
          "name": "data",
          "type": "tuple"
        }
      ],
      "name": "quoteDispatchStakeInfo",
      "outputs": [
        {
          "internalType": "uint256",
          "name": "",
          "type": "uint256"
        }
      ],
      "stateMutability": "view",
      "type": "function"
    },
    {
      "inputs": [
        {
          "internalType": "bytes32",
          "name": "role",
          "type": "bytes32"
        },
        {
          "internalType": "address",
          "name": "callerConfirmation",
          "type": "address"
        }
      ],
      "name": "renounceRole",
      "outputs": [],
      "stateMutability": "nonpayable",
      "type": "function"
    },
    {
      "inputs": [
        {
          "internalType": "bytes32",
          "name": "role",
          "type": "bytes32"
        },
        {
          "internalType": "address",
          "name": "account",
          "type": "address"
        }
      ],
      "name": "revokeRole",
      "outputs": [],
      "stateMutability": "nonpayable",
      "type": "function"
    },
    {
      "inputs": [
        {
          "components": [
            {
              "internalType": "address",
              "name": "strategy",
              "type": "address"
            },
            {
              "internalType": "address",
              "name": "sender",
              "type": "address"
            },
            {
              "internalType": "uint256",
              "name": "stake",
              "type": "uint256"
            }
          ],
          "internalType": "struct StakeInfoData",
          "name": "data",
          "type": "tuple"
        }
      ],
      "name": "stakeInfoDispatch",
      "outputs": [],
      "stateMutability": "payable",
      "type": "function"
    },
    {
      "inputs": [
        {
          "internalType": "bytes4",
          "name": "interfaceId",
          "type": "bytes4"
        }
      ],
      "name": "supportsInterface",
      "outputs": [
        {
          "internalType": "bool",
          "name": "",
          "type": "bool"
        }
      ],
      "stateMutability": "view",
      "type": "function"
    }
  ],
  "bytecode": "0x6080604052348015600e575f5ffd5b50610f218061001c5f395ff3fe608060405260043610610110575f3560e01c80635e5a24a41161009d578063a3246ad311610062578063a3246ad314610331578063abcbe0b21461035d578063ca15c8731461038f578063d547741f146103ae578063fd245b4c146103cd575f5ffd5b80635e5a24a41461026a5780639010d07c1461029c57806391d14854146102d357806398364b69146102f2578063a217fddf1461031e575f5ffd5b806336568abe116100e357806336568abe146101a95780633937c0b3146101c8578063505f158a146101fa57806351bfb75f1461021957806359f82f9114610238575f5ffd5b806301ffc9a714610114578063071471ce14610148578063248a9ca31461015d5780632f2ff15d1461018a575b5f5ffd5b34801561011f575f5ffd5b5061013361012e366004610c66565b6103ec565b60405190151581526020015b60405180910390f35b61015b610156366004610ca8565b610416565b005b348015610168575f5ffd5b5061017c610177366004610d1b565b61059c565b60405190815260200161013f565b348015610195575f5ffd5b5061015b6101a4366004610d32565b6105bc565b3480156101b4575f5ffd5b5061015b6101c3366004610d32565b6105de565b3480156101d3575f5ffd5b507fa6b5d83d32632203555cb9b2c2f68a8d94da48cadd9266ac0d17babedb52ea5b61017c565b348015610205575f5ffd5b50610133610214366004610d5c565b610616565b348015610224575f5ffd5b5061017c610233366004610ca8565b610642565b348015610243575f5ffd5b507fb6b8360f529bf65be805a119c79f97914e5e29532dc734732a563b5bc869148c61017c565b348015610275575f5ffd5b507fd1473398bb66596de5d1ea1fc8e303ff2ac23265adc9144b1b52065dc4f0934b61017c565b3480156102a7575f5ffd5b506102bb6102b6366004610d75565b6106ea565b6040516001600160a01b03909116815260200161013f565b3480156102de575f5ffd5b506101336102ed366004610d32565b610717565b3480156102fd575f5ffd5b5061031161030c366004610ca8565b61074d565b60405161013f9190610dc3565b348015610329575f5ffd5b5061017c5f81565b34801561033c575f5ffd5b5061035061034b366004610d1b565b6107a2565b60405161013f9190610dd5565b348015610368575f5ffd5b507f4170d100a3a3728ae51207936ee755ecaa64a7f6e9383c642ab204a136f90b1b61017c565b34801561039a575f5ffd5b5061017c6103a9366004610d1b565b6107cb565b3480156103b9575f5ffd5b5061015b6103c8366004610d32565b6107ef565b3480156103d8575f5ffd5b506101336103e7366004610d5c565b61080b565b5f6001600160e01b03198216635a05180f60e01b1480610410575061041082610835565b92915050565b3330146104365760405163d248bf1560e01b815260040160405180910390fd5b5f61043f610869565b6007810154600690910191506001600160a01b0316610471576040516394d1b98f60e01b815260040160405180910390fd5b8054600160a01b900463ffffffff165f0361049f57604051632490a0bf60e11b815260040160405180910390fd5b5f6104a98361074d565b6001830154835460405163fa31de0160e01b81529293506001600160a01b03918216929181169163fa31de019134916104f691600160a01b900463ffffffff169086908890600401610e20565b60206040518083038185885af1158015610512573d5f5f3e3d5ffd5b50505050506040513d601f19601f820116820180604052508101906105379190610e4d565b506020848101518551855460018701546040808a015181516001600160a01b0393841681529687015293811694928116939116917fd2f1c9ee04c153581f9b4888eca7597144fc40d7b60c45634d4dd14c38e24485910160405180910390a450505050565b5f9081525f516020610ecc5f395f51905f52602052604090206001015490565b6105c58261059c565b6105ce81610896565b6105d883836108a3565b50505050565b6001600160a01b03811633146106075760405163334bd91960e11b815260040160405180910390fd5b61061182826108e5565b505050565b5f6104107f4170d100a3a3728ae51207936ee755ecaa64a7f6e9383c642ab204a136f90b1b5b83610717565b5f5f61064c610869565b6006810180546007909201549092506001600160a01b0380831692639c42bd1892600160a01b90910463ffffffff1691166106868761074d565b6040518463ffffffff1660e01b81526004016106a493929190610e20565b602060405180830381865afa1580156106bf573d5f5f3e3d5ffd5b505050506040513d601f19601f820116820180604052508101906106e39190610e4d565b9392505050565b5f8281525f516020610eac5f395f51905f5260208190526040822061070f908461091e565b949350505050565b5f9182525f516020610ecc5f395f51905f52602090815260408084206001600160a01b0393909316845291905290205460ff1690565b60606104108280516020808301516040938401518451600160c01b938101939093526001600160a01b039384166028840152921660488201526068808201929092528251808203909201825260880190915290565b5f8181525f516020610eac5f395f51905f5260208190526040909120606091906106e390610929565b5f8181525f516020610eac5f395f51905f526020819052604082206106e390610935565b6107f88261059c565b61080181610896565b6105d883836108e5565b5f6104107fb6b8360f529bf65be805a119c79f97914e5e29532dc734732a563b5bc869148c61063c565b5f6001600160e01b03198216637965db0b60e01b148061041057506301ffc9a760e01b6001600160e01b0319831614610410565b5f8061041060017fbdce9fce78852f4396d00427ddc098ac2e3263701a971553200759a6322f4465610e64565b6108a0813361093e565b50565b5f5f516020610eac5f395f51905f52816108bd858561097f565b9050801561070f575f8581526020839052604090206108dc9085610a20565b50949350505050565b5f5f516020610eac5f395f51905f52816108ff8585610a34565b9050801561070f575f8581526020839052604090206108dc9085610aad565b5f6106e38383610ac1565b60605f6106e383610ae7565b5f610410825490565b6109488282610717565b61097b5760405163e2517d3f60e01b81526001600160a01b03821660048201526024810183905260440160405180910390fd5b5050565b5f5f516020610ecc5f395f51905f526109988484610717565b610a17575f848152602082815260408083206001600160a01b03871684529091529020805460ff191660011790556109cd3390565b6001600160a01b0316836001600160a01b0316857f2f8788117e7eff1d82e926ec794901d17c78024a50270940304540a733656f0d60405160405180910390a46001915050610410565b5f915050610410565b5f6106e3836001600160a01b038416610b40565b5f5f516020610ecc5f395f51905f52610a4d8484610717565b15610a17575f848152602082815260408083206001600160a01b0387168085529252808320805460ff1916905551339287917ff6391f5c32d9c69d2a47ea670b442974b53935d1edc7fd64eb21e047a839171b9190a46001915050610410565b5f6106e3836001600160a01b038416610b8c565b5f825f018281548110610ad657610ad6610e83565b905f5260205f200154905092915050565b6060815f01805480602002602001604051908101604052809291908181526020018280548015610b3457602002820191905f5260205f20905b815481526020019060010190808311610b20575b50505050509050919050565b5f818152600183016020526040812054610b8557508154600181810184555f848152602080822090930184905584548482528286019093526040902091909155610410565b505f610410565b5f8181526001830160205260408120548015610a17575f610bae600183610e64565b85549091505f90610bc190600190610e64565b9050808214610c20575f865f018281548110610bdf57610bdf610e83565b905f5260205f200154905080875f018481548110610bff57610bff610e83565b5f918252602080832090910192909255918252600188019052604090208390555b8554869080610c3157610c31610e97565b600190038181905f5260205f20015f90559055856001015f8681526020019081526020015f205f905560019350505050610410565b5f60208284031215610c76575f5ffd5b81356001600160e01b0319811681146106e3575f5ffd5b80356001600160a01b0381168114610ca3575f5ffd5b919050565b5f6060828403128015610cb9575f5ffd5b506040516060810167ffffffffffffffff81118282101715610ce957634e487b7160e01b5f52604160045260245ffd5b604052610cf583610c8d565b8152610d0360208401610c8d565b60208201526040928301359281019290925250919050565b5f60208284031215610d2b575f5ffd5b5035919050565b5f5f60408385031215610d43575f5ffd5b82359150610d5360208401610c8d565b90509250929050565b5f60208284031215610d6c575f5ffd5b6106e382610c8d565b5f5f60408385031215610d86575f5ffd5b50508035926020909101359150565b5f81518084528060208401602086015e5f602082860101526020601f19601f83011685010191505092915050565b602081525f6106e36020830184610d95565b602080825282518282018190525f918401906040840190835b81811015610e155783516001600160a01b0316835260209384019390920191600101610dee565b509095945050505050565b63ffffffff84168152826020820152606060408201525f610e446060830184610d95565b95945050505050565b5f60208284031215610e5d575f5ffd5b5051919050565b8181038181111561041057634e487b7160e01b5f52601160045260245ffd5b634e487b7160e01b5f52603260045260245ffd5b634e487b7160e01b5f52603160045260245ffdfec1f6fe24621ce81ec5827caf0253cadb74709b061630e6b55e8237170593200002dd7bc7dec4dceedda775e58dd541e08a116c6c53815c0bd028192f7b626800a26469706673582212204dadb7aa8ce7c0c3ed3eadb53ab63e623e9b49f074c7881e63ac00930d58334864736f6c634300081b0033",
  "linkReferences": {},
  "deployedLinkReferences": {}
}