{
  "_format": "hh-sol-artifact-1",
  "contractName": "RouteRegistry",
  "sourceName": "contracts/hyperstaking/facets/routes/RouteRegistry.sol",
  "abi": [
    {
      "inputs": [],
      "name": "AccessControlBadConfirmation",
      "type": "error"
    },
    {
      "inputs": [
        {
          "internalType": "address",
          "name": "account",
          "type": "address"
        },
        {
          "internalType": "bytes32",
          "name": "neededRole",
          "type": "bytes32"
        }
      ],
      "name": "AccessControlUnauthorizedAccount",
      "type": "error"
    },
    {
      "inputs": [],
      "name": "DestinationUnset",
      "type": "error"
    },
    {
      "inputs": [],
      "name": "InvalidInitialization",
      "type": "error"
    },
    {
      "inputs": [],
      "name": "NotInitializing",
      "type": "error"
    },
    {
      "inputs": [],
      "name": "OnlyDiamondInternal",
      "type": "error"
    },
    {
      "inputs": [],
      "name": "OnlyStakingManager",
      "type": "error"
    },
    {
      "inputs": [],
      "name": "OnlyStrategyManager",
      "type": "error"
    },
    {
      "inputs": [],
      "name": "OnlyStrategyUpgrader",
      "type": "error"
    },
    {
      "inputs": [],
      "name": "OnlyVaultManager",
      "type": "error"
    },
    {
      "inputs": [],
      "name": "RecipientUnset",
      "type": "error"
    },
    {
      "anonymous": false,
      "inputs": [
        {
          "indexed": false,
          "internalType": "uint64",
          "name": "version",
          "type": "uint64"
        }
      ],
      "name": "Initialized",
      "type": "event"
    },
    {
      "anonymous": false,
      "inputs": [
        {
          "indexed": true,
          "internalType": "bytes32",
          "name": "role",
          "type": "bytes32"
        },
        {
          "indexed": true,
          "internalType": "bytes32",
          "name": "previousAdminRole",
          "type": "bytes32"
        },
        {
          "indexed": true,
          "internalType": "bytes32",
          "name": "newAdminRole",
          "type": "bytes32"
        }
      ],
      "name": "RoleAdminChanged",
      "type": "event"
    },
    {
      "anonymous": false,
      "inputs": [
        {
          "indexed": true,
          "internalType": "bytes32",
          "name": "role",
          "type": "bytes32"
        },
        {
          "indexed": true,
          "internalType": "address",
          "name": "account",
          "type": "address"
        },
        {
          "indexed": true,
          "internalType": "address",
          "name": "sender",
          "type": "address"
        }
      ],
      "name": "RoleGranted",
      "type": "event"
    },
    {
      "anonymous": false,
      "inputs": [
        {
          "indexed": true,
          "internalType": "bytes32",
          "name": "role",
          "type": "bytes32"
        },
        {
          "indexed": true,
          "internalType": "address",
          "name": "account",
          "type": "address"
        },
        {
          "indexed": true,
          "internalType": "address",
          "name": "sender",
          "type": "address"
        }
      ],
      "name": "RoleRevoked",
      "type": "event"
    },
    {
      "anonymous": false,
      "inputs": [
        {
          "indexed": true,
          "internalType": "address",
          "name": "mailbox",
          "type": "address"
        },
        {
          "indexed": false,
          "internalType": "address",
          "name": "lumiaFactory",
          "type": "address"
        },
        {
          "indexed": true,
          "internalType": "address",
          "name": "strategy",
          "type": "address"
        },
        {
          "indexed": false,
          "internalType": "string",
          "name": "name",
          "type": "string"
        },
        {
          "indexed": false,
          "internalType": "string",
          "name": "symbol",
          "type": "string"
        },
        {
          "indexed": false,
          "internalType": "uint8",
          "name": "decimals",
          "type": "uint8"
        }
      ],
      "name": "RouteRegistryDispatched",
      "type": "event"
    },
    {
      "inputs": [],
      "name": "DEFAULT_ADMIN_ROLE",
      "outputs": [
        {
          "internalType": "bytes32",
          "name": "",
          "type": "bytes32"
        }
      ],
      "stateMutability": "view",
      "type": "function"
    },
    {
      "inputs": [],
      "name": "STAKING_MANAGER_ROLE",
      "outputs": [
        {
          "internalType": "bytes32",
          "name": "",
          "type": "bytes32"
        }
      ],
      "stateMutability": "pure",
      "type": "function"
    },
    {
      "inputs": [],
      "name": "STRATEGY_MANAGER_ROLE",
      "outputs": [
        {
          "internalType": "bytes32",
          "name": "",
          "type": "bytes32"
        }
      ],
      "stateMutability": "pure",
      "type": "function"
    },
    {
      "inputs": [],
      "name": "STRATEGY_UPGRADER_ROLE",
      "outputs": [
        {
          "internalType": "bytes32",
          "name": "",
          "type": "bytes32"
        }
      ],
      "stateMutability": "pure",
      "type": "function"
    },
    {
      "inputs": [],
      "name": "VAULT_MANAGER_ROLE",
      "outputs": [
        {
          "internalType": "bytes32",
          "name": "",
          "type": "bytes32"
        }
      ],
      "stateMutability": "pure",
      "type": "function"
    },
    {
      "inputs": [
        {
          "components": [
            {
              "internalType": "address",
              "name": "strategy",
              "type": "address"
            },
            {
              "internalType": "string",
              "name": "name",
              "type": "string"
            },
            {
              "internalType": "string",
              "name": "symbol",
              "type": "string"
            },
            {
              "internalType": "uint8",
              "name": "decimals",
              "type": "uint8"
            },
            {
              "internalType": "bytes",
              "name": "metadata",
              "type": "bytes"
            }
          ],
          "internalType": "struct RouteRegistryData",
          "name": "data",
          "type": "tuple"
        }
      ],
      "name": "generateRouteRegistryBody",
      "outputs": [
        {
          "internalType": "bytes",
          "name": "body",
          "type": "bytes"
        }
      ],
      "stateMutability": "pure",
      "type": "function"
    },
    {
      "inputs": [
        {
          "internalType": "bytes32",
          "name": "role",
          "type": "bytes32"
        }
      ],
      "name": "getRoleAdmin",
      "outputs": [
        {
          "internalType": "bytes32",
          "name": "",
          "type": "bytes32"
        }
      ],
      "stateMutability": "view",
      "type": "function"
    },
    {
      "inputs": [
        {
          "internalType": "bytes32",
          "name": "role",
          "type": "bytes32"
        },
        {
          "internalType": "uint256",
          "name": "index",
          "type": "uint256"
        }
      ],
      "name": "getRoleMember",
      "outputs": [
        {
          "internalType": "address",
          "name": "",
          "type": "address"
        }
      ],
      "stateMutability": "view",
      "type": "function"
    },
    {
      "inputs": [
        {
          "internalType": "bytes32",
          "name": "role",
          "type": "bytes32"
        }
      ],
      "name": "getRoleMemberCount",
      "outputs": [
        {
          "internalType": "uint256",
          "name": "",
          "type": "uint256"
        }
      ],
      "stateMutability": "view",
      "type": "function"
    },
    {
      "inputs": [
        {
          "internalType": "bytes32",
          "name": "role",
          "type": "bytes32"
        }
      ],
      "name": "getRoleMembers",
      "outputs": [
        {
          "internalType": "address[]",
          "name": "",
          "type": "address[]"
        }
      ],
      "stateMutability": "view",
      "type": "function"
    },
    {
      "inputs": [
        {
          "internalType": "bytes32",
          "name": "role",
          "type": "bytes32"
        },
        {
          "internalType": "address",
          "name": "account",
          "type": "address"
        }
      ],
      "name": "grantRole",
      "outputs": [],
      "stateMutability": "nonpayable",
      "type": "function"
    },
    {
      "inputs": [
        {
          "internalType": "bytes32",
          "name": "role",
          "type": "bytes32"
        },
        {
          "internalType": "address",
          "name": "account",
          "type": "address"
        }
      ],
      "name": "hasRole",
      "outputs": [
        {
          "internalType": "bool",
          "name": "",
          "type": "bool"
        }
      ],
      "stateMutability": "view",
      "type": "function"
    },
    {
      "inputs": [
        {
          "internalType": "address",
          "name": "account",
          "type": "address"
        }
      ],
      "name": "hasStrategyManagerRole",
      "outputs": [
        {
          "internalType": "bool",
          "name": "",
          "type": "bool"
        }
      ],
      "stateMutability": "view",
      "type": "function"
    },
    {
      "inputs": [
        {
          "internalType": "address",
          "name": "account",
          "type": "address"
        }
      ],
      "name": "hasStrategyUpgraderRole",
      "outputs": [
        {
          "internalType": "bool",
          "name": "",
          "type": "bool"
        }
      ],
      "stateMutability": "view",
      "type": "function"
    },
    {
      "inputs": [
        {
          "components": [
            {
              "internalType": "address",
              "name": "strategy",
              "type": "address"
            },
            {
              "internalType": "string",
              "name": "name",
              "type": "string"
            },
            {
              "internalType": "string",
              "name": "symbol",
              "type": "string"
            },
            {
              "internalType": "uint8",
              "name": "decimals",
              "type": "uint8"
            },
            {
              "internalType": "bytes",
              "name": "metadata",
              "type": "bytes"
            }
          ],
          "internalType": "struct RouteRegistryData",
          "name": "data",
          "type": "tuple"
        }
      ],
      "name": "quoteDispatchRouteRegistry",
      "outputs": [
        {
          "internalType": "uint256",
          "name": "",
          "type": "uint256"
        }
      ],
      "stateMutability": "view",
      "type": "function"
    },
    {
      "inputs": [
        {
          "internalType": "bytes32",
          "name": "role",
          "type": "bytes32"
        },
        {
          "internalType": "address",
          "name": "callerConfirmation",
          "type": "address"
        }
      ],
      "name": "renounceRole",
      "outputs": [],
      "stateMutability": "nonpayable",
      "type": "function"
    },
    {
      "inputs": [
        {
          "internalType": "bytes32",
          "name": "role",
          "type": "bytes32"
        },
        {
          "internalType": "address",
          "name": "account",
          "type": "address"
        }
      ],
      "name": "revokeRole",
      "outputs": [],
      "stateMutability": "nonpayable",
      "type": "function"
    },
    {
      "inputs": [
        {
          "components": [
            {
              "internalType": "address",
              "name": "strategy",
              "type": "address"
            },
            {
              "internalType": "string",
              "name": "name",
              "type": "string"
            },
            {
              "internalType": "string",
              "name": "symbol",
              "type": "string"
            },
            {
              "internalType": "uint8",
              "name": "decimals",
              "type": "uint8"
            },
            {
              "internalType": "bytes",
              "name": "metadata",
              "type": "bytes"
            }
          ],
          "internalType": "struct RouteRegistryData",
          "name": "data",
          "type": "tuple"
        }
      ],
      "name": "routeRegistryDispatch",
      "outputs": [],
      "stateMutability": "payable",
      "type": "function"
    },
    {
      "inputs": [
        {
          "internalType": "bytes4",
          "name": "interfaceId",
          "type": "bytes4"
        }
      ],
      "name": "supportsInterface",
      "outputs": [
        {
          "internalType": "bool",
          "name": "",
          "type": "bool"
        }
      ],
      "stateMutability": "view",
      "type": "function"
    }
  ],
  "bytecode": "0x6080604052348015600e575f5ffd5b506112d38061001c5f395ff3fe608060405260043610610110575f3560e01c806391d148541161009d578063d052624311610062578063d052624314610350578063d547741f1461037c578063daf0bbdb1461039b578063fa63cd6e146103ba578063fd245b4c146103cd575f5ffd5b806391d14854146102a1578063a217fddf146102c0578063a3246ad3146102d3578063abcbe0b2146102ff578063ca15c87314610331575f5ffd5b80633937c0b3116100e35780633937c0b3146101b5578063505f158a146101e757806359f82f91146102065780635e5a24a4146102385780639010d07c1461026a575f5ffd5b806301ffc9a714610114578063248a9ca3146101485780632f2ff15d1461017557806336568abe14610196575b5f5ffd5b34801561011f575f5ffd5b5061013361012e366004610dc6565b6103ec565b60405190151581526020015b60405180910390f35b348015610153575f5ffd5b50610167610162366004610ded565b610416565b60405190815260200161013f565b348015610180575f5ffd5b5061019461018f366004610e1f565b610436565b005b3480156101a1575f5ffd5b506101946101b0366004610e1f565b610458565b3480156101c0575f5ffd5b507fa6b5d83d32632203555cb9b2c2f68a8d94da48cadd9266ac0d17babedb52ea5b610167565b3480156101f2575f5ffd5b50610133610201366004610e49565b610490565b348015610211575f5ffd5b507fb6b8360f529bf65be805a119c79f97914e5e29532dc734732a563b5bc869148c610167565b348015610243575f5ffd5b507fd1473398bb66596de5d1ea1fc8e303ff2ac23265adc9144b1b52065dc4f0934b610167565b348015610275575f5ffd5b50610289610284366004610e62565b6104bc565b6040516001600160a01b03909116815260200161013f565b3480156102ac575f5ffd5b506101336102bb366004610e1f565b6104e9565b3480156102cb575f5ffd5b506101675f81565b3480156102de575f5ffd5b506102f26102ed366004610ded565b61051f565b60405161013f9190610e82565b34801561030a575f5ffd5b507f4170d100a3a3728ae51207936ee755ecaa64a7f6e9383c642ab204a136f90b1b610167565b34801561033c575f5ffd5b5061016761034b366004610ded565b61054f565b34801561035b575f5ffd5b5061036f61036a366004610fab565b610573565b60405161013f91906110bd565b348015610387575f5ffd5b50610194610396366004610e1f565b61057e565b3480156103a6575f5ffd5b506101676103b5366004610fab565b61059a565b6101946103c8366004610fab565b61063b565b3480156103d8575f5ffd5b506101336103e7366004610e49565b6107c7565b5f6001600160e01b03198216635a05180f60e01b14806104105750610410826107f1565b92915050565b5f9081525f51602061127e5f395f51905f52602052604090206001015490565b61043f82610416565b61044881610825565b6104528383610832565b50505050565b6001600160a01b03811633146104815760405163334bd91960e11b815260040160405180910390fd5b61048b8282610874565b505050565b5f6104107f4170d100a3a3728ae51207936ee755ecaa64a7f6e9383c642ab204a136f90b1b5b836104e9565b5f8281525f51602061125e5f395f51905f526020819052604082206104e190846108ad565b949350505050565b5f9182525f51602061127e5f395f51905f52602090815260408084206001600160a01b0393909316845291905290205460ff1690565b5f8181525f51602061125e5f395f51905f526020819052604090912060609190610548906108b8565b9392505050565b5f8181525f51602061125e5f395f51905f52602081905260408220610548906108c4565b6060610410826108cd565b61058782610416565b61059081610825565b6104528383610874565b5f5f6105a4610945565b6006810180546007909201549092506001600160a01b0380831692639c42bd1892600160a01b90910463ffffffff1691166105de87610573565b6040518463ffffffff1660e01b81526004016105fc939291906110cf565b602060405180830381865afa158015610617573d5f5f3e3d5ffd5b505050506040513d601f19601f8201168201806040525081019061054891906110fc565b33301461065b5760405163d248bf1560e01b815260040160405180910390fd5b5f610664610945565b6007810154600690910191506001600160a01b0316610696576040516394d1b98f60e01b815260040160405180910390fd5b8054600160a01b900463ffffffff165f036106c457604051632490a0bf60e11b815260040160405180910390fd5b5f6106ce83610573565b6001830154835460405163fa31de0160e01b81529293506001600160a01b03918216929181169163fa31de0191349161071b91600160a01b900463ffffffff1690869088906004016110cf565b60206040518083038185885af1158015610737573d5f5f3e3d5ffd5b50505050506040513d601f19601f8201168201806040525081019061075c91906110fc565b50835183546001850154602087015160408089015160608a015191516001600160a01b0396871696958616957fced245222e8436cfdea0b31e12c2f8a6fa78e0e97de6e3e82a69c07fe4d68595956107b995911693909291611113565b60405180910390a350505050565b5f6104107fb6b8360f529bf65be805a119c79f97914e5e29532dc734732a563b5bc869148c6104b6565b5f6001600160e01b03198216637965db0b60e01b148061041057506301ffc9a760e01b6001600160e01b0319831614610410565b61082f8133610972565b50565b5f5f51602061125e5f395f51905f528161084c85856109b4565b905080156104e1575f85815260208390526040902061086b9085610a55565b50949350505050565b5f5f51602061125e5f395f51905f528161088e8585610a69565b905080156104e1575f85815260208390526040902061086b9085610ae2565b5f6105488383610af6565b60605f61054883610b1c565b5f610410825490565b60605f5f6108de8460200151610b75565b915091505f5f6108f18660400151610c08565b875191935091505f906001600160a01b0316858585858b6060015160f81b8c6080015160405160200161092b989796959493929190611174565b604051602081830303815290604052945050505050919050565b5f8061041060017fbdce9fce78852f4396d00427ddc098ac2e3263701a971553200759a6322f4465611216565b61097c82826104e9565b6109b05760405163e2517d3f60e01b81526001600160a01b0382166004820152602481018390526044015b60405180910390fd5b5050565b5f5f51602061127e5f395f51905f526109cd84846104e9565b610a4c575f848152602082815260408083206001600160a01b03871684529091529020805460ff19166001179055610a023390565b6001600160a01b0316836001600160a01b0316857f2f8788117e7eff1d82e926ec794901d17c78024a50270940304540a733656f0d60405160405180910390a46001915050610410565b5f915050610410565b5f610548836001600160a01b038416610c82565b5f5f51602061127e5f395f51905f52610a8284846104e9565b15610a4c575f848152602082815260408083206001600160a01b0387168085529252808320805460ff1916905551339287917ff6391f5c32d9c69d2a47ea670b442974b53935d1edc7fd64eb21e047a839171b9190a46001915050610410565b5f610548836001600160a01b038416610cce565b5f825f018281548110610b0b57610b0b611235565b905f5260205f200154905092915050565b6060815f01805480602002602001604051908101604052809291908181526020018280548015610b6957602002820191905f5260205f20905b815481526020019060010190808311610b55575b50505050509050919050565b5f610b7e610da8565b8251839060401015610bd25760405162461bcd60e51b815260206004820152601960248201527f737472696e67546f427974657336343a206f766572666c6f770000000000000060448201526064016109a7565b80515f03610be3575f925050915091565b80519250602081015182526020831115610c0257604081015160208301525b50915091565b5f5f5f83905080515f03610c2157505f93849350915050565b602081511115610c735760405162461bcd60e51b815260206004820152601960248201527f737472696e67546f427974657333323a206f766572666c6f770000000000000060448201526064016109a7565b51602093909301519293915050565b5f818152600183016020526040812054610cc757508154600181810184555f848152602080822090930184905584548482528286019093526040902091909155610410565b505f610410565b5f8181526001830160205260408120548015610a4c575f610cf0600183611216565b85549091505f90610d0390600190611216565b9050808214610d62575f865f018281548110610d2157610d21611235565b905f5260205f200154905080875f018481548110610d4157610d41611235565b5f918252602080832090910192909255918252600188019052604090208390555b8554869080610d7357610d73611249565b600190038181905f5260205f20015f90559055856001015f8681526020019081526020015f205f905560019350505050610410565b60405180604001604052806002906020820280368337509192915050565b5f60208284031215610dd6575f5ffd5b81356001600160e01b031981168114610548575f5ffd5b5f60208284031215610dfd575f5ffd5b5035919050565b80356001600160a01b0381168114610e1a575f5ffd5b919050565b5f5f60408385031215610e30575f5ffd5b82359150610e4060208401610e04565b90509250929050565b5f60208284031215610e59575f5ffd5b61054882610e04565b5f5f60408385031215610e73575f5ffd5b50508035926020909101359150565b602080825282518282018190525f918401906040840190835b81811015610ec25783516001600160a01b0316835260209384019390920191600101610e9b565b509095945050505050565b634e487b7160e01b5f52604160045260245ffd5b60405160a0810167ffffffffffffffff81118282101715610f0457610f04610ecd565b60405290565b5f82601f830112610f19575f5ffd5b8135602083015f5f67ffffffffffffffff841115610f3957610f39610ecd565b50604051601f19601f85018116603f0116810181811067ffffffffffffffff82111715610f6857610f68610ecd565b604052838152905080828401871015610f7f575f5ffd5b838360208301375f602085830101528094505050505092915050565b803560ff81168114610e1a575f5ffd5b5f60208284031215610fbb575f5ffd5b813567ffffffffffffffff811115610fd1575f5ffd5b820160a08185031215610fe2575f5ffd5b610fea610ee1565b610ff382610e04565b8152602082013567ffffffffffffffff81111561100e575f5ffd5b61101a86828501610f0a565b602083015250604082013567ffffffffffffffff811115611039575f5ffd5b61104586828501610f0a565b60408301525061105760608301610f9b565b6060820152608082013567ffffffffffffffff811115611075575f5ffd5b61108186828501610f0a565b608083015250949350505050565b5f81518084528060208401602086015e5f602082860101526020601f19601f83011685010191505092915050565b602081525f610548602083018461108f565b63ffffffff84168152826020820152606060408201525f6110f3606083018461108f565b95945050505050565b5f6020828403121561110c575f5ffd5b5051919050565b6001600160a01b03851681526080602082018190525f906111369083018661108f565b8281036040840152611148818661108f565b91505060ff8316606083015295945050505050565b5f81518060208401855e5f93019283525090919050565b6001600160c01b0319891681526008810188905260f887901b6001600160f81b03191660288201525f6029820187825b60028110156111c35781518352602092830192909101906001016111a4565b5050506111df606983018760f81b6001600160f81b0319169052565b84606a8301526111fb608a8301856001600160f81b0319169052565b611208608b83018461115d565b9a9950505050505050505050565b8181038181111561041057634e487b7160e01b5f52601160045260245ffd5b634e487b7160e01b5f52603260045260245ffd5b634e487b7160e01b5f52603160045260245ffdfec1f6fe24621ce81ec5827caf0253cadb74709b061630e6b55e8237170593200002dd7bc7dec4dceedda775e58dd541e08a116c6c53815c0bd028192f7b626800a264697066735822122092b43f63eaaa5c6c6807a98ef7930bc109c359e0fc950a0f9c4ee08443dd46dc64736f6c634300081b0033",
  "linkReferences": {},
  "deployedLinkReferences": {}
}