{
  "_format": "hh-sol-artifact-1",
  "contractName": "StakeRewardRoute",
  "sourceName": "contracts/hyperstaking/facets/routes/StakeRewardRoute.sol",
  "abi": [
    {
      "inputs": [],
      "name": "AccessControlBadConfirmation",
      "type": "error"
    },
    {
      "inputs": [
        {
          "internalType": "address",
          "name": "account",
          "type": "address"
        },
        {
          "internalType": "bytes32",
          "name": "neededRole",
          "type": "bytes32"
        }
      ],
      "name": "AccessControlUnauthorizedAccount",
      "type": "error"
    },
    {
      "inputs": [],
      "name": "DestinationUnset",
      "type": "error"
    },
    {
      "inputs": [],
      "name": "InvalidInitialization",
      "type": "error"
    },
    {
      "inputs": [],
      "name": "NotInitializing",
      "type": "error"
    },
    {
      "inputs": [],
      "name": "OnlyDiamondInternal",
      "type": "error"
    },
    {
      "inputs": [],
      "name": "OnlyStakingManager",
      "type": "error"
    },
    {
      "inputs": [],
      "name": "OnlyStrategyManager",
      "type": "error"
    },
    {
      "inputs": [],
      "name": "OnlyStrategyUpgrader",
      "type": "error"
    },
    {
      "inputs": [],
      "name": "OnlyVaultManager",
      "type": "error"
    },
    {
      "inputs": [],
      "name": "RecipientUnset",
      "type": "error"
    },
    {
      "anonymous": false,
      "inputs": [
        {
          "indexed": false,
          "internalType": "uint64",
          "name": "version",
          "type": "uint64"
        }
      ],
      "name": "Initialized",
      "type": "event"
    },
    {
      "anonymous": false,
      "inputs": [
        {
          "indexed": true,
          "internalType": "bytes32",
          "name": "role",
          "type": "bytes32"
        },
        {
          "indexed": true,
          "internalType": "bytes32",
          "name": "previousAdminRole",
          "type": "bytes32"
        },
        {
          "indexed": true,
          "internalType": "bytes32",
          "name": "newAdminRole",
          "type": "bytes32"
        }
      ],
      "name": "RoleAdminChanged",
      "type": "event"
    },
    {
      "anonymous": false,
      "inputs": [
        {
          "indexed": true,
          "internalType": "bytes32",
          "name": "role",
          "type": "bytes32"
        },
        {
          "indexed": true,
          "internalType": "address",
          "name": "account",
          "type": "address"
        },
        {
          "indexed": true,
          "internalType": "address",
          "name": "sender",
          "type": "address"
        }
      ],
      "name": "RoleGranted",
      "type": "event"
    },
    {
      "anonymous": false,
      "inputs": [
        {
          "indexed": true,
          "internalType": "bytes32",
          "name": "role",
          "type": "bytes32"
        },
        {
          "indexed": true,
          "internalType": "address",
          "name": "account",
          "type": "address"
        },
        {
          "indexed": true,
          "internalType": "address",
          "name": "sender",
          "type": "address"
        }
      ],
      "name": "RoleRevoked",
      "type": "event"
    },
    {
      "anonymous": false,
      "inputs": [
        {
          "indexed": true,
          "internalType": "address",
          "name": "mailbox",
          "type": "address"
        },
        {
          "indexed": false,
          "internalType": "address",
          "name": "lumiaFactory",
          "type": "address"
        },
        {
          "indexed": true,
          "internalType": "address",
          "name": "strategy",
          "type": "address"
        },
        {
          "indexed": false,
          "internalType": "uint256",
          "name": "stake",
          "type": "uint256"
        }
      ],
      "name": "StakeRewardDispatched",
      "type": "event"
    },
    {
      "inputs": [],
      "name": "DEFAULT_ADMIN_ROLE",
      "outputs": [
        {
          "internalType": "bytes32",
          "name": "",
          "type": "bytes32"
        }
      ],
      "stateMutability": "view",
      "type": "function"
    },
    {
      "inputs": [],
      "name": "STAKING_MANAGER_ROLE",
      "outputs": [
        {
          "internalType": "bytes32",
          "name": "",
          "type": "bytes32"
        }
      ],
      "stateMutability": "pure",
      "type": "function"
    },
    {
      "inputs": [],
      "name": "STRATEGY_MANAGER_ROLE",
      "outputs": [
        {
          "internalType": "bytes32",
          "name": "",
          "type": "bytes32"
        }
      ],
      "stateMutability": "pure",
      "type": "function"
    },
    {
      "inputs": [],
      "name": "STRATEGY_UPGRADER_ROLE",
      "outputs": [
        {
          "internalType": "bytes32",
          "name": "",
          "type": "bytes32"
        }
      ],
      "stateMutability": "pure",
      "type": "function"
    },
    {
      "inputs": [],
      "name": "VAULT_MANAGER_ROLE",
      "outputs": [
        {
          "internalType": "bytes32",
          "name": "",
          "type": "bytes32"
        }
      ],
      "stateMutability": "pure",
      "type": "function"
    },
    {
      "inputs": [
        {
          "components": [
            {
              "internalType": "address",
              "name": "strategy",
              "type": "address"
            },
            {
              "internalType": "uint256",
              "name": "stakeAdded",
              "type": "uint256"
            }
          ],
          "internalType": "struct StakeRewardData",
          "name": "data",
          "type": "tuple"
        }
      ],
      "name": "generateStakeRewardBody",
      "outputs": [
        {
          "internalType": "bytes",
          "name": "body",
          "type": "bytes"
        }
      ],
      "stateMutability": "pure",
      "type": "function"
    },
    {
      "inputs": [
        {
          "internalType": "bytes32",
          "name": "role",
          "type": "bytes32"
        }
      ],
      "name": "getRoleAdmin",
      "outputs": [
        {
          "internalType": "bytes32",
          "name": "",
          "type": "bytes32"
        }
      ],
      "stateMutability": "view",
      "type": "function"
    },
    {
      "inputs": [
        {
          "internalType": "bytes32",
          "name": "role",
          "type": "bytes32"
        },
        {
          "internalType": "uint256",
          "name": "index",
          "type": "uint256"
        }
      ],
      "name": "getRoleMember",
      "outputs": [
        {
          "internalType": "address",
          "name": "",
          "type": "address"
        }
      ],
      "stateMutability": "view",
      "type": "function"
    },
    {
      "inputs": [
        {
          "internalType": "bytes32",
          "name": "role",
          "type": "bytes32"
        }
      ],
      "name": "getRoleMemberCount",
      "outputs": [
        {
          "internalType": "uint256",
          "name": "",
          "type": "uint256"
        }
      ],
      "stateMutability": "view",
      "type": "function"
    },
    {
      "inputs": [
        {
          "internalType": "bytes32",
          "name": "role",
          "type": "bytes32"
        }
      ],
      "name": "getRoleMembers",
      "outputs": [
        {
          "internalType": "address[]",
          "name": "",
          "type": "address[]"
        }
      ],
      "stateMutability": "view",
      "type": "function"
    },
    {
      "inputs": [
        {
          "internalType": "bytes32",
          "name": "role",
          "type": "bytes32"
        },
        {
          "internalType": "address",
          "name": "account",
          "type": "address"
        }
      ],
      "name": "grantRole",
      "outputs": [],
      "stateMutability": "nonpayable",
      "type": "function"
    },
    {
      "inputs": [
        {
          "internalType": "bytes32",
          "name": "role",
          "type": "bytes32"
        },
        {
          "internalType": "address",
          "name": "account",
          "type": "address"
        }
      ],
      "name": "hasRole",
      "outputs": [
        {
          "internalType": "bool",
          "name": "",
          "type": "bool"
        }
      ],
      "stateMutability": "view",
      "type": "function"
    },
    {
      "inputs": [
        {
          "internalType": "address",
          "name": "account",
          "type": "address"
        }
      ],
      "name": "hasStrategyManagerRole",
      "outputs": [
        {
          "internalType": "bool",
          "name": "",
          "type": "bool"
        }
      ],
      "stateMutability": "view",
      "type": "function"
    },
    {
      "inputs": [
        {
          "internalType": "address",
          "name": "account",
          "type": "address"
        }
      ],
      "name": "hasStrategyUpgraderRole",
      "outputs": [
        {
          "internalType": "bool",
          "name": "",
          "type": "bool"
        }
      ],
      "stateMutability": "view",
      "type": "function"
    },
    {
      "inputs": [
        {
          "components": [
            {
              "internalType": "address",
              "name": "strategy",
              "type": "address"
            },
            {
              "internalType": "uint256",
              "name": "stakeAdded",
              "type": "uint256"
            }
          ],
          "internalType": "struct StakeRewardData",
          "name": "data",
          "type": "tuple"
        }
      ],
      "name": "quoteDispatchStakeReward",
      "outputs": [
        {
          "internalType": "uint256",
          "name": "",
          "type": "uint256"
        }
      ],
      "stateMutability": "view",
      "type": "function"
    },
    {
      "inputs": [
        {
          "internalType": "bytes32",
          "name": "role",
          "type": "bytes32"
        },
        {
          "internalType": "address",
          "name": "callerConfirmation",
          "type": "address"
        }
      ],
      "name": "renounceRole",
      "outputs": [],
      "stateMutability": "nonpayable",
      "type": "function"
    },
    {
      "inputs": [
        {
          "internalType": "bytes32",
          "name": "role",
          "type": "bytes32"
        },
        {
          "internalType": "address",
          "name": "account",
          "type": "address"
        }
      ],
      "name": "revokeRole",
      "outputs": [],
      "stateMutability": "nonpayable",
      "type": "function"
    },
    {
      "inputs": [
        {
          "components": [
            {
              "internalType": "address",
              "name": "strategy",
              "type": "address"
            },
            {
              "internalType": "uint256",
              "name": "stakeAdded",
              "type": "uint256"
            }
          ],
          "internalType": "struct StakeRewardData",
          "name": "data",
          "type": "tuple"
        }
      ],
      "name": "stakeRewardDispatch",
      "outputs": [],
      "stateMutability": "payable",
      "type": "function"
    },
    {
      "inputs": [
        {
          "internalType": "bytes4",
          "name": "interfaceId",
          "type": "bytes4"
        }
      ],
      "name": "supportsInterface",
      "outputs": [
        {
          "internalType": "bool",
          "name": "",
          "type": "bool"
        }
      ],
      "stateMutability": "view",
      "type": "function"
    }
  ],
  "bytecode": "0x6080604052348015600e575f5ffd5b50610f038061001c5f395ff3fe608060405260043610610110575f3560e01c80635e5a24a41161009d578063abcbe0b211610062578063abcbe0b21461034a578063ca15c8731461037c578063d547741f1461039b578063f7ef5cf8146103ba578063fd245b4c146103cd575f5ffd5b80635e5a24a4146102835780639010d07c146102b557806391d14854146102ec578063a217fddf1461030b578063a3246ad31461031e575f5ffd5b806336568abe116100e357806336568abe146101b55780633937c0b3146101d4578063505f158a146102065780635208afbe1461022557806359f82f9114610251575f5ffd5b806301ffc9a7146101145780631fd8d0c214610148578063248a9ca3146101755780632f2ff15d14610194575b5f5ffd5b34801561011f575f5ffd5b5061013361012e366004610c59565b6103ec565b60405190151581526020015b60405180910390f35b348015610153575f5ffd5b50610167610162366004610c9b565b610416565b60405190815260200161013f565b348015610180575f5ffd5b5061016761018f366004610cfd565b6104be565b34801561019f575f5ffd5b506101b36101ae366004610d14565b6104de565b005b3480156101c0575f5ffd5b506101b36101cf366004610d14565b610500565b3480156101df575f5ffd5b507fa6b5d83d32632203555cb9b2c2f68a8d94da48cadd9266ac0d17babedb52ea5b610167565b348015610211575f5ffd5b50610133610220366004610d3e565b610538565b348015610230575f5ffd5b5061024461023f366004610c9b565b610564565b60405161013f9190610d85565b34801561025c575f5ffd5b507fb6b8360f529bf65be805a119c79f97914e5e29532dc734732a563b5bc869148c610167565b34801561028e575f5ffd5b507fd1473398bb66596de5d1ea1fc8e303ff2ac23265adc9144b1b52065dc4f0934b610167565b3480156102c0575f5ffd5b506102d46102cf366004610d97565b6105af565b6040516001600160a01b03909116815260200161013f565b3480156102f7575f5ffd5b50610133610306366004610d14565b6105dc565b348015610316575f5ffd5b506101675f81565b348015610329575f5ffd5b5061033d610338366004610cfd565b610612565b60405161013f9190610db7565b348015610355575f5ffd5b507f4170d100a3a3728ae51207936ee755ecaa64a7f6e9383c642ab204a136f90b1b610167565b348015610387575f5ffd5b50610167610396366004610cfd565b61063b565b3480156103a6575f5ffd5b506101b36103b5366004610d14565b61065f565b6101b36103c8366004610c9b565b61067b565b3480156103d8575f5ffd5b506101336103e7366004610d3e565b6107fe565b5f6001600160e01b03198216635a05180f60e01b1480610410575061041082610828565b92915050565b5f5f61042061085c565b6006810180546007909201549092506001600160a01b0380831692639c42bd1892600160a01b90910463ffffffff16911661045a87610564565b6040518463ffffffff1660e01b815260040161047893929190610e02565b602060405180830381865afa158015610493573d5f5f3e3d5ffd5b505050506040513d601f19601f820116820180604052508101906104b79190610e2f565b9392505050565b5f9081525f516020610eae5f395f51905f52602052604090206001015490565b6104e7826104be565b6104f081610889565b6104fa8383610896565b50505050565b6001600160a01b03811633146105295760405163334bd91960e11b815260040160405180910390fd5b61053382826108d8565b505050565b5f6104107f4170d100a3a3728ae51207936ee755ecaa64a7f6e9383c642ab204a136f90b1b5b836105dc565b606061041082805160209182015160408051600160c11b948101949094526001600160a01b039092166028840152604880840191909152815180840390910181526068909201905290565b5f8281525f516020610e8e5f395f51905f526020819052604082206105d49084610911565b949350505050565b5f9182525f516020610eae5f395f51905f52602090815260408084206001600160a01b0393909316845291905290205460ff1690565b5f8181525f516020610e8e5f395f51905f5260208190526040909120606091906104b79061091c565b5f8181525f516020610e8e5f395f51905f526020819052604082206104b790610928565b610668826104be565b61067181610889565b6104fa83836108d8565b33301461069b5760405163d248bf1560e01b815260040160405180910390fd5b5f6106a461085c565b6007810154600690910191506001600160a01b03166106d6576040516394d1b98f60e01b815260040160405180910390fd5b8054600160a01b900463ffffffff165f0361070457604051632490a0bf60e11b815260040160405180910390fd5b5f61070e83610564565b6001830154835460405163fa31de0160e01b81529293506001600160a01b03918216929181169163fa31de0191349161075b91600160a01b900463ffffffff169086908890600401610e02565b60206040518083038185885af1158015610777573d5f5f3e3d5ffd5b50505050506040513d601f19601f8201168201806040525081019061079c9190610e2f565b50835183546001850154602080880151604080516001600160a01b039485168152928301919091529382169391909216917f7ac2961e1718334e4275ba769000be91f3e263627d041827f876e84556ee4a07910160405180910390a350505050565b5f6104107fb6b8360f529bf65be805a119c79f97914e5e29532dc734732a563b5bc869148c61055e565b5f6001600160e01b03198216637965db0b60e01b148061041057506301ffc9a760e01b6001600160e01b0319831614610410565b5f8061041060017fbdce9fce78852f4396d00427ddc098ac2e3263701a971553200759a6322f4465610e46565b6108938133610931565b50565b5f5f516020610e8e5f395f51905f52816108b08585610972565b905080156105d4575f8581526020839052604090206108cf9085610a13565b50949350505050565b5f5f516020610e8e5f395f51905f52816108f28585610a27565b905080156105d4575f8581526020839052604090206108cf9085610aa0565b5f6104b78383610ab4565b60605f6104b783610ada565b5f610410825490565b61093b82826105dc565b61096e5760405163e2517d3f60e01b81526001600160a01b03821660048201526024810183905260440160405180910390fd5b5050565b5f5f516020610eae5f395f51905f5261098b84846105dc565b610a0a575f848152602082815260408083206001600160a01b03871684529091529020805460ff191660011790556109c03390565b6001600160a01b0316836001600160a01b0316857f2f8788117e7eff1d82e926ec794901d17c78024a50270940304540a733656f0d60405160405180910390a46001915050610410565b5f915050610410565b5f6104b7836001600160a01b038416610b33565b5f5f516020610eae5f395f51905f52610a4084846105dc565b15610a0a575f848152602082815260408083206001600160a01b0387168085529252808320805460ff1916905551339287917ff6391f5c32d9c69d2a47ea670b442974b53935d1edc7fd64eb21e047a839171b9190a46001915050610410565b5f6104b7836001600160a01b038416610b7f565b5f825f018281548110610ac957610ac9610e65565b905f5260205f200154905092915050565b6060815f01805480602002602001604051908101604052809291908181526020018280548015610b2757602002820191905f5260205f20905b815481526020019060010190808311610b13575b50505050509050919050565b5f818152600183016020526040812054610b7857508154600181810184555f848152602080822090930184905584548482528286019093526040902091909155610410565b505f610410565b5f8181526001830160205260408120548015610a0a575f610ba1600183610e46565b85549091505f90610bb490600190610e46565b9050808214610c13575f865f018281548110610bd257610bd2610e65565b905f5260205f200154905080875f018481548110610bf257610bf2610e65565b5f918252602080832090910192909255918252600188019052604090208390555b8554869080610c2457610c24610e79565b600190038181905f5260205f20015f90559055856001015f8681526020019081526020015f205f905560019350505050610410565b5f60208284031215610c69575f5ffd5b81356001600160e01b0319811681146104b7575f5ffd5b80356001600160a01b0381168114610c96575f5ffd5b919050565b5f6040828403128015610cac575f5ffd5b506040805190810167ffffffffffffffff81118282101715610cdc57634e487b7160e01b5f52604160045260245ffd5b604052610ce883610c80565b81526020928301359281019290925250919050565b5f60208284031215610d0d575f5ffd5b5035919050565b5f5f60408385031215610d25575f5ffd5b82359150610d3560208401610c80565b90509250929050565b5f60208284031215610d4e575f5ffd5b6104b782610c80565b5f81518084528060208401602086015e5f602082860101526020601f19601f83011685010191505092915050565b602081525f6104b76020830184610d57565b5f5f60408385031215610da8575f5ffd5b50508035926020909101359150565b602080825282518282018190525f918401906040840190835b81811015610df75783516001600160a01b0316835260209384019390920191600101610dd0565b509095945050505050565b63ffffffff84168152826020820152606060408201525f610e266060830184610d57565b95945050505050565b5f60208284031215610e3f575f5ffd5b5051919050565b8181038181111561041057634e487b7160e01b5f52601160045260245ffd5b634e487b7160e01b5f52603260045260245ffd5b634e487b7160e01b5f52603160045260245ffdfec1f6fe24621ce81ec5827caf0253cadb74709b061630e6b55e8237170593200002dd7bc7dec4dceedda775e58dd541e08a116c6c53815c0bd028192f7b626800a2646970667358221220c38b537439f4c28802c134f322c1209d73b003e6aa5284531a23d43ae509613664736f6c634300081b0033",
  "linkReferences": {},
  "deployedLinkReferences": {}
}