{
  "_format": "hh-sol-artifact-1",
  "contractName": "HyperFactoryFacet",
  "sourceName": "contracts/hyperstaking/facets/HyperFactoryFacet.sol",
  "abi": [
    {
      "inputs": [],
      "name": "AccessControlBadConfirmation",
      "type": "error"
    },
    {
      "inputs": [
        {
          "internalType": "address",
          "name": "account",
          "type": "address"
        },
        {
          "internalType": "bytes32",
          "name": "neededRole",
          "type": "bytes32"
        }
      ],
      "name": "AccessControlUnauthorizedAccount",
      "type": "error"
    },
    {
      "inputs": [],
      "name": "InvalidInitialization",
      "type": "error"
    },
    {
      "inputs": [],
      "name": "NotInitializing",
      "type": "error"
    },
    {
      "inputs": [],
      "name": "OnlyDiamondInternal",
      "type": "error"
    },
    {
      "inputs": [],
      "name": "OnlyStakingManager",
      "type": "error"
    },
    {
      "inputs": [],
      "name": "OnlyStrategyManager",
      "type": "error"
    },
    {
      "inputs": [],
      "name": "OnlyStrategyUpgrader",
      "type": "error"
    },
    {
      "inputs": [],
      "name": "OnlyVaultManager",
      "type": "error"
    },
    {
      "inputs": [],
      "name": "ReentrancyGuardReentrantCall",
      "type": "error"
    },
    {
      "inputs": [],
      "name": "VaultAlreadyExist",
      "type": "error"
    },
    {
      "inputs": [
        {
          "internalType": "address",
          "name": "strategy",
          "type": "address"
        }
      ],
      "name": "VaultDoesNotExist",
      "type": "error"
    },
    {
      "inputs": [],
      "name": "ZeroAddress",
      "type": "error"
    },
    {
      "anonymous": false,
      "inputs": [
        {
          "indexed": false,
          "internalType": "uint64",
          "name": "version",
          "type": "uint64"
        }
      ],
      "name": "Initialized",
      "type": "event"
    },
    {
      "anonymous": false,
      "inputs": [
        {
          "indexed": true,
          "internalType": "bytes32",
          "name": "role",
          "type": "bytes32"
        },
        {
          "indexed": true,
          "internalType": "bytes32",
          "name": "previousAdminRole",
          "type": "bytes32"
        },
        {
          "indexed": true,
          "internalType": "bytes32",
          "name": "newAdminRole",
          "type": "bytes32"
        }
      ],
      "name": "RoleAdminChanged",
      "type": "event"
    },
    {
      "anonymous": false,
      "inputs": [
        {
          "indexed": true,
          "internalType": "bytes32",
          "name": "role",
          "type": "bytes32"
        },
        {
          "indexed": true,
          "internalType": "address",
          "name": "account",
          "type": "address"
        },
        {
          "indexed": true,
          "internalType": "address",
          "name": "sender",
          "type": "address"
        }
      ],
      "name": "RoleGranted",
      "type": "event"
    },
    {
      "anonymous": false,
      "inputs": [
        {
          "indexed": true,
          "internalType": "bytes32",
          "name": "role",
          "type": "bytes32"
        },
        {
          "indexed": true,
          "internalType": "address",
          "name": "account",
          "type": "address"
        },
        {
          "indexed": true,
          "internalType": "address",
          "name": "sender",
          "type": "address"
        }
      ],
      "name": "RoleRevoked",
      "type": "event"
    },
    {
      "anonymous": false,
      "inputs": [
        {
          "indexed": true,
          "internalType": "address",
          "name": "from",
          "type": "address"
        },
        {
          "indexed": false,
          "internalType": "address",
          "name": "strategy",
          "type": "address"
        },
        {
          "indexed": true,
          "internalType": "address",
          "name": "stakeCurrency",
          "type": "address"
        },
        {
          "indexed": true,
          "internalType": "address",
          "name": "revenueAsset",
          "type": "address"
        },
        {
          "indexed": false,
          "internalType": "string",
          "name": "vaultTokenName",
          "type": "string"
        },
        {
          "indexed": false,
          "internalType": "string",
          "name": "vaultTokenSymbol",
          "type": "string"
        },
        {
          "indexed": false,
          "internalType": "uint8",
          "name": "decimals",
          "type": "uint8"
        }
      ],
      "name": "VaultCreate",
      "type": "event"
    },
    {
      "anonymous": false,
      "inputs": [
        {
          "indexed": true,
          "internalType": "address",
          "name": "strategy",
          "type": "address"
        },
        {
          "indexed": false,
          "internalType": "bool",
          "name": "enabled",
          "type": "bool"
        }
      ],
      "name": "VaultEnabledSet",
      "type": "event"
    },
    {
      "inputs": [],
      "name": "DEFAULT_ADMIN_ROLE",
      "outputs": [
        {
          "internalType": "bytes32",
          "name": "",
          "type": "bytes32"
        }
      ],
      "stateMutability": "view",
      "type": "function"
    },
    {
      "inputs": [],
      "name": "STAKING_MANAGER_ROLE",
      "outputs": [
        {
          "internalType": "bytes32",
          "name": "",
          "type": "bytes32"
        }
      ],
      "stateMutability": "pure",
      "type": "function"
    },
    {
      "inputs": [],
      "name": "STRATEGY_MANAGER_ROLE",
      "outputs": [
        {
          "internalType": "bytes32",
          "name": "",
          "type": "bytes32"
        }
      ],
      "stateMutability": "pure",
      "type": "function"
    },
    {
      "inputs": [],
      "name": "STRATEGY_UPGRADER_ROLE",
      "outputs": [
        {
          "internalType": "bytes32",
          "name": "",
          "type": "bytes32"
        }
      ],
      "stateMutability": "pure",
      "type": "function"
    },
    {
      "inputs": [],
      "name": "VAULT_MANAGER_ROLE",
      "outputs": [
        {
          "internalType": "bytes32",
          "name": "",
          "type": "bytes32"
        }
      ],
      "stateMutability": "pure",
      "type": "function"
    },
    {
      "inputs": [
        {
          "internalType": "address",
          "name": "strategy",
          "type": "address"
        },
        {
          "internalType": "string",
          "name": "vaultTokenName",
          "type": "string"
        },
        {
          "internalType": "string",
          "name": "vaultTokenSymbol",
          "type": "string"
        }
      ],
      "name": "addStrategy",
      "outputs": [],
      "stateMutability": "payable",
      "type": "function"
    },
    {
      "inputs": [
        {
          "internalType": "bytes32",
          "name": "role",
          "type": "bytes32"
        }
      ],
      "name": "getRoleAdmin",
      "outputs": [
        {
          "internalType": "bytes32",
          "name": "",
          "type": "bytes32"
        }
      ],
      "stateMutability": "view",
      "type": "function"
    },
    {
      "inputs": [
        {
          "internalType": "bytes32",
          "name": "role",
          "type": "bytes32"
        },
        {
          "internalType": "uint256",
          "name": "index",
          "type": "uint256"
        }
      ],
      "name": "getRoleMember",
      "outputs": [
        {
          "internalType": "address",
          "name": "",
          "type": "address"
        }
      ],
      "stateMutability": "view",
      "type": "function"
    },
    {
      "inputs": [
        {
          "internalType": "bytes32",
          "name": "role",
          "type": "bytes32"
        }
      ],
      "name": "getRoleMemberCount",
      "outputs": [
        {
          "internalType": "uint256",
          "name": "",
          "type": "uint256"
        }
      ],
      "stateMutability": "view",
      "type": "function"
    },
    {
      "inputs": [
        {
          "internalType": "bytes32",
          "name": "role",
          "type": "bytes32"
        }
      ],
      "name": "getRoleMembers",
      "outputs": [
        {
          "internalType": "address[]",
          "name": "",
          "type": "address[]"
        }
      ],
      "stateMutability": "view",
      "type": "function"
    },
    {
      "inputs": [
        {
          "internalType": "bytes32",
          "name": "role",
          "type": "bytes32"
        },
        {
          "internalType": "address",
          "name": "account",
          "type": "address"
        }
      ],
      "name": "grantRole",
      "outputs": [],
      "stateMutability": "nonpayable",
      "type": "function"
    },
    {
      "inputs": [
        {
          "internalType": "bytes32",
          "name": "role",
          "type": "bytes32"
        },
        {
          "internalType": "address",
          "name": "account",
          "type": "address"
        }
      ],
      "name": "hasRole",
      "outputs": [
        {
          "internalType": "bool",
          "name": "",
          "type": "bool"
        }
      ],
      "stateMutability": "view",
      "type": "function"
    },
    {
      "inputs": [
        {
          "internalType": "address",
          "name": "account",
          "type": "address"
        }
      ],
      "name": "hasStrategyManagerRole",
      "outputs": [
        {
          "internalType": "bool",
          "name": "",
          "type": "bool"
        }
      ],
      "stateMutability": "view",
      "type": "function"
    },
    {
      "inputs": [
        {
          "internalType": "address",
          "name": "account",
          "type": "address"
        }
      ],
      "name": "hasStrategyUpgraderRole",
      "outputs": [
        {
          "internalType": "bool",
          "name": "",
          "type": "bool"
        }
      ],
      "stateMutability": "view",
      "type": "function"
    },
    {
      "inputs": [
        {
          "internalType": "bytes32",
          "name": "role",
          "type": "bytes32"
        },
        {
          "internalType": "address",
          "name": "callerConfirmation",
          "type": "address"
        }
      ],
      "name": "renounceRole",
      "outputs": [],
      "stateMutability": "nonpayable",
      "type": "function"
    },
    {
      "inputs": [
        {
          "internalType": "bytes32",
          "name": "role",
          "type": "bytes32"
        },
        {
          "internalType": "address",
          "name": "account",
          "type": "address"
        }
      ],
      "name": "revokeRole",
      "outputs": [],
      "stateMutability": "nonpayable",
      "type": "function"
    },
    {
      "inputs": [
        {
          "internalType": "address",
          "name": "strategy",
          "type": "address"
        },
        {
          "internalType": "bool",
          "name": "enabled",
          "type": "bool"
        }
      ],
      "name": "setStrategyEnabled",
      "outputs": [],
      "stateMutability": "nonpayable",
      "type": "function"
    },
    {
      "inputs": [
        {
          "internalType": "bytes4",
          "name": "interfaceId",
          "type": "bytes4"
        }
      ],
      "name": "supportsInterface",
      "outputs": [
        {
          "internalType": "bool",
          "name": "",
          "type": "bool"
        }
      ],
      "stateMutability": "view",
      "type": "function"
    },
    {
      "inputs": [
        {
          "internalType": "address",
          "name": "strategy",
          "type": "address"
        }
      ],
      "name": "vaultInfo",
      "outputs": [
        {
          "components": [
            {
              "internalType": "bool",
              "name": "enabled",
              "type": "bool"
            },
            {
              "internalType": "address",
              "name": "strategy",
              "type": "address"
            },
            {
              "components": [
                {
                  "internalType": "address",
                  "name": "token",
                  "type": "address"
                }
              ],
              "internalType": "struct Currency",
              "name": "stakeCurrency",
              "type": "tuple"
            },
            {
              "internalType": "contract IERC20Metadata",
              "name": "revenueAsset",
              "type": "address"
            },
            {
              "internalType": "address",
              "name": "feeRecipient",
              "type": "address"
            },
            {
              "internalType": "uint256",
              "name": "feeRate",
              "type": "uint256"
            },
            {
              "internalType": "uint256",
              "name": "bridgeSafetyMargin",
              "type": "uint256"
            }
          ],
          "internalType": "struct VaultInfo",
          "name": "",
          "type": "tuple"
        }
      ],
      "stateMutability": "view",
      "type": "function"
    }
  ],
  "bytecode": "0x6080604052348015600e575f5ffd5b5061167d8061001c5f395ff3fe608060405260043610610110575f3560e01c80639010d07c1161009d578063abcbe0b211610062578063abcbe0b21461039a578063ca15c873146103cc578063ca88054e146103eb578063d547741f1461040a578063fd245b4c14610429575f5ffd5b80639010d07c1461027d5780639164359a146102b457806391d148541461033c578063a217fddf1461035b578063a3246ad31461036e575f5ffd5b80633937c0b3116100e35780633937c0b3146101b5578063505f158a146101e757806359f82f91146102065780635e5a24a41461023857806373e0da051461026a575f5ffd5b806301ffc9a714610114578063248a9ca3146101485780632f2ff15d1461017557806336568abe14610196575b5f5ffd5b34801561011f575f5ffd5b5061013361012e3660046111e1565b610448565b60405190151581526020015b60405180910390f35b348015610153575f5ffd5b50610167610162366004611208565b610472565b60405190815260200161013f565b348015610180575f5ffd5b5061019461018f366004611233565b610492565b005b3480156101a1575f5ffd5b506101946101b0366004611233565b6104b4565b3480156101c0575f5ffd5b507fa6b5d83d32632203555cb9b2c2f68a8d94da48cadd9266ac0d17babedb52ea5b610167565b3480156101f2575f5ffd5b50610133610201366004611261565b6104ec565b348015610211575f5ffd5b507fb6b8360f529bf65be805a119c79f97914e5e29532dc734732a563b5bc869148c610167565b348015610243575f5ffd5b507fd1473398bb66596de5d1ea1fc8e303ff2ac23265adc9144b1b52065dc4f0934b610167565b61019461027836600461131b565b610518565b348015610288575f5ffd5b5061029c610297366004611391565b610705565b6040516001600160a01b03909116815260200161013f565b3480156102bf575f5ffd5b506102d36102ce366004611261565b610732565b60405161013f91908151151581526020808301516001600160a01b0390811691830191909152604080840151518216908301526060808401518216908301526080808401519091169082015260a0808301519082015260c0918201519181019190915260e00190565b348015610347575f5ffd5b50610133610356366004611233565b610805565b348015610366575f5ffd5b506101675f81565b348015610379575f5ffd5b5061038d610388366004611208565b61083b565b60405161013f91906113b1565b3480156103a5575f5ffd5b507f4170d100a3a3728ae51207936ee755ecaa64a7f6e9383c642ab204a136f90b1b610167565b3480156103d7575f5ffd5b506101676103e6366004611208565b61086b565b3480156103f6575f5ffd5b506101946104053660046113fc565b61088f565b348015610415575f5ffd5b50610194610424366004611233565b610995565b348015610434575f5ffd5b50610133610443366004611261565b6109b1565b5f6001600160e01b03198216635a05180f60e01b148061046c575061046c826109db565b92915050565b5f9081525f5160206116285f395f51905f52602052604090206001015490565b61049b82610472565b6104a481610a0f565b6104ae8383610a1c565b50505050565b6001600160a01b03811633146104dd5760405163334bd91960e11b815260040160405180910390fd5b6104e78282610a5e565b505050565b5f61046c7f4170d100a3a3728ae51207936ee755ecaa64a7f6e9383c642ab204a136f90b1b5b83610805565b6105437fd1473398bb66596de5d1ea1fc8e303ff2ac23265adc9144b1b52065dc4f0934b5b33610805565b6105605760405163612bde3d60e01b815260040160405180910390fd5b610568610a97565b6001600160a01b03831661058f5760405163d92e233d60e01b815260040160405180910390fd5b5f836001600160a01b031663190cfb0c6040518163ffffffff1660e01b8152600401602060405180830381865afa1580156105cc573d5f5f3e3d5ffd5b505050506040513d601f19601f820116820180604052508101906105f0919061142c565b90505f5f9050846001600160a01b03166366b8d7796040518163ffffffff1660e01b8152600401602060405180830381865afa158015610632573d5f5f3e3d5ffd5b505050506040513d601f19601f820116820180604052508101906106569190611478565b9050610663858383610ae1565b5f61066d83610cf2565b905061067b86868684610d6e565b816001600160a01b0316835f01516001600160a01b0316336001600160a01b03167f667992399e511b23f08ddd82644d524aa2ec688137801352ab44d0404acea6bf898989876040516106d194939291906114c1565b60405180910390a45050506104e760017f9b779b17422d0df92223018b32b4d1fa46e071723d6817e2486d003becc55f0055565b5f8281525f5160206116085f395f51905f5260208190526040822061072a9084610e70565b949350505050565b61077b6040805160e0810182525f808252602080830182905283519081018452908152909182019081525f60208201819052604082018190526060820181905260809091015290565b5f610784610e7b565b6001600160a01b039384165f9081526020918252604090819020815160e081018352815460ff8116151582526101009004871681850152825193840183526001820154871684529182019290925260028201548516606082015260038201549094166080850152600481015460a08501526005015460c08401525090919050565b5f9182525f5160206116285f395f51905f52602090815260408084206001600160a01b0393909316845291905290205460ff1690565b5f8181525f5160206116085f395f51905f52602081905260409091206060919061086490610ea8565b9392505050565b5f8181525f5160206116085f395f51905f5260208190526040822061086490610eb4565b6108b87fd1473398bb66596de5d1ea1fc8e303ff2ac23265adc9144b1b52065dc4f0934b61053d565b6108d55760405163612bde3d60e01b815260040160405180910390fd5b5f6108de610e7b565b6001600160a01b038085165f908152602092909252604090912080549092508491610100909104166109345760405163d6e0102560e01b81526001600160a01b0390911660048201526024015b60405180910390fd5b50805460ff161515821515146104e757805460ff191682151590811782556040519081526001600160a01b038416907ff20a78d1fea215478d89296aec0b6898309712e18861f47688dda625e3de6b619060200160405180910390a2505050565b61099e82610472565b6109a781610a0f565b6104ae8383610a5e565b5f61046c7fb6b8360f529bf65be805a119c79f97914e5e29532dc734732a563b5bc869148c610512565b5f6001600160e01b03198216637965db0b60e01b148061046c57506301ffc9a760e01b6001600160e01b031983161461046c565b610a198133610ebd565b50565b5f5f5160206116085f395f51905f5281610a368585610efa565b9050801561072a575f858152602083905260409020610a559085610f9b565b50949350505050565b5f5f5160206116085f395f51905f5281610a788585610faf565b9050801561072a575f858152602083905260409020610a559085611028565b7f9b779b17422d0df92223018b32b4d1fa46e071723d6817e2486d003becc55f00805460011901610adb57604051633ee5aeb560e01b815260040160405180910390fd5b60029055565b5f610aea610e7b565b6001600160a01b038581165f908152602083905260409020549192506101009091041615610b2b5760405163dd5f5b4360e01b815260040160405180910390fd5b6040518060e00160405280600115158152602001856001600160a01b03168152602001848152602001836001600160a01b031681526020015f6001600160a01b031681526020015f81526020015f815250815f015f866001600160a01b03166001600160a01b031681526020019081526020015f205f820151815f015f6101000a81548160ff0219169083151502179055506020820151815f0160016101000a8154816001600160a01b0302191690836001600160a01b031602179055506040820151816001015f820151815f015f6101000a8154816001600160a01b0302191690836001600160a01b0316021790555050506060820151816002015f6101000a8154816001600160a01b0302191690836001600160a01b031602179055506080820151816003015f6101000a8154816001600160a01b0302191690836001600160a01b0316021790555060a0820151816004015560c0820151816005015590505060405180606001604052805f81526020015f81526020015f815250816001015f866001600160a01b03166001600160a01b031681526020019081526020015f205f820151815f0155602082015181600101556040820151816002015590505050505050565b80515f906001600160a01b0316610d0b57506012919050565b815f01516001600160a01b031663313ce5676040518163ffffffff1660e01b8152600401602060405180830381865afa158015610d4a573d5f5f3e3d5ffd5b505050506040513d601f19601f8201168201806040525081019061046c919061150b565b6040805160a0810182526001600160a01b0386168152602080820186905281830185905260ff84166060830152825190810183525f8082526080830191909152915163daf0bbdb60e01b8152909190309063daf0bbdb90610dd390859060040161152b565b602060405180830381865afa158015610dee573d5f5f3e3d5ffd5b505050506040513d601f19601f82011682018060405250810190610e1291906115a9565b604051637d31e6b760e11b8152909150309063fa63cd6e908390610e3a90869060040161152b565b5f604051808303818588803b158015610e51575f5ffd5b505af1158015610e63573d5f5f3e3d5ffd5b5050505050505050505050565b5f610864838361103c565b5f8061046c60017fbdce9fce78852f4396d00427ddc098ac2e3263701a971553200759a6322f44656115c0565b60605f61086483611062565b5f61046c825490565b610ec78282610805565b610ef65760405163e2517d3f60e01b81526001600160a01b03821660048201526024810183905260440161092b565b5050565b5f5f5160206116285f395f51905f52610f138484610805565b610f92575f848152602082815260408083206001600160a01b03871684529091529020805460ff19166001179055610f483390565b6001600160a01b0316836001600160a01b0316857f2f8788117e7eff1d82e926ec794901d17c78024a50270940304540a733656f0d60405160405180910390a4600191505061046c565b5f91505061046c565b5f610864836001600160a01b0384166110bb565b5f5f5160206116285f395f51905f52610fc88484610805565b15610f92575f848152602082815260408083206001600160a01b0387168085529252808320805460ff1916905551339287917ff6391f5c32d9c69d2a47ea670b442974b53935d1edc7fd64eb21e047a839171b9190a4600191505061046c565b5f610864836001600160a01b038416611107565b5f825f018281548110611051576110516115df565b905f5260205f200154905092915050565b6060815f018054806020026020016040519081016040528092919081815260200182805480156110af57602002820191905f5260205f20905b81548152602001906001019080831161109b575b50505050509050919050565b5f81815260018301602052604081205461110057508154600181810184555f84815260208082209093018490558454848252828601909352604090209190915561046c565b505f61046c565b5f8181526001830160205260408120548015610f92575f6111296001836115c0565b85549091505f9061113c906001906115c0565b905080821461119b575f865f01828154811061115a5761115a6115df565b905f5260205f200154905080875f01848154811061117a5761117a6115df565b5f918252602080832090910192909255918252600188019052604090208390555b85548690806111ac576111ac6115f3565b600190038181905f5260205f20015f90559055856001015f8681526020019081526020015f205f90556001935050505061046c565b5f602082840312156111f1575f5ffd5b81356001600160e01b031981168114610864575f5ffd5b5f60208284031215611218575f5ffd5b5035919050565b6001600160a01b0381168114610a19575f5ffd5b5f5f60408385031215611244575f5ffd5b8235915060208301356112568161121f565b809150509250929050565b5f60208284031215611271575f5ffd5b81356108648161121f565b634e487b7160e01b5f52604160045260245ffd5b5f82601f83011261129f575f5ffd5b813567ffffffffffffffff8111156112b9576112b961127c565b604051601f8201601f19908116603f0116810167ffffffffffffffff811182821017156112e8576112e861127c565b6040528181528382016020018510156112ff575f5ffd5b816020850160208301375f918101602001919091529392505050565b5f5f5f6060848603121561132d575f5ffd5b83356113388161121f565b9250602084013567ffffffffffffffff811115611353575f5ffd5b61135f86828701611290565b925050604084013567ffffffffffffffff81111561137b575f5ffd5b61138786828701611290565b9150509250925092565b5f5f604083850312156113a2575f5ffd5b50508035926020909101359150565b602080825282518282018190525f918401906040840190835b818110156113f15783516001600160a01b03168352602093840193909201916001016113ca565b509095945050505050565b5f5f6040838503121561140d575f5ffd5b82356114188161121f565b915060208301358015158114611256575f5ffd5b5f602082840312801561143d575f5ffd5b506040516020810167ffffffffffffffff811182821017156114615761146161127c565b604052825161146f8161121f565b81529392505050565b5f60208284031215611488575f5ffd5b81516108648161121f565b5f81518084528060208401602086015e5f602082860101526020601f19601f83011685010191505092915050565b6001600160a01b03851681526080602082018190525f906114e490830186611493565b82810360408401526114f68186611493565b91505060ff8316606083015295945050505050565b5f6020828403121561151b575f5ffd5b815160ff81168114610864575f5ffd5b602080825282516001600160a01b03168282015282015160a060408301525f9061155860c0840182611493565b90506040840151601f198483030160608501526115758282611493565b91505060ff60608501511660808401526080840151601f198483030160a08501526115a08282611493565b95945050505050565b5f602082840312156115b9575f5ffd5b5051919050565b8181038181111561046c57634e487b7160e01b5f52601160045260245ffd5b634e487b7160e01b5f52603260045260245ffd5b634e487b7160e01b5f52603160045260245ffdfec1f6fe24621ce81ec5827caf0253cadb74709b061630e6b55e8237170593200002dd7bc7dec4dceedda775e58dd541e08a116c6c53815c0bd028192f7b626800a2646970667358221220f71eaa9ee1aba84791a1065e5caf6733279977f53765457d5cd81ced9ac7bbbc64736f6c634300081b0033",
  "linkReferences": {},
  "deployedLinkReferences": {}
}