{
  "_format": "hh-sol-artifact-1",
  "contractName": "MockReserveStrategy",
  "sourceName": "contracts/test/MockReserveStrategy.sol",
  "abi": [
    {
      "inputs": [
        {
          "internalType": "address",
          "name": "target",
          "type": "address"
        }
      ],
      "name": "AddressEmptyCode",
      "type": "error"
    },
    {
      "inputs": [],
      "name": "AlreadyClaimed",
      "type": "error"
    },
    {
      "inputs": [],
      "name": "DontSupportArrays",
      "type": "error"
    },
    {
      "inputs": [
        {
          "internalType": "address",
          "name": "implementation",
          "type": "address"
        }
      ],
      "name": "ERC1967InvalidImplementation",
      "type": "error"
    },
    {
      "inputs": [],
      "name": "ERC1967NonPayable",
      "type": "error"
    },
    {
      "inputs": [],
      "name": "FailedCall",
      "type": "error"
    },
    {
      "inputs": [],
      "name": "InvalidInitialization",
      "type": "error"
    },
    {
      "inputs": [],
      "name": "MissingCollateral",
      "type": "error"
    },
    {
      "inputs": [],
      "name": "NotInitializing",
      "type": "error"
    },
    {
      "inputs": [],
      "name": "NotLumiaDiamond",
      "type": "error"
    },
    {
      "inputs": [],
      "name": "NotReady",
      "type": "error"
    },
    {
      "inputs": [],
      "name": "NotStrategyManager",
      "type": "error"
    },
    {
      "inputs": [],
      "name": "NotStrategyUpgrader",
      "type": "error"
    },
    {
      "inputs": [
        {
          "internalType": "uint256",
          "name": "id",
          "type": "uint256"
        }
      ],
      "name": "RequestIdExists",
      "type": "error"
    },
    {
      "inputs": [
        {
          "internalType": "address",
          "name": "token",
          "type": "address"
        }
      ],
      "name": "SafeERC20FailedOperation",
      "type": "error"
    },
    {
      "inputs": [],
      "name": "UUPSUnauthorizedCallContext",
      "type": "error"
    },
    {
      "inputs": [
        {
          "internalType": "bytes32",
          "name": "slot",
          "type": "bytes32"
        }
      ],
      "name": "UUPSUnsupportedProxiableUUID",
      "type": "error"
    },
    {
      "inputs": [],
      "name": "WrongKind",
      "type": "error"
    },
    {
      "inputs": [],
      "name": "ZeroAddress",
      "type": "error"
    },
    {
      "inputs": [],
      "name": "ZeroAmount",
      "type": "error"
    },
    {
      "inputs": [],
      "name": "ZeroUser",
      "type": "error"
    },
    {
      "anonymous": false,
      "inputs": [
        {
          "indexed": true,
          "internalType": "uint256",
          "name": "id",
          "type": "uint256"
        },
        {
          "indexed": false,
          "internalType": "address",
          "name": "receiver",
          "type": "address"
        },
        {
          "indexed": false,
          "internalType": "uint256",
          "name": "assetAllocation",
          "type": "uint256"
        }
      ],
      "name": "AllocationClaimed",
      "type": "event"
    },
    {
      "anonymous": false,
      "inputs": [
        {
          "indexed": true,
          "internalType": "uint256",
          "name": "id",
          "type": "uint256"
        },
        {
          "indexed": true,
          "internalType": "address",
          "name": "user",
          "type": "address"
        },
        {
          "indexed": false,
          "internalType": "uint256",
          "name": "stakeAmount",
          "type": "uint256"
        },
        {
          "indexed": false,
          "internalType": "uint64",
          "name": "readyAt",
          "type": "uint64"
        }
      ],
      "name": "AllocationRequested",
      "type": "event"
    },
    {
      "anonymous": false,
      "inputs": [
        {
          "indexed": true,
          "internalType": "address",
          "name": "from",
          "type": "address"
        },
        {
          "indexed": true,
          "internalType": "address",
          "name": "asset",
          "type": "address"
        },
        {
          "indexed": false,
          "internalType": "uint256",
          "name": "newAssetPrice",
          "type": "uint256"
        }
      ],
      "name": "AssetPriceSet",
      "type": "event"
    },
    {
      "anonymous": false,
      "inputs": [
        {
          "indexed": true,
          "internalType": "address",
          "name": "sender",
          "type": "address"
        },
        {
          "indexed": true,
          "internalType": "address",
          "name": "currencyToken",
          "type": "address"
        },
        {
          "indexed": false,
          "internalType": "uint256",
          "name": "amount",
          "type": "uint256"
        },
        {
          "indexed": true,
          "internalType": "address",
          "name": "to",
          "type": "address"
        }
      ],
      "name": "EmergencyWithdraw",
      "type": "event"
    },
    {
      "anonymous": false,
      "inputs": [
        {
          "indexed": true,
          "internalType": "uint256",
          "name": "id",
          "type": "uint256"
        },
        {
          "indexed": false,
          "internalType": "address",
          "name": "receiver",
          "type": "address"
        },
        {
          "indexed": false,
          "internalType": "uint256",
          "name": "exitStakeAmount",
          "type": "uint256"
        }
      ],
      "name": "ExitClaimed",
      "type": "event"
    },
    {
      "anonymous": false,
      "inputs": [
        {
          "indexed": true,
          "internalType": "uint256",
          "name": "id",
          "type": "uint256"
        },
        {
          "indexed": true,
          "internalType": "address",
          "name": "user",
          "type": "address"
        },
        {
          "indexed": false,
          "internalType": "uint256",
          "name": "assetAllocation",
          "type": "uint256"
        },
        {
          "indexed": false,
          "internalType": "uint64",
          "name": "readyAt",
          "type": "uint64"
        }
      ],
      "name": "ExitRequested",
      "type": "event"
    },
    {
      "anonymous": false,
      "inputs": [
        {
          "indexed": false,
          "internalType": "uint64",
          "name": "version",
          "type": "uint64"
        }
      ],
      "name": "Initialized",
      "type": "event"
    },
    {
      "anonymous": false,
      "inputs": [
        {
          "indexed": true,
          "internalType": "address",
          "name": "from",
          "type": "address"
        },
        {
          "indexed": false,
          "internalType": "uint256",
          "name": "value",
          "type": "uint256"
        }
      ],
      "name": "Received",
      "type": "event"
    },
    {
      "anonymous": false,
      "inputs": [
        {
          "indexed": true,
          "internalType": "address",
          "name": "from",
          "type": "address"
        },
        {
          "indexed": true,
          "internalType": "address",
          "name": "asset",
          "type": "address"
        },
        {
          "indexed": false,
          "internalType": "uint256",
          "name": "amount",
          "type": "uint256"
        }
      ],
      "name": "RevenueAssetSupply",
      "type": "event"
    },
    {
      "anonymous": false,
      "inputs": [
        {
          "indexed": true,
          "internalType": "address",
          "name": "to",
          "type": "address"
        },
        {
          "indexed": true,
          "internalType": "address",
          "name": "asset",
          "type": "address"
        },
        {
          "indexed": false,
          "internalType": "uint256",
          "name": "amount",
          "type": "uint256"
        }
      ],
      "name": "RevenueAssetWithdraw",
      "type": "event"
    },
    {
      "anonymous": false,
      "inputs": [
        {
          "indexed": true,
          "internalType": "address",
          "name": "to",
          "type": "address"
        },
        {
          "indexed": true,
          "internalType": "address",
          "name": "stakeToken",
          "type": "address"
        },
        {
          "indexed": false,
          "internalType": "uint256",
          "name": "amount",
          "type": "uint256"
        }
      ],
      "name": "StakeAssetWithdraw",
      "type": "event"
    },
    {
      "anonymous": false,
      "inputs": [
        {
          "indexed": true,
          "internalType": "address",
          "name": "implementation",
          "type": "address"
        }
      ],
      "name": "Upgraded",
      "type": "event"
    },
    {
      "inputs": [],
      "name": "DIAMOND",
      "outputs": [
        {
          "internalType": "address",
          "name": "",
          "type": "address"
        }
      ],
      "stateMutability": "view",
      "type": "function"
    },
    {
      "inputs": [],
      "name": "UPGRADE_INTERFACE_VERSION",
      "outputs": [
        {
          "internalType": "string",
          "name": "",
          "type": "string"
        }
      ],
      "stateMutability": "view",
      "type": "function"
    },
    {
      "inputs": [],
      "name": "assetPrice",
      "outputs": [
        {
          "internalType": "uint256",
          "name": "",
          "type": "uint256"
        }
      ],
      "stateMutability": "view",
      "type": "function"
    },
    {
      "inputs": [],
      "name": "assetReserve",
      "outputs": [
        {
          "internalType": "uint256",
          "name": "",
          "type": "uint256"
        }
      ],
      "stateMutability": "view",
      "type": "function"
    },
    {
      "inputs": [
        {
          "internalType": "uint256[]",
          "name": "ids_",
          "type": "uint256[]"
        },
        {
          "internalType": "address",
          "name": "receiver_",
          "type": "address"
        }
      ],
      "name": "claimAllocation",
      "outputs": [
        {
          "internalType": "uint256",
          "name": "allocation",
          "type": "uint256"
        }
      ],
      "stateMutability": "nonpayable",
      "type": "function"
    },
    {
      "inputs": [
        {
          "internalType": "uint256[]",
          "name": "ids_",
          "type": "uint256[]"
        },
        {
          "internalType": "address",
          "name": "receiver_",
          "type": "address"
        }
      ],
      "name": "claimExit",
      "outputs": [
        {
          "internalType": "uint256",
          "name": "exitAmount",
          "type": "uint256"
        }
      ],
      "stateMutability": "nonpayable",
      "type": "function"
    },
    {
      "inputs": [
        {
          "components": [
            {
              "internalType": "address",
              "name": "token",
              "type": "address"
            }
          ],
          "internalType": "struct Currency",
          "name": "currency_",
          "type": "tuple"
        },
        {
          "internalType": "uint256",
          "name": "amount_",
          "type": "uint256"
        },
        {
          "internalType": "address",
          "name": "to_",
          "type": "address"
        }
      ],
      "name": "emergencyWithdrawal",
      "outputs": [],
      "stateMutability": "nonpayable",
      "type": "function"
    },
    {
      "inputs": [],
      "name": "implementationVersion",
      "outputs": [
        {
          "internalType": "string",
          "name": "",
          "type": "string"
        }
      ],
      "stateMutability": "pure",
      "type": "function"
    },
    {
      "inputs": [
        {
          "internalType": "address",
          "name": "diamond_",
          "type": "address"
        },
        {
          "components": [
            {
              "internalType": "address",
              "name": "token",
              "type": "address"
            }
          ],
          "internalType": "struct Currency",
          "name": "stake_",
          "type": "tuple"
        },
        {
          "internalType": "contract IERC20Metadata",
          "name": "revenueAsset_",
          "type": "address"
        },
        {
          "internalType": "uint256",
          "name": "assetPrice_",
          "type": "uint256"
        }
      ],
      "name": "initialize",
      "outputs": [],
      "stateMutability": "nonpayable",
      "type": "function"
    },
    {
      "inputs": [],
      "name": "isIntegratedStakeStrategy",
      "outputs": [
        {
          "internalType": "bool",
          "name": "",
          "type": "bool"
        }
      ],
      "stateMutability": "pure",
      "type": "function"
    },
    {
      "inputs": [
        {
          "internalType": "uint256",
          "name": "stake_",
          "type": "uint256"
        }
      ],
      "name": "previewAllocation",
      "outputs": [
        {
          "internalType": "uint256",
          "name": "allocation",
          "type": "uint256"
        }
      ],
      "stateMutability": "view",
      "type": "function"
    },
    {
      "inputs": [
        {
          "internalType": "uint256",
          "name": "allocation_",
          "type": "uint256"
        }
      ],
      "name": "previewExit",
      "outputs": [
        {
          "internalType": "uint256",
          "name": "stake",
          "type": "uint256"
        }
      ],
      "stateMutability": "view",
      "type": "function"
    },
    {
      "inputs": [],
      "name": "proxiableUUID",
      "outputs": [
        {
          "internalType": "bytes32",
          "name": "",
          "type": "bytes32"
        }
      ],
      "stateMutability": "view",
      "type": "function"
    },
    {
      "inputs": [
        {
          "internalType": "uint256",
          "name": "requestId_",
          "type": "uint256"
        },
        {
          "internalType": "uint256",
          "name": "stakeAmount_",
          "type": "uint256"
        },
        {
          "internalType": "address",
          "name": "user_",
          "type": "address"
        }
      ],
      "name": "requestAllocation",
      "outputs": [
        {
          "internalType": "uint64",
          "name": "readyAt",
          "type": "uint64"
        }
      ],
      "stateMutability": "payable",
      "type": "function"
    },
    {
      "inputs": [
        {
          "internalType": "uint256",
          "name": "requestId_",
          "type": "uint256"
        },
        {
          "internalType": "uint256",
          "name": "assetAllocation_",
          "type": "uint256"
        },
        {
          "internalType": "address",
          "name": "user_",
          "type": "address"
        }
      ],
      "name": "requestExit",
      "outputs": [
        {
          "internalType": "uint64",
          "name": "readyAt",
          "type": "uint64"
        }
      ],
      "stateMutability": "nonpayable",
      "type": "function"
    },
    {
      "inputs": [
        {
          "internalType": "uint256",
          "name": "id_",
          "type": "uint256"
        }
      ],
      "name": "requestInfo",
      "outputs": [
        {
          "internalType": "address",
          "name": "user",
          "type": "address"
        },
        {
          "internalType": "bool",
          "name": "isExit",
          "type": "bool"
        },
        {
          "internalType": "uint256",
          "name": "amount",
          "type": "uint256"
        },
        {
          "internalType": "uint64",
          "name": "readyAt",
          "type": "uint64"
        },
        {
          "internalType": "bool",
          "name": "claimable",
          "type": "bool"
        },
        {
          "internalType": "bool",
          "name": "claimed",
          "type": "bool"
        }
      ],
      "stateMutability": "view",
      "type": "function"
    },
    {
      "inputs": [
        {
          "internalType": "uint256[]",
          "name": "ids_",
          "type": "uint256[]"
        }
      ],
      "name": "requestInfoBatch",
      "outputs": [
        {
          "internalType": "address[]",
          "name": "users",
          "type": "address[]"
        },
        {
          "internalType": "bool[]",
          "name": "isExits",
          "type": "bool[]"
        },
        {
          "internalType": "uint256[]",
          "name": "amounts",
          "type": "uint256[]"
        },
        {
          "internalType": "uint64[]",
          "name": "readyAts",
          "type": "uint64[]"
        },
        {
          "internalType": "bool[]",
          "name": "claimables",
          "type": "bool[]"
        },
        {
          "internalType": "bool[]",
          "name": "claimedArr",
          "type": "bool[]"
        }
      ],
      "stateMutability": "view",
      "type": "function"
    },
    {
      "inputs": [],
      "name": "revenueAsset",
      "outputs": [
        {
          "internalType": "address",
          "name": "",
          "type": "address"
        }
      ],
      "stateMutability": "view",
      "type": "function"
    },
    {
      "inputs": [
        {
          "internalType": "uint256",
          "name": "assetPrice_",
          "type": "uint256"
        }
      ],
      "name": "setAssetPrice",
      "outputs": [],
      "stateMutability": "nonpayable",
      "type": "function"
    },
    {
      "inputs": [],
      "name": "stakeCurrency",
      "outputs": [
        {
          "components": [
            {
              "internalType": "address",
              "name": "token",
              "type": "address"
            }
          ],
          "internalType": "struct Currency",
          "name": "",
          "type": "tuple"
        }
      ],
      "stateMutability": "view",
      "type": "function"
    },
    {
      "inputs": [
        {
          "internalType": "uint256",
          "name": "amount_",
          "type": "uint256"
        }
      ],
      "name": "supplyRevenueAsset",
      "outputs": [],
      "stateMutability": "nonpayable",
      "type": "function"
    },
    {
      "inputs": [
        {
          "internalType": "address",
          "name": "newImplementation",
          "type": "address"
        },
        {
          "internalType": "bytes",
          "name": "data",
          "type": "bytes"
        }
      ],
      "name": "upgradeToAndCall",
      "outputs": [],
      "stateMutability": "payable",
      "type": "function"
    },
    {
      "inputs": [
        {
          "internalType": "uint256",
          "name": "amount_",
          "type": "uint256"
        }
      ],
      "name": "withdrawRevenueAsset",
      "outputs": [],
      "stateMutability": "nonpayable",
      "type": "function"
    },
    {
      "inputs": [
        {
          "internalType": "uint256",
          "name": "amount_",
          "type": "uint256"
        }
      ],
      "name": "withdrawStakeAsset",
      "outputs": [],
      "stateMutability": "nonpayable",
      "type": "function"
    },
    {
      "stateMutability": "payable",
      "type": "receive"
    }
  ],
  "bytecode": "0x60a060405230608052348015610013575f5ffd5b5061001c610021565b6100d3565b7ff0c57e16840df040f15088dc2f81fe391c3923bec73e23a9662efc9c229c6a00805468010000000000000000900460ff16156100715760405163f92ee8a960e01b815260040160405180910390fd5b80546001600160401b03908116146100d05780546001600160401b0319166001600160401b0390811782556040519081527fc7f505b2f371ae2175ee4913f4499e1f2633a7b5936321eed1cdaeb6115181d29060200160405180910390a15b50565b60805161259b6100f95f395f8181611779015281816117a2015261198b015261259b5ff3fe60806040526004361061014a575f3560e01c80635b64be4b116100b35780638b14bad31161006d5780638b14bad314610470578063ac819f8014610483578063ad3cb1cc146104a2578063b099adb4146104d2578063d24378eb146104f1578063db3c092514610506575f5ffd5b80635b64be4b1461038c57806366b8d779146103ab5780636cd3af9c146103ca5780637cffd22f146104015780638697b57e14610420578063882b21b414610451575f5ffd5b80632eed8b95116101045780632eed8b95146102af5780634ea35738146102ce5780634f1ef286146102ed5780634f588bf11461030057806352d1902d146103635780635a466bf714610377575f5ffd5b80630404d1821461018a57806306bfcec6146101bc57806311cc17af146101fc578063190cfb0c1461021d578063206545c21461025a578063241634ae14610290575f5ffd5b366101865760405134815233907f88a5966d370b9919b20f3e2c13ff65706f196a4e32cc2c12bf57088f885258749060200160405180910390a2005b5f5ffd5b348015610195575f5ffd5b506101a96101a436600461204d565b610520565b6040519081526020015b60405180910390f35b3480156101c7575f5ffd5b5060408051808201909152600f81526e049537472617465677920312e302e3608c1b60208201525b6040516101b3919061209f565b348015610207575f5ffd5b5061021b610216366004612163565b610636565b005b348015610228575f5ffd5b5060408051602080820183525f909152815180820183526034546001600160a01b0316908190529151918252016101b3565b348015610265575f5ffd5b505f54610278906001600160a01b031681565b6040516001600160a01b0390911681526020016101b3565b34801561029b575f5ffd5b506101a96102aa366004612196565b610711565b3480156102ba575f5ffd5b5061021b6102c9366004612196565b610721565b3480156102d9575f5ffd5b506101a96102e836600461204d565b6107f4565b61021b6102fb3660046121ad565b6108ef565b34801561030b575f5ffd5b5061031f61031a366004612196565b61090e565b604080516001600160a01b0390971687529415156020870152938501929092526001600160401b0316606084015215156080830152151560a082015260c0016101b3565b34801561036e575f5ffd5b506101a9610a02565b348015610382575f5ffd5b506101a960375481565b348015610397575f5ffd5b5061021b6103a6366004612196565b610a1d565b3480156103b6575f5ffd5b50603554610278906001600160a01b031681565b3480156103d5575f5ffd5b506103e96103e4366004612252565b610b08565b6040516001600160401b0390911681526020016101b3565b34801561040c575f5ffd5b506101a961041b366004612196565b610c5e565b34801561042b575f5ffd5b5061043f61043a36600461227d565b610c83565b6040516101b396959493929190612360565b34801561045c575f5ffd5b5061021b61046b366004612196565b611023565b6103e961047e366004612252565b611118565b34801561048e575f5ffd5b5061021b61049d366004612196565b6111c5565b3480156104ad575f5ffd5b506101ef604051806040016040528060058152602001640352e302e360dc1b81525081565b3480156104dd575f5ffd5b5061021b6104ec366004612414565b611315565b3480156104fc575f5ffd5b506101a960365481565b348015610511575f5ffd5b506040515f81526020016101b3565b5f80546001600160a01b0316331461054b5760405163a34ad82d60e01b815260040160405180910390fd5b6001831461056c5760405163444bc55560e11b815260040160405180910390fd5b5f84845f81811061057f5761057f612461565b9050602002013590505f61059482600161145e565b905061059f826115b2565b6105ac8160600151610711565b92508260375f8282546105bf9190612489565b909155505060408051602081019091526034546001600160a01b031681526105e89085856115d2565b604080516001600160a01b03861681526020810185905283917f775c5d0ff18b9a78180de7c883eb3a43c89675fbb00ec6a999367d6229aec42091015b60405180910390a250509392505050565b5f5460405163282f8ac560e11b81523360048201526001600160a01b039091169063505f158a90602401602060405180830381865afa15801561067b573d5f5f3e3d5ffd5b505050506040513d601f19601f8201168201806040525081019061069f919061249c565b6106bc576040516308e8994960e11b815260040160405180910390fd5b6106c78382846115d2565b82516040518381526001600160a01b0380841692169033907f1fcefb8a55f55890575d7a3972108526a056231e1fb145f645053b4b2f7d973e9060200160405180910390a4505050565b5f61071b826116ed565b92915050565b5f5460405163282f8ac560e11b81523360048201526001600160a01b039091169063505f158a90602401602060405180830381865afa158015610766573d5f5f3e3d5ffd5b505050506040513d601f19601f8201168201806040525081019061078a919061249c565b6107a7576040516308e8994960e11b815260040160405180910390fd5b60368190556035546040518281526001600160a01b039091169033907ffa39106d92827c4e21902548f9ed84c2337fb83a04c99dc92c5705f2e3208596906020015b60405180910390a350565b5f80546001600160a01b0316331461081f5760405163a34ad82d60e01b815260040160405180910390fd5b600183146108405760405163444bc55560e11b815260040160405180910390fd5b5f84845f81811061085357610853612461565b9050602002013590505f610867825f61145e565b9050610872826115b2565b61087f8160600151610c5e565b92508260375f82825461089291906124bb565b90915550506035546108ae906001600160a01b0316858561170f565b604080516001600160a01b03861681526020810185905283917fee89b274de26d8ff2f7a29873f93a4aeb474c4aba006584d53c8a39e71f41d2a9101610625565b6108f761176e565b61090082611814565b61090a82826118c4565b5050565b5f818152600160208181526040808420815160a0810190925280546001600160a01b03811683528594859485948594859485949293919291840191600160a01b90910460ff1690811115610964576109646124ce565b6001811115610975576109756124ce565b81528154600160a81b900460ff161515602082015260018083015460408301526002909201546001600160401b031660609091015281519850909150816020015160018111156109c7576109c76124ce565b149550806060015194508060800151935080604001519150811580156109f65750836001600160401b03164210155b92505091939550919395565b5f610a0b611980565b505f5160206125465f395f51905f5290565b5f5460405163282f8ac560e11b81523360048201526001600160a01b039091169063505f158a90602401602060405180830381865afa158015610a62573d5f5f3e3d5ffd5b505050506040513d601f19601f82011682018060405250810190610a86919061249c565b610aa3576040516308e8994960e11b815260040160405180910390fd5b60408051602081019091526034546001600160a01b03168152610ac79033836115d2565b6034546040518281526001600160a01b039091169033907f11643319fd9ed0ae20b0070e920a6acedccbbcb4bb527f1f2da66475bcd17756906020016107e9565b5f80546001600160a01b03163314610b335760405163a34ad82d60e01b815260040160405180910390fd5b610b3c836116ed565b60408051602081019091526034546001600160a01b03168152610b5f90306119c9565b1015610b7e576040516338d90e0560e21b815260040160405180910390fd5b505f610b8c84838584611a64565b6035545f546040516323b872dd60e01b81526001600160a01b039182166004820152306024820152604481018690529116906323b872dd906064016020604051808303815f875af1158015610be3573d5f5f3e3d5ffd5b505050506040513d601f19601f82011682018060405250810190610c07919061249c565b50604080518481526001600160401b03831660208201526001600160a01b0384169186917f5e52dbcef55b31a0328228c5c73cab3f6344ac1be07abea07fea63d459020ef991015b60405180910390a39392505050565b5f610c6882611bbe565b905081610c74826116ed565b1015610c7e576001015b919050565b6060808080808086806001600160401b03811115610ca357610ca36120d4565b604051908082528060200260200182016040528015610ccc578160200160208202803683370190505b509650806001600160401b03811115610ce757610ce76120d4565b604051908082528060200260200182016040528015610d10578160200160208202803683370190505b509550806001600160401b03811115610d2b57610d2b6120d4565b604051908082528060200260200182016040528015610d54578160200160208202803683370190505b509450806001600160401b03811115610d6f57610d6f6120d4565b604051908082528060200260200182016040528015610d98578160200160208202803683370190505b509350806001600160401b03811115610db357610db36120d4565b604051908082528060200260200182016040528015610ddc578160200160208202803683370190505b509250806001600160401b03811115610df757610df76120d4565b604051908082528060200260200182016040528015610e20578160200160208202803683370190505b5091505f5b81811015611017575f60015f8c8c85818110610e4357610e43612461565b602090810292909201358352508181019290925260409081015f20815160a0810190925280546001600160a01b03811683529192909190830190600160a01b900460ff166001811115610e9857610e986124ce565b6001811115610ea957610ea96124ce565b81528154600160a81b900460ff1615156020820152600182015460408201526002909101546001600160401b031660609091015280518a51919250908a9084908110610ef757610ef7612461565b6001600160a01b0390921660209283029190910190910152600181602001516001811115610f2757610f276124ce565b14888381518110610f3a57610f3a612461565b6020026020010190151590811515815250508060600151878381518110610f6357610f63612461565b6020026020010181815250508060800151868381518110610f8657610f86612461565b60200260200101906001600160401b031690816001600160401b0316815250508060400151848381518110610fbd57610fbd612461565b911515602092830291909101909101526040810151158015610fec575080608001516001600160401b03164210155b858381518110610ffe57610ffe612461565b9115156020928302919091019091015250600101610e25565b50509295509295509295565b5f5460405163282f8ac560e11b81523360048201526001600160a01b039091169063505f158a90602401602060405180830381865afa158015611068573d5f5f3e3d5ffd5b505050506040513d601f19601f8201168201806040525081019061108c919061249c565b6110a9576040516308e8994960e11b815260040160405180910390fd5b8060375f8282546110ba9190612489565b90915550506035546110d7906001600160a01b0316333084611bd5565b6035546040518281526001600160a01b039091169033907f086aa0a786c3fbac092998f38ecd457fce567fac19127ebea2f68cb6a8f42f44906020016107e9565b5f80546001600160a01b031633146111435760405163a34ad82d60e01b815260040160405180910390fd5b5f5460408051602081019091526034546001600160a01b03908116825261116c92163086611c0e565b505f61117a84838584611c89565b604080518481526001600160401b03831660208201526001600160a01b0384169186917f0e546c36aff23c2100bc146420b6177b086e0118af51441502f5269c8fde4d0b9101610c4f565b5f5460405163282f8ac560e11b81523360048201526001600160a01b039091169063505f158a90602401602060405180830381865afa15801561120a573d5f5f3e3d5ffd5b505050506040513d601f19601f8201168201806040525081019061122e919061249c565b61124b576040516308e8994960e11b815260040160405180910390fd5b8060375f82825461125c91906124bb565b909155505060355460405163a9059cbb60e01b8152336004820152602481018390526001600160a01b039091169063a9059cbb906044016020604051808303815f875af11580156112af573d5f5f3e3d5ffd5b505050506040513d601f19601f820116820180604052508101906112d3919061249c565b506035546040518281526001600160a01b039091169033907f31f3ee86d076c21fa216e9b31c682e7e7df0514ab3f1852bac039aa4dc9baec9906020016107e9565b7ff0c57e16840df040f15088dc2f81fe391c3923bec73e23a9662efc9c229c6a008054600160401b810460ff1615906001600160401b03165f811580156113595750825b90505f826001600160401b031660011480156113745750303b155b905081158015611382575080155b156113a05760405163f92ee8a960e01b815260040160405180910390fd5b845467ffffffffffffffff1916600117855583156113ca57845460ff60401b1916600160401b1785555b6113d389611d0c565b8751603480546001600160a01b03199081166001600160a01b03938416179091556035805490911691891691909117905560368690555f603755831561145357845460ff60401b19168555604051600181527fc7f505b2f371ae2175ee4913f4499e1f2633a7b5936321eed1cdaeb6115181d29060200160405180910390a15b505050505050505050565b6040805160a0810182525f808252602082018190529181018290526060810182905260808101919091525f83815260016020818152604092839020835160a0810190945280546001600160a01b0381168552909291840191600160a01b90910460ff16908111156114d1576114d16124ce565b60018111156114e2576114e26124ce565b81528154600160a81b900460ff161515602082015260018201546040808301919091526002909201546001600160401b03166060909101528101519091501561153e57604051630c8d9eab60e31b815260040160405180910390fd5b816001811115611550576115506124ce565b81602001516001811115611566576115666124ce565b14611584576040516335a08a0760e01b815260040160405180910390fd5b80608001516001600160401b031642101561071b57604051634a44555360e11b815260040160405180910390fd5b5f908152600160205260409020805460ff60a81b1916600160a81b179055565b82516001600160a01b03166116d257804710156116365760405162461bcd60e51b815260206004820152601d60248201527f5472616e7366657220696e73756666696369656e742062616c616e636500000060448201526064015b60405180910390fd5b5f826001600160a01b0316826040515f6040518083038185875af1925050503d805f811461167f576040519150601f19603f3d011682016040523d82523d5f602084013e611684565b606091505b50509050806116cc5760405162461bcd60e51b8152602060048201526014602482015273151c985b9cd9995c8818d85b1b0819985a5b195960621b604482015260640161162d565b50505050565b82516116e8906001600160a01b0316838361170f565b505050565b5f670de0b6b3a76400006036548361170591906124e2565b61071b91906124f9565b6040516001600160a01b038381166024830152604482018390526116e891859182169063a9059cbb906064015b604051602081830303815290604052915060e01b6020820180516001600160e01b038381831617835250505050611d64565b306001600160a01b037f00000000000000000000000000000000000000000000000000000000000000001614806117f457507f00000000000000000000000000000000000000000000000000000000000000006001600160a01b03166117e85f5160206125465f395f51905f52546001600160a01b031690565b6001600160a01b031614155b156118125760405163703e46dd60e11b815260040160405180910390fd5b565b5f54604051633f4916d360e21b81523360048201526001600160a01b039091169063fd245b4c90602401602060405180830381865afa158015611859573d5f5f3e3d5ffd5b505050506040513d601f19601f8201168201806040525081019061187d919061249c565b61189a57604051630f56143960e31b815260040160405180910390fd5b6001600160a01b0381166118c15760405163d92e233d60e01b815260040160405180910390fd5b50565b816001600160a01b03166352d1902d6040518163ffffffff1660e01b8152600401602060405180830381865afa92505050801561191e575060408051601f3d908101601f1916820190925261191b91810190612518565b60015b61194657604051634c9c8ce360e01b81526001600160a01b038316600482015260240161162d565b5f5160206125465f395f51905f52811461197657604051632a87526960e21b81526004810182905260240161162d565b6116e88383611dd0565b306001600160a01b037f000000000000000000000000000000000000000000000000000000000000000016146118125760405163703e46dd60e11b815260040160405180910390fd5b5f6119dc83516001600160a01b03161590565b156119f257506001600160a01b0381163161071b565b82516040516370a0823160e01b81526001600160a01b038481166004830152909116906370a0823190602401602060405180830381865afa158015611a39573d5f5f3e3d5ffd5b505050506040513d601f19601f82011682018060405250810190611a5d9190612518565b905061071b565b6001600160a01b038316611a8b5760405163e0830f6b60e01b815260040160405180910390fd5b5f8481526001602052604090205484906001600160a01b031615611ac5576040516355347b4f60e11b815260040161162d91815260200190565b506040805160a081019091526001600160a01b03841681526020810160015b81525f602080830182905260408084018790526001600160401b038616606090940193909352878252600180825292909120835181546001600160a01b039091166001600160a01b0319821681178355928501519193919284926001600160a81b03199092161790600160a01b908490811115611b6357611b636124ce565b02179055506040820151815460ff60a81b1916600160a81b91151591909102178155606082015160018201556080909101516002909101805467ffffffffffffffff19166001600160401b0390921691909117905550505050565b6036545f90611705670de0b6b3a7640000846124e2565b6040516001600160a01b0384811660248301528381166044830152606482018390526116cc9186918216906323b872dd9060840161173c565b83516001600160a01b0316611c725780341015611c6d5760405162461bcd60e51b815260206004820152601960248201527f496e73756666696369656e74206e61746976652076616c756500000000000000604482015260640161162d565b6116cc565b83516116cc906001600160a01b0316848484611bd5565b6001600160a01b038316611cb05760405163e0830f6b60e01b815260040160405180910390fd5b5f8481526001602052604090205484906001600160a01b031615611cea576040516355347b4f60e11b815260040161162d91815260200190565b506040805160a081019091526001600160a01b0384168152602081015f611ae4565b611d14611e25565b611d1c611e6e565b6001600160a01b038116611d435760405163d92e233d60e01b815260040160405180910390fd5b5f80546001600160a01b0319166001600160a01b0392909216919091179055565b5f5f60205f8451602086015f885af180611d83576040513d5f823e3d81fd5b50505f513d91508115611d9a578060011415611da7565b6001600160a01b0384163b155b156116cc57604051635274afe760e01b81526001600160a01b038516600482015260240161162d565b611dd982611e76565b6040516001600160a01b038316907fbc7cd75a20ee27fd9adebab32041f755214dbc6bffa90cc0225b39da2e5c2d3b905f90a2805115611e1d576116e88282611ed9565b61090a611f4b565b7ff0c57e16840df040f15088dc2f81fe391c3923bec73e23a9662efc9c229c6a0054600160401b900460ff1661181257604051631afcd79f60e31b815260040160405180910390fd5b611812611e25565b806001600160a01b03163b5f03611eab57604051634c9c8ce360e01b81526001600160a01b038216600482015260240161162d565b5f5160206125465f395f51905f5280546001600160a01b0319166001600160a01b0392909216919091179055565b60605f5f846001600160a01b031684604051611ef5919061252f565b5f60405180830381855af49150503d805f8114611f2d576040519150601f19603f3d011682016040523d82523d5f602084013e611f32565b606091505b5091509150611f42858383611f6a565b95945050505050565b34156118125760405163b398979f60e01b815260040160405180910390fd5b606082611f7f57611f7a82611fc9565b611fc2565b8151158015611f9657506001600160a01b0384163b155b15611fbf57604051639996b31560e01b81526001600160a01b038516600482015260240161162d565b50805b9392505050565b805115611fd95780518082602001fd5b60405163d6bda27560e01b815260040160405180910390fd5b5f5f83601f840112612002575f5ffd5b5081356001600160401b03811115612018575f5ffd5b6020830191508360208260051b8501011115612032575f5ffd5b9250929050565b6001600160a01b03811681146118c1575f5ffd5b5f5f5f6040848603121561205f575f5ffd5b83356001600160401b03811115612074575f5ffd5b61208086828701611ff2565b909450925050602084013561209481612039565b809150509250925092565b602081525f82518060208401528060208501604085015e5f604082850101526040601f19601f83011684010191505092915050565b634e487b7160e01b5f52604160045260245ffd5b604051601f8201601f191681016001600160401b0381118282101715612110576121106120d4565b604052919050565b5f60208284031215612128575f5ffd5b604051602081016001600160401b038111828210171561214a5761214a6120d4565b604052905080823561215b81612039565b905292915050565b5f5f5f60608486031215612175575f5ffd5b61217f8585612118565b925060208401359150604084013561209481612039565b5f602082840312156121a6575f5ffd5b5035919050565b5f5f604083850312156121be575f5ffd5b82356121c981612039565b915060208301356001600160401b038111156121e3575f5ffd5b8301601f810185136121f3575f5ffd5b80356001600160401b0381111561220c5761220c6120d4565b61221f601f8201601f19166020016120e8565b818152866020838501011115612233575f5ffd5b816020840160208301375f602083830101528093505050509250929050565b5f5f5f60608486031215612264575f5ffd5b8335925060208401359150604084013561209481612039565b5f5f6020838503121561228e575f5ffd5b82356001600160401b038111156122a3575f5ffd5b6122af85828601611ff2565b90969095509350505050565b5f8151808452602084019350602083015f5b828110156122ed57815115158652602095860195909101906001016122cd565b5093949350505050565b5f8151808452602084019350602083015f5b828110156122ed578151865260209586019590910190600101612309565b5f8151808452602084019350602083015f5b828110156122ed5781516001600160401b0316865260209586019590910190600101612339565b60c080825287519082018190525f90602089019060e0840190835b818110156123a25783516001600160a01b031683526020938401939092019160010161237b565b505083810360208501526123b6818a6122bb565b91505082810360408401526123cb81886122f7565b905082810360608401526123df8187612327565b905082810360808401526123f381866122bb565b905082810360a084015261240781856122bb565b9998505050505050505050565b5f5f5f5f60808587031215612427575f5ffd5b843561243281612039565b93506124418660208701612118565b9250604085013561245181612039565b9396929550929360600135925050565b634e487b7160e01b5f52603260045260245ffd5b634e487b7160e01b5f52601160045260245ffd5b8082018082111561071b5761071b612475565b5f602082840312156124ac575f5ffd5b81518015158114611fc2575f5ffd5b8181038181111561071b5761071b612475565b634e487b7160e01b5f52602160045260245ffd5b808202811582820484141761071b5761071b612475565b5f8261251357634e487b7160e01b5f52601260045260245ffd5b500490565b5f60208284031215612528575f5ffd5b5051919050565b5f82518060208501845e5f92019182525091905056fe360894a13ba1a3210667c828492db98dca3e2076cc3735a920a3ca505d382bbca26469706673582212200df973f1e7e7e52f302cb2dfb1c0f8bcf813a13d6b0f2a42a351360cce35480264736f6c634300081b0033",
  "linkReferences": {},
  "deployedLinkReferences": {}
}